:020000040800F2
:1000000018040024E1020008CD140008711400084F
:10001000C91400084D030008751600080000000010
:10002000000000000000000000000000D3140008E1
:100030005103000800000000D1140008D514000886
:10004000FB020008FB020008FB020008FB0200089C
:10005000FB020008FB020008FB020008FB0200088C
:10006000FB020008FB020008FB020008FB0200087C
:10007000FB020008FB020008FB020008FB0200086C
:10008000FB020008FB020008FB020008FB0200085C
:10009000FB020008FB020008FB020008FB0200084C
:1000A000FB020008FB020008FB020008FB0200083C
:1000B000FB020008FB020008FB020008FB0200082C
:1000C000FB020008FB020008FB020008FB0200081C
:1000D000FB020008FB020008FB020008FB0200080C
:1000E000FB020008FB02000800000000FB02000801
:1000F000FB020008FB020008FB020008FB020008EC
:10010000FB020008FB020008FB020008FB020008DB
:10011000FB020008FB020008FB020008FB020008CB
:10012000FB020008FB020008FB020008FB020008BB
:10013000FB020008FB020008FB020008FB020008AB
:1001400000000000000000000000000000000000AF
:10015000FB020008FB020008FB020008FB0200088B
:10016000FB020008FB020008FB020008FB0200087B
:10017000FB020008FB020008FB0200080000000070
:10018000FB020008FB020008FB020008FB0200085B
:10019000FB020008FB020008FB020008FB0200084B
:1001A000FB020008FB020008FB0200080000000040
:1001B000FB020008FB020008FB020008FB0200082B
:1001C000FB020008FB020008000000000000000025
:1001D0000000000000000000FB020008000000001A
:1001E000000000000000000000000000000000000F
:1001F0000000000000000000FB020008FB020008F5
:10020000FB020008FB02000800000000FB020008DF
:10021000FB020008FB020008FB020008FB020008CA
:10022000FB02000800000000FB02000800000000C4
:10023000FB020008FB02000800000000FB020008AF
:10024000FB020008FB020008FB020008FB0200089A
:10025000FB020008FB020008FB020008FB0200088A
:10026000FB020008FB020008FB020008FB0200087A
:10027000FB020008FB020008FB020008000000006F
:10028000FB020008FB020008FB020008FB0200085A
:1002900000000000FB020008FB0200080000000054
:1002A00000000000FB020008FB020008FB0200083F
:1002B000FB020008FB020008FB020008FB0200082A
:1002C000FB020008FB020008FB020008DFF80CD06C
:1002D00000F02AF800480047D1160008180400244E
:1002E0000648804706480047FEE7FEE7FEE7FEE7D0
:1002F000FEE7FEE7FEE7FEE7FEE7FEE795150008EE
:10030000CD020008D2B201E000F8012B491EFBD259
:1003100070470022F6E710B513460A460446194610
:10032000FFF7F0FF204610BD064C074D06E0E068E1
:1003300040F0010394E8070098471034AC42F6D32C
:10034000FFF7C8FF301800085018000800BFFEE78C
:10035000704772B600BFFEE770B5044600F018F9AA
:1003600006462546681C10B104480078054400BFC5
:1003700000F00EF9801BA842FAD370BD08000024DB
:10038000F8B502460B4600216D4DD2E001278F40A3
:100390001E6806EA0704002C72D01E7906F00306D8
:1003A000012E04D01E7906F00306022E13D19068A8
:1003B0004F000326BE40B0434F00DE68BE403043CE
:1003C0009060506801268E40B0431E79C6F3001637
:1003D0008E40304350601E7906F00306032E09D08C
:1003E000D0684F000326BE40B0434F009E68BE4019
:1003F0003043D0601E7906F00306022E13D1CF08D9
:1004000002F1200656F827004E07F70E0F26BE40D1
:10041000B0434F07FF0E1E69BE403043CF0802F1C4
:10042000200646F8270010684F000326BE40B04360
:100430001E7906F003064F00BE40304310605E6830
:1004400006F44036002E73D000BF3E4E366846F0AC
:1004500002063C4F3E603E46366806F002060096B5
:1004600000BF00BF384E8F0856F827008E07370FA1
:100470000F26BE40B043354EB24202D1002629E0DD
:1004800056E0334EB24201D1012623E0314EB24252
:1004900001D102261EE0304EB24201D1032619E0FE
:1004A0002E4EB24201D1042614E02D4EB24201D1AB
:1004B00005260FE02B4EB24201D106260AE02A4E55
:1004C000B24201D1072605E0284EB24201D10926E9
:1004D00000E00A268F073F0FBE4030431A4E8F08B8
:1004E00046F827004FF0B0463068A0435E6806F437
:1004F000801606B120434FF0B04630607068A043CC
:100500005E6806F4001606B120434FF0B0467060F6
:100510006868A0435E6806F4003606B12043686050
:100520002868A0435E6806F4803606B12043286040
:10053000491C1E68CE40002E7FF428AFF8BD000095
:1005400080000058F4440258080400580000025883
:100550000004025800080258000C0258001002580B
:100560000014025800180258001C025800240258B7
:1005700010B5426921EA020302EA010443EA044396
:10058000836110BD0AB1816101E00B048361704792
:10059000014800687047000000000024034800681C
:1005A00003490978084401490860704700000024A5
:1005B0000800002410B5032000F0A8F800F07AFA33
:1005C00010490968C1F303210F4A515C01F01F0172
:1005D00020FA01F40B48006800F00F001146085C97
:1005E00000F01F0024FA00F0084908600848046081
:1005F0000F2000F00FF808B1012010BD00F036F810
:100600000020FAE7184402582018000810000024BF
:100610000C00002470B504461148007808B9012088
:1006200070BD0F4800784FF47A71B1FBF0F00D49BE
:100630000968B1FBF0F5284600F000FF08B1012081
:10064000EEE7102C07D200222146501E00F020F8C1
:100650000548046001E00120E2E70020E0E7000037
:10066000080000240C0000240400002408B500BF8A
:100670000648006840F00200044908600846006827
:1006800000F00200009000BF00BF08BDF444025813
:100690002DE9F05F80460D46164600F0EDFF074657
:1006A00039462A46334601F00700C0F1070ABAF17D
:1006B000040F02D94FF0040A01E0C0F1070AD14645
:1006C00000F1040ABAF1070F02D24FF0000A01E06C
:1006D000A0F1030AD4464FF0010A0AFA09FAAAF176
:1006E000010A0AEA020A0AFA0CFA4FF0010B0BFAA5
:1006F0000CFBABF1010B0BEA030B4AEA0B0421469E
:10070000404600F0C1FFBDE8F09F000000BF00F0D0
:100710000702064B19684FF6FF031940044B0B43C1
:1007200043EA0221014B196000BF70470CED00E065
:100730000000FA0570B5044615480068C0F3800053
:1007400048B91348006800F00700A04201D001201A
:1007500070BD0020FCE70E48006820F00700204331
:100760000B490860FFF714FF054607E0FFF710FF8D
:10077000401BB0F57A7F01D90120E9E70448083829
:100780000068C0F340300028F0D00020E0E700000F
:100790000C4802582DE9F04104460D4614B90120D9
:1007A000BDE8F081BD48006800F00F00A8420ED2FD
:1007B000BA48006820F00F002843B849086008468E
:1007C000006800F00F00A84201D00120E8E720787F
:1007D00000F0040004280ED1B1492069096801F035
:1007E0007001884207D9AE48006820F07000216986
:1007F0000843AB490860207800F00800082811D1B0
:10080000A749091D6069096801F07001884209D98A
:10081000A348001D006820F0700061690843A049EA
:10082000091D0860207800F01000102811D19C49A3
:10083000091DA069096801F4E061884209D9984856
:10084000001D006820F4E060A16908439449091D77
:100850000860207800F02000202811D1904908314C
:10086000E069096801F07001884209D98C480830B4
:10087000006820F07000E169084389490831086088
:10088000207800F0020002280ED18549E06809684E
:1008900001F00F01884207D98148006820F00F005D
:1008A000E16808437E490860207800F001000028D4
:1008B00050D07B48006820F47060A16808437849F4
:1008C00008606068022807D1754818380068C0F3CE
:1008D0004040F8B9012063E76068032807D17048F9
:1008E00018380068C0F34060A0B9012058E760687C
:1008F000012807D16A4818380068C0F3002048B9B9
:1009000001204DE7664818380068C0F3800008B938
:10091000012045E762480838006820F00700616858
:1009200008435F4908390860FFF732FE064608E0D1
:10093000FFF72EFE801B41F28831884201D9032047
:100940002EE757480838006800F038006168B0EBBF
:10095000C10FEDD1207800F0020002280ED15049DD
:10096000E068096801F00F01884207D24C4800682E
:1009700020F00F00E16808434949086047480068D3
:1009800000F00F00A8420ED94448006820F00F0084
:100990002843424908600846006800F00F00A8425A
:1009A00001D00120FCE6207800F0040004280ED1DC
:1009B0003B492069096801F07001884207D2384834
:1009C000006820F0700021690843354908602078EC
:1009D00000F00800082811D13149091D6069096833
:1009E00001F07001884209D22D48001D006820F0F6
:1009F0007000616908432A49091D0860207800F0E9
:100A00001000102811D12649091DA069096801F4B8
:100A1000E061884209D22248001D006820F4E060AD
:100A2000A16908431E49091D0860207800F02000D4
:100A3000202811D11A490831E069096801F07001D4
:100A4000884209D216480830006820F07000E16939
:100A5000084313490831086000F02CF81049096870
:100A6000C1F303210F4A515C01F01F0120FA01F785
:100A70000B48006800F00F001146085C00F01F00F2
:100A800027FA00F00849086008480760084800682D
:100A9000FFF7C0FD8046404682E60000002000527D
:100AA0001844025820180008100000240C000024EC
:100AB00004000024F0B5824E366806F0380636B1E0
:100AC000082E15D0102E15D0182E7DD114E07C4E96
:100AD000103E3668C6F3401646B1794E103E366871
:100AE000C6F3C107774E26FA07F000E07548E5E047
:100AF0007548E3E07548E1E0714E1836366806F057
:100B000003046F4E18363668C6F305116C4E1C365A
:100B1000366806F001056A4E24363668C6F3CC0600
:100B200016FB05F601EE106AB8EE410A002971D0F5
:100B300024B1012C50D0022C6DD16DE0604E103EDE
:100B40003668C6F340163EB35D4E103E3668C6F3B7
:100B5000C1075C4E26FA07F301EE103AF8EE411A8F
:100B600001EE101AB8EE411A81EE812A9FED581A53
:100B7000C0EE011A524E20363668C6F3080601EE62
:100B8000106AB8EE411A31EE811AF7EE001A31EE12
:100B9000211A62EE010A1EE001EE101AB8EE411AA7
:100BA000DFED4C1A81EE812A9FED491AC0EE011A41
:100BB000434E20363668C6F3080601EE106AB8EEDA
:100BC000411A31EE811A00E076E0F7EE001A31EEBC
:100BD000211A62EE010A5BE001EE101AB8EE411A2A
:100BE0009FED3D2AC2EE011A9FED391A80EE012ACF
:100BF000334E20363668C6F3080601EE106AB8EEAA
:100C0000411A32EE011AB7EE002A31EE021A61EEF5
:100C1000810A3DE04EE01DE001EE101AB8EE411AE7
:100C2000DFED2E1A81EE812A9FED291AC0EE011AFE
:100C3000234E20363668C6F3080601EE106AB8EE79
:100C4000411A31EE811AF7EE001A31EE211A62EEE6
:100C5000010A1DE001EE101AB8EE411A9FED1E2A9E
:100C6000C2EE011A9FED1A1A80EE012A144E2036A8
:100C70003668C6F3080601EE106AB8EE411A32EE85
:100C8000011AB7EE002A31EE021A61EE810A00BFA6
:100C900000BF0B4E20363668C6F34626721C01EEA6
:100CA000102AB8EE411AC0EE811ABCEEE11A11EE1C
:100CB000100A00E0002001E0034800BF00BFF0BDC3
:100CC000104402580090D00300093D0040787D0197
:100CD000000000460024744C0024744A20BCBE4B23
:100CE0002DE9F047044614B90120BDE8F0872078CB
:100CF00000F00100002870D0F948006800F03808C2
:100D0000F7481830D0F80090B8F1100F06D0B8F1BD
:100D1000180F0FD109F0030002280BD1F04810384A
:100D20000068C0F3404000286AD06068002867D19E
:100D30000120DAE700BF6068B0F5803F08D1E848DD
:100D40001038006840F48030E549103908602EE022
:100D5000606868B9E2481038006820F48030E049E3
:100D6000103908600846006820F4802008601EE002
:100D70006068B0F5A02F0DD1D9481038006840F454
:100D80008020D749103908600846006840F4803058
:100D900008600CE0D2481038006820F48030D04958
:100DA000103908600846006820F48020086000BF01
:100DB000606898B1FFF7ECFB054606E0FFF7E8FB3B
:100DC000401B642801D903208FE7C548103800680C
:100DD000C0F340400028F1D012E012E0FFF7D8FB4A
:100DE000054606E0FFF7D4FB401B642801D9032029
:100DF0007BE7BB4810380068C0F340400028F1D1C1
:100E000000BF207800F00200022879D1B4480068C1
:100E100000F03808B2481830D0F80090B8F1000F50
:100E200005D0B8F1180F35D109F0030088BBAC48E4
:100E300010380068C0F3800018B1E06808B90120DC
:100E400053E7A7481038006820F01900E16808430C
:100E5000A34910390860FFF79BFB054606E0FFF742
:100E600097FB401B022801D903203EE79C4810381D
:100E70000068C0F380000028F1D099480C38006861
:100E800020F0FE40217C40EA016095490C39086061
:100E900045E0FFE7E06838B391481038006820F07B
:100EA0001900E16808438E4910390860FFF770FBAC
:100EB000054606E0FFF76CFB401B022801D9032022
:100EC00013E7874810380068C0F380000028F1D08D
:100ED00083480C38006820F0FE40217C40EA016025
:100EE0007F490C3908601AE07D481038006820F00E
:100EF00001007B4910390860FFF74AFB054607E00F
:100F00000EE0FFF745FB401B022801D90320ECE669
:100F1000734810380068C0F380000028F1D100BF8A
:100F2000207800F0100010286FD16D48006800F0A4
:100F300038086B481830D0F80090B8F1080F06D088
:100F4000B8F1180F1CD109F00300012818D164482A
:100F500010380068C0F3002020B1E069802801D07B
:100F60000120C2E600BF5E48001F006820F07C50F0
:100F700094F8201040EA01605949091F086043E0D5
:100F8000E06938B356481038006840F08000544992
:100F900010390860FFF7FCFA054606E0FFF7F8FA9B
:100FA000401B022801D903209FE64D4810380068F5
:100FB000C0F300200028F1D000BF4948001F00689E
:100FC00020F07C5094F8201040EA01604449091F49
:100FD000086019E042481038006820F0800040495D
:100FE00010390860FFF7D4FA054606E0FFF7D0FA9B
:100FF000401B022801D9032077E6394810380068E1
:10100000C0F300200028F1D100BF207800F00800D4
:10101000082836D16069D0B131486430006840F0AA
:1010200001002F4964310860FFF7B2FA054606E077
:10103000FFF7AEFA401B022801D9032055E62848E5
:1010400064300068C0F340000028F1D019E0244863
:101050006430006820F00100214964310860FFF726
:1010600097FA054606E0FFF793FA401B022801D9DC
:1010700003203AE61A4864300068C0F340000028B4
:10108000F1D1207800F02000202838D1A069D0B11B
:1010900013481038006840F4805011491039086036
:1010A000FFF776FA054606E0FFF772FA401B0228C2
:1010B00001D9032019E60A4810380068C0F340300F
:1010C0000028F1D01BE006481038006820F480505A
:1010D000034910390860FFF75BFA054609E0000094
:1010E00010440258FFF754FA401B022801D903208C
:1010F000FBE5D0480068C0F340300028F2D12078EA
:1011000000F0040004287DD1CB48006840F48070D2
:10111000C9490860FFF73CFA054606E0FFF738FAD0
:10112000401B642801D90320DFE5C348006800F4B0
:1011300080700028F2D000BFA068012808D1BD4807
:101140007030006840F00100BA49703108602DE04D
:10115000A06868B9B7487030006820F00100B54950
:10116000703108600846006820F0040008601DE047
:10117000A06805280DD1AF487030006840F0040029
:10118000AC49703108600846006840F00100086012
:101190000CE0A8487030006820F00100A5497031CB
:1011A00008600846006820F00400086000BFA068DE
:1011B000A0B1FFF7EDF9054608E0FFF7E9F9401B9C
:1011C00041F28831884201D903208EE59948703078
:1011D0000068C0F340000028EFD013E0FFF7D8F913
:1011E000054608E0FFF7D4F9401B41F288318842F8
:1011F00001D9032079E58F4870300068C0F34000C2
:101200000028EFD1606A00287DD08A48103000683D
:1012100000F03800182877D0606A022875D1854818
:10122000006820F0807083490860FFF7B1F9054637
:1012300006E0FFF7ADF9401B022801D9032054E571
:101240007C480068C0F340600028F2D100BFD4E9B8
:101250000A1041EA001077492831096840F2F33258
:1012600091430843734928310860208E401EC0F323
:101270000800616B491E4FF47E4202EA4121084397
:10128000218F491ED20102EA014108433C21095D38
:10129000491E120202EA01610843664930310860C2
:1012A00000BF081F006820F00100091F08606148A6
:1012B000343000684FF6F8718843A16C40EAC100F1
:1012C0005C49343108605B482C30006820F00C0029
:1012D000216C084357492C3108600846006820F00B
:1012E0000200616C084353492C31086008460068CD
:1012F00040F4803008600846006840F40030086020
:101300000846006802E092E038E01FE040F48020E8
:1013100008600846006840F0010008604548006821
:1013200040F0807043490860FFF732F9054606E057
:10133000FFF72EF9401B022801D90320D5E43D48D0
:101340000068C0F340600028F2D070E039480068BF
:1013500020F0807037490860FFF71AF9054606E06B
:10136000FFF716F9401B022801D90320BDE43148DC
:101370000068C0F340600028F2D158E02D482830C2
:1013800007682C4830300668606A012821D007F0D1
:101390000301A06A81421CD1C7F30511E06A8842AB
:1013A00017D1C6F30801206B401E814211D1606B3A
:1013B000401EC6F3462188420BD1A06B401EC6F3E7
:1013C0000641884205D1E06B401EC6F306618842A3
:1013D00001D0012089E4174834300068C0F3CC07FD
:1013E000A06CB84223D013482C30006820F00100D4
:1013F00010492C310860FFF7CBF8054600BFFFF716
:10140000C7F8401BFBD00B48343000684FF6F8712A
:101410008843A16C40EAC1000649343108600548A0
:101420002C30006840F0010002492C310860002097
:101430005BE40000004402580048025870B50446BE
:101440002546681EB0F1807F01D301200FE0681EA1
:101450004FF0E02148610F214FF0FF3000F014F908
:1014600000204FF0E021886107200861002070BD56
:1014700000BFFEE700B587B0142102A8FEF749FFC0
:1014800000BF0F48006840F040000D490860084662
:10149000006800F04000019000BF00BF00228021E2
:1014A0000848FFF76FF88020029001200390002089
:1014B0000490059002A90348FEF762FF07B000BD43
:1014C000E04402580018025800BFFEE700BFFEE7E4
:1014D0007047704710B5FFF761F810BD00B59DB0BB
:1014E0004C210AA8FEF715FF202102A8FEF711FFE4
:1014F0000220FFF71FF900BF002001902448006878
:1015000020F44040224908600846006800F440404A
:10151000019000BF00BF00BF1D48006800F40050EC
:10152000B0F5005FF8D101200A9000040B90022072
:101530001390022114910A211591DC2116910121A9
:10154000179102211891199104211A9100211B91E0
:101550001C910AA8FFF7C4FB08B1FEF7FAFE3F2072
:101560000290032003900020049008200590402062
:10157000069007900001089040200990032102A8DE
:10158000FFF708F908B1FEF7E4FE1DB000BD00004A
:10159000184802582F48006840F470002D49086030
:1015A0002D48006800F00F00072806D22A4800687E
:1015B00020F00F00C01D284908602848006840F04E
:1015C00001002649086000202449103108602348A2
:1015D000006823490840214908601F48006800F05E
:1015E0000F00072806D91C48006820F00F00C01D16
:1015F000194908600020194918310860091D086060
:10160000091D086017481549283108601648091D4A
:1016100008601648091D08600020091D086013486D
:10162000091D08600020091D08601048091D086098
:101630000020091D08600948006820F4802007493F
:101640000860002005496031086043F2D200084973
:101650000860704788ED00E0002000520044025806
:101660007FEDF6EA000202020000FF0180020101A4
:101670000040005200BFFEE702480068C0F30220AD
:10168000704700000CED00E010B5002804DB0A07ED
:10169000130E054A135406E00A07140E034A00F01D
:1016A0000F031B1FD45410BD00E400E018ED00E050
:1016B00002E008C8121F08C1002AFAD1704770471B
:1016C000002001E001C1121F002AFBD17047000079
:1016D00000BF5048006800F4003000B139E000BF9E
:1016E00000BF00BFBFF34F8F00BF00BF00BF00BFF0
:1016F00000BF00BFBFF36F8F00BF00BF00BF00205F
:101700004549086000BF00BF00BFBFF34F8F00BF57
:1017100000BF00BF00BF00BF00BFBFF36F8F00BF9F
:1017200000BF00BF3B48006840F400303949086002
:1017300000BF00BF00BFBFF34F8F00BF00BF00BF9F
:1017400000BF00BF00BFBFF36F8F00BF00BF00BF6F
:1017500000BF00BF2F4B1B6803F4803303B148E088
:1017600000232C4C7034236000BF00BF00BFBFF3C8
:101770004F8F00BF00BF00BF231F1868C0F34E315A
:1017800000BFC0F3C90200BF43F6E07303EA411390
:101790004FF0404404EA827423431F4C103423600A
:1017A00000BF00BF131EA2F10102EDD10B1EA1F17B
:1017B0000101E6D100BF00BF00BFBFF34F8F00BFE4
:1017C00000BF00BF134B1B6843F48033114C2360F0
:1017D00000BF00BF00BFBFF34F8F00BF00BF00BFFF
:1017E00000BF00BF00BFBFF36F8F00BF00BF00BFCF
:1017F00000BFFEF7DFFEFFF771FEFFF73BFE07E0DD
:1018000080210648FEF7B4FE4FF47A70FEF7A4FD7F
:10181000F6E7000014ED00E050EF00E00018025879
:101820000000000001020304010203040607080986
:10183000501800080000002414000000B016000832
:10184000641800081400002404040000C0160008F6
:101850000000000010000000010000000090D00314
:041860000090D00321
:04000005080002CD20
:00000001FF
