:020000040800F2
:10000000E8040024E1020008612C0008D72B000856
:100010005D2C000819040008913B00080000000056
:10002000000000000000000000000000E92F0008B0
:100030001D04000800000000652C0008EB2F0008DC
:10004000FB020008FB020008FB020008FB0200089C
:10005000FB020008FB020008FB020008FB0200088C
:10006000FB020008FB020008FB020008FB0200087C
:10007000FB020008FB020008FB020008FB0200086C
:10008000FB020008FB020008FB020008FB0200085C
:10009000FB020008FB020008FB020008FB0200084C
:1000A000FB020008FB020008FB020008FB0200083C
:1000B000FB020008FB020008FB020008FB0200082C
:1000C000FB020008FB020008FB020008FB0200081C
:1000D000FB020008FB020008FB020008FB0200080C
:1000E000FB020008FB02000800000000FB02000801
:1000F000FB020008FB020008FB020008FB020008EC
:10010000FB020008FB020008FB020008FB020008DB
:10011000FB020008FB020008FB020008FB020008CB
:10012000FB020008FB020008FB020008FB020008BB
:10013000FB020008FB020008FB020008FB020008AB
:1001400000000000000000000000000000000000AF
:10015000FB020008FB020008FB020008FB0200088B
:10016000FB020008FB020008FB020008FB0200087B
:10017000FB020008FB020008FB0200080000000070
:10018000FB020008FB020008FB020008FB0200085B
:10019000FB020008FB020008FB020008FB0200084B
:1001A000FB020008FB020008FB0200080000000040
:1001B000FB020008FB020008FB020008FB0200082B
:1001C000FB020008FB020008000000000000000025
:1001D0000000000000000000FB020008000000001A
:1001E000000000000000000000000000000000000F
:1001F0000000000000000000FB020008FB020008F5
:10020000FB020008FB02000800000000FB020008DF
:10021000FB020008FB020008FB020008FB020008CA
:10022000FB02000800000000FB02000800000000C4
:10023000FB020008FB02000800000000FB020008AF
:10024000FB020008FB020008FB020008FB0200089A
:10025000FB020008FB020008FB020008FB0200088A
:10026000FB020008FB020008FB020008FB0200087A
:10027000FB020008FB020008FB020008000000006F
:10028000FB020008FB020008FB020008FB0200085A
:1002900000000000FB020008FB0200080000000054
:1002A00000000000FB020008FB020008FB0200083F
:1002B000FB020008FB020008FB020008FB0200082A
:1002C000FB020008FB020008FB020008DFF80CD06C
:1002D00000F090F800480047793D0008E804002449
:1002E0000648804706480047FEE7FEE7FEE7FEE7D0
:1002F000FEE7FEE7FEE7FEE7FEE7FEE7E93000087F
:10030000CD0200082DE9F05F0546002092469B468D
:1003100088460646814640241BE02846414647461B
:10032000224600F057F853465A46C01A914110D35E
:1003300011461846224600F03EF82D1A67EB0108D8
:100340004F4622460120002100F035F817EB000946
:100350004E41201EA4F10104DFDC484631462A4606
:100360004346BDE8F09FD2B201E000F8012B491EE0
:10037000FBD270470022F6E710B513460A46044642
:100380001946FFF7F0FF204610BD30B50B46014679
:1003900000202022012409E021FA02F59D4205D324
:1003A00003FA02F5491B04FA02F52844151EA2F1CE
:1003B0000102F1DC30BD202A04DB203A00FA02F110
:1003C000002070479140C2F1200320FA03F3194343
:1003D00090407047202A04DB203A21FA02F00021E5
:1003E000704721FA02F3D040C2F120029140084345
:1003F00019467047064C074D06E0E06840F00103DF
:1004000094E8070098471034AC42F6D3FFF762FF38
:10041000783F0008983F000800BFFEE7704772B6BB
:1004200000BFFEE770B5044600F018F90646254601
:10043000681C10B104480078054400BF00F00EF9B4
:10044000801BA842FAD370BD0C000024F8B5024608
:100450000B4600216D4DD2E001278F401E6806EA51
:100460000704002C72D01E7906F00306012E04D07A
:100470001E7906F00306022E13D190684F00032662
:10048000BE40B0434F00DE68BE40304390605068CD
:1004900001268E40B0431E79C6F300168E403043CD
:1004A00050601E7906F00306032E09D0D0684F0075
:1004B0000326BE40B0434F009E68BE403043D0602C
:1004C0001E7906F00306022E13D1CF0802F1200692
:1004D00056F827004E07F70E0F26BE40B0434F07D1
:1004E000FF0E1E69BE403043CF0802F1200646F8D9
:1004F000270010684F000326BE40B0431E7906F067
:1005000003064F00BE40304310605E6806F440367C
:10051000002E73D000BF3E4E366846F002063C4FB8
:100520003E603E46366806F00206009600BF00BFF9
:10053000384E8F0856F827008E07370F0F26BE401B
:10054000B043354EB24202D1002629E056E0334E88
:10055000B24201D1012623E0314EB24201D102263E
:100560001EE0304EB24201D1032619E02E4EB242B7
:1005700001D1042614E02D4EB24201D105260FE030
:100580002B4EB24201D106260AE02A4EB24201D1D8
:10059000072605E0284EB24201D1092600E00A26CE
:1005A0008F073F0FBE4030431A4E8F0846F8270092
:1005B0004FF0B0463068A0435E6806F4801606B17E
:1005C00020434FF0B04630607068A0435E6806F488
:1005D000001606B120434FF0B04670606868A04333
:1005E0005E6806F4003606B1204368602868A043C0
:1005F0005E6806F4803606B120432860491C1E68F8
:10060000CE40002E7FF428AFF8BD000080000058D7
:10061000F44402580804005800000258000402582C
:1006200000080258000C025800100258001402582A
:1006300000180258001C02580024025810B54269E4
:1006400021EA020302EA010443EA0443836110BD84
:100650000AB1816101E00B048361704701480068C1
:10066000704700000400002403480068034909782B
:100670000844014908607047040000240C0000246D
:1006800010B5032000F0A8F801F074FB10490968C8
:10069000C1F303210F4A515C01F01F0120FA01F45C
:1006A0000B48006800F00F001146085C00F01F00C6
:1006B00024FA00F008490860084804600F2000F0A0
:1006C0000FF808B1012010BD00F036F80020FAE75D
:1006D00018440258683F0008140000241000002449
:1006E00070B504461148007808B9012070BD0F4864
:1006F00000784FF47A71B1FBF0F00D490968B1FB55
:10070000F0F5284602F0D6F808B10120EEE7102CEB
:1007100007D200222146501E00F020F80548046050
:1007200001E00120E2E70020E0E700000C000024E7
:10073000100000240800002408B500BF0648006827
:1007400040F00200044908600846006800F002001A
:10075000009000BF00BF08BDF44402582DE9F05FCF
:1007600080460D46164603F025FA074639462A46C6
:10077000334601F00700C0F1070ABAF1040F02D9AD
:100780004FF0040A01E0C0F1070AD14600F1040A63
:10079000BAF1070F02D24FF0000A01E0A0F1030AFC
:1007A000D4464FF0010A0AFA09FAAAF1010A0AEA44
:1007B000020A0AFA0CFA4FF0010B0BFA0CFBABF130
:1007C000010B0BEA030B4AEA0B042146404603F0F7
:1007D000F9F9BDE8F09F000000BF00F00702064BEA
:1007E00019684FF6FF031940044B0B4343EA0221FB
:1007F000014B196000BF70470CED00E00000FA05E6
:1008000070B5044615480068C0F3800048B9134825
:10081000006800F00700A04201D0012070BD002058
:10082000FCE70E48006820F0070020430B490860F1
:10083000FFF714FF054607E0FFF710FF401BB0F578
:100840007A7F01D90120E9E7044808380068C0F33D
:1008500040300028F0D00020E0E700000C480258AB
:100860000348006840F48070014908607047000048
:100870000048025810B501F033FA05490968C1F380
:100880000211044A515C01F01F01C84010BD000074
:1008900020440258683F000870B50146844D2D6819
:1008A00005F00303824D2D68C5F30530804D2D1DE5
:1008B0002D68C5F300147E4D14352D68C5F3CC05A5
:1008C00015FB04F501EE105AB8EE411AF0EE410A9C
:1008D00000286FD023B1012B4ED0022B6BD16BE0DF
:1008E000734D283D2D68C5F340153DB3704D283D2F
:1008F0002D68C5F3C1066F4D25FA06F201EE102AE8
:10090000F8EE411A01EE100AB8EE411A81EE812A82
:100910009FED691AC0EE811A654D10352D68C5F33B
:10092000080501EE105AB8EE411A31EE811AF7EEC1
:10093000001A31EE211A22EE010A1CE001EE100A23
:10094000B8EE411ADFED5D1A81EE812A9FED5A1A49
:10095000C0EE811A564D10352D68C5F3080501EE1D
:10096000105AB8EE411A31EE811AF7EE001A31EE44
:10097000211A22EE010A5BE001EE100AB8EE411ADC
:10098000DFED4F1A81EE812A9FED4B1AC0EE811ADE
:10099000474D10352D68C5F3080501EE105AB8EE25
:1009A000411A31EE811AF7EE001A31EE211A22EEC9
:1009B000010A3DE077E01DE001EE100AB8EE411AB1
:1009C0009FED402AC2EE011A9FED3B1A80EE812A6C
:1009D000374D10352D68C5F3080501EE105AB8EEF5
:1009E000411A32EE011AB7EE002A31EE021A21EE58
:1009F000810A1DE001EE100AB8EE411ADFED301A4F
:100A000081EE812A9FED2C1AC0EE811A284D1035F7
:100A10002D68C5F3080501EE105AB8EE411A31EE03
:100A2000811AF7EE001A31EE211A22EE010A00BFF8
:100A300000BF1F4D10352D68C5F3462501EE105A35
:100A4000B8EE411AF7EE001A31EE211AC0EE011A83
:100A5000BCEEE11A81ED001A154D10352D68C5F375
:100A6000064501EE105AB8EE411AF7EE001A31EEC3
:100A7000211AC0EE011ABCEEE11A81ED011A0C4DEB
:100A800010352D68C5F3066501EE105AB8EE411A0F
:100A9000F7EE001A31EE211AC0EE011ABCEEE11A8F
:100AA00081ED021A03E000250D604D608D6070BD80
:100AB000284402580090D003000000460024744CE3
:100AC0000024744A20BCBE4B70B50146844D2D688D
:100AD00005F00303824D2D68C5F30550804D2D1D93
:100AE0002D68C5F300247E4D1C352D68C5F3CC055B
:100AF00015FB04F501EE105AB8EE411AF0EE410A6A
:100B000000286FD023B1012B4ED0022B6BD16BE0AC
:100B1000734D283D2D68C5F340153DB3704D283DFC
:100B20002D68C5F3C1066F4D25FA06F201EE102AB5
:100B3000F8EE411A01EE100AB8EE411A81EE812A50
:100B40009FED691AC0EE811A654D18352D68C5F301
:100B5000080501EE105AB8EE411A31EE811AF7EE8F
:100B6000001A31EE211A22EE010A1CE001EE100AF1
:100B7000B8EE411ADFED5D1A81EE812A9FED5A1A17
:100B8000C0EE811A564D18352D68C5F3080501EEE3
:100B9000105AB8EE411A31EE811AF7EE001A31EE12
:100BA000211A22EE010A5BE001EE100AB8EE411AAA
:100BB000DFED4F1A81EE812A9FED4B1AC0EE811AAC
:100BC000474D18352D68C5F3080501EE105AB8EEEB
:100BD000411A31EE811AF7EE001A31EE211A22EE97
:100BE000010A3DE077E01DE001EE100AB8EE411A7F
:100BF0009FED402AC2EE011A9FED3B1A80EE812A3A
:100C0000374D18352D68C5F3080501EE105AB8EEBA
:100C1000411A32EE011AB7EE002A31EE021A21EE25
:100C2000810A1DE001EE100AB8EE411ADFED301A1C
:100C300081EE812A9FED2C1AC0EE811A284D1835BD
:100C40002D68C5F3080501EE105AB8EE411A31EED1
:100C5000811AF7EE001A31EE211A22EE010A00BFC6
:100C600000BF1F4D18352D68C5F3462501EE105AFB
:100C7000B8EE411AF7EE001A31EE211AC0EE011A51
:100C8000BCEEE11A81ED001A154D18352D68C5F33B
:100C9000064501EE105AB8EE411AF7EE001A31EE91
:100CA000211AC0EE011ABCEEE11A81ED011A0C4DB9
:100CB00018352D68C5F3066501EE105AB8EE411AD5
:100CC000F7EE001A31EE211AC0EE011ABCEEE11A5D
:100CD00081ED021A03E000250D604D608D6070BD4E
:100CE000284402580090D003000000460024744CB1
:100CF0000024744A20BCBE4B2DE9F0410446002577
:100D0000A8464FF00062D4E90010114000201346BD
:100D100059404040014331D1606E48B1B0F5801F69
:100D20000DD0B0F5001F11D0B0F5401F16D114E062
:100D3000FE48006840F40030FC49086010E00221E1
:100D400004F1080001F090FF054609E0022104F1DA
:100D5000280002F03BF8054602E001E0012500BF53
:100D600000BF55B9F1482430006820F44010616E8E
:100D70000843EE492431086000E0A8464FF4807231
:100D8000D4E900101140002013465940404001436F
:100D90002ED1A06D05281BD2DFE800F0030A111840
:100DA0001900E248006840F40030E049086011E0B2
:100DB000002104F1080001F057FF05460AE0002178
:100DC00004F1280002F002F8054603E002E001E029
:100DD000012500BF00BF55B9D4482430006820F079
:100DE0000700A16D0843D1492431086000E0A846FE
:100DF0004FF48062D4E9001011400020134659409E
:100E0000404001433DD1D4F8A400B0F5C00F24D038
:100E100007DC68B1B0F5001F11D0B0F5800F1FD10D
:100E200014E0B0F5000F19D0B0F5200F18D116E07E
:100E3000BE48006840F40030BC49086012E0002160
:100E400004F1080001F010FF05460BE0002104F159
:100E5000280001F0BBFF054604E003E002E001E0EA
:100E6000012500BF00BF5DB9B0482C30006820F4F8
:100E70006000D4F8A4100843AC492C31086000E0AD
:100E8000A8464FF40062D4E9000110400021134647
:100E90005840494008433DD1D4F8A800B0F1407F04
:100EA00024D007DC68B1B0F1807F11D0B0F1007FB1
:100EB0001FD114E0B0F1806F19D0B0F1A06F18D13C
:100EC00016E09A48006840F400309849086012E043
:100ED000002104F1080001F0C7FE05460BE00021E7
:100EE00004F1280001F072FF054604E003E002E08F
:100EF00001E0012500BF00BF5DB98C482C300068BF
:100F000020F0E060D4F8A810084388492C3108602C
:100F100000E0A8464FF00073D4E90010194000200B
:100F200059404040014328D1E06CA8B1102804D0BA
:100F3000202809D0302810D10DE07C48006840F40A
:100F400000307A4908600AE0022104F1080001F04B
:100F50008BFE054603E002E001E0012500BF00BF73
:100F600055B972482030006820F03000E16C084329
:100F70006E492031086000E0A8464FF48053D4E960
:100F800000101940002059404040014337D1E06D26
:100F9000B0F5005F1AD004DC50B1B0F5805F1ED10F
:100FA0000DE0B0F5405F18D0B0F5804F17D115E0D7
:100FB0005E48006840F400305C49086011E00021A0
:100FC00004F1080001F050FE05460AE0002104F19A
:100FD000280001F0FBFE054603E002E001E00125E8
:100FE00000BF00BF55B951482430006820F4E040EC
:100FF000E16D08434D492431086000E0A8464FF4F4
:101000000053D4E9001019400020594040400143EA
:1010100035D1206EB0F5403F1ED007DC68B1B0F589
:10102000803F0BD0B0F5003F19D10EE0B0F5802F16
:1010300013D0B0F5A02F12D110E012E0012104F17D
:10104000080001F011FE05460BE0012104F1280023
:1010500001F0BCFE054604E003E002E001E00125EA
:1010600000BF00BF55B931482430006820F4E020AB
:10107000216E08432D492431086000E0A8464FF452
:101080008042D4E9000110400021134658404940F5
:10109000084337D1D4F8AC00B0F1405F1ED007DC74
:1010A00068B1B0F1805F0BD0B0F1005F19D10EE0F4
:1010B000B0F1804F13D0B0F1A04F12D110E012E088
:1010C000012104F1080001F0CFFD05460BE00121EC
:1010D00004F1280001F07AFE054604E003E002E096
:1010E00001E0012500BF00BF5DB910482C30006849
:1010F00020F0E040D4F8AC1008430C492C310860D3
:1011000000E0A8464FF40043D4E900011840002154
:101110005840494008432AD1E06EB8B1B0F1805F31
:1011200006D0B0F1005F12D109E000002C44025853
:10113000F948006840F40030F749086009E00121EF
:1011400004F1080001F090FD054602E001E00125F0
:1011500000BF00BF55B9F0482430006820F040506F
:10116000E16E0843EC492431086000E0A8464FF0E6
:101170008073D4E9001019400020594040400143D9
:1011800028D1A06CA8B1012804D0022809D00328D6
:1011900010D10DE0E048006840F40030DE490860FE
:1011A0000AE0022104F1080001F05EFD054603E0BB
:1011B00002E001E0012500BF00BF55B9D64820304C
:1011C000006820F00300A16C0843D3492031086077
:1011D00000E0A8464FF48003D4E900101940002035
:1011E0005940404001437DD1CC48006840F48070B4
:1011F000CA490860FFF732FA064606E0FFF72EFA02
:10120000801B642801D9032505E0C448006800F468
:1012100080700028F2D000BF85BBBF484430006812
:1012200000F44070B4F8B01001F44071884213D05B
:10123000B9484430006820F44077B748443000682B
:1012400040F48030B449443108600846006820F416
:101250008030086008460760D4F8B000B0F5807FA1
:1012600015D1FFF7FBF9064609E0FFF7F7F9801BF8
:1012700041F28831884202D9032507E038E0A648C8
:1012800044300068C0F340000028EED000BF55BBDA
:1012900000BFB4F8B00000F44070B0F5407F0ED14C
:1012A0009D481C38006820F47C519D4AD4F8B00059
:1012B000104041EA101098491C39086007E0964830
:1012C0001C38006820F47C5093491C39086092480F
:1012D00044300068B4F8B010C1F30B0108438E49E4
:1012E000443101E005E001E0086002E0A84600E0CA
:1012F000A8460122D4E900011040002113465840BD
:101300004940084330D1A06F18281AD005DC48B1F5
:10131000082808D0102817D10CE0202812D028283F
:1013200012D110E012E0012104F1080001F09CFC50
:1013300005460BE0012104F1280001F047FD0546B8
:1013400004E003E002E001E0012500BF00BF55B961
:1013500071482830006820F03800A16F08436E49BA
:101360002831086000E0A8460223D4E900101940A3
:10137000002059404040014329D1606F062816D211
:10138000DFE800F003040B12131412E0012104F152
:10139000080001F069FC05460BE0012104F128007A
:1013A00001F014FD054604E003E002E001E0012540
:1013B00000BF00BF55B958482830006820F007002A
:1013C000616F084354492831086000E0A8460422B0
:1013D000D4E9001011400020134659404040014319
:1013E0002BD1D4F89000062816D2DFE800F00304D1
:1013F0000B12131412E0012104F1080001F034FC77
:1014000005460BE0012104F1280001F0DFFC054650
:1014100004E003E002E001E0012500BF00BF5DB988
:101420003D482C30006820F00700D4F890100843A5
:1014300039492C31086000E0A8462023D4E9000196
:101440001840002158404940084337D1D4F88C0057
:10145000B0F1405F1ED007DC68B1B0F1805F0BD007
:10146000B0F1005F19D10EE0B0F1804F13D0B0F1B0
:10147000A04F12D110E012E0002104F1080001F0A9
:10148000F3FB05460BE0022104F1280001F09EFC6D
:10149000054604E003E002E001E0012500BF00BFD3
:1014A0005DB91D482830006820F0E040D4F88C1069
:1014B000084319492831086000E0A8464023D4E9D0
:1014C0000010194000205940404001433CD1D4F85D
:1014D0009800B0F5406F25D007DC68B1B0F5806F9B
:1014E0000BD0B0F5006F20D10EE0B0F5805F1AD0C0
:1014F000B0F5A05F19D117E019E0002104F1080050
:1015000001F0B2FB054612E0022104F1280001F0CF
:101510005DFC05460BE000002C44025800480258D0
:10152000FFFCFF0F03E002E001E0012500BF00BF68
:101530004DB9FE48006820F4E050D4F898100843F4
:10154000FA49086000E0A8468023D4E90010194059
:10155000002059404040014335D1D4F89C00B0F5FB
:10156000C04F1ED007DC68B1B0F5005F0BD0B0F5FE
:10157000804F19D10EE0B0F5004F13D0B0F5204FD9
:1015800012D110E012E0002104F1080001F06CFB20
:1015900005460BE0022104F1280001F017FC054686
:1015A00004E003E002E001E0012500BF00BF4DB907
:1015B000DE48006820F46040D4F89C100843DB4902
:1015C000086000E0A8460823D4E900011840002183
:1015D00058404940084317D1D4F88000B0F5805FE7
:1015E00007D1022104F1280001F0F0FB08B14FF00F
:1015F0000108CE48001F006820F44050D4F8801045
:101600000843CA49091F08601023D4E900011840A3
:10161000002158404940084315D1D4F89400B0F552
:10162000807F07D1022104F1280001F0CFFB08B12F
:101630004FF00108BD48006820F44070D4F89410C1
:101640000843BA4908604FF40023D4E90001184068
:10165000002158404940084327D1D4F8A00030B1B8
:10166000B0F5803F0AD0B0F5003F0FD10DE000216A
:1016700004F1080001F0F8FA054609E0022104F13E
:10168000280001F0A3FB054602E001E0012500BFB0
:1016900000BF4DB9A548006820F44030D4F8A01030
:1016A0000843A249086000E0A8464FF48023D4E92B
:1016B0000001184000215840494008432DD1D4F87A
:1016C0008400B0F5801F06D0B0F5001F0CD0B0F537
:1016D000401F11D10FE095482C38006840F40030CD
:1016E00092492C39086009E0012104F1280001F039
:1016F0006DFB054602E001E0012500BF00BF5DB9BA
:101700008A48001F006820F44010D4F88410084371
:101710008649091F086000E0A8464FF48032D4E9EA
:10172000000110400021134658404940084325D18C
:10173000206D18B1B0F5803F10D108E07B482C38FF
:10174000006840F4003079492C39086008E0022133
:1017500004F1080001F088FA054601E0012500BF08
:1017600000BF55B971480C38006820F48030216DF5
:1017700008436E490C39086000E0A8464FF000535A
:10178000D4E900101940002059404040014307D1DE
:10179000022104F1280001F019FB08B14FF0010803
:1017A0004FF40032D4E900011040002113465840A4
:1017B0004940084327D1E06FA0B1B0F5807F06D043
:1017C000B0F5007F0CD0B0F5407F0CD109E0574850
:1017D0002C38006840F4003054492C39086004E08B
:1017E00003E002E001E0012500BF00BF55B94F480A
:1017F000001F006820F44070E16F08434B49091F47
:10180000086000E0A8464FF48012D4E900101140AF
:101810000020134659404040014309D1434808384D
:10182000006820F00040216F0843404908390860F3
:101830004FF40013D4E900011840002158404940FA
:10184000084309D139480838006820F08070A16E3B
:1018500008433649083908604FF08043D4E9001046
:101860001940002059404040014311D100BF2F488A
:101870004838006820F400402C4948390860084680
:101880000068D4F8B410084328494839086000BFFC
:101890004FF00042D4E900011040002113465840A7
:1018A0004940084309D121480C38006820F04050D5
:1018B000616D08431D490C3908604FF40002D4E9FA
:1018C00000101140002013465940404001430AD106
:1018D0001648001F006820F44000D4F88810084320
:1018E0001249091F08600122002160681040494028
:1018F0005040014306D104F1080001F0B5F9054656
:1019000005B1A846022200216068104049405040BD
:10191000014307D1012104F1080001F0A5F90546B2
:1019200005B1A84604230020616801E0584402582C
:101930001940042240405140084307D1022104F1DC
:10194000080001F091F9054605B1A84608230020DA
:1019500061681940082240405140084307D10021E6
:1019600004F1280001F032FA054605B1A84610231B
:10197000002061681940102240405140084307D1BF
:10198000012104F1280001F021FA054605B1A8461D
:10199000202200216068104049405040014307D197
:1019A000022104F1280001F011FA054605B1A8460C
:1019B000B8F1000F02D10020BDE8F0810120FBE763
:1019C0002DE9F04104460D4614B90120BDE8F0812F
:1019D000BD48006800F00F00A8420ED2BA48006867
:1019E00020F00F002843B84908600846006800F05E
:1019F0000F00A84201D00120E8E7207800F00400A1
:101A000004280ED1B1492069096801F070018842AB
:101A100007D9AE48006820F0700021690843AB493F
:101A20000860207800F00800082811D1A749091D96
:101A30006069096801F07001884209D9A348001D56
:101A4000006820F0700061690843A049091D086022
:101A5000207800F01000102811D19C49091DA069C0
:101A6000096801F4E061884209D99848001D0068BE
:101A700020F4E060A16908439449091D08602078BA
:101A800000F02000202811D190490831E069096850
:101A900001F07001884209D98C480830006820F0B4
:101AA0007000E1690843894908310860207800F036
:101AB000020002280ED18549E068096801F00F0193
:101AC000884207D98148006820F00F00E168084388
:101AD0007E490860207800F00100002850D07B4843
:101AE000006820F47060A168084378490860606865
:101AF000022807D1754818380068C0F34040F8B98B
:101B0000012063E76068032807D17048183800682F
:101B1000C0F34060A0B9012058E76068012807D1F0
:101B20006A4818380068C0F3002048B901204DE722
:101B3000664818380068C0F3800008B9012045E7FE
:101B400062480838006820F00700616808435F4970
:101B500008390860FEF782FD064608E0FEF77EFDC4
:101B6000801B41F28831884201D903202EE7574873
:101B70000838006800F038006168B0EBC10FEDD1A3
:101B8000207800F0020002280ED15049E068096870
:101B900001F00F01884207D24C48006820F00F0086
:101BA000E1680843494908604748006800F00F00B1
:101BB000A8420ED94448006820F00F00284342494B
:101BC00008600846006800F00F00A84201D001201C
:101BD000FCE6207800F0040004280ED13B4920697F
:101BE000096801F07001884207D23848006820F087
:101BF00070002169084335490860207800F008002A
:101C0000082811D13149091D6069096801F0700186
:101C1000884209D22D48001D006820F070006169DB
:101C200008432A49091D0860207800F01000102898
:101C300011D12649091DA069096801F4E0618842B3
:101C400009D22248001D006820F4E060A169084321
:101C50001E49091D0860207800F02000202811D1BD
:101C60001A490831E069096801F07001884209D217
:101C700016480830006820F07000E16908431349F5
:101C80000831086000F076F810490968C1F30321B3
:101C90000F4A515C01F01F0120FA01F70B48006860
:101CA00000F00F001146085C00F01F0027FA00F05A
:101CB000084908600848076008480068FEF710FDFA
:101CC0008046404682E60000002000521844025838
:101CD000683F0008140000241000002408000024BD
:101CE00010B500F047F80D490968C1F303210C4A0B
:101CF000515C01F01F0120FA01F40848006800F06F
:101D00000F001146085C00F01F0024FA00F005499E
:101D10000860054804600846006810BD1844025871
:101D2000683F0008140000241000002400B5FFF7ED
:101D3000D7FF05490968C1F30211044A515C01F05B
:101D40001F01C84000BD00001C440258683F000845
:101D500000B5FFF7C5FF05490968C1F30221044A30
:101D6000515C01F01F01C84000BD00001C44025836
:101D7000683F0008F0B5824E366806F0380636B186
:101D8000082E15D0102E15D0182E7DD114E07C4EC3
:101D9000103E3668C6F3401646B1794E103E36689E
:101DA000C6F3C107774E26FA07F000E07548E5E074
:101DB0007548E3E07548E1E0714E1836366806F084
:101DC00003046F4E18363668C6F305116C4E1C3688
:101DD000366806F001056A4E24363668C6F3CC062E
:101DE00016FB05F601EE106AB8EE410A002971D023
:101DF00024B1012C50D0022C6DD16DE0604E103E0C
:101E00003668C6F340163EB35D4E103E3668C6F3E4
:101E1000C1075C4E26FA07F301EE103AF8EE411ABC
:101E200001EE101AB8EE411A81EE812A9FED581A80
:101E3000C0EE011A524E20363668C6F3080601EE8F
:101E4000106AB8EE411A31EE811AF7EE001A31EE3F
:101E5000211A62EE010A1EE001EE101AB8EE411AD4
:101E6000DFED4C1A81EE812A9FED491AC0EE011A6E
:101E7000434E20363668C6F3080601EE106AB8EE07
:101E8000411A31EE811A00E076E0F7EE001A31EEE9
:101E9000211A62EE010A5BE001EE101AB8EE411A57
:101EA0009FED3D2AC2EE011A9FED391A80EE012AFC
:101EB000334E20363668C6F3080601EE106AB8EED7
:101EC000411A32EE011AB7EE002A31EE021A61EE23
:101ED000810A3DE04EE01DE001EE101AB8EE411A15
:101EE000DFED2E1A81EE812A9FED291AC0EE011A2C
:101EF000234E20363668C6F3080601EE106AB8EEA7
:101F0000411A31EE811AF7EE001A31EE211A62EE13
:101F1000010A1DE001EE101AB8EE411A9FED1E2ACB
:101F2000C2EE011A9FED1A1A80EE012A144E2036D5
:101F30003668C6F3080601EE106AB8EE411A32EEB2
:101F4000011AB7EE002A31EE021A61EE810A00BFD3
:101F500000BF0B4E20363668C6F34626721C01EED3
:101F6000102AB8EE411AC0EE811ABCEEE11A11EE49
:101F7000100A00E0002001E0034800BF00BFF0BDF0
:101F8000104402580090D00300093D0040787D01C4
:101F9000000000460024744C0024744A20BCBE4B50
:101FA0002DE9F047044614B90120BDE8F0872078F8
:101FB00000F00100002870D0F948006800F03808EF
:101FC000F7481830D0F80090B8F1100F06D0B8F1EB
:101FD000180F0FD109F0030002280BD1F048103878
:101FE0000068C0F3404000286AD06068002867D1CC
:101FF0000120DAE700BF6068B0F5803F08D1E8480B
:102000001038006840F48030E549103908602EE04F
:10201000606868B9E2481038006820F48030E04910
:10202000103908600846006820F4802008601EE02F
:102030006068B0F5A02F0DD1D9481038006840F481
:102040008020D749103908600846006840F4803085
:1020500008600CE0D2481038006820F48030D04985
:10206000103908600846006820F48020086000BF2E
:10207000606898B1FEF7F2FA054606E0FEF7EEFA60
:10208000401B642801D903208FE7C5481038006839
:10209000C0F340400028F1D012E012E0FEF7DEFA73
:1020A000054606E0FEF7DAFA401B642801D9032052
:1020B0007BE7BB4810380068C0F340400028F1D1EE
:1020C00000BF207800F00200022879D1B4480068EF
:1020D00000F03808B2481830D0F80090B8F1000F7E
:1020E00005D0B8F1180F35D109F0030088BBAC4812
:1020F00010380068C0F3800018B1E06808B901200A
:1021000053E7A7481038006820F01900E168084339
:10211000A34910390860FEF7A1FA054606E0FEF76C
:102120009DFA401B022801D903203EE79C48103845
:102130000068C0F380000028F1D099480C3800688E
:1021400020F0FE40217C40EA016095490C3908608E
:1021500045E0FFE7E06838B391481038006820F0A8
:102160001900E16808438E4910390860FEF776FAD5
:10217000054606E0FEF772FA401B022801D903204B
:1021800013E7874810380068C0F380000028F1D0BA
:1021900083480C38006820F0FE40217C40EA016052
:1021A0007F490C3908601AE07D481038006820F03B
:1021B00001007B4910390860FEF750FA054607E038
:1021C0000EE0FEF74BFA401B022801D90320ECE693
:1021D000734810380068C0F380000028F1D100BFB8
:1021E000207800F0100010286FD16D48006800F0D2
:1021F00038086B481830D0F80090B8F1080F06D0B6
:10220000B8F1180F1CD109F00300012818D1644857
:1022100010380068C0F3002020B1E069802801D0A8
:102220000120C2E600BF5E48001F006820F07C501D
:1022300094F8201040EA01605949091F086043E002
:10224000E06938B356481038006840F080005449BF
:1022500010390860FEF702FA054606E0FEF7FEF9BF
:10226000401B022801D903209FE64D481038006822
:10227000C0F300200028F1D000BF4948001F0068CB
:1022800020F07C5094F8201040EA01604449091F76
:10229000086019E042481038006820F0800040498A
:1022A00010390860FEF7DAF9054606E0FEF7D6F9C0
:1022B000401B022801D9032077E63948103800680E
:1022C000C0F300200028F1D100BF207800F0080002
:1022D000082836D16069D0B131486430006840F0D8
:1022E00001002F4964310860FEF7B8F9054606E0A1
:1022F000FEF7B4F9401B022801D9032055E628480F
:1023000064300068C0F340000028F1D019E0244890
:102310006430006820F00100214964310860FEF754
:102320009DF9054606E0FEF799F9401B022801D900
:1023300003203AE61A4864300068C0F340000028E1
:10234000F1D1207800F02000202838D1A069D0B148
:1023500013481038006840F4805011491039086063
:10236000FEF77CF9054606E0FEF778F9401B0228E7
:1023700001D9032019E60A4810380068C0F340303C
:102380000028F1D01BE006481038006820F4805087
:10239000034910390860FEF761F9054609E00000BD
:1023A00010440258FEF75AF9401B022801D90320B5
:1023B000FBE5D0480068C0F340300028F2D1207817
:1023C00000F0040004287DD1CB48006840F4807000
:1023D000C9490860FEF742F9054606E0FEF73EF9F6
:1023E000401B642801D90320DFE5C348006800F4DE
:1023F00080700028F2D000BFA068012808D1BD4835
:102400007030006840F00100BA49703108602DE07A
:10241000A06868B9B7487030006820F00100B5497D
:10242000703108600846006820F0040008601DE074
:10243000A06805280DD1AF487030006840F0040056
:10244000AC49703108600846006840F0010008603F
:102450000CE0A8487030006820F00100A5497031F8
:1024600008600846006820F00400086000BFA0680B
:10247000A0B1FEF7F3F8054608E0FEF7EFF8401BC1
:1024800041F28831884201D903208EE599487030A5
:102490000068C0F340000028EFD013E0FEF7DEF83C
:1024A000054608E0FEF7DAF8401B41F28831884221
:1024B00001D9032079E58F4870300068C0F34000EF
:1024C0000028EFD1606A00287DD08A48103000686B
:1024D00000F03800182877D0606A022875D1854846
:1024E000006820F0807083490860FEF7B7F8054661
:1024F00006E0FEF7B3F8401B022801D9032054E59B
:102500007C480068C0F340600028F2D100BFD4E9E5
:102510000A1041EA001077492831096840F2F33285
:1025200091430843734928310860208E401EC0F350
:102530000800616B491E4FF47E4202EA41210843C4
:10254000218F491ED20102EA014108433C21095D65
:10255000491E120202EA01610843664930310860EF
:1025600000BF081F006820F00100091F08606148D3
:10257000343000684FF6F8718843A16C40EAC1001E
:102580005C49343108605B482C30006820F00C0056
:10259000216C084357492C3108600846006820F038
:1025A0000200616C084353492C31086008460068FA
:1025B00040F4803008600846006840F4003008604D
:1025C0000846006802E092E038E01FE040F4802016
:1025D00008600846006840F001000860454800684F
:1025E00040F0807043490860FEF738F8054606E081
:1025F000FEF734F8401B022801D90320D5E43D48FA
:102600000068C0F340600028F2D070E039480068EC
:1026100020F0807037490860FEF720F8054606E094
:10262000FEF71CF8401B022801D90320BDE4314805
:102630000068C0F340600028F2D158E02D482830EF
:1026400007682C4830300668606A012821D007F0FE
:102650000301A06A81421CD1C7F30511E06A8842D8
:1026600017D1C6F30801206B401E814211D1606B67
:10267000401EC6F3462188420BD1A06B401EC6F314
:102680000641884205D1E06B401EC6F306618842D0
:1026900001D0012089E4174834300068C0F3CC072A
:1026A000A06CB84223D013482C30006820F0010001
:1026B00010492C310860FDF7D1FF054600BFFDF73A
:1026C000CDFF401BFBD00B48343000684FF6F8714B
:1026D0008843A16C40EAC1000649343108600548CE
:1026E0002C30006840F0010002492C3108600020C5
:1026F0005BE40000004402580048025870B50546EB
:102700000B461646286840680E4900EA0104200C72
:10271000D870C4F30420587004F03F009870C4F3DC
:10272000423018705EB9D87800F002FCD870587842
:1027300000F0FEFB5870987800F0FAFB98700020CB
:1027400070BD00003FFFFF0070B504460B46164603
:102750002068806A586020680069C0F30E009860A5
:10276000206800680E4900EA0105C5F305401870AD
:10277000C5F30620587005F07F009870A80DD8703A
:102780005EB9187800F0D4FB1870587800F0D0FBD0
:102790005870987800F0CCFB9870002070BD000055
:1027A0007F7F7F0070B504460125002C51D094F83E
:1027B000210028B9002084F82000204600F04EF8BF
:1027C000022084F821002068C068C0F300100028AF
:1027D0003AD100BFCA20216848625320216848626C
:1027E00000BF204600F0AEFB0546CDB920688068EA
:1027F0001949084021688860216960680843A16917
:102800000843216889680843216888602089E16855
:1028100041EA004021680861204600F0B5FB05460A
:102820006DB92068C06C20F003002168C86461693C
:10283000E06908432168C96C08432168C86400BF87
:10284000FF202168486200E0002515B9012084F8C6
:102850002100284670BD0000BFFF8FFF054A0168B8
:10286000914205D10449096841F40041024A1160CE
:1028700070470000004000587044025870B504468C
:102880000B482168C860FDF7E9FE054607E0FDF743
:10289000E5FE401BB0F57A7F01D9032070BD2068AA
:1028A000C06800F020000028F1D00020F6E700000A
:1028B0005FFF030070B504462546681EB0F1807FB7
:1028C00001D301200FE0681E4FF0E02148610F2185
:1028D0004FF0FF3001F076F900204FF0E0218861E1
:1028E00007200861002070BD014600BF91F88400F8
:1028F000012801D102207047012081F8840000BF27
:102900002420C1F88800086802680868006820F080
:1029100001000B68186022F0005200204866086829
:1029200002602020C1F8880000BF002081F88400E8
:1029300000BF00BFDFE770B504460D4600BF94F846
:102940008400012801D1022070BD012084F8840098
:1029500000BF2420C4F8880020680668206800684A
:1029600020F00100216808602068806820F0606025
:10297000284321688860204600F026FC2068066015
:102980002020C4F8880000BF002084F8840000BF25
:1029900000BFD9E770B504460D4600BF94F8840027
:1029A000012801D1022070BD012084F8840000BFFD
:1029B0002420C4F88800206806682068006820F099
:1029C0000100216808602068806820F0604028438A
:1029D00021688860204600F0F7FB20680660202010
:1029E000C4F8880000BF002084F8840000BF00BF46
:1029F000D9E710B504460CB9012010BDA06900B19B
:102A000000E000BFD4F8880028B9002084F88400D2
:102A1000204600F02BF82420C4F8880020680068C5
:102A200020F0010021680860204600F021FD012807
:102A300000D1E2E7A06A10B1204600F0F1FB206867
:102A4000406820F49040216848602068806820F049
:102A50002A00216888602068006840F00100216831
:102A60000860204600F058FCC7E7000010B586B0AB
:102A70000446142101A8FDF77DFC23492068884203
:102A800040D100BF2148006840F010001F49086095
:102A90000846006800F01000009000BF00BF00BFB3
:102AA0001A481038006840F00100184910390860D1
:102AB0000846006800F00100009000BF00BF00BFA2
:102AC0000846006840F0010008600846006800F011
:102AD0000100009000BF00BF4FF400700190022081
:102AE000029001200390032004900720059001A983
:102AF0000748FDF7ABFC4FF48060019001A9044842
:102B0000FDF7A4FC06B010BD00100140F0440258CF
:102B1000000002582DE9F84F04460E461746994624
:102B2000D4F88800202854D106B117B90120BDE897
:102B3000F88F00205434E06321206063FDF78EFDA0
:102B4000824627806780543CA068B0F5805F04D13E
:102B5000206910B90025B04602E035464FF0000864
:102B600020E05346002280212046CDF8009000F05E
:102B700093FF20B12020C4F888000320D7E745B98F
:102B8000B8F80000C0F308002168886208F1020864
:102B900003E02878216888626D1CB4F85600401E56
:102BA000A4F85600B4F856000028DAD153460022A3
:102BB00040212046CDF8009000F06EFF20B120208B
:102BC000C4F888000320B2E72020C4F88800002061
:102BD000ADE70220ABE700BFFEE7000000B587B01D
:102BE000142102A8FDF7C6FB00BF0F48006840F0A3
:102BF00040000D4908600846006800F04000019060
:102C000000BF00BF002280210848FDF721FD802081
:102C100002900120039000200490059002A903482F
:102C2000FDF714FC07B000BDE0440258001802583C
:102C300010B5084808490860002048607F21064810
:102C40008160FF21C160002101618161C161FFF7E5
:102C5000A9FD10BD00400058C400002400BFFEE7DD
:102C600000BFFEE7704700002DE9F04104460E4624
:102C700000275548006800F00300032802D1012016
:102C8000BDE8F08150482838006820F080604E4947
:102C900028390860FDF7E2FC054606E0FDF7DEFC9A
:102CA000401B022801D90320EAE74748283800687A
:102CB000C0F3C0600028F1D100BF4348006820F491
:102CC0007C30216840EA01303F490860A088401EFE
:102CD000C0F30800A168491E4FF47E4202EA412178
:102CE0000843A189491ED20102EA01410843217C1F
:102CF000491E120202EA016108433349103108609B
:102D000000BF3148001D006820F0C0006169084321
:102D10002D49091D08600846006820F02000A169BF
:102D200008432949091D08600846006820F0100082
:102D300008602548143000684FF6F8718843E1694F
:102D400040EAC1002049143108601F48001D006896
:102D500040F010001C49091D08602EB908460068A3
:102D600040F40020086012E0012E08D11648001D32
:102D7000006840F480101449091D086007E01248FB
:102D8000001D006840F400100F49091D08600E483E
:102D90002838006840F080600B4928390860FDF74A
:102DA0005DFC054606E0FDF759FC401B022801D9F1
:102DB000032065E7044828380068C0F3C060002895
:102DC000F1D038465CE70000284402582DE9F04174
:102DD00004460E4600275548006800F0030003280B
:102DE00002D10120BDE8F08150482838006820F069
:102DF00080504E4928390860FDF730FC054606E052
:102E0000FDF72CFC401B022801D90320EAE74748C4
:102E100028380068C0F340700028F1D100BF434853
:102E2000006820F07C70218840EA01503F4908602A
:102E3000A088401EC0F30800A168491E4FF47E42DE
:102E400002EA41210843A189491ED20102EA014157
:102E50000843217C491E120202EA016108433349FA
:102E60001831086000BF3148001D006820F4406040
:102E7000616908432D49091D08600846006820F46F
:102E80000070A16908432949091D086008460068C7
:102E900020F48070086025481C3000684FF6F871F7
:102EA0008843E16940EAC10020491C3108601F489D
:102EB000001D006840F480701C49091D08602EB98F
:102EC0000846006840F48000086012E0012E08D136
:102ED0001648001D006840F400001449091D0860F0
:102EE00007E01248001D006840F080700F49091D7E
:102EF00008600E482838006840F080500B49283997
:102F00000860FDF7ABFB054606E0FDF7A7FB401B9D
:102F1000022801D9032065E7044828380068C0F377
:102F200040700028F1D038465CE700002844025881
:102F30000146080900EB8000420001F00F00104438
:102F4000C0B2704770B5044600262068C06800F023
:102F50004000B8B9701E2168C860FDF77FFB0546C8
:102F600009E0FDF77BFB401BB0F57A7F03D9032610
:102F7000032084F821002068C06800F0400008B9F0
:102F8000032EEED1304670BD70B5044600251548BD
:102F9000C06820F040001349C8600846806800F00F
:102FA000200040B92046FFF769FCC0B1032084F837
:102FB0002100032513E00B48806820F02000094918
:102FC00088602046FFF75AFC18B1032084F82100DE
:102FD00003250448806840F02000024988602846A4
:102FE00070BD000000400058704710B5FDF73CFB75
:102FF00010BD000000B5CBB04C2138A8FDF7BAF9E0
:10300000202130A8FDF7B6F9B82102A8FDF7B2F9E2
:103010000220FDF7F5FB00BF00200190304800685A
:1030200020F440402E4908600846006800F4404003
:10303000019000BF00BF00BF2948006800F40050A5
:10304000B0F5005FF8D1FDF70BFC2648006820F0D2
:10305000180024490860052038904FF480303990DA
:1030600001203A9002204190022138A881620A2171
:10307000C162DC2101630121416302218163C163DB
:1030800004210164002141648164FEF789FF08B1D5
:10309000FDF7C5F93F203090032031900020329099
:1030A0000820339040203490359000013690402025
:1030B0003790032130A8FEF783FC08B1FDF7AFF984
:1030C0004FF480010020CDE9021088132E9002A851
:1030D000FDF712FE08B1FDF7A2F94BB000BD0000EC
:1030E00018480258704402582F48006840F4700095
:1030F0002D4908602D48006800F00F00072806D20F
:103100002A48006820F00F00C01D284908602848A0
:10311000006840F001002649086000202449103171
:1031200008602348006823490840214908601F4877
:10313000006800F00F00072806D91C48006820F03E
:103140000F00C01D19490860002019491831086096
:10315000091D0860091D08601748154928310860D5
:103160001648091D08601648091D08600020091D41
:1031700008601348091D08600020091D08601048F8
:10318000091D08600020091D08600948006820F436
:10319000802007490860002005496031086043F23B
:1031A000D20008490860704788ED00E00020005216
:1031B000004402587FEDF6EA000202020000FF011F
:1031C000800201010040005270B5456E2DB9012505
:1031D000A0F86A50A0F868501CE01023102405687D
:1031E000AD68C5F342610568AD686A0F0A4DAD5C14
:1031F00015FB04F5094EB65C95FBF6F5A0F86A5090
:10320000054D6D5C15FB03F5044E765C95FBF6F5FC
:10321000A0F8685070BD0000583F0008603F0008EB
:1032200090F8281001F0010139B10168496821F4D2
:103230000031C26A11430268516090F8281001F011
:103240000201022907D10168496821F48031026B2B
:1032500011430268516090F8281001F0040104291C
:1032600007D10168496821F48021426B114302684B
:10327000516090F8281001F00801082907D1016871
:10328000496821F40041826B11430268516090F853
:10329000281001F01001102907D10168896821F474
:1032A0008051C26B11430268916090F8281001F0C0
:1032B0002001202907D10168896821F40051026C9E
:1032C00011430268916090F8281001F040014029F4
:1032D00013D10168496821F48011426C11430268DE
:1032E0005160416CB1F5801F07D10168496821F434
:1032F000C001826C11430268516090F8281001F0FF
:103300008001802907D10168496821F40021C26C3D
:10331000114302685160704738B504460020C4F874
:103320009000FDF79BF905462068006800F0080052
:10333000082821D16FF07E402B4600224FF4001167
:103340000090204600F0A8FBB0B100BF00BF21688C
:1033500051E8001F21F08000226842E800010029A6
:10336000F5D100BF2020C4F8880000BF002084F8F9
:10337000840000BF032038BD2068006800F004000E
:10338000042830D16FF07E402B4600224FF480019C
:103390000090204600F080FB28B300BF00BF2168EA
:1033A00051E8001F21F49070226842E800010029D2
:1033B000F5D100BF00BF00BF2168083151E8001FF0
:1033C00021F001002168083141E80002002AF3D110
:1033D00000BF2020C4F88C0000BF002084F88400C7
:1033E00000BF0320C7E72020C4F88800C4F88C0081
:1033F0000020E066206700BF84F8840000BF00BFA3
:10340000B9E7000000BF00BF026852E8002F22F4B5
:103410009071036843E80012002AF5D100BF00BF95
:1034200000BF0268083252E8002F104B02EA030185
:103430000268083242E80013002BF2D100BFC16ECF
:1034400001290CD100BF00BF026852E8002F22F012
:103450001001036843E80012002AF5D100BF2021C3
:10346000C0F88C100021C16641677047FEFFFFEF76
:103470002DE9F04F89B0054600200890F8492868EA
:10348000884200D100E000BF2969A8680843696943
:103490000843E96940EA010828680068F1490840E2
:1034A00040EA0800296808602868406820F4405015
:1034B000E968084329684860D5F81880E849286811
:1034C000884202D0286A40EA080828688068E649ED
:1034D000084040EA0800296888602868C06A20F02F
:1034E0000F00696A08432968C86200BFDF4928687D
:1034F000884220D1DE48006800F03800182811D03A
:1035000005DC48B1082809D0102811D108E020288E
:103510000AD028280CD109E001240BE0042409E09A
:10352000082407E0102405E0202403E0402401E003
:10353000802400BF42E1CF492868884219D1CC4895
:10354000006800F00700062810D2DFE800F003054D
:1035500007090B0D00240BE0042409E0082407E010
:10356000102405E0202403E0402401E0802400BF73
:1035700024E1C1492868884219D1BD48006800F09B
:103580000700062810D2DFE800F0030507090B0D3D
:1035900000240BE0042409E0082407E0102405E0DF
:1035A000202403E0402401E0802400BF06E1B34969
:1035B0002868884219D1AE48006800F00700062844
:1035C00010D2DFE800F0030507090B0D00240BE023
:1035D000042409E0082407E0102405E0202403E087
:1035E000402401E0802400BFE8E0A5492868884223
:1035F00019D19F48006800F00700062810D2DFE8C4
:1036000000F0030507090B0D00240BE0042409E07A
:10361000082407E0102405E0202403E0402401E012
:10362000802400BFCAE097492868884220D190488A
:10363000006800F03800182811D005DC48B10828CF
:1036400009D0102811D108E020280AD028280CD150
:1036500009E001240BE0042409E0082407E0102419
:1036600005E0202403E0402401E0802400BFA5E021
:1036700085492868884219D17D48006800F0070014
:10368000062810D2DFE800F0030507090B0D00241F
:103690000BE0042409E0082407E0102405E02024BE
:1036A00003E0402401E0802400BF87E077492868D8
:1036B000884219D16E48006800F00700062810D231
:1036C000DFE800F0030507090B0D00240BE00424DC
:1036D00009E0082407E0102405E0202403E040244A
:1036E00001E0802400BF69E069492868884220D150
:1036F0005F48006800F03800182811D005DC48B198
:10370000082809D0102811D108E020280AD028283C
:103710000CD109E001240BE0042409E0082407E0AF
:10372000102405E0202403E0402401E0802400BFB1
:1037300044E058492868884220D14D48006800F08C
:103740003800182811D005DC48B1082809D0102805
:1037500011D108E020280AD028280CD109E0012442
:103760000BE0042409E0082407E0102405E02024ED
:1037700003E0402401E0802400BF1FE038492868AE
:1037800088421AD13A48001D006800F00700062858
:1037900010D2DFE800F0030507090B0D02240BE04F
:1037A000042409E0082407E0102405E0202403E0B5
:1037B000402401E0802400BF00E0802400BF2849AD
:1037C000286888424BD1102C1AD006DC022C09D074
:1037D000042C0BD0082C29D10DE0202C21D0402C1A
:1037E00024D120E0FDF746F8064623E005A8FDF7C2
:1037F00053F8069E1EE002A8FDF766F9039E19E045
:103800001B4854380068C0F3401040B11848543881
:103810000068C0F3C101204820FA01F600E01E4E06
:1038200008E01E4E06E04FF4004603E000260120AB
:10383000089000BF00BF002E10D01949686A31F807
:103840001000B6FBF0F9686800EB4000484503D86B
:1038500068680003484525D20120089007E153E03D
:10386000000C0058F369FFCFFFF4FF110010014076
:10387000544402580044004000480040004C0040BE
:10388000005000400014014000780040007C0040DF
:1038900000180140001C01400090D00300093D00C9
:1038A000403F00087849686A31F810C0624600233A
:1038B00030461946FCF726FD4FF4807C0022034673
:1038C000A3FB0C0B01FB0CB103FB02136968490855
:1038D00084461CEB010143EB0200CDE90010D5F852
:1038E00004C06246002308460199FCF70BFD074619
:1038F000B7F5407F05D3B7F5801F02D22868C760AF
:10390000B5E001200890B2E0E869B0F5004F5BD166
:10391000082C1AD005DC5CB1012C0DD0042C2DD163
:103920000EE0102C16D0202C23D0402C26D122E0E3
:10393000FEF7FCF9064625E0FEF70AFA064621E006
:1039400005A8FCF7A9FF069E1CE002A8FDF7BCF83D
:10395000039E17E04D480068C0F3401038B14B4853
:103960000068C0F3C1014A4820FA01F600E0484E61
:1039700008E0484E06E04FF4004603E00026012030
:10398000089000BF00BF7EB33F49686A31F810005D
:10399000B6FBF0F04000696800EB5100B0FBF1F7B6
:1039A000102F0ED3B7F5803F0BD24FF6F07007EA19
:1039B000000AC7F342004AEA000A2868C0F80CA0CF
:1039C00055E00120089052E0082C1BD005DC64B1C2
:1039D000012C0ED0042C2ED10FE0102C17D0202C4F
:1039E00024D0402C27D123E041E0FEF79FF9064682
:1039F00025E0FEF7ADF9064621E005A8FCF74CFFEF
:103A0000069E1CE002A8FDF75FF8039E17E01F4822
:103A10000068C0F3401038B11C480068C0F3C10111
:103A20001B4820FA01F600E0194E08E0194E06E0A6
:103A30004FF4004603E000260120089000BF00BFBD
:103A4000AEB11149686A31F81000B6FBF0F0696850
:103A500000EB5100B0FBF1F7102F06D3B7F5803F14
:103A600003D2B8B22968C86001E0012008900120A3
:103A7000A5F86A00A5F8680000206867A86708989C
:103A800009B0BDE8F08F0000403F00080044025834
:103A90000090D00300093D002DE9F04104460D4699
:103AA00017469846069E3CE0701CC8B3FCF7D6FD4E
:103AB000A0EB0800B04200D816B90320BDE8F081A1
:103AC0002068006800F0040050B32068C069C0F3AB
:103AD000C00078B10820216808622046FFF792FCF8
:103AE0000820C4F8900000BF002084F8840000BFC4
:103AF0000120E3E72068C069C0F3C02080B14FF423
:103B00000060216808622046FFF77CFC2020C4F892
:103B1000900000BF002084F8840000BF0320CDE7A0
:103B2000FFE72068C0692840A84201D1012000E0D9
:103B30000020B842B8D00020C0E7000010B51248FD
:103B4000124908604FF4E130486000210F4881605D
:103B5000C16001610C21416100218161C16101628B
:103B600041620020094988620846FEF742FF0021B1
:103B70000648FEF70FFF00210448FEF7DCFE03486D
:103B8000FEF7B2FE10BD000000100140300000241E
:103B900000BFFEE70FB4054B10B503A9044A029815
:103BA00000F034F810BC5DF814FB0000613D000823
:103BB0001800002402480068C0F30220704700008B
:103BC0000CED00E010B5002804DB0A07130E054ACF
:103BD000135406E00A07140E034A00F00F031B1FDC
:103BE000D45410BD00E400E018ED00E002E008C885
:103BF000121F08C1002AFAD170477047002001E067
:103C000001C1121F002AFBD1704700002DE9FF4FB0
:103C100089B09B460446002506E025280BD05A466D
:103C20000B999047641C6D1C20780028F5D10DB0CD
:103C30002846BDE8F08F0027B8460122474900E03A
:103C4000074314F8013F203B02FA03F00842F7D182
:103C500020782E2819D114F8010F47F004072A28DC
:103C60000ED06FF02F022078A0F1300109290CD876
:103C700008EB880102EB410100EB0108641CF2E74C
:103C80000A98641C50F8048B0A9020780028CED043
:103C9000642808D0692806D075281ED05A460B998A
:103CA00090476D1C58E00A994FF00A0901C90A9122
:103CB000002802DA40422D2102E0390504D52B21EB
:103CC0008DF82010012103E0F90704D02021F7E747
:103CD0008A4608AE0DE00021FAE70A994FF00A097A
:103CE00001C90A91F7E74946FCF74FFB303106F866
:103CF000011D0028F7D1ADEB060000F1200978077F
:103D000001D44FF00108C84502DDA8EB090000E02E
:103D100000208046002706E008A85A46C05D0B999F
:103D200090476D1C7F1C5745F6DB04E030205A4657
:103D30000B9990476D1CB8F10001A8F10108F5DC62
:103D400005E016F8010B5A460B9990476D1CB9F126
:103D50000001A9F10109F4DC641C65E709280100F0
:103D600013B50C466423012269460248FEF7D2FED1
:103D700000981CBD3000002400BF6048006800F4BB
:103D8000003000B139E000BF00BF00BFBFF34F8F6C
:103D900000BF00BF00BF00BF00BF00BFBFF36F8FF9
:103DA00000BF00BF00BF00205549086000BF00BF32
:103DB00000BFBFF34F8F00BF00BF00BF00BF00BFF9
:103DC00000BFBFF36F8F00BF00BF00BF4B4800684C
:103DD00040F400304949086000BF00BF00BFBFF396
:103DE0004F8F00BF00BF00BF00BF00BF00BFBFF3C9
:103DF0006F8F00BF00BF00BF00BF00BF3F4B1B68FD
:103E000003F4803303B148E000233C4C703423605A
:103E100000BF00BF00BFBFF34F8F00BF00BF00BF98
:103E2000231F1868C0F34E3100BFC0F3C90200BFA2
:103E300043F6E07303EA41134FF0404404EA82740E
:103E400023432F4C1034236000BF00BF131EA2F188
:103E50000102EDD10B1EA1F10101E6D100BF00BFAF
:103E600000BFBFF34F8F00BF00BF00BF234B1B68D5
:103E700043F48033214C236000BF00BF00BFBFF379
:103E80004F8F00BF00BF00BF00BF00BF00BFBFF328
:103E90006F8F00BF00BF00BF00BFFCF7F1FBFFF753
:103EA000A9F8FEF79BFEFFF749FEFEF7C1FE15A03D
:103EB000FFF770FE21E080211748FCF7BFFB0022CE
:103EC00016491748FEF740FC002216491448FEF731
:103ED00015FC144883784278C07800F5FA6112A086
:103EE000FFF758FE0D4883784278017811A0FFF75C
:103EF00051FE4FF47A70FCF795FADCE714ED00E020
:103F000050EF00E053544D33322052544320CAB591
:103F1000D1E9200D0A000000001802581C000024FE
:103F2000C40000240000002425642D25642D256490
:103F30002000000025643A25643A25640D0A00003B
:103F4000010002000400060008000A000C00100036
:103F50002000400080000001010101030701000072
:103F6000080402040801010100000000010203042A
:103F70000102030406070809983F00080000002416
:103F80001C000000EC3B0008B43F00081C000024AB
:103F9000CC040000FC3B0008000000000000000012
:103FA00010000000010000000090D0030090D0033A
:043FB000000000000D
:04000005080002CD20
:00000001FF
