:020000040800F2
:1000000050450024E1020008113C00081B3B000899
:100010000D3C0008110400082D52000800000000EB
:10002000000000000000000000000000A1460008E1
:100030001504000800000000D5430008A34600088E
:10004000FB020008FB020008FB020008FB0200089C
:10005000FB020008FB020008FB020008FB0200088C
:10006000FB020008FB020008FB020008FB0200087C
:10007000FB020008FB020008FB020008FB0200086C
:10008000FB020008FB020008FB020008FB0200085C
:10009000FB020008FB020008FB020008FB0200084C
:1000A000FB020008FB020008FB020008FB0200083C
:1000B000FB020008FB020008FB020008FB0200082C
:1000C000FB020008FB020008FB020008FB0200081C
:1000D000FB020008FB020008FB020008FB0200080C
:1000E000FB020008FB02000800000000FB02000801
:1000F000FB020008FB020008FB020008FB020008EC
:10010000FB020008FB020008FB020008FB020008DB
:10011000FB020008FB020008FB020008FB020008CB
:10012000FB020008FB020008FB020008FB020008BB
:10013000FB020008FB020008FB020008FB020008AB
:1001400000000000000000000000000000000000AF
:10015000FB020008FB020008FB020008FB0200088B
:10016000FB020008FB020008FB020008FB0200087B
:10017000FB020008FB020008FB0200080000000070
:10018000FB020008FB020008FB020008FB0200085B
:10019000FB020008FB020008FB020008FB0200084B
:1001A000FB020008FB020008FB0200080000000040
:1001B000FB020008FB020008FB020008FB0200082B
:1001C000FB020008FB020008000000000000000025
:1001D0000000000000000000FB020008000000001A
:1001E000000000000000000000000000000000000F
:1001F0000000000000000000FB020008FB020008F5
:10020000FB020008FB02000800000000FB020008DF
:10021000FB020008FB020008FB020008FB020008CA
:10022000FB02000800000000FB02000800000000C4
:10023000FB020008FB02000800000000FB020008AF
:10024000FB020008FB020008FB020008FB0200089A
:10025000FB020008FB020008FB020008FB0200088A
:10026000FB020008FB020008FB020008FB0200087A
:10027000FB020008FB020008FB020008000000006F
:10028000FB020008FB020008FB020008FB0200085A
:1002900000000000FB020008FB0200080000000054
:1002A00000000000FB020008FB020008FB0200083F
:1002B000FB020008FB020008FB020008FB0200082A
:1002C000FB020008FB020008FB020008DFF80CD06C
:1002D00000F08CF800480047617600085045002483
:1002E0000648804706480047FEE7FEE7FEE7FEE7D0
:1002F000FEE7FEE7FEE7FEE7FEE7FEE785470008CC
:10030000CD0200082DE9F05F0546002092469B468D
:1003100088460646814640241BE02846414647461B
:10032000224600F053F853465A46C01A914110D362
:1003300011461846224600F03AF82D1A67EB0108DC
:100340004F4622460120002100F031F817EB00094A
:100350004E41201EA4F10104DFDC484631462A4606
:100360004346BDE8F09F40EA01039B0703D009E044
:1003700008C9121F08C0042AFAD203E011F8013B91
:1003800000F8013B521EF9D27047D2B201E000F8EA
:10039000012B491EFBD270470022F6E710B5134629
:1003A0000A4604461946FFF7F0FF204610BD202AF2
:1003B00004DB203A00FA02F1002070479140C2F1BC
:1003C000200320FA03F3194390407047202A04DBEE
:1003D000203A21FA02F00021704721FA02F3D040BE
:1003E000C2F120029140084319467047064C074D60
:1003F00006E0E06840F0010394E8070098471034F5
:10040000AC42F6D3FFF766FFFC8000081C810008B1
:1004100000BFFEE7704772B600BFFEE710B5ADF54E
:10042000825D012213A1144806F0D0F91349087027
:100430000846007818B912A004F0FAFE17E018A0D8
:1004400004F0F6FE4FF4805010AB00220121009022
:1004500008A005F04DFE094908700846007818B953
:1004600019A004F0E5FE02E01DA004F0E1FE0DF588
:10047000825D10BD313A00002800002400000024F5
:100480000D0A53504920466C617368CEC4BCFECF40
:10049000B5CDB3B9D2D4D8B3C9B9A60D0A000000FE
:1004A00053504920466C617368BBB9CEB4B4B4BD37
:1004B000A8CEC4BCFECFB5CDB3A3ACBCB4BDABB865
:1004C000F1CABDBBAF0D0A0053504920466C6173A1
:1004D00068B8F1CABDBBAFB3C9B9A6A3A10D0A00E4
:1004E000B8F1CABDBBAFCAA7B0DCA3ACC7EBBCECCC
:1004F000B2E9BBF2B8FCBBBB53504920466C6173F8
:1005000068A3A10D0A00000070B5ADF5845D00245C
:100510000025202240A10DA8FFF725FF46A004F0EA
:1005200087FE0A2252A116A806F07AF955490870EA
:1005300008460078002823D153A004F079FE15ABBB
:100540001D220DA916A806F0A2FB4E490870084608
:10055000007838B956A004F06BFE0DA95BA004F03A
:1005600067FE09E05BA004F063FE16A805F02FFD0E
:1005700001200DF5845D70BD16A805F028FD07E08B
:1005800060A004F055FE16A805F021FD0120F0E75B
:1005900069A004F04DFE1D25012235A116A806F024
:1005A0003FF93849087015AB2A46704916A806F07D
:1005B00037FA344908700846007800281ED16CA02C
:1005C00004F036FE00240FE00DA8005D6749095DC8
:1005D000884207D06EA004F02BFE16A805F0F7FCA9
:1005E0000120C6E7601CC4B2AC42EDDB73A004F08E
:1005F0001FFE5E4935A004F01BFE07E076A004F064
:1006000017FE16A805F0E3FC0120B2E716A805F0D6
:10061000DEFC0020ADE7000053544D333220535030
:100620004920466C61736820CEC4BCFECFB5CDB303
:10063000B2E2CAD4000000002D2D2D2D2D2D2D2D20
:100640002D2D2D2D2D466174467320CEC4BCFEB4D5
:10065000B4BDA8BACDD0B4C8EBB2E2CAD42D2D2D0A
:100660002D2D2D2D2D2D2D2D2D2D2D2D0D0A000057
:10067000313A466174467320546573742E747874ED
:100680000000000000000024CEC4BCFEB4F2BFAAEB
:100690002FB4B4BDA8B3C9B9A6A3ACD7BCB1B8D068
:1006A000B4C8EBCAFDBEDD2E2E2E0D0A00000000E0
:1006B000D0B4C8EBB3C9B9A6A3ACD0B4C8EBC4DA04
:1006C000C8DDCEAAA3BA0D0A0000000025730D0AEA
:1006D00000000000CEC4BCFED0B4C8EBCAA7B0DC9A
:1006E000A3ACC7EBBCECB2E953504920466C617334
:1006F00068BBF2D6D8D0C2B8F1CABDBBAF210D0AD3
:1007000000000000CEDEB7A8B4F2BFAA2FB4B4BD7B
:10071000A8CEC4BCFEA3ACC7EBBCECB2E9535049B5
:1007200020466C617368BBF2D6D8D0C2B8F1CABD9E
:10073000BBAF210D0A0000002D2D2D2D2D2D2D2DAF
:100740002D2D2D2D2D466174467320CEC4BCFEB6D2
:10075000C1C8A1B2E2CAD42D2D2D2D2D2D2D2D2DA8
:100760002D2D2D2D2D2D0D0A0000000060100024D0
:10077000CEC4BCFEB6C1C8A1B3C9B9A6A3ACD5FD51
:10078000D4DAD0A3D1E9CAFDBEDD2E2E2E0D0A008B
:10079000D0A3D1E9CAA7B0DCA3ACC7EBBCECB2E9EB
:1007A00053504920466C617368BBF2D6D8D0C2B8AA
:1007B000F1CABDBBAF210D0A00000000D0A3D1E9F2
:1007C000B3C9B9A6A3ACB6C1B3F6B5C4CAFDBEDD04
:1007D000CEAAA3BA0D0A0000CEDEB7A8B6C1C8A142
:1007E000CEC4BCFEA3ACC7EBBCECB2E9535049206D
:1007F000466C617368BBF2D6D8D0C2B8F1CABDBB33
:10080000AF210D0A000000002DE9FC410024002565
:1008100001AA69460FA005F0EBFB0198C069801E94
:100820000199498900FB01F701984089009900FB73
:1008300001F63803840A3003850A07A004F0F8FCA7
:10084000214613A004F0F4FC294617A004F0F0FCA4
:10085000BDE8FC81313A00002D2D2D2D2D2D2D2DA3
:100860002D2D2D2D2D2D2D2D2D2D2DBBF1C8A1C9BB
:10087000E8B1B8C8DDC1BFD0C5CFA22D2D2D2D2D1B
:100880002D2D2D2D2D2D2D2D2D2D2D2D0D0A000035
:1008900053504920466C617368C8DDC1BFA3BA25B7
:1008A00064204B420D0A000053504920466C61738E
:1008B00068CAA3D3E0A3BA2564204B420D0A000006
:1008C00070B5044600F018F906462546681C10B1BC
:1008D00004480078054400BF00F00EF9801BA842D0
:1008E000FAD370BD0C000024F8B502460B46002177
:1008F0006D4DD2E001278F401E6806EA0704002CE8
:1009000072D01E7906F00306012E04D01E7906F07F
:100910000306022E13D190684F000326BE40B04359
:100920004F00DE68BE4030439060506801268E4024
:10093000B0431E79C6F300168E40304350601E79D6
:1009400006F00306032E09D0D0684F000326BE40F0
:10095000B0434F009E68BE403043D0601E7906F021
:100960000306022E13D1CF0802F1200656F8270005
:100970004E07F70E0F26BE40B0434F07FF0E1E690D
:10098000BE403043CF0802F1200646F82700106829
:100990004F000326BE40B0431E7906F003064F0009
:1009A000BE40304310605E6806F44036002E73D0BF
:1009B00000BF3E4E366846F002063C4F3E603E4663
:1009C000366806F00206009600BF00BF384E8F085A
:1009D00056F827008E07370F0F26BE40B043354E1E
:1009E000B24202D1002629E056E0334EB24201D194
:1009F000012623E0314EB24201D102261EE0304EE4
:100A0000B24201D1032619E02E4EB24201D1042692
:100A100014E02D4EB24201D105260FE02B4EB2421A
:100A200001D106260AE02A4EB24201D1072605E08E
:100A3000284EB24201D1092600E00A268F073F0F57
:100A4000BE4030431A4E8F0846F827004FF0B0469C
:100A50003068A0435E6806F4801606B120434FF06C
:100A6000B04630607068A0435E6806F4001606B1B8
:100A700020434FF0B04670606868A0435E6806F49B
:100A8000003606B1204368602868A0435E6806F41B
:100A9000803606B120432860491C1E68CE40002ED7
:100AA0007FF428AFF8BD000080000058F4440258DD
:100AB00008040058000002580004025800080258B8
:100AC000000C025800100258001402580018025876
:100AD000001C02580024025810B5426921EA0203A2
:100AE00002EA010443EA0443836110BD0AB1816153
:100AF00001E00B0483617047014800687047000003
:100B000004000024034800680349097808440149A7
:100B100008607047040000240C00002410B5032076
:100B200000F0A8F802F0A4F910490968C1F3032104
:100B30000F4A515C01F01F0120FA01F40B480068D4
:100B400000F00F001146085C00F01F0024FA00F0CE
:100B500008490860084804600F2000F00FF808B149
:100B6000012010BD00F036F80020FAE718440258C2
:100B7000927C0008140000241000002470B5044684
:100B80001148007808B9012070BD0F4800784FF473
:100B90007A71B1FBF0F00D490968B1FBF0F5284618
:100BA00002F02AFE08B10120EEE7102C07D2002245
:100BB0002146501E00F020F80548046001E00120A5
:100BC000E2E70020E0E700000C0000241000002411
:100BD0000800002408B500BF0648006840F0020085
:100BE000044908600846006800F00200009000BF59
:100BF00000BF08BDF44402582DE9F05F80460D4661
:100C0000164604F025FB074639462A46334601F0CE
:100C10000700C0F1070ABAF1040F02D94FF0040A25
:100C200001E0C0F1070AD14600F1040ABAF1070F4A
:100C300002D24FF0000A01E0A0F1030AD4464FF0BF
:100C4000010A0AFA09FAAAF1010A0AEA020A0AFAE8
:100C50000CFA4FF0010B0BFA0CFBABF1010B0BEA9A
:100C6000030B4AEA0B042146404604F0F9FABDE8BA
:100C7000F09F000000BF00F00702064B19684FF616
:100C8000FF031940044B0B4343EA0221014B196057
:100C900000BF70470CED00E00000FA052DE9F04FB1
:100CA0008DB081460C4693464FF0000AD046FE496F
:100CB000D9F80000884202D10026012501E0012672
:100CC0000025002710E007EB470201AB03EBC20150
:100CD0007A1CD0B202F09EFF20B14FF0010A08202A
:100CE000C9F85400781CC7B2022FECD3BAF1000F38
:100CF0007ED1ED48006800F0010038B1EA48006894
:100D000020F00100E849086048F00108E748006861
:100D100000F0010038B1E548006820F00100E34927
:100D2000086048F00208E24806EB460101AA02EB1F
:100D3000C1018968491E50F8210020F48072DC4806
:100D400006EB460101AB03EBC1018968491E40F87F
:100D50002120001F006800F0010000287FD0D44847
:100D6000001F006820F00100D149091F0860012D13
:100D700073D1081D05EB450101AA52F83110491E37
:100D800050F8210040F00202C94805EB450153F834
:100D90003110491E40F8212005EB450001A901EB67
:100DA000C0004068A0B1C24805EB450101AA02EBB2
:100DB000C1014968491E50F8210040F02002BC489A
:100DC00005EB450103EBC1014968491E40F82120AC
:100DD00005EB450001A901EBC000C068D8B1B448DB
:100DE00005EB450101AA02EBC101097B491E00E0A8
:100DF000C6E201F0010150F8210040F48022AC4825
:100E000005EB450101AB03EBC101097B491E01F074
:100E1000010140F8212005EB450001A901EBC000CC
:100E20000069002819D0A24805EB450101AA02EB90
:100E3000C101097C491E01F0010150F8210040F078
:100E400080629B4805EB450101AB03EBC101097CC6
:100E5000491E01F0010140F8212079E0FFE706EB8F
:100E6000460001A951F83000002871D0904806EBE7
:100E7000460101AA52F83110491E50F8210020F015
:100E800001028B4806EB460101AB53F83110491EB5
:100E900040F8212006EB460001A901EBC0004068A4
:100EA000A0B1834806EB460101AA02EBC1014968E3
:100EB000491E50F8210020F010027D4806EB460143
:100EC00003EBC1014968491E40F8212006EB4600AA
:100ED00001A901EBC000C068C8B1754806EB460126
:100EE00001AA02EBC101097B491E01F0010150F882
:100EF000210020F480326E4806EB460101AB03EB83
:100F0000C101097B491E01F0010140F8212006EBD7
:100F1000460001A901EBC0000069C8B1644806EBB6
:100F2000460101AA02EBC101097C491E01F0010141
:100F300050F8210020F080725D4806EB460101ABBD
:100F400003EBC101097C491E01F0010140F8212099
:100F500005EB450101AA52F83110206888421FD0E4
:100F600005EB450102EBC10160684968884217D072
:100F700005EB450102EBC101A068896888420FD0EA
:100F800005EB450102EBC101E068C968884207D062
:100F900005EB450102EBC10120690969884227D1AF
:100FA00005EB450101AA52F831102068884220D192
:100FB00005EB450102EBC10160684968884218D120
:100FC00005EB450102EBC101E068C968884210D118
:100FD00005EB450102EBC10120690969884208D18E
:100FE0003348001F006840F001003149091F0860C4
:100FF0008EE02F4805EB450101AA52F83110491E39
:1010000050F8210020F00102294805EB450101AB11
:1010100053F83110491E40F8212005EB450001A985
:1010200001EBC0004068A0B1214805EB450101AAD1
:1010300002EBC1014968491E50F8210020F010025E
:101040001B4805EB450103EBC1014968491E40F807
:101050002120174805EB450101AA02EBC10189686F
:10106000491E50F8210020F48072114805EB45011B
:1010700001AB03EBC1018968491E40F8212005EB53
:10108000450001A901EBC000C06800B3084805EBAA
:10109000450101AA02EBC101097B491E01F00101D2
:1010A00050F8210006E000000050005200A000525D
:1010B00004B4005220F48032B34805EB450103EB41
:1010C000C101097B491E01F0010140F8212005EB17
:1010D000450001A901EBC0000069C8B1AA4805EBB1
:1010E000450101AA02EBC101097C491E01F0010181
:1010F00050F8210020F08072A34805EB450101ABB8
:1011000003EBC101097C491E01F0010140F82120D7
:101110009D48A168491E50F8210020F440704FF40A
:10112000807141EA462108439749A268521E41F85E
:1011300022006069401E091F0968C1F30741884207
:101140000BD99148001F006820F47F01A08A401E3F
:1011500041EA00408C49091F08608B48001F006865
:1011600000F00100002875D087482168491E50F81A
:10117000210020F00300401C83492268521E41F8E0
:101180002200606868B108466168491E50F8210075
:1011900020F0300040F010027B486168491E40F8A2
:1011A0002120E06800F4803090B17748217B491E0F
:1011B00001F0010150F8210020F4E02040F48032D9
:1011C0007148217B491E01F0010140F8212013E004
:1011D000E06888B16C48217B491E01F0010150F89C
:1011E000210020F0E06040F080726748217B491EBA
:1011F00001F0010140F82120206900F4803090B115
:101200006148217C491E01F0010150F8210020F4C1
:10121000E02040F440325C48217C491E01F001018D
:1012200040F821209AE02069002811D05648217CFE
:10123000491E01F0010150F8210020F0E06040F06B
:1012400040725148217C491E01F0010140F82120E3
:1012500084E0FFE74C482168491E50F8210020F047
:101260000300012141EA4601084347492268521E12
:1012700041F82200606878B108466168491E50F85C
:10128000210020F03000102141EA461108433E4978
:101290006268521E41F82200E06800F48030A8B174
:1012A0003948217B491E01F0010150F8210020F44A
:1012B000E0204FF4803141EA864108433249227BE5
:1012C000521E02F0010241F8220016E0E068A0B1CF
:1012D0002D48217B491E01F0010150F8210020F02A
:1012E000E0604FF0807141EA866108432649227B25
:1012F000521E02F0010241F82200206900F4803001
:10130000A8B12148217C491E01F0010150F82100BB
:1013100020F4E0204FF4403141EA864108431A4965
:10132000227C521E02F0010241F8220016E02069E0
:10133000A0B11548217C491E01F0010150F821009F
:1013400020F0E0614FF0407040EA866001430E48B3
:10135000227C521E02F0010240F8221008F0010027
:1013600028B10A48006840F001000849086008F008
:10137000020028B10648006840F0010004490860F6
:1013800050460DB0BDE8F08F04B40052005000523A
:1013900000A000522DE9F84F04460D461746FFF70E
:1013A000ABFB81462068D0F848802068D0F810A1B7
:1013B000206D042849D1E868B0F5800F45D14B462F
:1013C000002220212046009702F0DEFF0646002E74
:1013D0003ED128682168C1F8880068682168C1F892
:1013E000800028692168C1F89000D5E9020108430E
:1013F00040F000502168096821F0435108432168FA
:101400000860E068B0F1806F03D12068C0F84880C0
:101410000CE02068D0F8000100F4E06018B120680A
:10142000C0F8488002E02068C0F810A14B460122B5
:1014300008212046009702F0A7FF064646B908207B
:10144000216848620220206502E0012610206065C4
:101450003046BDE8F88F2DE9F84304460D46904626
:10146000FFF74AFB8146A06800B900BFE86800B1F9
:1014700000BFE86900B100BFE86A00B100BFA86B17
:1014800018B1286800B900BF00BF276D022F03D133
:10149000E068B0F1806F0FD1142F05D128680228C1
:1014A0000AD02868032807D0242F43D128680128B0
:1014B00002D0286803283DD14B4600222021204637
:1014C000CDF8008002F060FF06461EBB002060657C
:1014D0002946204602F012FC0646DEB9A86B60B928
:1014E0004B46012202212046CDF8008002F04CFF3D
:1014F00006460220216848621FE0286810B90420CF
:1015000020651AE02868012808D1206D242802D11E
:101510000420206511E0142020650EE028680228D0
:101520000BD1206D142802D10420206505E0242071
:10153000206502E00126102060653046BDE8F88392
:1015400070B5044600250CB9012510E0206800683C
:1015500020F00100216808602068806820F0020007
:1015600021688860204600F08DF80020206528461C
:1015700070BD0000F8B504460025FFF7BDFA064629
:101580000CB901257AE000206065206D002875D136
:10159000204600F079F841F28831204600F065F9E4
:1015A000208A401EE16841EA00416069401E41EA2C
:1015B0000020616B0843E169084321688968304A6B
:1015C00011400843216888602068C06820F4E0204A
:1015D000216A08432168C860208EA16B41EA00405F
:1015E000216808612168E06B48612068006820F488
:1015F000F8516068401E41EA002021680860A06D33
:101600003346002220210090204602F0BDFE054610
:101610008DBB2068C06820F0FF00616A491E084346
:101620002168C8602068006820F04000A168084375
:1016300021680860D4E90A0108432168D1F808113B
:1016400021F0A04108432168C1F808012068006822
:1016500040F0010021680860A069022805D12068D7
:10166000806840F0020021688860E068B0F1806F17
:1016700002D10120206501E0022020652846F8BD46
:10168000F4F8E0F87047000010B586B00446142165
:1016900001A8FEF781FE3B492068884270D100BF57
:1016A0003948006840F4001037490860084600686F
:1016B00000F40010009000BF00BF00BF08460068A3
:1016C00040F4804008600846006800F480400090C4
:1016D00000BF00BF2C485838006840F480402A49B9
:1016E000583908600846006820F48040086000BF50
:1016F00025480C30006840F0200023490C31086078
:101700000846006800F02000009000BF00BF00BF46
:101710000846006840F0400008600846006800F095
:101720004000009000BF00BF4FF470700190022095
:10173000029000200390032004900A20059001A944
:101740001248FFF7D1F84FF4806001900220029018
:1017500000200390032004900920059001A90B4864
:10176000FFF7C2F840200190022002900020039071
:10177000032004900A20059001A90548FFF7B4F85A
:1017800006B010BD00500052D44402580014025854
:10179000001802582DE9F84F04460E461746FFF789
:1017A000ABF98146206800F1500A2068D0F84880E3
:1017B0002068D0F810B11EB901250820606551E0FD
:1017C000206D04284BD12068006C401CA064A06CE4
:1017D000606426642068006820F0405040F080502B
:1017E00021680860E068B0F1806F03D12068C0F81C
:1017F00048800CE02068D0F8000100F4E06018B1E7
:101800002068C0F8488002E02068C0F810B100BF2E
:101810004B46012206212046009702F0B5FD054601
:1018200005B10CE09AF80000216C0870206C401C97
:101830002064A06C401EA064A06C0028E8D100BF0A
:1018400085B94B46012202212046009702F09CFDFB
:1018500005463DB9022021684862206502E0012565
:10186000102060652846BDE8F88F0246916500208B
:1018700070472DE9F84304460E461746FFF73CF93A
:101880008046206800F150091EB9012508206065D6
:101890003AE0206D042834D12068006C401CA0641C
:1018A000A06C606426642068006820F040502168C5
:1018B000086000BF4346012204212046009702F041
:1018C00063FD054605B10CE0206C007889F8000046
:1018D000206C401C2064A06C401EA064A06C0028FA
:1018E000E8D100BF85B94346012202212046009776
:1018F00002F04AFD05463DB9022021684862206594
:1019000002E00125102060652846BDE8F88300004C
:1019100070B5044615480068C0F3800048B9134804
:10192000006800F00700A04201D0012070BD002037
:10193000FCE70E48006820F0070020430B490860D0
:10194000FFF7DAF8054607E0FFF7D6F8401BB0F5D9
:101950007A7F01D90120E9E7044808380068C0F31C
:1019600040300028F0D00020E0E700000C4802588A
:1019700010B501F033FA05490968C1F30211044AB0
:10198000515C01F01F01C84010BD00002044025806
:10199000927C000870B50146844D2D6805F0030364
:1019A000824D2D68C5F30530804D2D1D2D68C5F382
:1019B00000147E4D14352D68C5F3CC0515FB04F5D8
:1019C00001EE105AB8EE411AF0EE410A00286FD02D
:1019D00023B1012B4ED0022B6BD16BE0734D283D10
:1019E0002D68C5F340153DB3704D283D2D68C5F3F6
:1019F000C1066F4D25FA06F201EE102AF8EE411AE3
:101A000001EE100AB8EE411A81EE812A9FED691AA3
:101A1000C0EE811A654D10352D68C5F3080501EE3D
:101A2000105AB8EE411A31EE811AF7EE001A31EE73
:101A3000211A22EE010A1CE001EE100AB8EE411A4A
:101A4000DFED5D1A81EE812A9FED5A1AC0EE811AF0
:101A5000564D10352D68C5F3080501EE105AB8EE45
:101A6000411A31EE811AF7EE001A31EE211A22EEF8
:101A7000010A5BE001EE100AB8EE411ADFED4F1AE1
:101A800081EE812A9FED4B1AC0EE811A474D103529
:101A90002D68C5F3080501EE105AB8EE411A31EE73
:101AA000811AF7EE001A31EE211A22EE010A3DE00A
:101AB00077E01DE001EE100AB8EE411A9FED402AD2
:101AC000C2EE011A9FED3B1A80EE812A374D103588
:101AD0002D68C5F3080501EE105AB8EE411A32EE32
:101AE000011AB7EE002A31EE021A21EE810A1DE03A
:101AF00001EE100AB8EE411ADFED301A81EE812AAC
:101B00009FED2C1AC0EE811A284D10352D68C5F3B3
:101B1000080501EE105AB8EE411A31EE811AF7EEBF
:101B2000001A31EE211A22EE010A00BF00BF1F4D3C
:101B300010352D68C5F3462501EE105AB8EE411A4E
:101B4000F7EE001A31EE211AC0EE011ABCEEE11ACE
:101B500081ED001A154D10352D68C5F3064501EECF
:101B6000105AB8EE411AF7EE001A31EE211AC0EE03
:101B7000011ABCEEE11A81ED011A0C4D10352D68E9
:101B8000C5F3066501EE105AB8EE411AF7EE001AD9
:101B900031EE211AC0EE011ABCEEE11A81ED021AF3
:101BA00003E000250D604D608D6070BD2844025833
:101BB0000090D003000000460024744C0024744AB6
:101BC00020BCBE4B70B50146844D2D6805F0030363
:101BD000824D2D68C5F30550804D2D1D2D68C5F330
:101BE00000247E4D1C352D68C5F3CC0515FB04F58E
:101BF00001EE105AB8EE411AF0EE410A00286FD0FB
:101C000023B1012B4ED0022B6BD16BE0734D283DDD
:101C10002D68C5F340153DB3704D283D2D68C5F3C3
:101C2000C1066F4D25FA06F201EE102AF8EE411AB0
:101C300001EE100AB8EE411A81EE812A9FED691A71
:101C4000C0EE811A654D18352D68C5F3080501EE03
:101C5000105AB8EE411A31EE811AF7EE001A31EE41
:101C6000211A22EE010A1CE001EE100AB8EE411A18
:101C7000DFED5D1A81EE812A9FED5A1AC0EE811ABE
:101C8000564D18352D68C5F3080501EE105AB8EE0B
:101C9000411A31EE811AF7EE001A31EE211A22EEC6
:101CA000010A5BE001EE100AB8EE411ADFED4F1AAF
:101CB00081EE812A9FED4B1AC0EE811A474D1835EF
:101CC0002D68C5F3080501EE105AB8EE411A31EE41
:101CD000811AF7EE001A31EE211A22EE010A3DE0D8
:101CE00077E01DE001EE100AB8EE411A9FED402AA0
:101CF000C2EE011A9FED3B1A80EE812A374D18354E
:101D00002D68C5F3080501EE105AB8EE411A32EEFF
:101D1000011AB7EE002A31EE021A21EE810A1DE007
:101D200001EE100AB8EE411ADFED301A81EE812A79
:101D30009FED2C1AC0EE811A284D18352D68C5F379
:101D4000080501EE105AB8EE411A31EE811AF7EE8D
:101D5000001A31EE211A22EE010A00BF00BF1F4D0A
:101D600018352D68C5F3462501EE105AB8EE411A14
:101D7000F7EE001A31EE211AC0EE011ABCEEE11A9C
:101D800081ED001A154D18352D68C5F3064501EE95
:101D9000105AB8EE411AF7EE001A31EE211AC0EED1
:101DA000011ABCEEE11A81ED011A0C4D18352D68AF
:101DB000C5F3066501EE105AB8EE411AF7EE001AA7
:101DC00031EE211AC0EE011ABCEEE11A81ED021AC1
:101DD00003E000250D604D608D6070BD2844025801
:101DE0000090D003000000460024744C0024744A84
:101DF00020BCBE4B2DE9F04104460025A8464FF01B
:101E00000062D4E9001011400020134659404040C0
:101E1000014331D1606E48B1B0F5801F0DD0B0F5EF
:101E2000001F11D0B0F5401F16D114E0FE48006825
:101E300040F40030FC49086010E0022104F1080081
:101E400002F0CAFA054609E0022104F1280002F076
:101E500075FB054602E001E0012500BF00BF55B952
:101E6000F1482430006820F44010616E0843EE49C8
:101E70002431086000E0A8464FF48072D4E90010D5
:101E80001140002013465940404001432ED1A06D1F
:101E900005281BD2DFE800F0030A11181900E248F8
:101EA000006840F40030E049086011E0002104F1CE
:101EB000080002F091FA05460AE0002104F128002A
:101EC00002F03CFB054603E002E001E0012500BF13
:101ED00000BF55B9D4482430006820F00700A16D38
:101EE0000843D1492431086000E0A8464FF48062DD
:101EF000D4E90010114000201346594040400143EE
:101F00003DD1D4F8A400B0F5C00F24D007DC68B1EF
:101F1000B0F5001F11D0B0F5800F1FD114E0B0F55F
:101F2000000F19D0B0F5200F18D116E0BE48006898
:101F300040F40030BC49086012E0002104F10800C0
:101F400002F04AFA05460BE0002104F1280002F0F5
:101F5000F5FA054604E003E002E001E0012500BFD8
:101F600000BF5DB9B0482C30006820F46000D4F8A0
:101F7000A4100843AC492C31086000E0A8464FF497
:101F80000062D4E900011040002113465840494046
:101F900008433DD1D4F8A800B0F1407F24D007DC3D
:101FA00068B1B0F1807F11D0B0F1007F1FD114E093
:101FB000B0F1806F19D0B0F1A06F18D116E09A4837
:101FC000006840F400309849086012E0002104F1F4
:101FD000080002F001FA05460BE0002104F1280098
:101FE00002F0ACFA054604E003E002E001E001255E
:101FF00000BF00BF5DB98C482C30006820F0E06065
:10200000D4F8A810084388492C31086000E0A8469D
:102010004FF00073D4E900101940002059404040AF
:10202000014328D1E06CA8B1102804D0202809D0A1
:10203000302810D10DE07C48006840F400307A4927
:1020400008600AE0022104F1080002F0C5F9054623
:1020500003E002E001E0012500BF00BF55B972486E
:102060002030006820F03000E16C08436E492031D8
:10207000086000E0A8464FF48053D4E900101940EE
:10208000002059404040014337D1E06DB0F5005F7A
:102090001AD004DC50B1B0F5805F1ED10DE0B0F570
:1020A000405F18D0B0F5804F17D115E05E4800684A
:1020B00040F400305C49086011E0002104F10800A0
:1020C00002F08AF905460AE0002104F1280002F036
:1020D00035FA054603E002E001E0012500BF00BF3C
:1020E00055B951482430006820F4E040E16D0843C0
:1020F0004D492431086000E0A8464FF40053D4E96C
:1021000000101940002059404040014335D1206E55
:10211000B0F5403F1ED007DC68B1B0F5803F0BD072
:10212000B0F5003F19D10EE0B0F5802F13D0B0F517
:10213000A02F12D110E012E0012104F1080002F0FA
:102140004BF905460BE0012104F1280002F0F6F9F5
:10215000054604E003E002E001E0012500BF00BF06
:1021600055B931482430006820F4E020216E08433E
:102170002D492431086000E0A8464FF48042D4E99C
:10218000000110400021134658404940084337D110
:10219000D4F8AC00B0F1405F1ED007DC68B1B0F1FC
:1021A000805F0BD0B0F1005F19D10EE0B0F1804F2D
:1021B00013D0B0F1A04F12D110E012E0012104F1D0
:1021C000080002F009F905460BE0012104F128009E
:1021D00002F0B4F9054604E003E002E001E0012565
:1021E00000BF00BF5DB910482C30006820F0E0400F
:1021F000D4F8AC1008430C492C31086000E0A84624
:102200004FF40043D4E900011840002158404940F0
:1022100008432AD1E06EB8B1B0F1805F06D0B0F1CA
:10222000005F12D109E000002C440258F948006810
:1022300040F40030F749086009E0012104F108008A
:1022400002F0CAF8054602E001E0012500BF00BF28
:1022500055B9F0482430006820F04050E16E084342
:10226000EC492431086000E0A8464FF08073D4E9BF
:1022700000101940002059404040014328D1A06C73
:10228000A8B1012804D0022809D0032810D10DE0FC
:10229000E048006840F40030DE4908600AE00221AE
:1022A00004F1080002F098F8054603E002E001E0BE
:1022B000012500BF00BF55B9D6482030006820F086
:1022C0000300A16C0843D3492031086000E0A84610
:1022D0004FF48003D4E900101940002059404040D9
:1022E00001437DD1CC48006840F48070CA49086041
:1022F000FEF702FC064606E0FEF7FEFB801B6428A4
:1023000001D9032505E0C448006800F48070002866
:10231000F2D000BF85BBBF484430006800F4407075
:10232000B4F8B01001F44071884213D0B948443079
:10233000006820F44077B7484430006840F48030AB
:10234000B449443108600846006820F480300860D1
:1023500008460760D4F8B000B0F5807F15D1FEF7CD
:10236000CBFB064609E0FEF7C7FB801B41F2883134
:10237000884202D9032507E038E0A64844300068C7
:10238000C0F340000028EED000BF55BB00BFB4F83A
:10239000B00000F44070B0F5407F0ED19D481C386D
:1023A000006820F47C519D4AD4F8B000104041EA06
:1023B000101098491C39086007E096481C380068DE
:1023C00020F47C5093491C390860924844300068DE
:1023D000B4F8B010C1F30B0108438E49443101E059
:1023E00005E001E0086002E0A84600E0A8460122FE
:1023F000D4E90001104000211346584049400843E9
:1024000030D1A06F18281AD005DC48B1082808D0B0
:10241000102817D10CE0202812D0282812D110E063
:1024200012E0012104F1080001F0D6FF05460BE09F
:10243000012104F1280002F081F8054604E003E0E0
:1024400002E001E0012500BF00BF55B97148283006
:10245000006820F03800A16F08436E4928310860F9
:1024600000E0A8460223D4E900101940002059409A
:102470004040014329D1606F062816D2DFE800F002
:1024800003040B12131412E0012104F1080001F0FF
:10249000A3FF05460BE0012104F1280002F04EF8ED
:1024A000054604E003E002E001E0012500BF00BFB3
:1024B00055B958482830006820F00700616F08437C
:1024C00054492831086000E0A8460422D4E90010ED
:1024D0001140002013465940404001432BD1D4F80D
:1024E0009000062816D2DFE800F003040B12131444
:1024F00012E0012104F1080001F06EFF05460BE037
:10250000012104F1280002F019F8054604E003E077
:1025100002E001E0012500BF00BF5DB93D482C305D
:10252000006820F00700D4F89010084339492C3196
:10253000086000E0A8462023D4E9000118400021EB
:1025400058404940084337D1D4F88C00B0F1405F7F
:102550001ED007DC68B1B0F1805F0BD0B0F1005F36
:1025600019D10EE0B0F1804F13D0B0F1A04F12D1CD
:1025700010E012E0002104F1080001F02DFF0546F3
:102580000BE0022104F1280001F0D8FF054604E029
:1025900003E002E001E0012500BF00BF5DB91D4876
:1025A0002830006820F0E040D4F88C100843194926
:1025B0002831086000E0A8464023D4E90010194003
:1025C00000205940404001433CD1D4F89800B0F578
:1025D000406F25D007DC68B1B0F5806F0BD0B0F547
:1025E000006F20D10EE0B0F5805F1AD0B0F5A05F8B
:1025F00019D117E019E0002104F1080001F0ECFE08
:10260000054612E0022104F1280001F097FF05467B
:102610000BE000002C44025800480258FFFCFF0F5A
:1026200003E002E001E0012500BF00BF4DB9FE4814
:10263000006820F4E050D4F898100843FA49086084
:1026400000E0A8468023D4E900101940002059403A
:102650004040014335D1D4F89C00B0F5C04F1ED0A6
:1026600007DC68B1B0F5005F0BD0B0F5804F19D131
:102670000EE0B0F5004F13D0B0F5204F12D110E0AE
:1026800012E0002104F1080001F0A6FE05460BE06F
:10269000022104F1280001F051FF054604E003E0A7
:1026A00002E001E0012500BF00BF4DB9DE4800682F
:1026B00020F46040D4F89C100843DB49086000E037
:1026C000A8460823D4E90001184000215840494099
:1026D000084317D1D4F88000B0F5805F07D10221FC
:1026E00004F1280001F02AFF08B14FF00108CE489C
:1026F000001F006820F44050D4F880100843CA49F5
:10270000091F08601023D4E9000118400021584037
:102710004940084315D1D4F89400B0F5807F07D123
:10272000022104F1280001F009FF08B14FF001086F
:10273000BD48006820F44070D4F894100843BA49AA
:1027400008604FF40023D4E90001184000215840EC
:102750004940084327D1D4F8A00030B1B0F5803FFC
:102760000AD0B0F5003F0FD10DE0002104F10800C0
:1027700001F032FE054609E0022104F1280001F0D3
:10278000DDFE054602E001E0012500BF00BF4DB9B6
:10279000A548006820F44030D4F8A0100843A249AE
:1027A000086000E0A8464FF48023D4E900011840F7
:1027B00000215840494008432DD1D4F88400B0F599
:1027C000801F06D0B0F5001F0CD0B0F5401F11D10E
:1027D0000FE095482C38006840F4003092492C39BD
:1027E000086009E0012104F1280001F0A7FE054678
:1027F00002E001E0012500BF00BF5DB98A48001F6B
:10280000006820F44010D4F8841008438649091F5A
:10281000086000E0A8464FF48032D4E9000110407F
:102820000021134658404940084325D1206D18B176
:10283000B0F5803F10D108E07B482C38006840F4A8
:10284000003079492C39086008E0022104F10800C1
:1028500001F0C2FD054601E0012500BF00BF55B9EA
:1028600071480C38006820F48030216D08436E49AF
:102870000C39086000E0A8464FF00053D4E900107E
:102880001940002059404040014307D1022104F182
:10289000280001F053FE08B14FF001084FF4003258
:1028A000D4E9000110400021134658404940084334
:1028B00027D1E06FA0B1B0F5807F06D0B0F5007FE2
:1028C0000CD0B0F5407F0CD109E057482C38006897
:1028D00040F4003054492C39086004E003E002E081
:1028E00001E0012500BF00BF55B94F48001F006837
:1028F00020F44070E16F08434B49091F086000E075
:10290000A8464FF48012D4E900101140002013466D
:1029100059404040014309D143480838006820F03D
:102920000040216F08434049083908604FF4001304
:10293000D4E900011840002158404940084309D11A
:1029400039480838006820F08070A16E0843364985
:10295000083908604FF08043D4E900101940002086
:1029600059404040014311D100BF2F48483800680A
:1029700020F400402C494839086008460068D4F823
:10298000B410084328494839086000BF4FF000429E
:10299000D4E9000110400021134658404940084343
:1029A00009D121480C38006820F04050616D08437F
:1029B0001D490C3908604FF40002D4E900101140A1
:1029C000002013465940404001430AD11648001FD9
:1029D000006820F44000D4F8881008431249091F09
:1029E00008600122002160681040494050400143C6
:1029F00006D104F1080001F0EFFC054605B1A84638
:102A0000022200216068104049405040014307D134
:102A1000012104F1080001F0DFFC054605B1A846DC
:102A200004230020616801E0584402581940042240
:102A300040405140084307D1022104F1080001F051
:102A4000CBFC054605B1A846082300206168194063
:102A5000082240405140084307D1002104F12800DA
:102A600001F06CFD054605B1A84610230020616801
:102A70001940102240405140084307D1012104F180
:102A8000280001F05BFD054605B1A8462022002183
:102A90006068104049405040014307D1022104F1D1
:102AA000280001F04BFD054605B1A846B8F1000F1E
:102AB00002D10020BDE8F0810120FBE72DE9F041C3
:102AC00004460D4614B90120BDE8F081BD480068F8
:102AD00000F00F00A8420ED2BA48006820F00F00A4
:102AE0002843B84908600846006800F00F00A84273
:102AF00001D00120E8E7207800F0040004280ED17E
:102B0000B1492069096801F07001884207D9AE48CF
:102B1000006820F0700021690843AB490860207804
:102B200000F00800082811D1A749091D606909684B
:102B300001F07001884209D9A348001D006820F007
:102B4000700061690843A049091D0860207800F001
:102B50001000102811D19C49091DA069096801F4D1
:102B6000E061884209D99848001D006820F4E060BF
:102B7000A16908439449091D0860207800F02000ED
:102B8000202811D190490831E069096801F07001ED
:102B9000884209D98C480830006820F07000E1694B
:102BA0000843894908310860207800F002000228B3
:102BB0000ED18549E068096801F00F01884207D904
:102BC0008148006820F00F00E16808437E490860F2
:102BD000207800F00100002850D07B48006820F4E5
:102BE0007060A1680843784908606068022807D1CE
:102BF000754818380068C0F34040F8B9012063E711
:102C00006068032807D1704818380068C0F3406036
:102C1000A0B9012058E76068012807D16A48183830
:102C20000068C0F3002048B901204DE76648183815
:102C30000068C0F3800008B9012045E76248083801
:102C4000006820F00700616808435F4908390860A0
:102C5000FDF752FF064608E0FDF74EFF801B41F2EC
:102C60008831884201D903202EE757480838006888
:102C700000F038006168B0EBC10FEDD1207800F0B2
:102C8000020002280ED15049E068096801F00F01E6
:102C9000884207D24C48006820F00F00E1680843E2
:102CA000494908604748006800F00F00A8420ED963
:102CB0004448006820F00F00284342490860084655
:102CC000006800F00F00A84201D00120FCE6207847
:102CD00000F0040004280ED13B492069096801F086
:102CE0007001884207D23848006820F070002169DE
:102CF000084335490860207800F00800082811D101
:102D00003149091D6069096801F07001884209D2E2
:102D10002D48001D006820F07000616908432A49B1
:102D2000091D0860207800F01000102811D12649F4
:102D3000091DA069096801F4E061884209D22248AE
:102D4000001D006820F4E060A16908431E49091DC8
:102D50000860207800F02000202811D11A4908319D
:102D6000E069096801F07001884209D2164808300C
:102D7000006820F07000E1690843134908310860D9
:102D800000F076F810490968C1F303210F4A515C3D
:102D900001F01F0120FA01F70B48006800F00F0056
:102DA0001146085C00F01F0027FA00F0084908608F
:102DB0000848076008480068FDF7E0FE8046404686
:102DC00082E600000020005218440258927C00085D
:102DD00014000024100000240800002410B500F0A6
:102DE00047F80D490968C1F303210C4A515C01F011
:102DF0001F0120FA01F40848006800F00F00114696
:102E0000085C00F01F0024FA00F00549086005483E
:102E100004600846006810BD18440258927C0008FF
:102E2000140000241000002400B5FFF7D7FF054967
:102E30000968C1F30211044A515C01F01F01C84046
:102E400000BD00001C440258927C000800B5FFF74A
:102E5000C5FF05490968C1F30221044A515C01F02C
:102E60001F01C84000BD00001C440258927C0008AD
:102E7000F0B5824E366806F0380636B1082E15D009
:102E8000102E15D0182E7DD114E07C4E103E3668E1
:102E9000C6F3401646B1794E103E3668C6F3C107F8
:102EA000774E26FA07F000E07548E5E07548E3E064
:102EB0007548E1E0714E1836366806F003046F4E2F
:102EC00018363668C6F305116C4E1C36366806F0A7
:102ED00001056A4E24363668C6F3CC0616FB05F6A5
:102EE00001EE106AB8EE410A002971D024B1012C1C
:102EF00050D0022C6DD16DE0604E103E3668C6F3A6
:102F000040163EB35D4E103E3668C6F3C1075C4EB8
:102F100026FA07F301EE103AF8EE411A01EE101A04
:102F2000B8EE411A81EE812A9FED581AC0EE011ABF
:102F3000524E20363668C6F3080601EE106AB8EE27
:102F4000411A31EE811AF7EE001A31EE211A62EEC3
:102F5000010A1EE001EE101AB8EE411ADFED4C1A1C
:102F600081EE812A9FED491AC0EE011A434E2036A8
:102F70003668C6F3080601EE106AB8EE411A31EE63
:102F8000811A00E076E0F7EE001A31EE211A62EEC7
:102F9000010A5BE001EE101AB8EE411A9FED3D2ADE
:102FA000C2EE011A9FED391A80EE012A334E203607
:102FB0003668C6F3080601EE106AB8EE411A32EE22
:102FC000011AB7EE002A31EE021A61EE810A3DE0E5
:102FD0004EE01DE001EE101AB8EE411ADFED2E1A98
:102FE00081EE812A9FED291AC0EE011A234E203668
:102FF0003668C6F3080601EE106AB8EE411A31EEE3
:10300000811AF7EE001A31EE211A62EE010A1DE074
:1030100001EE101AB8EE411A9FED1E2AC2EE011AF7
:103020009FED1A1A80EE012A144E20363668C6F338
:10303000080601EE106AB8EE411A32EE011AB7EE38
:10304000002A31EE021A61EE810A00BF00BF0B4E6A
:1030500020363668C6F34626721C01EE102AB8EEFA
:10306000411AC0EE811ABCEEE11A11EE100A00E01E
:10307000002001E0034800BF00BFF0BD104402582B
:103080000090D00300093D0040787D01000000461B
:103090000024744C0024744A20BCBE4B2DE9F04738
:1030A000044614B90120BDE8F087207800F0010043
:1030B000002870D0F948006800F03808F748183048
:1030C000D0F80090B8F1100F06D0B8F1180F0FD15A
:1030D00009F0030002280BD1F04810380068C0F353
:1030E000404000286AD06068002867D10120DAE7F4
:1030F00000BF6068B0F5803F08D1E848103800682C
:1031000040F48030E549103908602EE0606868B905
:10311000E2481038006820F48030E0491039086037
:103120000846006820F4802008601EE06068B0F562
:10313000A02F0DD1D9481038006840F48020D7491D
:10314000103908600846006840F4803008600CE0E0
:10315000D2481038006820F48030D0491039086017
:103160000846006820F48020086000BF606898B1BD
:10317000FDF7C2FC054606E0FDF7BEFC401B6428D7
:1031800001D903208FE7C54810380068C0F34040DC
:103190000028F1D012E012E0FDF7AEFC054606E093
:1031A000FDF7AAFC401B642801D903207BE7BB483C
:1031B00010380068C0F340400028F1D100BF2078EB
:1031C00000F00200022879D1B448006800F0380805
:1031D000B2481830D0F80090B8F1000F05D0B8F11F
:1031E000180F35D109F0030088BBAC4810380068CF
:1031F000C0F3800018B1E06808B9012053E7A74880
:103200001038006820F01900E1680843A34910391C
:103210000860FDF771FC054606E0FDF76DFC401BFC
:10322000022801D903203EE79C4810380068C0F30B
:1032300080000028F1D099480C38006820F0FE404A
:10324000217C40EA016095490C39086045E0FFE7C0
:10325000E06838B391481038006820F01900E16840
:1032600008438E4910390860FDF746FC054606E024
:10327000FDF742FC401B022801D9032013E78748D1
:1032800010380068C0F380000028F1D083480C3863
:10329000006820F0FE40217C40EA01607F490C3943
:1032A00008601AE07D481038006820F001007B4972
:1032B00010390860FDF720FC054607E00EE0FDF739
:1032C0001BFC401B022801D90320ECE67348103890
:1032D0000068C0F380000028F1D100BF207800F022
:1032E000100010286FD16D48006800F038086B4856
:1032F0001830D0F80090B8F1080F06D0B8F1180FC8
:103300001CD109F00300012818D164481038006866
:10331000C0F3002020B1E069802801D00120C2E67E
:1033200000BF5E48001F006820F07C5094F8201019
:1033300040EA01605949091F086043E0E06938B379
:1033400056481038006840F0800054491039086031
:10335000FDF7D2FB054606E0FDF7CEFB401B022839
:1033600001D903209FE64D4810380068C0F30020C3
:103370000028F1D000BF4948001F006820F07C50B1
:1033800094F8201040EA01604449091F086019E0E0
:1033900042481038006820F0800040491039086029
:1033A000FDF7AAFB054606E0FDF7A6FB401B022839
:1033B00001D9032077E6394810380068C0F30020AF
:1033C0000028F1D100BF207800F00800082836D18D
:1033D0006069D0B131486430006840F001002F4985
:1033E00064310860FDF788FB054606E0FDF784FBC5
:1033F000401B022801D9032055E6284864300068A4
:10340000C0F340000028F1D019E02448643000687F
:1034100020F00100214964310860FDF76DFB05468D
:1034200006E0FDF769FB401B022801D903203AE6BC
:103430001A4864300068C0F340000028F1D12078B9
:1034400000F02000202838D1A069D0B113481038EE
:10345000006840F48050114910390860FDF74CFBBA
:10346000054606E0FDF748FB401B022801D9032072
:1034700019E60A4810380068C0F340300028F1D03F
:103480001BE006481038006820F4805003491039CA
:103490000860FDF731FB054609E0000010440258C2
:1034A000FDF72AFB401B022801D90320FBE5D04889
:1034B0000068C0F340300028F2D1207800F004000A
:1034C00004287DD1CB48006840F48070C949086069
:1034D000FDF712FB054606E0FDF70EFB401B6428D6
:1034E00001D90320DFE5C348006800F4807000289C
:1034F000F2D000BFA068012808D1BD487030006834
:1035000040F00100BA49703108602DE0A06868B948
:10351000B7487030006820F00100B549703108608C
:103520000846006820F0040008601DE0A068052837
:103530000DD1AF487030006840F00400AC497031E4
:1035400008600846006840F0010008600CE0A848E8
:103550007030006820F00100A5497031086008460D
:10356000006820F00400086000BFA068A0B1FDF76B
:10357000C3FA054608E0FDF7BFFA401B41F2883167
:10358000884201D903208EE5994870300068C0F365
:1035900040000028EFD013E0FDF7AEFA054608E042
:1035A000FDF7AAFA401B41F28831884201D9032075
:1035B00079E58F4870300068C0F340000028EFD1F3
:1035C000606A00287DD08A481030006800F038001A
:1035D000182877D0606A022875D18548006820F0E5
:1035E000807083490860FDF787FA054606E0FDF71D
:1035F00083FA401B022801D9032054E57C48006867
:10360000C0F340600028F2D100BFD4E90A1041EABB
:10361000001077492831096840F2F332914308439A
:10362000734928310860208E401EC0F30800616B8A
:10363000491E4FF47E4202EA41210843218F491E70
:10364000D20102EA014108433C21095D491E1202F0
:1036500002EA0161084366493031086000BF081F73
:10366000006820F00100091F0860614834300068DC
:103670004FF6F8718843A16C40EAC1005C493431CF
:1036800008605B482C30006820F00C00216C084377
:1036900057492C3108600846006820F00200616C30
:1036A000084353492C3108600846006840F48030D4
:1036B00008600846006840F400300860084600686A
:1036C00002E092E038E01FE040F480200860084605
:1036D000006840F0010008604548006840F08070D4
:1036E00043490860FDF708FA054606E0FDF704FACD
:1036F000401B022801D90320D5E43D480068C0F3EF
:1037000040600028F2D070E03948006820F08070F6
:1037100037490860FDF7F0F9054606E0FDF7ECF9DA
:10372000401B022801D90320BDE431480068C0F3E2
:1037300040600028F2D158E02D48283007682C4816
:1037400030300668606A012821D007F00301A06AC2
:1037500081421CD1C7F30511E06A884217D1C6F334
:103760000801206B401E814211D1606B401EC6F3E0
:10377000462188420BD1A06B401EC6F30641884209
:1037800005D1E06B401EC6F30661884201D00120DE
:1037900089E4174834300068C0F3CC07A06CB84205
:1037A00023D013482C30006820F0010010492C3140
:1037B0000860FDF7A1F9054600BFFDF79DF9401B24
:1037C000FBD00B48343000684FF6F8718843A16C89
:1037D00040EAC10006493431086005482C300068D1
:1037E00040F0010002492C31086000205BE4000039
:1037F000004402580048025870B504462546681E29
:10380000B0F1807F01D301200FE0681E4FF0E0216E
:1038100048610F214FF0FF3001F022FD00204FF0F2
:10382000E021886107200861002070BD014600BFCB
:1038300091F88400012801D102207047012081F80D
:10384000840000BF2420C1F8880008680268086866
:10385000006820F001000B68186022F00052002080
:103860004866086802602020C1F8880000BF002078
:1038700081F8840000BF00BFDFE770B504460D4645
:1038800000BF94F88400012801D1022070BD0120FE
:1038900084F8840000BF2420C4F8880020680668EB
:1038A0002068006820F001002168086020688068B6
:1038B00020F06060284321688860204600F0D2FF35
:1038C000206806602020C4F8880000BF002084F82B
:1038D000840000BF00BFD9E770B504460D4600BFA5
:1038E00094F88400012801D1022070BD012084F8E1
:1038F000840000BF2420C4F888002068066820687F
:10390000006820F00100216808602068806820F0CD
:103910006040284321688860204600F0A3FF2068AB
:1039200006602020C4F8880000BF002084F88400CE
:1039300000BF00BFD9E710B504460CB9012010BD87
:10394000A06900B100E000BFD4F8880028B90020C9
:1039500084F88400204600F02BF82420C4F8880066
:103960002068006820F0010021680860204601F00E
:10397000CDF8012800D1E2E7A06A10B1204600F09E
:103980009DFF2068406820F49040216848602068CE
:10399000806820F02A00216888602068006840F074
:1039A000010021680860204601F004F8C7E7000024
:1039B00010B586B00446142101A8FCF7EDFC23499C
:1039C0002068884240D100BF2148006840F01000C4
:1039D0001F4908600846006800F01000009000BF12
:1039E00000BF00BF1A481038006840F001001849B5
:1039F000103908600846006800F00100009000BF20
:103A000000BF00BF0846006840F00100086008469B
:103A1000006800F00100009000BF00BF4FF400708C
:103A200001900220029001200390032004900720BF
:103A3000059001A90748FCF757FF4FF480600190FB
:103A400001A90448FCF750FF06B010BD001001406A
:103A5000F0440258000002582DE9F84F04460E4683
:103A600017469946D4F88800202854D106B117B9D2
:103A70000120BDE8F88F00205434E063212060630A
:103A8000FDF73AF8824627806780543CA068B0F57D
:103A9000805F04D1206910B90025B04602E03546A8
:103AA0004FF0000820E05346002280212046CDF848
:103AB000009001F03FFB20B12020C4F888000320D3
:103AC000D7E745B9B8F80000C0F30800216888625C
:103AD00008F1020803E02878216888626D1CB4F8B8
:103AE0005600401EA4F85600B4F856000028DAD15B
:103AF0005346002240212046CDF8009001F01AFBE9
:103B000020B12020C4F888000320B2E72020C4F8A8
:103B100088000020ADE70220ABE700BFFEE7000011
:103B200000B587B0142102A8FCF736FC00BF0F488F
:103B3000006840F040000D4908600846006800F049
:103B40004000019000BF00BF002280210848FCF720
:103B5000CDFF80200290012003900020049005906A
:103B600002A90348FCF7C0FE07B000BDE0440258BC
:103B70000018025830B587B0182101A8FCF70CFCDA
:103B8000204D002403E0002005F8010B641C5C2C90
:103B9000F9D31D481B4908600846FDF7D1FC1A48B7
:103BA00018490860022117484162082015494860F9
:103BB000002114488160C160172101610121416128
:103BC000002181610121C161002101624FF080412A
:103BD00081620021C1620163082141630021816388
:103BE000C163FDF7C7FC0120019003904FF0011065
:103BF000049041F2883201A90248FDF74FF807B05E
:103C000030BD0000F41400240050005200BFFEE755
:103C100000BFFEE7F0B505460020002415B1022DD7
:103C200000D809B9012064E000260E604E608E6065
:103C3000CE600E61022D08D12E4E366806F00106C8
:103C40000EB92D4C01E04FF4007400234FE0294ED3
:103C5000361D56F8232002F001063EB102F002069E
:103C600004F00207BE4201D15E1C0E6002F0100695
:103C70003EB102F0200604F02007BE4201D15E1CD6
:103C80004E6002F480763EB102F4007604F40077D0
:103C9000BE4201D15E1C8E6002F480368EB102F409
:103CA000802604F48027BE420BD102F4003626B9E8
:103CB0005E1C46F48036CE6003E05E1C46F08076E3
:103CC000CE6002F080768EB102F0806604F08067EC
:103CD000BE420BD102F0007626B95E1C46F4803657
:103CE0000E6103E05E1C46F080760E615B1C022BC9
:103CF000ADD3F0BD00B40052220204042DE9F0411E
:103D00000246002017683F6827F04057D2F800C0ED
:103D1000CCF8007097685FB917683F6827F0800794
:103D2000D1F804C047EA0C07D2F800C0CCF8007004
:103D30000F68022F0CD1176807F5C073176807F5D5
:103D4000C474176807F5C875176807F5D0761BE0C7
:103D50000F68032F0CD1176807F5A073176807F5D4
:103D6000A474176807F5A875176807F5B0760BE017
:103D7000176807F58073176807F58474176807F5E7
:103D80008875176807F59076D1E9127C47EA0C0729
:103D90001F60CF6A8FB18F6A3760D1F834C0CF6AA5
:103DA00047EA0C07D1F830C047EA0C07D3F800C047
:103DB0002CF47C1C47EA0C071F60276827F01F07BC
:103DC000D1F844C047EA0C0727608F6B3FB10F68FA
:103DD0002FB9CF6B7F1ED2F800C0CCF84070CF68EF
:103DE000002F7AD0CF69E7B38F6B37B3D1F814C007
:103DF000CF6847EA0C07D1F810C047EA0C07D1F8A2
:103E00001CC047EA0C07D1F824C047EA0C07D1F8D8
:103E100020C047EA0C07D1F838C047EA0C07D1F8B0
:103E200040C047EA0C07D3F800C0DFF868810CEA0D
:103E3000080C47EA0C071F602AE0D1F814C0CF68CD
:103E400047EA0C07D1F810C047EA0C07D1F81CC0AC
:103E500047EA0C07D1F824C047EA0C07D1F820C084
:103E600000E01DE047EA0C07D3F800C043F63F78B6
:103E70002CEA080C47EA0C071F60D76AB7F1805F8D
:103E800006D14F69082F03D11F6847F000671F60F4
:103E90008F682F608F69D2F800C0CCF8487076E048
:103EA0008F6BDFB1D1F814C0CF6847EA0C07D1F8A7
:103EB00010C047EA0C07D1F838C047EA0C07D1F820
:103EC00040C047EA0C07D3F800C0DFF8CC800CEA0A
:103ED000080C47EA0C071F601BE01DE0D1F814C076
:103EE000CF6847EA0C07D1F810C047EA0C07D3F8AF
:103EF00000C02CF03F0C47EA0C071F60D76AB7F1EF
:103F0000805F06D14F69082F03D11F6847F0006713
:103F10001F608F682F603AE0CF69A7B38F6BE7B15E
:103F2000D1F824C0CF6947EA0C07D1F820C047EA8E
:103F30000C07D1F838C047EA0C07D1F840C047EA6F
:103F40000C07D3F800C0DFF84C8008F13F080CEAFA
:103F5000080C47EA0C071F600FE0D1F824C0CF69B6
:103F600047EA0C07D1F820C047EA0C07D3F800C095
:103F70002CF47C5C47EA0C071F608F69D2F800C004
:103F8000CCF8487003E0FFE7012008275765BDE83B
:103F9000F0810000C0C0FFF0C0FFFFF000B599B095
:103FA00000200590069001200890002009900A90BA
:103FB0000B900C904FF400500D9000200E9010903C
:103FC0004FF0807013900020159001201490002075
:103FD0001690179018900520079041F2883205A995
:103FE0000E48FDF738FA18B16FF0020019B000BDA5
:103FF0000020009002901020049080040390012083
:10400000019041F2883269460448FDF7C3F910B1C6
:104010006FF00200EAE70020E8E70000F414002453
:1040200010B5FFF7A7FD00F071F804460748844279
:1040300005D1214606A001F0FBF8002010BD214665
:1040400009A001F0F5F84FF0FF30F7E71740EF0057
:10405000573235513634204F4B2C666C61736820D3
:1040600049443A25580D0A00573235513634204517
:1040700052524F522121212121202049443A2558D2
:104080000D0A000070B594B004460D461646002097
:1040900000900190EB2002900120039000200490FA
:1040A000059006954FF4407007904FF4005008902B
:1040B000002009900B900D904FF040700E90002062
:1040C00010900F960620119000201290139041F24C
:1040D000883269460C48FDF7BEF918B16FF004004C
:1040E00014B070BD41F2883221460748FDF752FBFB
:1040F00010B16FF00400F3E7FFF750FF10B16FF05D
:104100000200EDE70020EBE7F414002410B596B0B0
:104110000020029003900120059000200690079057
:1041200009904FF400500A9000200D904FF08070DD
:1041300010900020129003201190002013901490F2
:1041400015909F20049041F2883202A90B48FDF798
:1041500082F941F2883201A90848FDF71BFB9DF85E
:10416000040000049DF8051040EA01209DF80610A7
:1041700040EA0104204616B010BD0000F4140024EB
:1041800010B594B0044600200090019001200390E7
:1041900000200490059006944FF480700790400131
:1041A0000890002009900B900E90109011901290A2
:1041B00013902020029000F043F818B16FF0010036
:1041C00014B010BD41F2883269460748FDF743F943
:1041D00010B16FF00200F3E7FFF7E0FE10B16FF0EF
:1041E0000200EDE70020EBE7F41400242DE9F0478E
:1041F00082460D461646E8B2C0F58078B04500D933
:10420000B0462C46AF19D14600BF1FFA88F22146AE
:10421000484600F071F818B16FF00400BDE8F0876F
:104220004444C14404F58070B84201D9381B01E010
:104230004FF480708046BC42E7D30020EEE70000D8
:1042400000B599B00020059006900120089000204C
:1042500009900A900B900C904FF400500D900020A4
:104260000E90129010901390159016901790189031
:104270000620079041F2883205A91E48FDF7EBF8A9
:1042800018B16FF0010019B000BD00200590069034
:1042900001200890002009900A900C901090169030
:1042A000179018904FF08070139001201490052003
:1042B000079041F2883205A90E48FDF7CCF810B1FD
:1042C0006FF00100DFE70220009000200290102034
:1042D0000490800403900220019041F288326946E4
:1042E0000448FDF757F810B16FF00200CBE700204B
:1042F000C9E70000F414002470B594B004460D46DC
:104300001646002000900190322002900120039078
:1043100000200490059006954FF4807007904001AE
:104320000890002009900B900D904FF040700E9077
:10433000002010900F96119012901390FFF780FFBD
:1043400018B16FF0010014B070BD41F288326946B7
:104350000C48FDF780F810B16FF00400F3E741F26C
:10436000883221460748FDF784FA10B16FF0040047
:10437000E9E7FFF713FE10B16FF00200E3E700205A
:10438000E1E70000F41400242DE9F04104460E4654
:1043900017469846069D12E0681C80B1FCF7ACFBFE
:1043A000A0EB0800A84200D84DB94FF4007020657A
:1043B000606D40F0010060650120BDE8F08120687B
:1043C000006A304008B1012000E00020B842E3D18B
:1043D0000020F2E7704700002DE9F04104460E4648
:1043E00000275548006800F00300032802D101208F
:1043F000BDE8F08150482838006820F080604E49C0
:1044000028390860FCF778FB054606E0FCF774FBEA
:10441000401B022801D90320EAE7474828380068F2
:10442000C0F3C0600028F1D100BF4348006820F409
:104430007C30216840EA01303F490860A088401E76
:10444000C0F30800A168491E4FF47E4202EA4121F0
:104450000843A189491ED20102EA01410843217C97
:10446000491E120202EA0161084333491031086013
:1044700000BF3148001D006820F0C000616908439A
:104480002D49091D08600846006820F02000A16938
:1044900008432949091D08600846006820F01000FB
:1044A00008602548143000684FF6F8718843E169C8
:1044B00040EAC1002049143108601F48001D00680F
:1044C00040F010001C49091D08602EB9084600681C
:1044D00040F40020086012E0012E08D11648001DAB
:1044E000006840F480101449091D086007E0124874
:1044F000001D006840F400100F49091D08600E48B7
:104500002838006840F080600B4928390860FCF7C3
:10451000F3FA054606E0FCF7EFFA401B022801D942
:10452000032065E7044828380068C0F3C06000280D
:10453000F1D038465CE70000284402582DE9F041EC
:1045400004460E4600275548006800F00300032883
:1045500002D10120BDE8F08150482838006820F0E1
:1045600080504E4928390860FCF7C6FA054606E037
:10457000FCF7C2FA401B022801D90320EAE74748AA
:1045800028380068C0F340700028F1D100BF4348CC
:10459000006820F07C70218840EA01503F490860A3
:1045A000A088401EC0F30800A168491E4FF47E4257
:1045B00002EA41210843A189491ED20102EA0141D0
:1045C0000843217C491E120202EA01610843334973
:1045D0001831086000BF3148001D006820F44060B9
:1045E000616908432D49091D08600846006820F4E8
:1045F0000070A16908432949091D08600846006840
:1046000020F48070086025481C3000684FF6F8716F
:104610008843E16940EAC10020491C3108601F4815
:10462000001D006840F480701C49091D08602EB907
:104630000846006840F48000086012E0012E08D1AE
:104640001648001D006840F400001449091D086068
:1046500007E01248001D006840F080700F49091DF6
:1046600008600E482838006840F080500B4928390F
:104670000860FCF741FA054606E0FCF73DFA401BEE
:10468000022801D9032065E7044828380068C0F3F0
:1046900040700028F1D038465CE7000028440258FA
:1046A000704710B5FCF72EFA10BD000000B5CBB076
:1046B0004C2138A8FBF770FE202130A8FBF76CFED8
:1046C000B82102A8FBF768FE0220FDF721F900BF20
:1046D000002001902A48006820F4404028490860E2
:1046E0000846006800F44040019000BF00BF00BFD2
:1046F0002348006800F40050B0F5005FF8D10120B5
:1047000038900004399002204190022138A881623B
:104710000A21C162DC21016301214163022181631D
:10472000C16304210164002141648164FEF7B6FC89
:1047300008B1FBF770FE3F2030900320319000203D
:10474000329008203390402034903590000136900C
:1047500040203790032130A8FEF7B0F908B1FBF7ED
:104760005AFE4FF000710020CDE90210159002A80A
:10477000FDF740FB08B1FBF74EFE4BB000BD00005B
:10478000184802582F48006840F470002D4908600E
:104790002D48006800F00F00072806D22A4800685C
:1047A00020F00F00C01D284908602848006840F02C
:1047B0000100264908600020244910310860234880
:1047C000006823490840214908601F48006800F03C
:1047D0000F00072806D91C48006820F00F00C01DF4
:1047E000194908600020194918310860091D08603E
:1047F000091D086017481549283108601648091D29
:1048000008601648091D08600020091D086013484B
:10481000091D08600020091D08601048091D086076
:104820000020091D08600948006820F4802007491D
:104830000860002005496031086043F2D200084951
:104840000860704788ED00E00020005200440258E4
:104850007FEDF6EA000202020000FF018002010182
:104860000040005270B5456E2DB90125A0F86A5080
:10487000A0F868501CE0102310240568AD68C5F34B
:1048800042610568AD686A0F0A4DAD5C15FB04F521
:10489000094EB65C95FBF6F5A0F86A50054D6D5CC7
:1048A00015FB03F5044E765C95FBF6F5A0F8685011
:1048B00070BD0000827C00088A7C000890F82810F7
:1048C00001F0010139B10168496821F40031C26A7F
:1048D00011430268516090F8281001F0020102298A
:1048E00007D10168496821F48031026B11430268E5
:1048F000516090F8281001F00401042907D10168E3
:10490000496821F48021426B11430268516090F89C
:10491000281001F00801082907D10168496821F42D
:104920000041826B11430268516090F8281001F039
:104930001001102907D10168896821F48051C26BE8
:1049400011430268916090F8281001F0200120299D
:1049500007D10168896821F40051026C1143026893
:10496000916090F8281001F04001402913D10168AE
:10497000496821F48011426C114302685160416C16
:10498000B1F5801F07D10168496821F4C001826C2C
:1049900011430268516090F8281001F080018029CD
:1049A00007D10168496821F40021C26C11430268F3
:1049B0005160704738B504460020C4F89000FCF7F9
:1049C0009BF805462068006800F00800082821D1FF
:1049D0006FF07E402B4600224FF4001100902046DD
:1049E00000F0A8FBB0B100BF00BF216851E8001F74
:1049F00021F08000226842E800010029F5D100BFC3
:104A00002020C4F8880000BF002084F8840000BF84
:104A1000032038BD2068006800F00400042830D16D
:104A20006FF07E402B4600224FF48001009020461C
:104A300000F080FB28B300BF00BF216851E8001FD1
:104A400021F49070226842E800010029F5D100BFEE
:104A500000BF00BF2168083151E8001F21F00100AC
:104A60002168083141E80002002AF3D100BF20206C
:104A7000C4F88C0000BF002084F8840000BF03202D
:104A8000C7E72020C4F88800C4F88C000020E06646
:104A9000206700BF84F8840000BF00BFB9E70000B2
:104AA00000BF00BF026852E8002F22F49071036833
:104AB00043E80012002AF5D100BF00BF00BF026822
:104AC000083252E8002F104B02EA03010268083254
:104AD00042E80013002BF2D100BFC16E01290CD1B6
:104AE00000BF00BF026852E8002F22F010010368E7
:104AF00043E80012002AF5D100BF2021C0F88C1035
:104B00000021C16641677047FEFFFFEF2DE9F04FBE
:104B100089B0054600200890F8492868884200D1ED
:104B200000E000BF2969A868084369690843E9698A
:104B300040EA010828680068F149084040EA080096
:104B4000296808602868406820F44050E9680843F4
:104B500029684860D5F81880E8492868884202D05A
:104B6000286A40EA080828688068E649084040EA60
:104B70000800296888602868C06A20F00F00696A08
:104B800008432968C86200BFDF492868884220D1ED
:104B9000DE48006800F03800182811D005DC48B164
:104BA000082809D0102811D108E020280AD0282888
:104BB0000CD109E001240BE0042409E0082407E0FB
:104BC000102405E0202403E0402401E0802400BFFD
:104BD00042E1CF492868884219D1CC48006800F0EA
:104BE0000700062810D2DFE800F0030507090B0DC7
:104BF00000240BE0042409E0082407E0102405E069
:104C0000202403E0402401E0802400BF24E1C149C6
:104C10002868884219D1BD48006800F007000628BE
:104C200010D2DFE800F0030507090B0D00240BE0AC
:104C3000042409E0082407E0102405E0202403E010
:104C4000402401E0802400BF06E1B349286888427F
:104C500019D1AE48006800F00700062810D2DFE83E
:104C600000F0030507090B0D00240BE0042409E004
:104C7000082407E0102405E0202403E0402401E09C
:104C8000802400BFE8E0A5492868884219D19F48E0
:104C9000006800F00700062810D2DFE800F00305E6
:104CA00007090B0D00240BE0042409E0082407E0A9
:104CB000102405E0202403E0402401E0802400BF0C
:104CC000CAE097492868884220D19048006800F0DF
:104CD0003800182811D005DC48B1082809D0102860
:104CE00011D108E020280AD028280CD109E001249D
:104CF0000BE0042409E0082407E0102405E0202448
:104D000003E0402401E0802400BFA5E08549286835
:104D1000884219D17D48006800F00700062810D2AB
:104D2000DFE800F0030507090B0D00240BE0042465
:104D300009E0082407E0102405E0202403E04024D3
:104D400001E0802400BF87E077492868884219D1B4
:104D50006E48006800F00700062810D2DFE800F077
:104D6000030507090B0D00240BE0042409E00824C7
:104D700007E0102405E0202403E0402401E0802423
:104D800000BF69E069492868884220D15F4800680F
:104D900000F03800182811D005DC48B1082809D0E7
:104DA000102811D108E020280AD028280CD109E0C9
:104DB00001240BE0042409E0082407E0102405E0A6
:104DC000202403E0402401E0802400BF44E058494F
:104DD0002868884220D14D48006800F03800182823
:104DE00011D005DC48B1082809D0102811D108E0FD
:104DF00020280AD028280CD109E001240BE0042443
:104E000009E0082407E0102405E0202403E0402402
:104E100001E0802400BF1FE03849286888421AD189
:104E20003A48001D006800F00700062810D2DFE8AD
:104E300000F0030507090B0D02240BE0042409E030
:104E4000082407E0102405E0202403E0402401E0CA
:104E5000802400BF00E0802400BF284928688842E1
:104E60004BD1102C1AD006DC022C09D0042C0BD00C
:104E7000082C29D10DE0202C21D0402C24D120E079
:104E8000FCF776FD064623E005A8FCF783FD069EA9
:104E90001EE002A8FCF796FE039E19E01B4854385A
:104EA0000068C0F3401040B1184854380068C0F39F
:104EB000C101204820FA01F600E01E4E08E01E4E17
:104EC00006E04FF4004603E000260120089000BFF2
:104ED00000BF002E10D01949686A31F81000B6FBE7
:104EE000F0F9686800EB4000484503D868680003A3
:104EF000484525D20120089007E153E0000C0058F6
:104F0000F369FFCFFFF4FF11001001405444025831
:104F10000044004000480040004C00400050004069
:104F20000014014000780040007C0040001801405F
:104F3000001C01400090D00300093D006A7C00087D
:104F40007849686A31F810C0624600233046194635
:104F5000FBF7D8F94FF4807C00220346A3FB0C0B2F
:104F600001FB0CB103FB02136968490884461CEB82
:104F7000010143EB0200CDE90010D5F804C0624600
:104F8000002308460199FBF7BDF90746B7F5407FB6
:104F900005D3B7F5801F02D22868C760B5E00120AD
:104FA0000890B2E0E869B0F5004F5BD1082C1AD048
:104FB00005DC5CB1012C0DD0042C2DD10EE0102CA1
:104FC00016D0202C23D0402C26D122E0FDF72CFF38
:104FD000064625E0FDF73AFF064621E005A8FCF766
:104FE000D9FC069E1CE002A8FCF7ECFD039E17E02E
:104FF0004D480068C0F3401038B14B480068C0F31A
:10500000C1014A4820FA01F600E0484E08E0484E47
:1050100006E04FF4004603E000260120089000BFA0
:1050200000BF7EB33F49686A31F81000B6FBF0F06C
:105030004000696800EB5100B0FBF1F7102F0ED370
:10504000B7F5803F0BD24FF6F07007EA000AC7F3BE
:1050500042004AEA000A2868C0F80CA055E0012086
:10506000089052E0082C1BD005DC64B1012C0ED056
:10507000042C2ED10FE0102C17D0202C24D0402C43
:1050800027D123E041E0FDF7CFFE064625E0FDF7FE
:10509000DDFE064621E005A8FCF77CFC069E1CE030
:1050A00002A8FCF78FFD039E17E01F480068C0F3BD
:1050B000401038B11C480068C0F3C1011B4820FAF9
:1050C00001F600E0194E08E0194E06E04FF40046E4
:1050D00003E000260120089000BF00BFAEB11149D7
:1050E000686A31F81000B6FBF0F0696800EB510017
:1050F000B0FBF1F7102F06D3B7F5803F03D2B8B25B
:105100002968C86001E0012008900120A5F86A0024
:10511000A5F8680000206867A867089809B0BDE88E
:10512000F08F00006A7C0008004402580090D00311
:1051300000093D002DE9F04104460D46174698460A
:10514000069E3CE0701CC8B3FBF7D6FCA0EB080041
:10515000B04200D816B90320BDE8F081206800688D
:1051600000F0040050B32068C069C0F3C00078B1FB
:105170000820216808622046FFF792FC0820C4F846
:10518000900000BF002084F8840000BF0120E3E706
:105190002068C069C0F3C02080B14FF4006021686E
:1051A00008622046FFF77CFC2020C4F8900000BF76
:1051B000002084F8840000BF0320CDE7FFE72068CB
:1051C000C0692840A84201D1012000E00020B84277
:1051D000B8D00020C0E7000010B51248124908609E
:1051E0004FF4E130486000210F488160C1600161E7
:1051F0000C21416100218161C16101624162002095
:10520000094988620846FEF796FB00210648FEF72A
:1052100063FB00210448FEF730FB0348FEF706FB62
:1052200010BD0000001001406014002400BFFEE724
:105230000FB4054B10B503A9044A029800F034F8E6
:1052400010BC5DF814FB0000AD73000824000024BE
:1052500002480068C0F30220704700000CED00E037
:1052600010B5002804DB0A07130E054A135406E0A4
:105270000A07140E034A00F00F031B1FD45410BD7D
:1052800000E400E018ED00E002E008C8121F08C1C9
:10529000002AFAD170477047002001E001C1121FB7
:1052A000002AFBD1704700002DE9FF4F8DB09B46CF
:1052B0000F460446002606E025280BD05A460F99D3
:1052C0009047641C761C20780028F5D111B0304638
:1052D000BDE8F08F0025A8460122984900E005436B
:1052E00014F8013F203B02FA03F00842F7D120787E
:1052F0002E2817D114F8010F45F004052A280ED0E6
:105300006FF02F022078A0F1300109290AD808EBAC
:10531000880102EB410100EB0108641CF2E757F839
:10532000048B641C20786C280DD004DC4C2812D02F
:105330006A2811D104E074280DD07A280CD10AE033
:1053400045F4001507E0617845F48015814202D1EB
:10535000641C05F58015641C2278692A45D008DC98
:10536000002AB3D0582A69D0632A10D0642A08D101
:105370003BE0702A67D0732A13D0752A5CD0782A54
:105380005CD010465A460F999047761CD3E017F828
:10539000040B8DF8000000208DF80100E946012083
:1053A00003E057F8049B4FF0FF3069074FF000050A
:1053B00001D40AE06D1C45450DDA8542FADB19F887
:1053C00005100029F6D106E06D1C8542FCDB19F8BA
:1053D00005100029F8D12E4404E019F8010B5A46B3
:1053E0000F9990476D1EF8D2A5E00A200021CDE963
:1053F0000801C5F3025002280DD001CFC117031ECA
:1054000071F100030DDA4FF0000CD0EB0C006CEBE7
:1054100001012D2308E0FF1D27F00707F7E802012F
:10542000EDE72B0504D52B238DF8283001233BE035
:10543000EB0739D02023F7E70A2000E010200021F5
:10544000CDE9080107E01020002145F00405CDE971
:1054500008014FF00808C5F3025002280FD001CF11
:1054600000214FF0000A2B071FD5702A0DD0DDE96F
:1054700008C38CF0100C5CEA030C0CD015E0FF1D87
:1054800027F00707F7E80201EBE740228DF8282014
:105490004FF0010A0BE050EA010306D030238DF8EB
:1054A00028308DF8292002239A46582A04D024A2B5
:1054B0000DF120090B9209E026A2F9E7DDE90823A6
:1054C000FAF720FF0B9B9B5C09F8013D50EA0102B3
:1054D000F4D1ADEB090020300890680701D44FF0FB
:1054E00001080899884502DDA8EB010000E00020D2
:1054F0008046002506E00AA85A46405D0F9990476D
:105500006D1C761C5545F6DB04E030205A460F9999
:105510009047761CB8F10001A8F10108F5DC05E020
:1055200019F8010B5A460F999047761C0899481EA6
:1055300008900029F4DC641CC5E60000092801007D
:1055400030313233343536373839616263646566F9
:1055500000000000303132333435363738394142BB
:10556000434445460000000070B504460D46002047
:10557000E070401E60632946204602F047F908B1FA
:10558000042070BD04F2362002F063F84AF655217B
:10559000884201D00320F4E794F83800E92807D0C6
:1055A00094F83800EB2815D13A20005D902811D1ED
:1055B000032209A104F16E0002F000F908B90020ED
:1055C000DFE7052205A104F18A0002F0F7F808B927
:1055D0000020D6E70220D4E7464154004641543328
:1055E00032000000024600E0521C107810B1107822
:1055F0008842F9D1107870470246891ED069801E12
:10560000884201D8002070475389106B03FB0100CA
:10561000F9E700002DE9F04780460C4604F11A0036
:1056200002F017F810B10020BDE8F087207800F0F4
:105630003F00401E00EB800101EBC0054FF0010967
:10564000002621E01849895D081902F002F8074692
:10565000B9F1000F11D0FF2D0BD2384601F054FCE8
:10566000824629466D1C38F8110001F04DFC824538
:1056700001D00020D8E7B94605E04FF6FF70874219
:1056800001D00020D0E7761C0D2EDBD3207800F06F
:10569000400038B1B9F1000F04D038F8150008B156
:1056A0000020C1E70120BFE7A27C00082DE9F047F8
:1056B00082468846DAF80040B8F1000F06D16769E3
:1056C00017B1E069B84215D8012713E041465046AA
:1056D00001F0DEFE0546022D02D20120BDE8F08772
:1056E000681C08B92846F9E7E069A84201D92846AC
:1056F000F4E74746A06908B90020EFE700264745D0
:1057000018D17E1CE069B04200D8022631465046CE
:1057100001F0BEFE0546012D01D0681C08B92846DF
:10572000DCE73DB16569022D03D3E069A84200D9E9
:105730002F460026E6B93E4600BF761CE069B0421F
:1057400004D80226BE4201D90020C7E731465046A0
:1057500001F09EFE054605B909E0012D01D0681C47
:1057600008B92846BAE7BE42E7D10020B6E700BF35
:105770004FF0FF323146204602F062F88146B9F11F
:10578000000F08D1B8F1000F05D03246414620463F
:1057900002F056F88146B9F1000F0DD16661D4E9E7
:1057A0000610801E814202D8A069401EA0612079A7
:1057B00040F00100207107E0B9F1010F02D14FF074
:1057C000FF3000E001200646304687E72DE9F34F21
:1057D00083B08146049800680190D9F80000D0F8A1
:1057E00010A000200646054600BF28466D1C019902
:1057F0000C5C202C00DA3EE02F2C01D05C2C0AD16E
:1058000000E06D1C0198405D2F28FAD00198405DA2
:105810005C28F6D02FE0FF2E03D3062005B0BDE8AC
:10582000F08FE4B2204600F011F968B128466D1CF3
:10583000019911F8008008EB042084B2404600F082
:105840000BF908B90620E9E740F2B511204601F04E
:1058500029FB04460CB90620E0E7802C06DA214635
:1058600074A0FFF7BFFE08B10620D7E73046761CCC
:105870002AF81040B9E700BF019841190498016067
:10588000202C01DA042000E00020074608E0701E0A
:105890003AF81040202C02D02E2C00D002E0761EC8
:1058A000002EF4D100BF00202AF816000EB9062001
:1058B000B4E70B22202109F1200001F09EFF002512
:1058C00000E06D1C3AF815002028FAD03AF81500CF
:1058D0002E28F6D00DB147F0030700E0761E26B162
:1058E000701E3AF810002E28F8D100208046029051
:1058F0004FF0080B00BF28466D1C3AF8104004B961
:105900006AE0202C03D02E2C04D1B54202D047F0FF
:105910000307F0E70298584501D2B54216D1BBF112
:105920000B0F02D147F0030756E0B54201D047F014
:105930000307B54200D94FE03546082002904FF0EA
:105940000B0B4FEA88604FEA1068D4E7802C0EDB1F
:1059500047F0020740F2B511204601F0B9FA0446BB
:1059600004F0800018B104F07F0035490C5CFF2C76
:1059700011DDABF101000299884204D847F003071A
:10598000CDF808B0B7E722120298411C029109F144
:1059900020010A5419E024B121462AA0FFF722FE73
:1059A00018B15F2447F003070FE0412C04DB5A2CA9
:1059B00002DC48F0020808E0612C06DB7A2C04DCEB
:1059C00048F00108A4F1200084B20298411C029121
:1059D00009F120010C548EE700BF99F82000E5285A
:1059E00002D1052089F82000BBF1080F03D14FEA4E
:1059F00088604FEA106808F00C000C2803D008F00B
:105A00000300032801D147F0020707F0020058B94C
:105A100008F00300012801D147F0100708F00C003E
:105A2000042801D147F008072B2000F80970002056
:105A3000F4E60000222A3A3C3E3F7C7F0000000052
:105A4000AF7C00082B2C3B3D5B5D0000014609B19B
:105A5000002070470020FCE7014609B10020704794
:105A60000020FCE72DE9F04104460E46D4F8008002
:105A70000021204600F0DFF90546EDB9002700BF00
:105A80004046A16901F0C2FE054605B113E0E06998
:105A90000078E52802D0E069007820B9781C074634
:105AA000B04201D107E000270121204600F0B7F8FD
:105AB0000546002DE4D000BF042D00D1072528465F
:105AC000BDE8F0812DE9F04704468946204602F002
:105AD00089F810B10120BDE8F08749462046FFF75C
