:020000040800F2
:1000000008530024E10200082D370008413600089B
:1000100029370008E3080008F16600080000000026
:10002000000000000000000000000000693C000823
:10003000B5090008000000009F3900087D3C000859
:10004000FB020008FB020008FB020008FB0200089C
:10005000FB020008FB020008FB020008FB0200088C
:10006000FB020008FB020008FB020008FB0200087C
:10007000FB020008FB020008FB020008FB0200086C
:10008000FB020008FB020008FB020008FB0200085C
:10009000FB020008FB020008FB020008FB0200084C
:1000A000FB020008FB020008FB020008FB0200083C
:1000B000FB020008FB020008FB020008FB0200082C
:1000C000FB020008FB020008FB020008FB0200081C
:1000D000FB020008FB020008FB020008FB0200080C
:1000E000FB020008FB02000800000000FB02000801
:1000F000FB020008FB020008FB020008FB020008EC
:10010000FB020008FB020008FB020008FB020008DB
:10011000FB020008FB020008FB020008FB020008CB
:10012000FB020008FB020008FB020008FB020008BB
:10013000FB020008FB020008FB020008FB020008AB
:1001400000000000000000000000000000000000AF
:10015000FB020008FB020008FB020008FB0200088B
:10016000FB020008FB020008FB020008FB0200087B
:10017000FB02000831370008FB0200080000000005
:10018000FB020008FB020008FB020008FB0200085B
:10019000FB020008FB020008FB020008FB0200084B
:1001A000FB020008FB020008FB0200080000000040
:1001B000FB020008FB020008FB020008FB0200082B
:1001C000FB020008FB020008000000000000000025
:1001D0000000000000000000FB020008000000001A
:1001E000000000000000000000000000000000000F
:1001F0000000000000000000FB020008FB020008F5
:10020000FB020008FB02000800000000FB020008DF
:10021000FB020008FB020008FB020008FB020008CA
:10022000FB02000800000000FB02000800000000C4
:10023000FB020008FB02000800000000FB020008AF
:10024000FB020008FB020008FB020008FB0200089A
:10025000FB020008FB020008FB020008FB0200088A
:10026000FB020008FB020008FB020008FB0200087A
:10027000FB020008FB020008FB020008000000006F
:10028000FB020008FB020008FB020008FB0200085A
:1002900000000000FB020008FB0200080000000054
:1002A00000000000FB020008FB020008FB0200083F
:1002B000FB020008FB020008FB020008FB0200082A
:1002C000FB020008FB020008FB020008DFF80CD06C
:1002D00000F03CFA00480047417000080853002431
:1002E0000648804706480047FEE7FEE7FEE7FEE7D0
:1002F000FEE7FEE7FEE7FEE7FEE7FEE7213D00083A
:10030000CD02000840EA01039B0703D009E008C9B9
:10031000121F08C0042AFAD203E011F8013B00F8CA
:10032000013B521EF9D27047D2B201E000F8012B16
:10033000491EFBD270470022F6E710B513460A4665
:1003400004461946FFF7F0FF204610BD30B50B46B6
:10035000014600202022012409E021FA02F59D42F5
:1003600005D303FA02F5491B04FA02F52844151EC9
:10037000A2F10102F1DC30BD2DE9F05F054600205D
:1003800092469B4688460646814640241BE0284606
:1003900041464746224600F0FAF953465A46C01AEB
:1003A000914110D311461846224600F0E1F92D1A6A
:1003B00067EB01084F4622460120002100F0D8F9E2
:1003C00017EB00094E41201EA4F10104DFDC484672
:1003D00031462A464346BDE8F09F2DE9FE4F804650
:1003E00081EA0300C00F0C46009021F0004123F089
:1003F0000045B8EB0200A94105D24046214690468F
:100400001C460B46024623F00040104347D0270D00
:10041000C7F30A00C3F30A510290401A0190402822
:100420006BDAC3F3130040F4801B0098924620B1AE
:100430000023D2EB030A63EB0B0B01985946C0F182
:100440004002504600F094F906460D465046594683
:10045000019A00F0ACF910EB08006141002487EA32
:10046000115284EAE7731A4340D0009A62B3019AAA
:10047000012A4FEA075215DC001B61EB02014FF025
:10048000004202EA0752CDE90042001C41F580110A
:1004900032462B4600F0ACF903B0BDE8F08F404681
:1004A0002146F9E7001B61EB0201001C41F58013B6
:1004B00000185B412018A2F5001747EB030140EA42
:1004C000D570B6196D4111E06D084FEA360645EA60
:1004D000C0754FEA0752001B61EB0201001C41F599
:1004E000801149084FEA30000019514132462B462D
:1004F00003B0BDE8F04F00F06CB900980122400055
:100500000023D0EB020263EBE073009821464FEA30
:10051000E074B8EB000061EB0401E9E783F000430D
:100520005BE781F0004158E72DE9FE4F81EA0304C3
:1005300004F0004421F0004100944FF0000B23F040
:10054000004350EA01045ED052EA03045BD0C3F3D7
:100550000A54C1F30A552C44A4F2F3340194A0FBCD
:100560000254C1F3130141F48011C3F3130343F4A4
:10057000801301FB024400FB034E840A970A44EAFD
:10058000815447EA8357A4FB076802958D0A05FB4F
:1005900007854FEA932C04FB0C542705029D4FEA74
:1005A000065847EA1637B5EB08056EEB070C870EC1
:1005B000920E47EA811742EA8312A7FB0201B6EBCB
:1005C0000B0164EB00042B0D43EA0C335E1844EB83
:1005D0001C50DA465146E7FB0201C5F313044FEA0B
:1005E0000B3343EA14534FEA0432019C43EA0603F7
:1005F000A4F10C040294009CCDE900B400F0F8F8DA
:1006000003B0BDE8F08F00200146F9E72DE9F04D79
:1006100081EA030404F0004B21F0004514464FF03A
:10062000000A23F0004150EA050220D054EA0102FA
:100630001DD0C5F30A570246C5F31303C1F31300D7
:10064000C1F30A5640F4801543F48013A7EB060863
:10065000101BD64608F2FD3873EB050002D308F1F3
:10066000010801E092185B41B8F1000F03DA0020A5
:100670000146BDE8F08D00204FF480110646844607
:100680000EE0171B73EB050705D3121B63EB050385
:1006900006434CEA010C49084FEA300092185B41CE
:1006A00050EA0107EDD152EA030012D082EA0400B9
:1006B00083EA0501084305D0101BAB4106D2012295
:1006C000002306E000224FF0004302E06FF0010239
:1006D00053101AEB06004CEB085110EB0A0041EBEB
:1006E0000B01BDE8F04D00F074B8C1F30A52C1F33C
:1006F000130140F2FF3341F480119A4202DA0020E4
:100700000146704740F233439A42A2F2334202DC80
:10071000524200F03CB800F02BB8000030B5041E87
:1007200071F1000404DB4FF00044404264EB01012E
:10073000141E73F1000405DB1C464FF000435242C7
:1007400063EB0403994208BF904230BD064C074D4D
:1007500006E0E06840F0010394E807009847103491
:10076000AC42F6D3FFF7B6FD4C7100086C7100087F
:10077000202A04DB203A00FA02F100207047914061
:10078000C2F1200320FA03F3194390407047202A56
:1007900004DB203A21FA02F00021704721FA02F32B
:1007A000D040C2F120029140084319467047202AE8
:1007B00006DBCB17203A41FA02F043EAE07306E089
:1007C00041FA02F3D040C2F1200291400843194699
:1007D000704710B5141E73F1000408DA401C41F193
:1007E000000192185B411A4301D120F0010010BDB5
:1007F0002DE9F04D92469B4611B1B1FA81F202E02B
:10080000B0FA80F220329046FFF7B2FF04460F465E
:1008100040EA0A0041EA0B0153465A46084313D006
:10082000114653EA010019D0C8F140025046FFF7C3
:10083000AEFF05460E46504659464246FFF798FF22
:10084000084305D0012004E020463946BDE8F08D7C
:100850000020054346EAE0762C4337430A986305B7
:10086000E40AA0EB08000022FD0A44EA47540A30DB
:1008700002D500200146E9E7010510196941DDE9CB
:10088000084500196941BDE8F04DA2E770B58C1824
:1008900010F8015B15F0070301D110F8013B2A1194
:1008A00006D110F8012B03E010F8016B01F8016B81
:1008B0005B1EF9D12B0705D40023521E0DD401F87D
:1008C000013BFAE710F8013BCB1A921C03E013F846
:1008D000015B01F8015B521EF9D5A142D8D300207B
:1008E00070BD00BFFEE70346042B15D007DC7BB1CB
:1008F000012B0ED0022B0DD0032B12D10BE0202B9D
:100900000BD0212B0AD0222B09D0232B09D107E0B1
:1009100008E007E006E005E004E003E002E001E0B3
:1009200000E000BF00BF00207047002070470000BB
:1009300010B500220449054803F0FDFC04490348B2
:1009400003F0EAFC002010BDD8130024FC060024AC
:10095000D80B002470B504460D462146034803F029
:10096000DBFC024803F0A4FC002070BDFC06002460
:1009700010B503460C460021084610BD2DE9F04194
:1009800004460D4600260A48D0F8BC72D7F8140277
:1009900010B10120BDE8F0812A462146044803F049
:1009A000CAFC034803F07AFD06463046F2E7000031
:1009B000FC060024704772B6FEE7000070B50A48D6
:1009C0000468001D0568001D0668344454B10822FF
:1009D0000649204602F036FE04220449103128461A
:1009E00002F030FE70BD000000E8F11F2A0600246E
:1009F00070B5044600F018F906462546681C10B18B
:100A000004480078054400BF00F00EF9801BA8429E
:100A1000FAD370BD60060024F8B502460B460021EB
:100A20006D4DD2E001278F401E6806EA0704002CB6
:100A300072D01E7906F00306012E04D01E7906F04E
:100A40000306022E13D190684F000326BE40B04328
:100A50004F00DE68BE4030439060506801268E40F3
:100A6000B0431E79C6F300168E40304350601E79A5
:100A700006F00306032E09D0D0684F000326BE40BF
:100A8000B0434F009E68BE403043D0601E7906F0F0
:100A90000306022E13D1CF0802F1200656F82700D4
:100AA0004E07F70E0F26BE40B0434F07FF0E1E69DC
:100AB000BE403043CF0802F1200646F827001068F8
:100AC0004F000326BE40B0431E7906F003064F00D8
:100AD000BE40304310605E6806F44036002E73D08E
:100AE00000BF3E4E366846F002063C4F3E603E4632
:100AF000366806F00206009600BF00BF384E8F0829
:100B000056F827008E07370F0F26BE40B043354EEC
:100B1000B24202D1002629E056E0334EB24201D162
:100B2000012623E0314EB24201D102261EE0304EB2
:100B3000B24201D1032619E02E4EB24201D1042661
:100B400014E02D4EB24201D105260FE02B4EB242E9
:100B500001D106260AE02A4EB24201D1072605E05D
:100B6000284EB24201D1092600E00A268F073F0F26
:100B7000BE4030431A4E8F0846F827004FF0B0466B
:100B80003068A0435E6806F4801606B120434FF03B
:100B9000B04630607068A0435E6806F4001606B187
:100BA00020434FF0B04670606868A0435E6806F46A
:100BB000003606B1204368602868A0435E6806F4EA
:100BC000803606B120432860491C1E68CE40002EA6
:100BD0007FF428AFF8BD000080000058F4440258AC
:100BE0000804005800000258000402580008025887
:100BF000000C025800100258001402580018025845
:100C0000001C02580024025810B5426921EA020370
:100C100002EA010443EA0443836110BD0AB1816121
:100C200001E00B04836170470148006870470000D1
:100C3000580600240348006803490978084401491C
:100C400008607047580600246006002410B5032091
:100C500000F0BCF802F016F810490968C1F303214E
:100C60000F4A515C01F01F0120FA01F40B480068A3
:100C700000F00F001146085C00F01F0024FA00F09D
:100C800008490860084804600F2000F00FF808B118
:100C9000012010BD00F036F80020FAE71844025891
:100CA0003C710008680600246406002470B5044600
:100CB0001148007808B9012070BD0F4800784FF442
:100CC0007A71B1FBF0F00D490968B1FBF0F52846E7
:100CD00002F09CFC08B10120EEE7102C07D20022A4
:100CE0002146501E00F034F80548046001E0012060
:100CF000E2E70020E0E7000060060024640600242C
:100D00005C06002408B500BF0648006840F00200F9
:100D1000044908600846006800F00200009000BF27
:100D200000BF08BDF44402580146084600280DDB08
:100D300000BF00BF00F01F0301229A4043099B003F
:100D400003F1E023C3F8002100BF00BF00BF7047DC
:100D50002DE9F05F80460D46164605F0E1FC07469A
:100D600039462A46334601F00700C0F1070ABAF1B6
:100D7000040F02D94FF0040A01E0C0F1070AD1467E
:100D800000F1040ABAF1070F02D24FF0000A01E0A5
:100D9000A0F1030AD4464FF0010A0AFA09FAAAF1AF
:100DA000010A0AEA020A0AFA0CFA4FF0010B0BFADE
:100DB0000CFBABF1010B0BEA030B4AEA0B042146D7
:100DC000404605F0B5FCBDE8F09F000000BF00F014
:100DD0000702064B19684FF6FF031940044B0B43FB
:100DE00043EA0221014B196000BF70470CED00E09F
:100DF0000000FA0501460A680120C1F8000500203C
:100E000081F8F404906940F000609061506D024BED
:100E100018435065002070470300001070470246D9
:100E20001068416200207047F0B503461546186807
:100E3000446A21B944EA05401E68B06219E01868A6
:100E4000806A04EB1044002208E0186800F5827004
:100E500050F8220004EB1044501CC2B2481E9042CD
:100E6000F3D844EA0547186800F582704E1E40F832
:100E700026700020F0BD10B50446D4F8080503F034
:100E800075FF10BD70B504460D4605EBC50304F1B2
:100E90003C0101EB8301CA682946D4F8080503F038
:100EA00060FE70BD70B504460D4605EBC50304F544
:100EB0001F7101EB8301CA682946D4F8080503F0C5
:100EC000D4FE70BD10B50446D4F8080503F051FFF8
:100ED00010BD2DE9F04104460D4605F08000802844
:100EE00008D105F00F0000EBC00104F13C0000EB5D
:100EF000810607E005F00F0000EBC00104F51F704C
:100F000000EB81063146206805F07CF9074638463B
:100F1000BDE8F08170B504460E4606F080008028DA
:100F20000AD106F00F0000EBC00104F13C0000EB19
:100F300081050120687009E006F00F0000EBC00198
:100F400004F51F7000EB81050020687006F00F00AB
:100F5000287000BF94F8BC04012801D1022070BDA4
:100F6000012084F8BC0400BF2946206804F0E6FC98
:100F700000BF002084F8BC0400BF00BFEFE770B5DD
:100F800004460E4606F00F006168884201D9012030
:100F900070BD06F0800080280AD106F00F0000EB3B
:100FA000C00104F13C0000EB81050120687009E0FC
:100FB00006F00F0000EBC00104F51F7000EB810587
:100FC000002068700020A87006F00F00287000BF95
:100FD00094F8BC04012801D10220D9E7012084F84B
:100FE000BC0400BF2946206804F09EFE00BF00201C
:100FF00084F8BC0400BF00BFCAE7024601F00F003E
:1010000000EBC00302F51F7000EB830040697047DE
:101010002DE9F04705460E4690461F464FF0000961
:1010200006F0800080280AD106F00F0000EBC00116
:1010300005F13C0000EB81040120607009E006F03E
:101040000F0000EBC00105F51F7000EB81040020CC
:10105000607006F00F002070C4F808802771607877
:1010600008B120786083022F01D10020607100BF99
:1010700095F8BC04012802D10220BDE8F0870120C8
:1010800085F8BC0400BF2146286804F063FB00BF5C
:10109000002085F8BC0400BF4846EEE72DE9F0418A
:1010A00005460E461746984606F00F0000EBC001B5
:1010B00005F51F7000EB8104E760C4F81080002084
:1010C0006061607006F00F002070E868012800D1B0
:1010D000E7612A7B2146286804F0BAFE0020BDE8BB
:1010E000F08170B504460D4605F00F006168884236
:1010F00001D9012070BD05F0800080280AD105F0DB
:101100000F0000EBC00104F13C0000EB8106012060
:10111000707007E005EBC50104F51F7000EB810658
:10112000002070700120B07005F00F00307000BF1B
:1011300094F8BC04012801D10220DBE7012084F8E7
:10114000BC0400BF3146206804F035FE05F00F00F6
:1011500028B9217B04F2C442206804F0ADFD00BF31
:10116000002084F8BC0400BF00BFC3E72DE9F041B4
:1011700005460E461746984606F00F0000EBC001E4
:1011800005F13C0000EB8104E760C4F8108000200A
:1011900060610120607006F00F002070E86801288F
:1011A00000D1E7612A7B2146286804F051FE002027
:1011B000BDE8F0812DE9FE4F0446D4F800B05E464C
:1011C000206805F006F9002874D1206805F040F980
:1011D00008B9BDE8FE8F40F608008059C0F30D2025
:1011E000C4F8FC04206805F033F900F0020002287E
:1011F00005D12068406900F002002168486120683C
:1012000005F026F900F01000102845D1206880690B
:1012100020F0100021688861DBF8209009F00F00B1
:1012200000EBC00104F51F7000EB810AC9F34340D5
:1012300002281AD147F6F07009EA000030B3C9F36A
:101240000A125846DAF80C1005F007F9C9F30A112A
:10125000DAF80C000844CAF80C00C9F30A11DAF8ED
:1012600014000844CAF8140010E0C9F343400628EB
:101270000CD1082204F2C441584605F0EEF8C9F337
:101280000A11DAF814000844CAF8140020688069CA
:1012900040F0100021688861206805F0D9F800F45A
:1012A0000020B0F5002F7BD10025206805F0A0F8C4
:1012B000029072E003E3029800F00100002868D079
:1012C000E9B2206805F0B7F8804608F0010048B19F
:1012D000012106F5306000EB45108160294620466B
:1012E00002F060FA08F00800082809D1082106F584
:1012F000306000EB451081602946204602F020FA5C
:1013000008F01000102805D1102106F5306000EB20
:101310004510816008F00200022824D1DBF8140097
:1013200000F08000802807D140F60400805940F486
:10133000806140F60400815105EBC50104F51F7082
:1013400000EB810A9AF80300012806D100208AF8F0
:101350000300E9B2204600F0BDFA022106F5306034
:1013600000EB4510816008F02000202805D12021E5
:1013700006F5306000EB4510816008F40050B0F5D0
:10138000005F06D14FF4005106F5306000EB4510C8
:1013900081606D1C029840080290029800288AD152
:1013A000206805F055F800F48020B0F5802F7DD13D
:1013B000206805F013F8029000259AE0029800F0EA
:1013C0000100002873D0E9B2206805F01BF88046C0
:1013D00008F00100F0B305F00F01012088400190F2
:1013E00040F634008159019821EA000040F63401AA
:1013F0008851012106F5106000EB45108160E0681E
:10140000012824D105EBC50104F13C0000EB81006B
:1014100005EBC502C16804F13C0000EB8200806866
:10142000014405EBC50204F13C0000EB8200C16001
:101430006DB905EBC50104F13C0000EB81000069CA
:1014400028B904F2C4420121206804F035FCE9B255
:10145000204600E001E0FFF715FD08F0080008282D
:1014600005D1082106F5106000EB4510816008F0F9
:101470001000102805D1102106F5106000EB451072
:10148000816008F04000402805D1402106F5106039
:1014900000EB4510816008F0020002281DD12946AA
:1014A000584604F057FF05EBC50101E025E01CE0BC
:1014B00004F13C0000EB810A9AF80300012806D1F0
:1014C00000208AF80300E9B2204600F0FAF9022170
:1014D00006F5106000EB4510816008F08000802860
:1014E00003D12946204602F0FFF96D1C02984008FE
:1014F0000290029800287FF461AF206804F0A8FFF2
:1015000000F00040B0F1004F1CD140F604008059BB
:1015100020F0010140F60400815194F8F404012800
:1015200007D1002084F8F40400212046FFF776FC60
:1015300002E0204600F0E0FA2068406900F0004038
:1015400021684861206804F083FF00F40060B0F572
:10155000006F0ED140F60800805900F0010010B174
:10156000204600F021FB2068406900F400602168FB
:101570004861206804F06CFF00F00060B0F1006F7B
:1015800019D12068406900F000602168486194F832
:10159000F40468B9012084F8F4042068406DC0F3B5
:1015A0008300C4F8F80401212046FFF737FC02E06D
:1015B000204600F0F9FA206804F04AFF00F4805059
:1015C000B0F5805F7ED140F60400805920F0010123
:1015D00040F6040081511021206804F0BBFE002772
:1015E00032E04FF67F3106F5106000EB4710816066
:1015F00006F5106000EB4710006820F4001106F5B6
:10160000106000EB471001604FF67F3106F5306047
:1016100000EB4710816006F5306000EB4710006872
:1016200020F4001106F5306000EB4710016006F56C
:10163000306000EB4710006840F0006106F5306054
:1016400000EB471001607F1C6068B842C9D840F6C3
:101650001C00805940F0011140F61C008151206BA4
:1016600070B1D6F8840840F00B01C6F8841840F633
:101670004400805940F00B0140F6440081510FE0D6
:1016800040F61400805942F22B01084340F6140141
:101690008851081F805940F00B014FF401608151BF
:1016A000D6F8000820F4FE60C6F80008217B04F29A
:1016B000C442206804F000FB2068406900F48050B8
:1016C000216800E000E04861206804F0C1FE00F4F9
:1016D0000050B0F5005F17D1206804F0A3F820682F
:1016E00004F064FE206101F0A7FA0090227C2068DB
:1016F000009904F035FF204600F0E6F920684069C3
:1017000000F4005021684861206804F0A1FE00F058
:101710000800082808D1204600F0F5F92068406943
:1017200000F0080021684861206804F091FE00F094
:101730008000802818D1DBF8180020F08000CBF85A
:10174000180001250DE005EBC50104F51F7000EB45
:101750008100C078012803D1E9B22046FFF7B9FB28
:101760006D1C6068A842EED8206804F071FE00F499
:101770008010B0F5801F2DD1012522E006F5106004
:1017800000EB4510D0F8009005EBC50104F13C00DA
:1017900000EB81000079012812D109F00040B0F17E
:1017A000004F0DD1012105EBC50204F13C0000EB17
:1017B0008200C170E8B240F080012046FFF789FB4B
:1017C0006D1C6068A842D9D82068406900F4801078
:1017D00021684861206804F03BFE00F40010B0F579
:1017E000001F44D1012538E006F5306000EB4510BC
:1017F000D0F8009005EBC50104F51F7000EB8100E7
:101800000079012828D109F00040B0F1004F23D120
:1018100009F4803094F8FC1401F0010188421BD1D6
:10182000012105EBC50204F51F7000EB8200C170B9
:10183000DBF8180040F08000CBF81800DBF814004B
:1018400000F0800040B940F60400805940F4007177
:1018500040F60400815103E06D1C6068A842C3D8C3
:1018600000BF2068406900F40010216848612068CA
:1018700004F0EEFD00F08040B0F1804F08D120462A
:10188000FFF7F9FA2068406900F08040216848615C
:10189000206804F0DDFD00F0040004280FD120686A
:1018A000D0F8049009F00400042802D12046FFF784
:1018B00009FB2068406840EA09002168486000BFD1
:1018C00087E470B504460D462946D4F8080503F0B0
:1018D000C1FA70BD70B504460D462946D4F8080516
:1018E00003F0DCFA70BD70B58AB0044614B901206B
:1018F0000AB070BD266894F8BD0428B9002084F8A9
:10190000BC04204600F0A8F8032084F8BD04F06B66
:1019100000F4807008B90021E160206804F0C4F987
:10192000282204F110016846FEF7ECFC94E80F0051
:1019300003F08CFF20B1022084F8BD040120D7E71A
:101940000021206804F0B9FD002531E0012105EBFC
:10195000C50204F13C0000EB8200417005EBC501BB
:1019600004F13C0000F8215005EBC50100EB8100BB
:101970004583002105EBC50204F13C0000EB820029
:10198000017105EBC50204F13C0000EB82008160AF
:1019900005EBC50204F13C0000EB8200C16005EBE1
:1019A000C50204F13C0000EB82000161681CC5B275
:1019B0006068A842CAD800252AE0002105EBC502CC
:1019C00004F51F7000EB8200417005EBC50104F5C2
:1019D0001F7000F82150002105EBC50200EB8200CA
:1019E000017105EBC50204F51F7000EB82008160F8
:1019F00005EBC50204F51F7000EB8200C16005EB2A
:101A0000C50204F51F7000EB82000161681CC5B2BD
:101A10006068A842D1D8282204F110016846FEF778
:101A200071FC94E80F0004F053F820B1022084F810
:101A3000BD0401205CE7002084F83800012084F810
:101A4000BD04606A012802D12046FFF7D3F920685F
:101A500004F02CF800204BE710B5B0B00446B821D4
:101A600002A8FEF768FC16492068884225D14FF489
:101A700080210020CDE902104FF44010239002A8ED
:101A800000F0E6F808B1FEF796FF00F0D7F800BFC7
:101A90000C48006840F000700A4908600846006879
:101AA00000F00070019000BF00BF002211464D20E1
:101AB000FFF74EF94D20FFF737F930B010BD0000A9
:101AC00000000440D844025870B50446012520693E
:101AD00008B9002506E02069022801D1012501E0AE
:101AE000FEF769FF2946D4F8080503F080FAD4F818
:101AF000080503F027FA70BD10B50446D4F80805B0
:101B000003F056FA10BD10B50446D4F8080503F0EA
:101B10005AFA10BD70B504460D4600BF94F8BC04D7
:101B2000012801D1022070BD012084F8BC0400BF4F
:101B300084F838502946206804F0F3FC00BF0020E8
:101B400084F8BC0400BF00BFEDE710B5044604F202
:101B5000C441D4F8080503F061FA10BD70B504461D
:101B6000256800BF94F8BC04012801D1022070BD93
:101B7000012084F8BC0400BFE86B00F4807030B929
:101B8000A06A012803D1A86B40F48030A8632068C4
:101B900004F0AEFB206803F077FF00BF002084F85C
:101BA000BC0400BF00BFE2E710B50446D4F8080546
:101BB00003F091FA2068D0F8000E40F0010021688F
:101BC000C1F8000E206A28B10348006840F0060002
:101BD0000149086010BD000010ED00E070B504463A
:101BE00015480068C0F3800048B91348006800F049
:101BF0000700A04201D0012070BD0020FCE70E4884
:101C0000006820F0070020430B490860FFF70CF83C
:101C1000054607E0FFF708F8401BB0F57A7F01D9C9
:101C20000120E9E7044808380068C0F34030002884
:101C3000F0D00020E0E700000C480258034800689C
:101C400040F0807001490860704700000C4802585D
:101C50002DE9F04104460025A8464FF00062D4E982
:101C6000001011400020134659404040014331D13B
:101C7000606E48B1B0F5801F0DD0B0F5001F11D0D7
:101C8000B0F5401F16D114E0FE48006840F4003063
:101C9000FC49086010E0022104F1080001F080FE18
:101CA000054609E0022104F1280001F02BFF05465A
:101CB00002E001E0012500BF00BF55B9F148243022
:101CC000006820F44010616E0843EE49243108603A
:101CD00000E0A8464FF48072D4E9001011400020C3
:101CE00013465940404001432ED1A06D05281BD218
:101CF000DFE800F0030A11181900E248006840F418
:101D00000030E049086011E0002104F1080001F012
:101D100047FE05460AE0002104F1280001F0F2FE2A
:101D2000054603E002E001E0012500BF00BF55B910
:101D3000D4482430006820F00700A16D0843D14941
:101D40002431086000E0A8464FF48062D4E9001016
:101D50001140002013465940404001433DD1D4F882
:101D6000A400B0F5C00F24D007DC68B1B0F5001FA7
:101D700011D0B0F5800F1FD114E0B0F5000F19D0CD
:101D8000B0F5200F18D116E0BE48006840F40030CE
:101D9000BC49086012E0002104F1080001F000FED7
:101DA00005460BE0002104F1280001F0ABFE0546DA
:101DB00004E003E002E001E0012500BF00BF5DB9DF
:101DC000B0482C30006820F46000D4F8A410084318
:101DD000AC492C31086000E0A8464FF40062D4E919
:101DE00000011040002113465840494008433DD1AE
:101DF000D4F8A800B0F1407F24D007DC68B1B0F17E
:101E0000807F11D0B0F1007F1FD114E0B0F1806F5E
:101E100019D0B0F1A06F18D116E09A48006840F4CC
:101E200000309849086012E0002104F1080001F038
:101E3000B7FD05460BE0002104F1280001F062FE29
:101E4000054604E003E002E001E0012500BF00BF19
:101E50005DB98C482C30006820F0E060D4F8A81000
:101E6000084388492C31086000E0A8464FF0007311
:101E7000D4E900101940002059404040014328D1C6
:101E8000E06CA8B1102804D0202809D0302810D147
:101E90000DE07C48006840F400307A4908600AE0B0
:101EA000022104F1080001F07BFD054603E002E099
:101EB00001E0012500BF00BF55B97248203000681D
:101EC00020F03000E16C08436E492031086000E0EA
:101ED000A8464FF48053D4E900101940002059401F
:101EE0004040014337D1E06DB0F5005F1AD004DC0B
:101EF00050B1B0F5805F1ED10DE0B0F5405F18D055
:101F0000B0F5804F17D115E05E48006840F400300E
:101F10005C49086011E0002104F1080001F040FD77
:101F200005460AE0002104F1280001F0EBFD05461A
:101F300003E002E001E0012500BF00BF55B95148B0
:101F40002430006820F4E040E16D08434D4924311D
:101F5000086000E0A8464FF40053D4E9001019408F
:101F6000002059404040014335D1206EB0F5403F3C
:101F70001ED007DC68B1B0F5803F0BD0B0F5003F54
:101F800019D10EE0B0F5802F13D0B0F5A02F12D1EB
:101F900010E012E0012104F1080001F001FD054606
:101FA0000BE0012104F1280001F0ACFD054604E03E
:101FB00003E002E001E0012500BF00BF55B9314850
:101FC0002430006820F4E020216E08432D4924319C
:101FD000086000E0A8464FF48042D4E900011040B8
:101FE0000021134658404940084337D1D4F8AC008B
:101FF000B0F1405F1ED007DC68B1B0F1805F0BD05C
:10200000B0F1005F19D10EE0B0F1804F13D0B0F104
:10201000A04F12D110E012E0012104F1080001F0FC
:10202000BFFC05460BE0012104F1280001F06AFD28
:10203000054604E003E002E001E0012500BF00BF27
:102040005DB910482C30006820F0E040D4F8AC10A6
:1020500008430C492C31086000E0A8464FF40043C7
:10206000D4E90001184000215840494008432AD1D2
:10207000E06EB8B1B0F1805F06D0B0F1005F12D170
:1020800009E000002C440258F948006840F4003090
:10209000F749086009E0012104F1080001F080FC23
:1020A000054602E001E0012500BF00BF55B9F04838
:1020B0002430006820F04050E16E0843EC492431A0
:1020C000086000E0A8464FF08073D4E90010194082
:1020D000002059404040014328D1A06CA8B10128FC
:1020E00004D0022809D0032810D10DE0E048006890
:1020F00040F40030DE4908600AE0022104F10800E3
:1021000001F04EFC054603E002E001E0012500BFBE
:1021100000BF55B9D6482030006820F00300A16CFC
:102120000843D3492031086000E0A8464FF48003FB
:10213000D4E90010194000205940404001437DD1AE
:10214000CC48006840F48070CA490860FEF76CFD16
:10215000064606E0FEF768FD801B642801D90325CA
:1021600005E0C448006800F480700028F2D000BF89
:1021700085BBBF484430006800F44070B4F8B0102C
:1021800001F44071884213D0B9484430006820F40B
:102190004077B7484430006840F48030B449443157
:1021A00008600846006820F4803008600846076030
:1021B000D4F8B000B0F5807F15D1FEF735FD0646A6
:1021C00009E0FEF731FD801B41F28831884202D9D7
:1021D000032507E038E0A64844300068C0F340001B
:1021E0000028EED000BF55BB00BFB4F8B00000F42B
:1021F0004070B0F5407F0ED19D481C38006820F437
:102200007C519D4AD4F8B000104041EA1010984922
:102210001C39086007E096481C38006820F47C50A0
:1022200093491C390860924844300068B4F8B010F3
:10223000C1F30B0108438E49443101E005E001E0A0
:10224000086002E0A84600E0A8460122D4E90001A7
:1022500010400021134658404940084330D1A06F38
:1022600018281AD005DC48B1082808D0102817D142
:102270000CE0202812D0282812D110E012E0012111
:1022800004F1080001F08CFB05460BE0012104F18C
:10229000280001F037FC054604E003E002E001E01D
:1022A000012500BF00BF55B971482830006820F0F3
:1022B0003800A16F08436E492831086000E0A84645
:1022C0000223D4E900101940002059404040014346
:1022D00029D1606F062816D2DFE800F003040B1244
:1022E000131412E0012104F1080001F059FB054626
:1022F0000BE0012104F1280001F004FC054604E094
:1023000003E002E001E0012500BF00BF55B95848D5
:102310002830006820F00700616F084354492831D5
:10232000086000E0A8460422D4E900101140002013
:1023300013465940404001432BD1D4F89000062861
:1023400016D2DFE800F003040B12131412E001218F
:1023500004F1080001F024FB05460BE0012104F123
:10236000280001F0CFFB054604E003E002E001E0B5
:10237000012500BF00BF5DB93D482C30006820F04A
:102380000700D4F89010084339492C31086000E068
:10239000A8462023D4E900011840002158404940B4
:1023A000084337D1D4F88C00B0F1405F1ED007DC71
:1023B00068B1B0F1805F0BD0B0F1005F19D10EE0D1
:1023C000B0F1804F13D0B0F1A04F12D110E012E065
:1023D000002104F1080001F0E3FA05460BE00221B8
:1023E00004F1280001F08EFB054604E003E002E062
:1023F00001E0012500BF00BF5DB91D48283000681D
:1024000020F0E040D4F88C100843194928310860C6
:1024100000E0A8464023D4E90010194000205940AC
:10242000404001433CD1D4F89800B0F5406F25D02E
:1024300007DC68B1B0F5806F0BD0B0F5006F20D12C
:102440000EE0B0F5805F1AD0B0F5A05F19D117E0AB
:1024500019E0002104F1080001F0A2FA054612E09B
:10246000022104F1280001F04DFB05460BE00000BD
:102470002C44025800480258FFFCFF0F03E002E022
:1024800001E0012500BF00BF4DB9FE48006820F4FF
:10249000E050D4F898100843FA49086000E0A846D4
:1024A0008023D4E9001019400020594040400143E6
:1024B00035D1D4F89C00B0F5C04F1ED007DC68B110
:1024C000B0F5005F0BD0B0F5804F19D10EE0B0F53C
:1024D000004F13D0B0F5204F12D110E012E00021D0
:1024E00004F1080001F05CFA05460BE0022104F15A
:1024F000280001F007FB054604E003E002E001E0EC
:10250000012500BF00BF4DB9DE48006820F46040DF
:10251000D4F89C100843DB49086000E0A846082373
:10252000D4E900011840002158404940084317D120
:10253000D4F88000B0F5805F07D1022104F12800B3
:1025400001F0E0FA08B14FF00108CE48001F006822
:1025500020F44050D4F880100843CA49091F08608D
:102560001023D4E900011840002158404940084395
:1025700015D1D4F89400B0F5807F07D1022104F181
:10258000280001F0BFFA08B14FF00108BD4800680B
:1025900020F44070D4F894100843BA4908604FF40E
:1025A0000023D4E900011840002158404940084365
:1025B00027D1D4F8A00030B1B0F5803F0AD0B0F5F3
:1025C000003F0FD10DE0002104F1080001F0E8F90F
:1025D000054609E0022104F1280001F093FA0546BE
:1025E00002E001E0012500BF00BF4DB9A548006829
:1025F00020F44030D4F8A0100843A249086000E05D
:10260000A8464FF48023D4E9000118400021584027
:10261000494008432DD1D4F88400B0F5801F06D07E
:10262000B0F5001F0CD0B0F5401F11D10FE0954858
:102630002C38006840F4003092492C39086009E0D9
:10264000012104F1280001F05DFA054602E001E0F5
:10265000012500BF00BF5DB98A48001F006820F453
:102660004010D4F8841008438649091F086000E030
:10267000A8464FF48032D4E90001104000211346EF
:1026800058404940084325D1206D18B1B0F5803F2E
:1026900010D108E07B482C38006840F400307949BC
:1026A0002C39086008E0022104F1080001F078F9F3
:1026B000054601E0012500BF00BF55B971480C383F
:1026C000006820F48030216D08436E490C390860A1
:1026D00000E0A8464FF00053D4E900101940002054
:1026E00059404040014307D1022104F1280001F084
:1026F00009FA08B14FF001084FF40032D4E90001A3
:1027000010400021134658404940084327D1E06F4C
:10271000A0B1B0F5807F06D0B0F5007F0CD0B0F549
:10272000407F0CD109E057482C38006840F4003055
:1027300054492C39086004E003E002E001E001257F
:1027400000BF00BF55B94F48001F006820F440701B
:10275000E16F08434B49091F086000E0A8464FF4A9
:102760008012D4E900101140002013465940404027
:10277000014309D143480838006820F00040216F28
:1027800008434049083908604FF40013D4E90001B8
:102790001840002158404940084309D139480838B9
:1027A000006820F08070A16E08433649083908603F
:1027B0004FF08043D4E900101940002059404040B8
:1027C000014311D100BF2F484838006820F4004071
:1027D0002C494839086008460068D4F8B41008430A
:1027E00028494839086000BF4FF00042D4E9000191
:1027F00010400021134658404940084309D1214860
:102800000C38006820F04050616D08431D490C39B8
:1028100008604FF40002D4E9001011400020134674
:102820005940404001430AD11648001F006820F477
:102830004000D4F8881008431249091F086001229B
:1028400000216068104049405040014306D104F126
:10285000080001F0A5F8054605B1A84602220021AE
:102860006068104049405040014307D1012104F104
:10287000080001F095F8054605B1A846042300209C
:10288000616801E058440258194004224040514018
:10289000084307D1022104F1080001F081F8054640
:1028A00005B1A8460823002061681940082240406D
:1028B0005140084307D1002104F1280001F022F91A
:1028C000054605B1A8461023002061681940102272
:1028D00040405140084307D1012104F1280001F094
:1028E00011F9054605B1A846202200216068104074
:1028F00049405040014307D1022104F1280001F072
:1029000001F9054605B1A846B8F1000F02D1002033
:10291000BDE8F0810120FBE72DE9F04104460D46BA
:1029200014B90120BDE8F081BD48006800F00F0037
:10293000A8420ED2BA48006820F00F002843B849D8
:1029400008600846006800F00F00A84201D001208E
:10295000E8E7207800F0040004280ED1B14920698E
:10296000096801F07001884207D9AE48006820F07C
:10297000700021690843AB490860207800F0080026
:10298000082811D1A749091D6069096801F0700183
:10299000884209D9A348001D006820F070006169D1
:1029A0000843A049091D0860207800F01000102895
:1029B00011D19C49091DA069096801F4E0618842B0
:1029C00009D99848001D006820F4E060A169084317
:1029D0009449091D0860207800F02000202811D1BA
:1029E00090490831E069096801F07001884209D90D
:1029F0008C480830006820F07000E169084389497C
:102A000008310860207800F0020002280ED18549C4
:102A1000E068096801F00F01884207D98148006821
:102A200020F00F00E16808437E490860207800F03C
:102A30000100002850D07B48006820F47060A16835
:102A40000843784908606068022807D1754818383B
:102A50000068C0F34040F8B9012063E760680328CC
:102A600007D1704818380068C0F34060A0B9012051
:102A700058E76068012807D16A4818380068C0F331
:102A8000002048B901204DE7664818380068C0F3B7
:102A9000800008B9012045E762480838006820F046
:102AA0000700616808435F4908390860FEF7BCF811
:102AB000064608E0FEF7B8F8801B41F288318842EC
:102AC00001D903202EE757480838006800F0380085
:102AD0006168B0EBC10FEDD1207800F00200022850
:102AE0000ED15049E068096801F00F01884207D211
:102AF0004C48006820F00F00E1680843494908602D
:102B00004748006800F00F00A8420ED9444800680A
:102B100020F00F002843424908600846006800F092
:102B20000F00A84201D00120FCE6207800F004004C
:102B300004280ED13B492069096801F070018842E0
:102B400007D23848006820F07000216908433549F1
:102B50000860207800F00800082811D13149091DCB
:102B60006069096801F07001884209D22D48001D92
:102B7000006820F07000616908432A49091D086057
:102B8000207800F01000102811D12649091DA069F5
:102B9000096801F4E061884209D22248001D0068FA
:102BA00020F4E060A16908431E49091D08602078EF
:102BB00000F02000202811D11A490831E069096885
:102BC00001F07001884209D216480830006820F0F0
:102BD0007000E169084313490831086000F052F8B9
:102BE00010490968C1F303210F4A515C01F01F012C
:102BF00020FA01F70B48006800F00F001146085C4E
:102C000000F01F0027FA00F0084908600848076034
:102C100008480068FEF74AF88046404682E6000011
:102C200000200052184402583C7100086806002435
:102C3000640600245C06002410B500F023F80D495A
:102C40000968C1F303210C4A515C01F01F0120FA0D
:102C500001F40848006800F00F001146085C00F01D
:102C60001F0024FA00F00549086005480460084682
:102C7000006810BD184402583C7100086806002422
:102C800064060024F0B5824E366806F0380636B188
:102C9000082E15D0102E15D0182E7DD114E07C4EA4
:102CA000103E3668C6F3401646B1794E103E36687F
:102CB000C6F3C107774E26FA07F000E07548E5E055
:102CC0007548E3E07548E1E0714E1836366806F065
:102CD00003046F4E18363668C6F305116C4E1C3669
:102CE000366806F001056A4E24363668C6F3CC060F
:102CF00016FB05F601EE106AB8EE410A002971D004
:102D000024B1012C50D0022C6DD16DE0604E103EEC
:102D10003668C6F340163EB35D4E103E3668C6F3C5
:102D2000C1075C4E26FA07F301EE103AF8EE411A9D
:102D300001EE101AB8EE411A81EE812A9FED581A61
:102D4000C0EE011A524E20363668C6F3080601EE70
:102D5000106AB8EE411A31EE811AF7EE001A31EE20
:102D6000211A62EE010A1EE001EE101AB8EE411AB5
:102D7000DFED4C1A81EE812A9FED491AC0EE011A4F
:102D8000434E20363668C6F3080601EE106AB8EEE8
:102D9000411A31EE811A00E076E0F7EE001A31EECA
:102DA000211A62EE010A5BE001EE101AB8EE411A38
:102DB0009FED3D2AC2EE011A9FED391A80EE012ADD
:102DC000334E20363668C6F3080601EE106AB8EEB8
:102DD000411A32EE011AB7EE002A31EE021A61EE04
:102DE000810A3DE04EE01DE001EE101AB8EE411AF6
:102DF000DFED2E1A81EE812A9FED291AC0EE011A0D
:102E0000234E20363668C6F3080601EE106AB8EE87
:102E1000411A31EE811AF7EE001A31EE211A62EEF4
:102E2000010A1DE001EE101AB8EE411A9FED1E2AAC
:102E3000C2EE011A9FED1A1A80EE012A144E2036B6
:102E40003668C6F3080601EE106AB8EE411A32EE93
:102E5000011AB7EE002A31EE021A61EE810A00BFB4
:102E600000BF0B4E20363668C6F34626721C01EEB4
:102E7000102AB8EE411AC0EE811ABCEEE11A11EE2A
:102E8000100A00E0002001E0034800BF00BFF0BDD1
:102E9000104402580090D00300093D0040787D01A5
:102EA000000000460024744C0024744A20BCBE4B31
:102EB0002DE9F047044614B90120BDE8F0872078D9
:102EC00000F00100002870D0F948006800F03808D0
:102ED000F7481830D0F80090B8F1100F06D0B8F1CC
:102EE000180F0FD109F0030002280BD1F048103859
:102EF0000068C0F3404000286AD06068002867D1AD
:102F00000120DAE700BF6068B0F5803F08D1E848EB
:102F10001038006840F48030E549103908602EE030
:102F2000606868B9E2481038006820F48030E049F1
:102F3000103908600846006820F4802008601EE010
:102F40006068B0F5A02F0DD1D9481038006840F462
:102F50008020D749103908600846006840F4803066
:102F600008600CE0D2481038006820F48030D04966
:102F7000103908600846006820F48020086000BF0F
:102F8000606898B1FDF750FE054606E0FDF74CFE7F
:102F9000401B642801D903208FE7C548103800681A
:102FA000C0F340400028F1D012E012E0FDF73CFEF3
:102FB000054606E0FDF738FE401B642801D90320D2
:102FC0007BE7BB4810380068C0F340400028F1D1CF
:102FD00000BF207800F00200022879D1B4480068D0
:102FE00000F03808B2481830D0F80090B8F1000F5F
:102FF00005D0B8F1180F35D109F0030088BBAC48F3
:1030000010380068C0F3800018B1E06808B90120EA
:1030100053E7A7481038006820F01900E16808431A
:10302000A34910390860FDF7FFFD054606E0FDF7EE
:10303000FBFD401B022801D903203EE79C481038C5
:103040000068C0F380000028F1D099480C3800686F
:1030500020F0FE40217C40EA016095490C3908606F
:1030600045E0FFE7E06838B391481038006820F089
:103070001900E16808438E4910390860FDF7D4FD56
:10308000054606E0FDF7D0FD401B022801D90320CC
:1030900013E7874810380068C0F380000028F1D09B
:1030A00083480C38006820F0FE40217C40EA016033
:1030B0007F490C3908601AE07D481038006820F01C
:1030C00001007B4910390860FDF7AEFD054607E0B9
:1030D0000EE0FDF7A9FD401B022801D90320ECE614
:1030E000734810380068C0F380000028F1D100BF99
:1030F000207800F0100010286FD16D48006800F0B3
:1031000038086B481830D0F80090B8F1080F06D096
:10311000B8F1180F1CD109F00300012818D1644838
:1031200010380068C0F3002020B1E069802801D089
:103130000120C2E600BF5E48001F006820F07C50FE
:1031400094F8201040EA01605949091F086043E0E3
:10315000E06938B356481038006840F080005449A0
:1031600010390860FDF760FD054606E0FDF75CFDDF
:10317000401B022801D903209FE64D481038006803
:10318000C0F300200028F1D000BF4948001F0068AC
:1031900020F07C5094F8201040EA01604449091F57
:1031A000086019E042481038006820F0800040496B
:1031B00010390860FDF738FD054606E0FDF734FDDF
:1031C000401B022801D9032077E6394810380068EF
:1031D000C0F300200028F1D100BF207800F00800E3
:1031E000082836D16069D0B131486430006840F0B9
:1031F00001002F4964310860FDF716FD054606E021
:10320000FDF712FD401B022801D9032055E628488E
:1032100064300068C0F340000028F1D019E0244871
:103220006430006820F00100214964310860FDF736
:10323000FBFC054606E0FDF7F7FC401B022801D920
:1032400003203AE61A4864300068C0F340000028C2
:10325000F1D1207800F02000202838D1A069D0B129
:1032600013481038006840F4805011491039086044
:10327000FDF7DAFC054606E0FDF7D6FC401B022808
:1032800001D9032019E60A4810380068C0F340301D
:103290000028F1D01BE006481038006820F4805068
:1032A000034910390860FDF7BFFC054609E000003E
:1032B00010440258FDF7B8FC401B022801D9032036
:1032C000FBE5D0480068C0F340300028F2D12078F8
:1032D00000F0040004287DD1CB48006840F48070E1
:1032E000C9490860FDF7A0FC054606E0FDF79CFC17
:1032F000401B642801D90320DFE5C348006800F4BF
:1033000080700028F2D000BFA068012808D1BD4815
:103310007030006840F00100BA49703108602DE05B
:10332000A06868B9B7487030006820F00100B5495E
:10333000703108600846006820F0040008601DE055
:10334000A06805280DD1AF487030006840F0040037
:10335000AC49703108600846006840F00100086020
:103360000CE0A8487030006820F00100A5497031D9
:1033700008600846006820F00400086000BFA068EC
:10338000A0B1FDF751FC054608E0FDF74DFC401BE0
:1033900041F28831884201D903208EE59948703086
:1033A0000068C0F340000028EFD013E0FDF73CFCBC
:1033B000054608E0FDF738FC401B41F288318842A1
:1033C00001D9032079E58F4870300068C0F34000D0
:1033D0000028EFD1606A00287DD08A48103000684C
:1033E00000F03800182877D0606A022875D1854827
:1033F000006820F0807083490860FDF715FC0546E1
:1034000006E0FDF711FC401B022801D9032054E51A
:103410007C480068C0F340600028F2D100BFD4E9C6
:103420000A1041EA001077492831096840F2F33266
:1034300091430843734928310860208E401EC0F331
:103440000800616B491E4FF47E4202EA41210843A5
:10345000218F491ED20102EA014108433C21095D46
:10346000491E120202EA01610843664930310860D0
:1034700000BF081F006820F00100091F08606148B4
:10348000343000684FF6F8718843A16C40EAC100FF
:103490005C49343108605B482C30006820F00C0037
:1034A000216C084357492C3108600846006820F019
:1034B0000200616C084353492C31086008460068DB
:1034C00040F4803008600846006840F4003008602E
:1034D0000846006802E092E038E01FE040F48020F7
:1034E00008600846006840F0010008604548006830
:1034F00040F0807043490860FDF796FB054606E002
:10350000FDF792FB401B022801D90320D5E43D487A
:103510000068C0F340600028F2D070E039480068CD
:1035200020F0807037490860FDF77EFB054606E015
:10353000FDF77AFB401B022801D90320BDE4314886
:103540000068C0F340600028F2D158E02D482830D0
:1035500007682C4830300668606A012821D007F0DF
:103560000301A06A81421CD1C7F30511E06A8842B9
:1035700017D1C6F30801206B401E814211D1606B48
:10358000401EC6F3462188420BD1A06B401EC6F3F5
:103590000641884205D1E06B401EC6F306618842B1
:1035A00001D0012089E4174834300068C0F3CC070B
:1035B000A06CB84223D013482C30006820F00100E2
:1035C00010492C310860FDF72FFB054600BFFDF7C1
:1035D0002BFB401BFBD00B48343000684FF6F871D2
:1035E0008843A16C40EAC1000649343108600548AF
:1035F0002C30006840F0010002492C3108600020A6
:103600005BE40000004402580048025870B50446CC
:103610002546681EB0F1807F01D301200FE0681EAF
:103620004FF0E02148610F214FF0FF3003F080F8A8
:1036300000204FF0E021886107200861002070BD64
:1036400000BFFEE730B50B46002100BF16E00A249C
:10365000B4EB107F05D9302404EB107403F811404B
:1036600005E0412404EB10740A3C03F8114000010A
:1036700000254C00641C1D554C1CE1B29142E6DB58
:1036800030BD000000B587B0142102A8FCF753FE3E
:1036900000BF0F48006840F040000D490860084630
:1036A000006800F04000019000BF00BF00228021B0
:1036B0000848FDF7B3FA8020029001200390002013
:1036C0000490059002A90348FDF7A6F907B000BDD4
:1036D000E04402580018025810B501220E490F4864
:1036E00001F0FCF908B1FDF766F90D490B4801F04E
:1036F00033FD08B1FDF75FF90A49084800F000FE04
:1037000008B1FDF758F9054801F028FE08B1FDF7AA
:1037100052F9FEF793FA10BDF4050024FC060024CC
:103720007C0600244406002400BFFEE700BFFEE73D
:1037300010B50248FDF73EFD10BD0000D81B002467
:103740002DE9F04704460D4626683746D6F84080F6
:1037500007F5306000EB4510D0F808901048804520
:103760000BD909F40040B0F5004F06D14FF40041E9
:1037700007F5306000EB451081602046FEF7E5F963
:103780000748804508D9E068012805D104F2C44201
:103790000121206802F090FA0020BDE8F0870000C7
:1037A0000A30544F2DE9F04705460C46D5F80090F5
:1037B0004E46D9F840A006F5306000EB4410D0F832
:1037C0000880E868012855D108F0080008280FD1C2
:1037D000434882450BD908F40040B0F5004F7BD137
:1037E0004FF4004106F5306000EB4410816073E057
:1037F00008F02000202806D1202106F5306000EBDB
:103800004410816068E008F02800002864D1344842
:1038100082450CD908F40040B0F5004F07D14FF4B1
:10382000004106F5306000EB4410816054E004EB89
:10383000C40105F51F7000EB810706F5306000EB51
:103840004410396A0069C0F31200081A786164B93B
:10385000386930B905F2C4420121286802F02CFA17
:1038600003E07969F8680844F860E1B22846FDF79A
:1038700019FB31E01B4882451BD108F40040B0F52C
:10388000004F07D14FF4004106F5306000EB4410C3
:10389000816021E008F02000202805D1202106F5D4
:1038A000306000EB44108160E1B22846FDF7FAFA7F
:1038B00012E06CB904EBC40105F51F7000EB810048
:1038C000006928B905F2C4420021286802F0F4F921
:1038D000E1B22846FDF7E6FA0020BDE8F0870000D7
:1038E0000A30544F0A31544F2DE9F84F07460E461F
:1038F000D7F80090C84606EBC60107F13C0000EB84
:103900008104D4E90410884202D90120BDE8F88F6F
:10391000D4E90401451AA068A84200D2A568E81CB1
:103920004FEA900A17E0D4E90401451AA068A842BA
:1039300000D2A568E81C4FEA900A387BABB2F2B21D
:1039400000904846E16802F07FFEE0682844E060AD
:1039500060692844606108F5106000EB46108069DA
:1039600080B2504506D3D4E90410884202D22069BF
:103970000028D8D1D4E9040188420ED806F00F01FE
:10398000012000FA01FB40F6340050F8080020EA5C
:103990000B0040F6340141F808000020B6E77047FC
:1039A0002DE9F04104460E4600275548006800F016
:1039B0000300032802D10120BDE8F08150482838D7
:1039C000006820F080604E4928390860FDF72CF926
:1039D000054606E0FDF728F9401B022801D903201F
:1039E000EAE7474828380068C0F3C0600028F1D1F2
:1039F00000BF4348006820F47C30216840EA013071
:103A00003F490860A088401EC0F30800A168491E15
:103A10004FF47E4202EA41210843A189491ED201A6
:103A200002EA01410843217C491E120202EA0161B7
:103A3000084333491031086000BF3148001D006859
:103A400020F0C000616908432D49091D086008463F
:103A5000006820F02000A16908432949091D086079
:103A60000846006820F010000860254814300068FF
:103A70004FF6F8718843E16940EAC10020491431EA
:103A800008601F48001D006840F010001C49091D17
:103A900008602EB90846006840F40020086012E073
:103AA000012E08D11648001D006840F4801014490A
:103AB000091D086007E01248001D006840F400106E
:103AC0000F49091D08600E482838006840F08060E2
:103AD0000B4928390860FDF7A7F8054606E0FDF711
:103AE000A3F8401B022801D9032065E704482838C1
:103AF0000068C0F3C0600028F1D038465CE70000E1
:103B0000284402582DE9F04104460E460027554846
:103B1000006800F00300032802D10120BDE8F08115
:103B200050482838006820F080504E4928390860F5
:103B3000FDF77AF8054606E0FDF776F8401B022807
:103B400001D90320EAE7474828380068C0F34070ED
:103B50000028F1D100BF4348006820F07C70218824
:103B600040EA01503F490860A088401EC0F30800A9
:103B7000A168491E4FF47E4202EA41210843A1890F
:103B8000491ED20102EA01410843217C491E12026A
:103B900002EA0161084333491831086000BF314827
:103BA000001D006820F44060616908432D49091D2B
:103BB00008600846006820F40070A169084329499C
:103BC000091D08600846006820F4807008602548D8
:103BD0001C3000684FF6F8718843E16940EAC10083
:103BE00020491C3108601F48001D006840F48070A7
:103BF0001C49091D08602EB90846006840F4800081
:103C0000086012E0012E08D11648001D006840F43B
:103C100000001449091D086007E01248001D0068F3
:103C200040F080700F49091D08600E482838006870
:103C300040F080500B4928390860FCF7F5FF054635
:103C400006E0FCF7F1FF401B022801D9032065E7DD
:103C5000044828380068C0F340700028F1D0384686
:103C60005CE7000028440258704730B501460A4618
:103C70001378521C147843EA042030BD10B5FCF7C9
:103C8000D9FF10BD70B59CB04C216846FCF753FBC2
:103C9000202113A8FCF74FFB0220FDF79FFF1F48D0
:103CA000016821F4404101600168002401F44041B1
:103CB0001B9101688904FCD5022009902122C303CD
:103CC00001210A25CDE900230AAB0691DC26042256
:103CD00083E86100CDE90D100FA981E81500684661
:103CE0001294FFF7E5F808B172B6FEE740201A908B
:103CF00008230501CDE9163013ABCDE918053F21A6
:103D0000032283E8160013A81146FEF705FE0028DB
:103D100001D072B6FEE71CB070BD00001848025812
:103D20002F48006840F470002D4908602D48006855
:103D300000F00F00072806D22A48006820F00F0084
:103D4000C01D284908602848006840F00100264945
:103D50000860002024491031086023480068234986
:103D60000840214908601F48006800F00F0007283C
:103D700006D91C48006820F00F00C01D19490860D2
:103D80000020194918310860091D0860091D0860E4
:103D900017481549283108601648091D086016485B
:103DA000091D08600020091D08601348091D0860EE
:103DB0000020091D08601048091D08600020091D29
:103DC00008600948006820F4802007490860002046
:103DD00005496031086043F2D20008490860704725
:103DE00088ED00E000200052004402587FEDF6EA22
:103DF000000202020000FF018002010100400052A7
:103E00002DE9F04104460D46D4F8C87204F530702F
:103E1000D4F8D41250F8210010B90320BDE8F08185
:103E200004F53070D4F8D41250F8216005F00F007A
:103E300000EB800104F1140000EB8100406838B30E
:103E400005F00F0000EB800104F1140000EB81008D
:103E5000416805F00F0000EBC00207F13C0000EBE9
:103E600082008068B1FBF0F200FB121080B90021E3
:103E700005F00F0000EB800204F1140000EB82005B
:103E8000416000231A462946204601F032F917E026
:103E90000020C6F8140204F53170D4F8D41250F89A
:103EA0002100006960B1D6F8080204F53171D4F838
:103EB000D42251F822102A460B6906F5047198475E
:103EC0000020ABE770B504460E4604F53070D4F818
:103ED000D41250F82150D4F8D41250F8210008B967
:103EE000032070BD3146204600F056FFC5F80C0295
:103EF000D5F8040204F53171D4F8D43251F8231006
:103F0000CA6805F5037190470020EAE770B50446DA
:103F10000D4630480178204600F010FE00212D4863
:103F2000007800F00F0000EB800204F1140000EBB9
:103F30008200018228480178204600F0FFFD002120
:103F40002548007800F00F0000EB800204F5AA700D
:103F500000EB8200018221480178204600F0EEFD4E
:103F600000211E48007800F00F0000EB800204F1F1
:103F7000140000EB820001821848007800F00F0066
:103F800000EB800204F1140000EB8200418204F592
:103F90003070D4F8D41250F82100C8B104F5317152
:103FA000D4F8D42251F822104868804704F53071C3
:103FB000D4F8D42251F8220001F0C4FB002104F50A
:103FC0003070D4F8D42240F822100020C4F8BC028B
:103FD000002070BDF7060024F8060024F90600242E
:103FE00070B5044604F53070D4F8D41250F821505E
:103FF0000DB9032070BD04F53170D4F8D41250F817
:10400000210098B195F80002FF280FD095F8012201
:1040100095F8000204F53171D4F8D46251F82610F5
:104020008B6829469847FF2085F800020020E1E7C9
:1040300001460A20088001487047000070060024ED
:104040002DE9F041044682210D4800F014FC05469C
:1040500001210B4800F00FFC06468121084800F0C2
:104060000AFC07460DB11020A8710EB14020B080A7
:104070000FB14020B880432020800148BDE8F08186
:10408000B40600242DE9F041044682210E4800F0D8
:10409000F2FB054601210C4800F0EDFB06468121AC
:1040A000094800F0E8FB07460DB11020A87116B1D1
:1040B0004FF40070B08017B14FF40070B880432007
:1040C00020800148BDE8F081B40600242DE9F041CC
:1040D000044682210D4800F0CEFB054601210B4825
:1040E00000F0C9FB06468121084800F0C4FB0746E2
:1040F0000DB11020A8710EB14020B0800FB140204A
:10410000B880432020800148BDE8F081B406002437
:1041100070B504460E464FF4077001F015FB0546D6
:1041200045B9002104F53070D4F8D42240F82210AB
:10413000022070BD4FF407712846FCF7FCF804F527
:104140003070D4F8D41240F82150D4F8D41250F87A
:104150002100C4F8BC02207C98BB4FF400730222FB
:1041600050480178204600F0BDFE01214D480078FE
:1041700000F00F0000EB800204F1140000EB82005D
:1041800001824B02022248480178204600F0AAFE34
:1041900001214548007800F00F0000EB800204F593
:1041A000AA7000EB8200018210214048007800F0E4
:1041B0000F0000EB800204F1140000EB820041824A
:1041C00032E0FFE74023022236480178204600F023
:1041D00089FE01213348007800F00F0000EB8002D7
:1041E00004F1140000EB82000182402302222E48D9
:1041F0000178204600F076FE01212B48007800F07F
:104200000F0000EB800204F5AA7000EB820001822F
:1042100010212648007800F00F0000EB800204F126
:10422000140000EB82004182082303221F4801781A
:10423000204600F057FE01211C48007800F00F00D6
:1042400000EB800204F1140000EB820001820020E8
:10425000C5F8040204F53171D4F8D42251F82210C3
:10426000086880470020C5F81402C5F81802D5F880
:10427000040208B902205CE7207C48B94FF40073BF
:10428000094801782046D5F8042200F043FE07E0F3
:104290004023054801782046D5F8042200F03AFE74
:1042A000002046E7F7060024F8060024F90600245B
:1042B00070B5044604F53070D4F8D41250F821508B
:1042C000D4F8D41250F8210008B9032070BD207C26
:1042D00048B94FF40073094801782046D5F8042204
:1042E00000F018FE07E04023044801782046D5F886
:1042F000042200F00FFE0020E8E70000F80600248A
:10430000024609B90320704702F53170D2F8D43261
:1043100040F823100020F6E710B5024602F5307091
:10432000D2F8D44250F824300BB9032010BDC3F8A2
:1043300004120020FAE730B503460C4603F530704E
:10434000D3F8D45250F8251009B9032030BDC1F874
:104350000842C1F810220020F8E72DE9FC4105468B
:104360000C4605F53070D5F8D41250F821600020C5
:1043700001900090804616B90320BDE8FC812078AA
:1043800000F0600000283DD020287CD1E08868B390
:10439000207800F08000B8B1E288607805F53171CE
:1043A000D5F8D4C251F82C108B6831469847E08874
:1043B000072801D9072000E0E08807463A46314641
:1043C000284600F011F91CE0607886F80002E088C9
:1043D000402801D2E08800E0402086F8010296F8EB
:1043E00001223146284600F0DEF80AE0607805F543
:1043F0003171D5F8D42251F8221000228B68214661
:10440000984747E0607830B1012832D00A2813D0AD
:104410000B282FD121E095F89C02032805D1022218
:104420006946284600F0E0F805E02146284600F0FD
:10443000AEF84FF0030824E095F89C02032805D15C
:10444000012201A9284600F0CFF805E021462846C0
:1044500000F09DF84FF0030813E095F89C02032844
:1044600005D02146284600F092F84FF0030808E0F6
:1044700009E006E02146284600F089F84FF00308DD
:1044800000BF00BF06E02146284600F080F84FF04C
:10449000030800BF00BF40466FE7000070B5054647
:1044A00005F53070D5F8D41250F8214001260CB92A
:1044B000032070BDD4F81402C8B90120C4F8140256
:1044C0000C48007800F00F0000EB800205F11400AA
:1044D00000EB8200D4F810124160064801782846AB
:1044E000D4F81032D4F8082200F003FE002630463B
:1044F000DFE70000F706002470B504460D460026ED
:10450000D4F8B802294642682046904700B10326F5
:10451000304670BD70B504460D4694F89C020128E3
:1045200004D0022803D003280CD101E000BF00BF53
:104530006888012805D10020C4F8A402204600F0B4
:1045400064F804E02946204600F021F800BF00BFCF
:1045500070BD02460020704702460020704770B5CB
:1045600006460C4615462B4622460021304600F0F2
:10457000D1FC002070BD70B506460C4615462B4692
:1045800022460021304600F0B4FD002070BD70B519
:1045900004460D468021204600F07BFD0021204688
:1045A00000F077FD70BD70B504460E461546032039
:1045B000C4F894024FF4AC700551001D05512B4610
:1045C00032460021204600F0A5FC002070BD10B549
:1045D00004460520C4F8940200231A4619462046D2
:1045E00000F098FC002010BD70B504460E4615463C
:1045F0000220C4F89402A561E5612B4632460021F1
:10460000204600F076FD002070BD10B50446042061
:10461000C4F8940200231A461946204600F069FDAA
:10462000002010BD70B504460D46E888012804D06E
:1046300029462046FFF7ABFF1EE094F89C020128B4
:1046400004D0022803D0032810D109E000BF0020C5
:10465000A060012204F108012046FFF7C5FF0AE02F
:104660000122211D2046FFF7BFFF04E02946204616
:10467000FFF78DFF00BF00BF70BDF8B504460E46C2
:10468000002000900027002570880012082875D2AD
:10469000DFE800F0C7040C20C7C7A5B5207CD4F81C
:1046A000B4120A68694690470746C1E0207C40B9C9
:1046B000D4F8B802816A68468847074602207870B5
:1046C00007E0D4F8B802C16A684688470746022066
:1046D0007870ADE0B078062878D2DFE800F00316F5
:1046E000293C5063D4F8B402406838B1207CD4F837
:1046F000B4124A6869469047074605E031462046AD
:10470000FFF745FF681CC5B267E0D4F8B4028068C3
:1047100038B1207CD4F8B4128A68694690470746BD
:1047200005E031462046FFF732FF681CC5B254E071
:10473000D4F8B402C06838B1207CD4F8B412CA6886
:1047400069469047074605E031462046FFF71FFFC0
:10475000681CC5B241E0D4F8B402006938B1207CCD
:10476000D4F8B4120A6969469047074605E0314615
:104770002046FFF70CFF681CC5B22EE051E0D4F8CC
:10478000B402406938B1207CD4F8B4124A69694651
:104790009047074605E031462046FFF7F8FE681CC3
:1047A000C5B21AE0D4F8B402806940B1207CD4F8D4
:1047B000B4128A6969469047074606E006E031462A
:1047C0002046FFF7E4FE681CC5B206E031462046ED
:1047D000FFF7DDFE681CC5B200BF00BF28E0207CEB
:1047E00030B9D4F8B802416B68468847074605E0FF
:1047F00031462046FFF7CBFE681CC5B218E0207C8E
:1048000040B9D4F8B802016B6846884707460720CC
:10481000787005E031462046FFF7B9FE681CC5B246
:1048200006E031462046FFF7B2FE681CC5B200BF65
:1048300000BF05B1F8BDF088C0B1BDF8000080B17F
:10484000F088BDF80010884202DDBDF8000000E0ED
:10485000F0880090BDF8002039462046FFF7C4FEDE
:1048600007E031462046FFF792FE02E02046FFF7C0
:10487000CCFE00BFDEE72DE9F84105460F462C4689
:104880002E464FF0000870883178884218DD307865
:1048900000900FE06946204600F020F8044660785A
:1048A000052807D1A04698F80200B84200D106E0DA
:1048B0004FF000087088BDF800108842EADC00BFA5
:1048C0004046BDE8F881014600200A4602E0431C4C
:1048D000D8B2521C1378002BF9D1704710B502469C
:1048E00010460B88047823440B800378981810BD79
:1048F00070B504460D4694F89C02012804D00228A5
:1049000003D003281AD101E000BF00BFE8880228C5
:1049100004D029462046FFF73AFE14E00120E0606B
:10492000D4F8A40218B1E06840F00200E06002226E
:1049300004F10C012046FFF757FE04E0294620460B
:10494000FFF725FE00BF00BF70BD2DE9F04107460F
:104950000D46904600240FB9BDE8F0813E46304632
:10496000FFF7B1FF022101EB4000A8F8000098F822
:1049700000002855601CC4B203202855601CC4B236
:1049800008E030782855761C601CC4B200202855F9
:10499000601CC4B230780028F3D100BFDCE70146C8
:1049A000002031B1012906D0022906D0032908D1FF
:1049B00005E0002007E0032005E0012003E00320DC
:1049C00001E0032000BF00BF7047000070B505463E
:1049D0000C462DB92246064906A0FFF7B6FF04E0B3
:1049E0002246034903A0FFF7B0FF014870BD000055
:1049F000D809002443444320436F6E666967000072
:104A0000024612200880014870470000100600246A
:104A100070B505460C462DB92246064906A0FFF79B
:104A200094FF04E02246034903A0FFF78EFF0148EC
:104A300070BD0000D809002443444320496E7465CA
:104A40007266616365000000024604200880014828
:104A5000704700002406002470B505460C46224627
:104A6000024903A0FFF771FF004870BDD809002478
:104A700053544D6963726F656C656374726F6E69D0
:104A80006373000070B505460C462DB922460649F1
:104A900006A0FFF75AFF04E02246034903A0FFF7F0
:104AA00054FF014870BD0000D809002453544D3311
:104AB00032205669727475616C20436F6D506F724D
:104AC0007400000070B505460C461A202080FBF7E4
:104AD00075FF014870BD0000280600242DE9F04153
:104AE00004460D46164614B90320BDE8F0810020A7
:104AF000C4F8B802C4F8C402C4F8D0020DB1C4F8B6
:104B0000B452012084F89C022670204600F04EF931
:104B100007463846E9E72DE9F04104460D460026F0
:104B200000272946D4F8C802FCF729FA0646304681
:104B3000FFF735FF07463846BDE8F0812DE9F04123
:104B400004460D46002600272946D4F8C802FCF783
:104B5000E1F906463046FFF722FF07463846BDE832
:104B6000F0812DE9F04704460F469146002F56D1BB
:104B700004F11405D4F89402022846D1D5E90201C3
:104B800088420FD9D5E90201401AA860494620465B
:104B9000AA68FFF7F0FC00231A461946204600F0E9
:104BA000B9F932E0D5E90210884217D1E96868689E
:104BB000884213D36868D4F8981288420ED2002233
:104BC00011462046FFF7D7FC0020C4F898020023C6
:104BD0001A461946204600F09DF916E094F89C020A
:104BE00003280BD1D4F8B802C06838B10020C4F84B
:104BF000D402D4F8B802C1682046884780212046F4
:104C000000F047FA2046FFF7E2FC94F8A00250B308
:104C1000204600F0C5FA002084F8A00223E047F007
:104C200080012046FFF795FC0646FF2E1BD0D6B923
:104C300094F89C02032816D104F52E7050F8260033
:104C4000406980B1C4F8D46204F52E7050F8260093
:104C500039464269204690478046B8F1000F02D09D
:104C60004046BDE8F0870020FBE72DE9F047054608
:104C70000F4690464FF00009002F51D105F5AA7656
:104C8000D5F8940203286FD1D6E90201884210D9E1
:104C9000D6E90201401AB060D6E90201884201D289
:104CA000B06800E0F068024641462846FFF757FC2E
:104CB0005AE095F8AA0200F01F0020B1012804D0A4
:104CC000022812D109E0002411E040F2AE20415D3B
:104CD0002846FFF741FC044609E040F2AE20415D62
:104CE0002846FFF736FC044601E0002400BF00BF61
:104CF00094B995F89C0203280ED105F52E7050F852
:104D00002400006940B1C5F8D44205F52E7050F872
:104D100024000169284688472846FFF776FC23E0EF
:104D200007F07F012846FFF714FC0446FF2C1BD038
:104D3000D4B995F89C02032810D105F52E7050F8CF
:104D40002400806950B1C5F8D44205F52E7050F8A2
:104D5000240039468269284690478146B9F1000F00
:104D600002D04846BDE8F0870020FBE7014600205E
:104D7000704770B504460025012084F89C02D4F8E1
:104D8000B80238B12179D4F8B80242682046904779
:104D900000B10325284670BD70B504460D4629466E
:104DA000D4F8C802FCF729F970BD000010B504461C
:104DB000207801282CD11748C0F80845C4F8C8024B
:104DC0001548144908600920486002211148016112
:104DD0000021C160022181610021C1610162416243
:104DE000C16201634163FCF77EFD08B1FBF7E3FD9F
:104DF0004FF400710748FCF712F8802200210548A3
:104E0000FCF712F84FF4BA7201210248FCF70CF8D3
:104E1000002010BDD81B00240000044010B502463D
:104E2000D2F8C83201F08000802809D101F07F005B
:104E300000EBC00403F13C0000EB8400807810BD5F
:104E400001F07F0000EBC00403F51F7000EB84004D
:104E50008078F4E770B504460D4604F52E70D4F85A
:104E6000D41250F8210008B9032070BD94F89C02B8
:104E7000032811D104F52E70D4F8D41250F8210073
:104E8000006A48B104F52E70D4F8D41250F821000D
:104E90002946026A204690470020E6E770B504469E
:104EA0000D4604F52E70D4F8D41250F8210008B93C
:104EB000032070BD94F89C02032811D104F52E70D4
:104EC000D4F8D41250F82100406A48B104F52E708D
:104ED000D4F8D41250F821002946426A204690475F
:104EE0000020E6E72DE9F04704460F4615461E462A
:104EF0004FF00008C1462B4632463946D4F8C80266
:104F0000FCF786F880464046FFF749FD8146484653
:104F1000BDE8F0872DE9F04704460D4616461F46CA
:104F20004FF00008C1463B4632462946D4F8C80235
:104F3000FCF7B4F880464046FFF731FD814648460D
:104F4000BDE8F08770B504460025012084F89C0276
:104F50000020C4F894026060C4F8A40284F8A0029F
:104F6000D4F8B80258B1D4F8B802406838B1217901
:104F7000D4F8B80242682046904700B10325402388
:104F8000002211462046FFF7ADFF01214FF4B27019
:104F900001534021001F015140230022802120465F
:104FA000FFF7A0FF0121A18440212162284670BDA6
:104FB000014691F89C02042803D191F89D0281F8E2
:104FC0009C020020704710B5044694F89C02032808
:104FD0000BD1D4F8B80240B1D4F8B802C06920B1FE
:104FE000D4F8B802C16920468847002010BD0246A7
:104FF0001174002070472DE9F04104460D4600264B
:1050000000272946D4F8C802FCF784FD064630463E
:10501000FFF7C5FC07463846BDE8F08170B5044689
:105020000D46294604F2AA2000F07BF80120C4F8BE
:1050300094024FF42C70005BC4F8980294F8AA0212
:1050400000F01F0020B1012809D0022815D10DE081
:1050500004F2AA21204600F087F9064616E004F281
:10506000AA21204600F017FB06460FE004F2AA2111
:10507000204600F0D0F9064608E094F8AA0200F0B5
:105080008001204600F005F8064600BF00BF30460C
:1050900070BD2DE9F04104460D4600260027294643
:1050A000D4F8C802FCF71DF806463046FFF777FC37
:1050B00007463846BDE8F08170B504460025002655
:1050C000D4F8C802FCF74AFD05462846FFF767FCFE
:1050D0000646304670BD014691F89C02042803D074
:1050E00091F89C0281F89D02042081F89C02002026
:1050F00070472DE9F04704460D4616461F464FF00F
:105100000008C1463B4632462946D4F8C802FCF79F
:105110002DF880464046FFF742FC81464846BDE8F0
:10512000F08770B505460E46344620782870641C1A
:1051300020786870641C2046FEF797FD6880641C28
:10514000641C2046FEF791FDA880641C641C204668
:10515000FEF78BFDE88070BD38B504460D46002093
:1051600000900DB9032038BDC4F8B85204F52E7074
:10517000D4F8D41250F82100C06A50B104F52E7052
:10518000D4F8D42250F82200C16A68468847C4F88F
:10519000D002D4F8D802401CC4F8D8020020E2E7BC
:1051A00001460020704770B504460D46A88810BB24
:1051B000E88800BB688880281DD2A87800F07F06A8
:1051C00094F89C02032804D129462046FFF7DFF912
:1051D00015E084F89E6231462046FFF70CFF20461A
:1051E000FFF713FA1EB1022084F89C0207E00120A9
:1051F00084F89C0203E029462046FFF7C8F970BDF9
:1052000070B504460D460026D4F8B80230B1D4F883
:10521000B80229460268204690470646304670BDCF
:1052200070B504460E460025B0783D490870084622
:105230000078012805D931462046FFF7A8F9032058
:1052400070BD94F89C02022802D0032859D11FE0B7
:1052500033480078C0B13248007860603048017847
:105260002046FFF7CDFF05463DB131462046FFF70A
:105270008EF9022084F89C0209E02046FFF7C5F968
:10528000032084F89C0202E02046FFF7BEF943E0C9
:105290002348007870B9022084F89C0220480078E6
:1052A00060601F4801782046FFF726F92046FFF787
:1052B000ACF925E01A490978606888421DD0217947
:1052C0002046FFF719F91648007860601448017805
:1052D0002046FFF795FF05465DB131462046FFF7B2
:1052E00056F921792046FFF707F9022084F89C023D
:1052F00006E02046FFF789F902E02046FFF785F92E
:105300000AE031462046FFF742F905480178204679
:10531000FFF7F2F8032500BF00BF284690E7000022
:105320006C06002470B505460C466088012805D13E
:10533000C5F8A4022846FFF768F90EE06088022845
:1053400007D1A088001285F8A0022846FFF75DF972
:1053500003E021462846FFF71AF970BD10B5044650
:105360002046FFF7A9FE10BD70B504460D46002685
:10537000287800F0600088B1202802D0402842D16F
:1053800000E000BF04F52E70D4F8D41250F82100CC
:105390002946826820469047064639E068780A2800
:1053A0002AD2DFE800F01A24291F290A0529150F3F
:1053B00029462046FFF761F923E029462046FFF7FA
:1053C000F2FE1EE029462046FFF72AFF064618E0B7
:1053D00029462046FFF726F913E029462046FFF725
:1053E00087FA0EE029462046FFF79CFF09E0294690
:1053F0002046FFF78FF804E029462046FFF7C7F85C
:1054000000BF00BF04E029462046FFF7C0F800BFF8
:1054100000BF304670BD2DE9F04705460F464FF0FE
:1054200000093C79387800F06000F8B1202802D0FB
:1054300040287DD100E000BF21462846FFF789F8CB
:105440000646FF2E11D086B9C5F8D46205F52E7038
:1054500050F82600806840B105F52E7050F82600FF
:105460003946826828469047814610E178780028BE
:105470007AD001282FD003286ED195F89C020228FB
:1054800002D0032820D110E054B1802C08D021464E
:105490002846FFF7FEFD80212846FFF7FAFD03E0CE
:1054A00039462846FFF773F813E0788840B93CB1D5
:1054B000802C05D0F88818B921462846FFF7E9FD69
:1054C0002846FFF7A2F804E039462846FFF75FF8C0
:1054D00000BF00BFD4E095F89C02022802D0032848
:1054E0003BD110E054B1802C08D021462846FFF76C
:1054F000D0FD80212846FFF7CCFD03E03946284641
:10550000FFF745F82EE0788820BB04F07F0018B143
:1055100021462846FFF7FFFA2846FFF776F821468E
:105520002846FFF716F80646FF2E13D096B900E07E
:10553000A8E0C5F8D46205F52E7050F82600806802
:1055400040B105F52E7050F826003946826828468D
:105550009047814606E007E08DE039462846FFF790
:1055600016F800BF00BF8BE095F89C02022802D01D
:10557000032879D126E034B1802C04D0394628465E
:10558000FFF705F875E004F08000802808D104F0EA
:105590007F0000EB800105F1140000EB810007E0C3
:1055A00004F07F0000EB800105F5AA7000EB81009C
:1055B00080460020C8F80000022241462846FFF736
:1055C00013F856E004F0800080280ED104F00F009C
:1055D00000EB800105F1140000EB8100008A98B90E
:1055E00039462846FEF7D3FF43E004F00F0000EBF6
:1055F000800105F5AA7000EB8100008A20B93946C8
:105600002846FEF7C4FF34E004F08000802808D16B
:1056100004F07F0000EB800105F1140000EB810035
:1056200007E004F07F0000EB800105F5AA7000EBB5
:10563000810080460CB1802C03D10020C8F8000006
:105640000CE021462846FFF7E9FB20B10120C8F80D
:10565000000003E008E00020C8F8000002224146F4
:105660002846FEF7C1FF04E039462846FEF78FFFC3
:1056700000BF00BF04E039462846FEF788FF00BFA0
:1056800000BF04E039462846FEF781FF00BF00BF97
:105690004846BDE8F0872DE9F04105460E46002753
:1056A000307800F0600030B1202802D0402840D18E
:1056B00000E000BF00BF95F89C02012804D002283A
:1056C00003D003282ED101E000BF00BF30790128AC
:1056D00023D831792846FEF73FFF0446FF2C14D02B
:1056E0009CB905F52E7050F82400806858B1C5F8B3
:1056F000D44205F52E7050F82400314682682846C1
:105700009047074602E0032700E00327F08840B9EE
:105710003FB92846FEF779FF03E031462846FEF7F9
:1057200036FF04E031462846FEF731FF00BF00BFD8
:1057300004E031462846FEF72AFF00BF00BF384686
:10574000BDE8F08170470000014601487047000045
:10575000E420002470B504460B4622461978587898
:1057600001282CD140F61C0080581D7805F00F064A
:105770000125B540ADB2284340F61C05A85002F5FE
:10578000106000EB4110006800F40040F0BB188985
:10579000C0F30A001D7940EA854040EA815040F09C
:1057A000805040F4004002F5106505EB41152D686E
:1057B000284302F5106505EB411528602DE040F601
:1057C0001C0080581D7805F00F060125B540144EC9
:1057D00006EA0545284340F61C05A85002F530604E
:1057E00000EB4110006800F4004078B91889C0F35C
:1057F0000A001D7940EA854040F0805040F40040A6
:1058000002F5306505EB41152D6800E005E0284301
:1058100002F5306505EB41152860002070BD0000E1
:105820000000FFFF01460A464FF410608058C30A8B
:10583000DB024FF41060835040F60400805840F4BF
:10584000807340F604008350002070470FB470B599
:1058500004460A98012817D1A06B20F48030A06379
:10586000E0681E490840E060E06820F44010E06015
:105870001198012803D1E06840F48010E0602046D0
:1058800000F030F8054612E0E06840F04000E060CB
:10589000204600F027F805460E9820B9A06B40F48A
:1058A0008030A06303E0A06B20F48030A0630798F1
:1058B00001280ED1E06D80B2E065E06D0849084333
:1058C000E065A06840F00600A060A06840F02000FD
:1058D000A060284670BC5DF814FB0000BFFFBDFF50
:1058E0000000EE0308B501460020009000BF0098BC
:1058F000401C0090104A0098904201D9032008BD36
:10590000086900F000400028F1D0002000900869EC
:1059100040F00100086100BF0098401C0090064A5A
:105920000098904201D90320E9E7086900F00100DE
:105930000028F1D100BFE2E7400D030070B5044636
:105940000B46224619785878012848D102F5106094
:1059500000EB4110006800F00040B0F1004F17D19B
:1059600002F5106000EB4110006840F0006502F5A0
:10597000106000EB4110056002F5106000EB411073
:10598000006840F0804502F5106000EB41100560B2
:1059900040F63C0080581D7805F00F060125B54003
:1059A000ADB2A84340F63C05A85040F61C00805814
:1059B0001D7805F00F060125B540ADB2A84340F6AD
:1059C0001C05A85002F5106000EB411000682B4D3B
:1059D000284002F5106505EB411528604BE002F503
:1059E000306000EB4110006800F00040B0F1004F63
:1059F00017D102F5306000EB4110006840F00065FF
:105A000002F5306000EB4110056002F5306000EBFC
:105A10004110006840F0804502F5306000EB411015
:105A2000056040F63C0080581D7805F00F06012502
:105A3000B540134E06EA0545A84340F63C05A8507C
:105A400040F61C008558187800F00F060120B04081
:105A50000B4E06EA0040854340F61C00855002F5D7
:105A6000306000EB41100068064D284002F53065BB
:105A700005EB41152860002070BD0000007833EC74
:105A80000000FFFF0078F3EF01460A46D2F8000E4F
:105A900020F00300C2F8000E40F60400805820F009
:105AA000020340F6040083500020704701460A4676
:105AB000D2F8000E20F00300C2F8000E40F60400F9
:105AC000805840F0020340F60400835000207047E5
:105AD0000FB4F0B5064600273546002405E0002146
