:020000040800F2
:10000000D0AB0124E1020008B35100082D510008D3
:10001000B15100088714000885670008000000003F
:10002000000000000000000000000000895E0008E1
:100030008914000800000000B55100088B5E00081C
:10004000FB020008FB020008FB020008FB0200089C
:10005000FB020008FB020008FB020008FB0200088C
:10006000FB020008FB020008FB020008FB0200087C
:10007000FB020008FB020008FB020008FB0200086C
:10008000FB020008FB020008FB020008FB0200085C
:10009000FB020008FB020008FB020008FB0200084C
:1000A000FB020008FB020008FB020008FB0200083C
:1000B000FB020008FB020008FB020008FB0200082C
:1000C000FB020008FB020008FB020008FB0200081C
:1000D000FB020008FB020008FB020008FB0200080C
:1000E000FB020008FB02000800000000FB02000801
:1000F000FB020008FB020008FB020008FB020008EC
:10010000FB02000841540008FB020008FB02000843
:10011000FB020008FB020008FB020008FB020008CB
:10012000FB020008FB020008FB020008FB020008BB
:10013000FB020008FB020008FB020008FB020008AB
:1001400000000000000000000000000000000000AF
:10015000FB020008FB020008FB020008FB0200088B
:10016000FB020008FB020008FB020008FB0200087B
:10017000FB020008FB020008FB0200080000000070
:10018000FB020008FB020008FB020008FB0200085B
:10019000FB020008FB020008FB020008FB0200084B
:1001A000FB020008FB020008FB0200080000000040
:1001B000FB020008FB020008FB020008FB0200082B
:1001C000FB020008FB020008000000000000000025
:1001D0000000000000000000FB020008000000001A
:1001E000000000000000000000000000000000000F
:1001F0000000000000000000FB020008FB020008F5
:10020000FB020008FB02000800000000FB020008DF
:10021000FB020008FB020008FB020008FB020008CA
:10022000FB02000800000000FB02000800000000C4
:10023000FB020008FB02000800000000FB020008AF
:10024000FB020008FB020008FB020008FB0200089A
:10025000FB020008FB020008FB020008FB0200088A
:10026000FB020008FB020008FB020008FB0200087A
:10027000FB020008FB020008FB020008000000006F
:10028000FB020008FB020008FB020008FB0200085A
:1002900000000000FB020008FB0200080000000054
:1002A00000000000FB020008FB020008FB0200083F
:1002B000FB020008FB020008FB020008FB0200082A
:1002C000FB020008FB020008FB020008DFF80CD06C
:1002D00000F068FA004800471DA20008D0AB0124D6
:1002E0000648804706480047FEE7FEE7FEE7FEE7D0
:1002F000FEE7FEE7FEE7FEE7FEE7FEE7595F0008E0
:10030000CD0200082DE9F05F0546002092469B468D
:1003100088460646814640241BE02846414647461B
:10032000224600F077F853465A46C01A914110D33E
:1003300011461846224600F05EF82D1A67EB0108B8
:100340004F4622460120002100F055F817EB000926
:100350004E41201EA4F10104DFDC484631462A4606
:100360004346BDE8F09F10B5431A934209D2831863
:10037000881803E010F8011D03F8011D521EF9D280
:1003800010BD40EA01039B0703D009E008C9121F12
:1003900008C0042AFAD203E011F8013B00F8013B3F
:1003A000521EF9D210BDD2B201E000F8012B491E55
:1003B000FBD270470022F6E710B513460A46044602
:1003C0001946FFF7F0FF204610BD30B50B46014639
:1003D00000202022012409E021FA02F59D4205D3E4
:1003E00003FA02F5491B04FA02F52844151EA2F18E
:1003F0000102F1DC30BD202A04DB203A00FA02F1D0
:10040000002070479140C2F1200320FA03F3194302
:1004100090407047202A04DB203A21FA02F00021A4
:10042000704721FA02F3D040C2F120029140084304
:10043000194670472DE9FE4F804681EA0300C00F40
:100440000C46009021F0004123F00045B8EB02007B
:10045000A94105D24046214690461C460B4602461D
:1004600023F00040104347D0270DC7F30A00C3F321
:100470000A510290401A019040286BDAC3F313002E
:1004800040F4801B0098924620B10023D2EB030A6F
:1004900063EB0B0B01985946C0F140025046FFF741
:1004A000AAFF06460D4650465946019A00F08CF9BF
:1004B00010EB08006141002487EA115284EAE773D7
:1004C0001A4340D0009A62B3019A012A4FEA0752B8
:1004D00015DC001B61EB02014FF0004202EA0752FB
:1004E000CDE90042001C41F5801132462B4600F058
:1004F0008CF903B0BDE8F08F40462146F9E7001BB8
:1005000061EB0201001C41F5801300185B412018CB
:10051000A2F5001747EB030140EAD570B6196D410B
:1005200011E06D084FEA360645EAC0754FEA0752FA
:10053000001B61EB0201001C41F5801149084FEAE4
:1005400030000019514132462B4603B0BDE8F04F50
:1005500000F04CB90098012240000023D0EB0202C9
:1005600063EBE073009821464FEAE074B8EB0000BB
:1005700061EB0401E9E783F000435BE781F00041B0
:1005800058E72DE9FE4F81EA030404F0004421F00E
:10059000004100944FF0000B23F0004350EA0104A7
:1005A0005ED052EA03045BD0C3F30A54C1F30A5588
:1005B0002C44A4F2F3340194A0FB0254C1F31301C0
:1005C00041F48011C3F3130343F4801301FB02448D
:1005D00000FB034E840A970A44EA815447EA835792
:1005E000A4FB076802958D0A05FB07854FEA932C4B
:1005F00004FB0C542705029D4FEA065847EA1637BC
:10060000B5EB08056EEB070C870E920E47EA8117D3
:1006100042EA8312A7FB0201B6EB0B0164EB000474
:100620002B0D43EA0C335E1844EB1C50DA4651465E
:10063000E7FB0201C5F313044FEA0B3343EA1453FB
:100640004FEA0432019C43EA0603A4F10C0402942D
:10065000009CCDE900B400F0D8F803B0BDE8F08FFD
:1006600000200146F9E72DE9F04D81EA030404F08A
:10067000004B21F0004514464FF0000A23F00041E2
:1006800050EA050220D054EA01021DD0C5F30A57F2
:100690000246C5F31303C1F31300C1F30A5640F435
:1006A000801543F48013A7EB0608101BD64608F20A
:1006B000FD3873EB050002D308F1010801E0921840
:1006C0005B41B8F1000F03DA00200146BDE8F08D70
:1006D00000204FF48011064684460EE0171B73EB92
:1006E000050705D3121B63EB050306434CEA010C17
:1006F00049084FEA300092185B4150EA0107EDD1FA
:1007000052EA030012D082EA040083EA050108439A
:1007100005D0101BAB4106D20122002306E00022C7
:100720004FF0004302E06FF0010253101AEB060095
:100730004CEB085110EB0A0041EB0B01BDE8F04D0A
:1007400000F054B8C1F30A52C1F3130140F2FF3371
:1007500041F480119A4202DA00200146704740F2CB
:1007600033439A42A2F2334202DC5242FFF752BEB6
:10077000FFF741BE30B5041E71F1000404DB4FF0F9
:100780000044404264EB0101141E73F1000405DBD8
:100790001C464FF00043524263EB0403994208BFEA
:1007A000904230BD064C074D06E0E06840F0010382
:1007B00094E8070098471034AC42F6D3FFF78AFD5F
:1007C0009C410108BC410108202A06DBCB17203AD6
:1007D00041FA02F043EAE07306E041FA02F3D04046
:1007E000C2F12002914008431946704710B5141E0B
:1007F00073F1000408DA401C41F1000192185B41DA
:100800001A4301D120F0010010BD2DE9F04D9246B0
:100810009B4611B1B1FA81F202E0B0FA80F22032C7
:100820009046FFF7E8FD04460F4640EA0A0041EA19
:100830000B0153465A46084313D0114653EA0100B0
:1008400019D0C8F140025046FFF7E4FD05460E46B8
:10085000504659464246FFF7CEFD084305D00120D9
:1008600004E020463946BDE8F08D0020054346EA05
:10087000E0762C4337430A986305E40AA0EB0800AE
:100880000022FD0A44EA47540A3002D500200146FE
:10089000E9E7010510196941DDE9084500196941D9
:1008A000BDE8F04DA2E700002DE9F04F81B0012630
:1008B0006FF001044FEA510E06EB510704EB5108AB
:1008C00000974FEA42090024002500BFADB2660040
:1008D000AC422BD250F82670EA0050F835100432A2
:1008E00040F8261046F0010140F8357050F821A07C
:1008F000875840F8217040F802A0009AA118AF185C
:1009000050F831A04FEAC10B50F837204FEAC70C1E
:1009100040F8312040F837A00BF104010CF1040736
:1009200050F801A0C259425040F807A005EB0E0153
:1009300000EB860250F831709668CD00D2F80CC0FA
:1009400097602F1D40F83160A11CC5598CB2D5604D
:100950001D8844454B4440F807C0B7D901B0BDE8F5
:10096000F08F70B50446807825880E46A38901284B
:10097000626806D194ED040A3046294600F0D4FAA4
:1009800003E03046294600F03BF9E078012807D122
:1009900021883046E289A368BDE87040FFF784BF34
:1009A00070BD00004CF29C1C0180C0F6000CC0F829
:1009B00004C0FF2982704BF29812C370C0F6000287
:1009C0004FF0FF030DDDB1F5807F13D0B1F5805FEF
:1009D00015D0B1F5806F22D106329FED160A0421A1
:1009E00017E010290FD0402919D17E329FED0F0A50
:1009F00040210EE01E329FED0E0A102109E09FED0E
:100A0000090A012105E002F5FF729FED070A4FF484
:100A1000807100238181C181826080ED040A58B217
:100A2000704700BF000080390000803D0000803C1E
:100A30000000803B0000803A2DE9F04381B02DEDAD
:100A4000028B0023B3EB920F90460C46054669D00B
:100A50004FEA9800474200BF95ED010A20EE008A58
:100A600095ED000A00EE008AB0EE480A05F09CFE03
:100A7000B4EEC00AF1EE10FA03D7B0EE480A05F062
:100A800093FE84ED000A95ED030A20EE008A95EDB1
:100A9000020A00EE008AB0EE480A05F085FEB4EEC8
:100AA000C00AF1EE10FA03D7B0EE480A05F07CFE5A
:100AB00084ED010A95ED050A20EE008A95ED040A01
:100AC00000EE008AB0EE480A05F06EFEB4EEC00AF1
:100AD000F1EE10FA03D7B0EE480A05F065FE84ED9A
:100AE000020A05F1200995ED070A20EE008A04F1BB
:100AF000100695ED060A00EE008AB0EE480A05F0F1
:100B000053FEB4EEC00AF1EE10FA03D7B0EE480A75
:100B100005F04AFE013784ED030A4D4634469BD169
:100B200034464D4618F003001DD0464295ED010AAB
:100B300020EE008A271D95ED000A00EE008AB0EE37
:100B4000480A05F031FEB4EEC00AF1EE10FA03D700
:100B5000B0EE480A05F028FE013684ED000A05F1E2
:100B600008053C46E2D1BDEC028B01B0BDE8F08344
:100B70009FED201AB5EE002A00EE012A9FED1E1A05
:100B8000BDEEC20AB5EEC02AF1EE10FA10EE100A60
:100B9000B8BF013800EE100A0020B8EEC00A32EEED
:100BA000400A9FED162A20EE010ABCEEC01A11EE93
:100BB000101A30EE021AB0EB512F18BF002102EECE
:100BC000101A4BF6981000FE010AC0F60000B8EEAD
:100BD000422A00EB810090ED011A30EE420AB7EE96
:100BE000002A32EE402A20EE010A90ED001A02EEB1
:100BF000010A704783F9223E00000044000000C44F
:100C00002DE9F04F88B08C08059204EB4407019061
:100C100026010094151D079600220494FF000393FB
:100C2000A2EB910603EB430204304FEAC40E4FEAF5
:100C3000031A4FEAC30B4FEAC2093A462C462F4625
:100C4000079B00EB0E0800EB030C831810ED010A64
:100C500090ED001A18ED012A98ED003A1CED014ABA
:100C60009CED005A13ED016A93ED007A70EE040AD0
:100C7000013672EE061A71EE052A73EE073A32EE6D
:100C8000462A31EE451A33EE473A30EEA15A32EE9B
:100C9000A37A30EE440A72EEE32A71EE423A17ED7F
:100CA000014A97ED006A00ED015A70EEE10A80ED0D
:100CB000007A70EE031A14ED015A23EE857A00F1E2
:100CC000080031EE021A574494ED002A30EE430A30
:100CD0005C4423EE823A01EEC27A22EE862A01EECD
:100CE000853A15ED015AD5ED001A64EE222A4D44DD
:100CF00000EE842A21EE214A21EE051A40EEC62A92
:100D000008ED012A00EE054A00EE611AC8ED002A3E
:100D10000CED013A8CED007A03ED014A83ED001AE7
:100D20008ED11429C0F0B480049D00BF0398AA0896
:100D300080000292039080B2EE0007904FF0FF30E7
:100D400000EB9500069002EB4200C700D000041DA6
:100D50004FEA021C019A4FF0000900239046059AC1
:100D600002EBC3004FEAC30E90ED000A0EF104003F
:100D7000104490ED001A02EB03104FEA031E90EDB1
:100D8000002A0EF10400104490ED003A03EB4300FA
:100D900002EBC00EC000043010449EED004A4246F3
:100DA00090ED005A4046C84600EB0C0A90ED006AF0
:100DB0009AED007A00EB040B76EE470A00EB070E83
:100DC00036EE076A1BED017ADEED001A77EE612A36
:100DD000A84437EE217A8845D0ED011ADBED003AC0
:100DE000DAED014ADEED015A71EEE46A73EEE57A5E
:100DF00071EEA41A73EEA53A70EEA74A70EEE70AF8
:100E000071EEE37A76EEE25A76EEA22A76EE476A41
:100E100036EE076A31EEA37A63EE271A62EE273ABE
:100E200080ED006A60EE247A80ED017A24EE206A7B
:100E3000304424EE227A41EE257A60EE255A42EEC5
:100E4000261A43EE663A41EE645A05EE226A4BEDED
:100E5000011A05EE607ACBED003ACAED007ACAEDD0
:100E6000015A8EED006A8EED017A9DD3079809F143
:100E7000010903440698814502F108027FF66EAF2E
:100E800004981328029D4FEA900004903FF64EAF5D
:100E900000984042019900BF91ED000A91ED011ABE
:100EA00091ED022A91ED033A91ED044A91ED055A34
:100EB00091ED066A91ED077A70EE040A013030EE8A
:100EC000440A31EE054A31EE451A32EE065A73EE07
:100ED000071A32EE462A33EE473A30EE856A34EE90
:100EE000217A30EEC55A34EE614A81ED006A30EE67
:100EF000036A81ED017A31EE427A81ED025A30EED9
:100F0000430A81ED034A31EE021A81ED046A81ED54
:100F1000057A81ED060A81ED071A01F12001BBD1A6
:100F200008B0BDE8F08F00002DE9F04F81B02DED45
:100F3000048B88B08C08059204EB440701902601CD
:100F40000094151D079600220494FF000393A2EB62
:100F5000910603EB430204304FEAC40E4FEA031A32
:100F60004FEAC30B4FEAC2093A462C462F4600BF50
:100F7000079B00EB0E08034400EB020C10ED011A76
:100F800090ED002A13ED013A93ED004A18ED015A55
:100F900098ED006A1CED017ADCED000A71EE031A8F
:100FA000013675EE072A72EE043A76EE204A31EEEB
:100FB000431A32EE442A36EE604A31EEA26A73EEEC
:100FC000A40A35EE475A71EEE21A71EE442A17ED83
:100FD000013A97ED007A00ED016A73EEE43AC0ED54
:100FE000000A72EE054A94ED006A62EE860A00F18C
:100FF000080031EE041A574414ED014A32EE452A36
:101000005C4422EE845A44EE840A21EE834A04EEC4
:10101000C65A15ED016AD5ED002A61EE871A4D44D6
:1010200003EEC74A21EE067A21EE221A43EE231A76
:1010300008ED014A02EE627A02EE061AC8ED001AC5
:1010400003ED015AC3ED000A0CED017A8CED001A94
:101050008ED11429C0F0B480049D00BF0398AA0863
:1010600080000292039080B2EE0007904FF0FF30B4
:1010700000EB9500069002EB4200C700D000041D73
:101080004FEA021C019A4FF0000900239046059A8E
:1010900002EBC3004FEAC30E90ED001A0EF10400FC
:1010A000104490ED002A02EB03104FEA031E90ED6E
:1010B000003A0EF10400104490ED004A03EB4300A7
:1010C00002EBC00EC000043010449EED005A4246B0
:1010D00090ED006A4046C84600EB0C0A90ED007A9D
:1010E000DAED000A00EB040B77EE601A00EB070E56
:1010F00037EE207A5BED010ADEED002A70EEE23A6F
:10110000A84470EEA20A8845D0ED012ADBED004A22
:10111000DAED015ADEED016A72EEE57A34EEE68A26
:1011200072EEA52A74EEA64A71EEC85A71EE881ABC
:1011300032EEE48A77EEA36A77EEE33A77EE607AEE
:1011400037EE207A23EE089A63EE270A72EEA42A7D
:1011500080ED007A04EE279A61EE254A62EE255A68
:10116000C0ED012A65EE217A304426EE217A44EE64
:10117000480A42EE664A41EE265A46EE637A4BED45
:10118000010A05EE237A8BED009ACAED004ACAEDFA
:10119000015ACEED007A8EED017A9DD3079809F1C0
:1011A000010903440698814502F108027FF66EAFFB
:1011B00004981328029D4FEA900004903FF64EAF2A
:1011C00000984042019900BF91ED001A91ED012A6B
:1011D00091ED023A91ED034A91ED045A91ED056AC1
:1011E00091ED067AD1ED070A71EE051A013031EE64
:1011F000451A32EE065A32EE462A33EE076A74EE8C
:10120000202A33EE473A34EE604A31EE867A75EEA4
:10121000220A31EEC66A35EE625A71EE441A72EE57
:10122000032A31EE041A32EE432A27EE003A20EE6A
:10123000804A26EE006A25EE005A81ED003A21EE42
:10124000803A81ED014A22EE804A81ED026A21EE68
:10125000001A81ED035A22EE002A81ED043A81ED55
:10126000054A81ED061A81ED072A01F12001ABD173
:1012700008B0BDEC048B01B0BDE8F08F9FED1F1AE4
:1012800020EE010A9FED1F2ABDEEC01AB5EEC00A7E
:10129000F1EE10FA11EE100AB8BF013801EE100A93
:1012A0000020B8EEC11A30EE410A9FED151A20EE6B
:1012B000010ABCEEC01A11EE101A30EE021AB0EBA1
:1012C000512F18BF002102EE101A4BF6981000FEA5
:1012D000010AC0F60000B8EE422A00EB810090ED52
:1012E000011A30EE420AB7EE002A32EE402A20EE12
:1012F000010A90ED001A02EE010A704783F9223EBE
:1013000000000044000000C410B500284FF00004A5
:1013100018BF6FF0010406D1044802F035FF002821
:1013200018BF6FF00304204610BD0000447B012469
:101330000649C0EB401010B501EB800002F036FF0B
:10134000042814BF0120002010BD0000447B0124AC
:1013500030B500284FF0000587B018BF6FF00105C9
:101360004FD12A48284C016841F48031016000685F
:1013700000F4803005902648016841F004010160C6
:10138000016801F004010591016841F00801016064
:101390000068022101224FF00C0C00F008000590BB
:1013A00003234FF4F8508DE80F101A48694600F0F7
:1013B000E5FA042000901848694600F0DFFA174863
:1013C000016841F480310160016821F480310160DD
:1013D00000220E21312000F06BFC312000F058FC7F
:1013E000204603F0CDFE28B94FF48041204602F09C
:1013F00015FD10B16FF0030503E00221204602F055
:101400007BFC07B0284630BD447B0124D4440258FD
:10141000E044025800080258000C02587C4402586C
:101420004FF0640C002803FB0CF038B54FF00004BB
:1014300018BF6FF0010407D10090044803F0A6FA2A
:10144000002818BF6FF00304204638BD447B0124F8
:10145000704700004FF0640C002803FB0CF038B517
:101460004FF0000418BF6FF0010407D1009004484A
:1014700003F0AAFB002818BF6FF00304204638BD14
:10148000447B01247047FEE770470000134A4DF883
:10149000044D92F80EC00123BCF1020F19D2947BC7
:1014A00002F10C034FF0000C02F804C0947B02EB35
:1014B00084046060907B00F803C0907B431C9373AE
:1014C0003A2463462F22303008704C708A7081F8BD
:1014D00003C018465DF8044B70470000C07B012430
:1014E00010B51649ADF5825D1548FFF7CFFF1648D8
:1014F000012214A107F030FE144C0028207008BF10
:1015000013A016D01F4805F03FF94FF4805000900B
:101510000022022102AB0BA007F0D0FA00282070B5
:1015200008BF19A005D0214805F02EF90DF5825D00
:1015300010BD05F029F90DF5825D10BD01000024F4
:1015400028B00008303A0000EC8D00240000002490
:101550000D0A53442043617264204641544653208F
:1015600073797374656D206973206D6F756E746522
:1015700064207375636365737366756C6C79210D94
:101580000A0000004CB100085344206361726420DB
:10159000697320666F726D6174746564207375631E
:1015A0006365737366756C6C790D0A003CB0000856
:1015B0002DE9F04745A0ADF5A45D90E8FE108DE85B
:1015C000FE10006A00240890494805F0DDF80DF18E
:1015D00028080A22404647A107F0FEFD4A4E307017
:1015E00050B14A4805F0D0F8404607F0DDF90DF556
:1015F000A45D0120BDE8F08745A005F0C5F80DF118
:1016000024096D4624224B462946404608F033F80B
:10161000307050B14EA005F0B7F8404607F0C4F95D
:101620000DF5A45D0120BDE8F08758A005F0ACF8E9
:1016300062A0294605F0A8F8404607F0B5F961A078
:1016400005F0A2F82427404601222AA107F0C4FD94
:101650004B4641F25009E9443A464946307040460B
:1016600007F0DAFE307050B164A005F08DF8404606
:1016700007F09AF90DF5A45D0120BDE8F0876EA092
:1016800005F082F84E46295D305D81420AD07548EA
:1016900005F07AF8404607F087F90DF5A45D0120C2
:1016A000BDE8F087601CC4B2BC42ECD36EA005F06C
:1016B0006BF842A0314605F067F8404607F074F930
:1016C0000DF5A45D0020BDE8F087000053544D33B4
:1016D0003220534420436172642046696C65205374
:1016E000797374656D205465737420546578740043
:1016F00008B10008303A466174467320546573742B
:101700002E747874000000000000002480B00008EF
:1017100066696C65206F70656E6564202F2063724A
:101720006561746564207375636365737366756C56
:101730006C792C20726561647920746F20777269EE
:10174000746520696E20646174612E2E2E0D0A006E
:1017500066696C652077726974696E672066616975
:101760006C65642C20706C656173652063686563CB
:101770006B2053442063617264206F72207265662F
:101780006F726D6174206974210D0A0066696C6561
:101790002077726974696E67207375636365656429
:1017A00065642C2074686520646174612077726FB1
:1017B000746520696E3A0D0A0000000025730D0A59
:1017C000000000002D2D2D2D2D2D2D2D2D2D2D2DFD
:1017D0002D46617446732066696C6520726561648C
:1017E000696E6720746573742D2D2D2D2D2D2D2D73
:1017F0002D2D2D2D2D2D2D0D0A00000066696C65F7
:101800002072656164696E67206661696C65642C2D
:1018100020706C6561736520636865636B20534459
:101820002063617264206F72207265666F726D61F1
:1018300074206974210D0A0066696C652072656107
:1018400064696E67207375636365656465642C20E5
:10185000766572696679696E6720646174612E2E9F
:101860002E0D0A00C4B000086461746120766572B0
:10187000696669636174696F6E207375636365651A
:101880006465642C207468652064617461207265ED
:101890006164206F75743A0D0A00000030B583B0A2
:1018A0000E4801AA694607F08FF801984189C2697C
:1018B0000098921E01FB00F002FB01F1C50A08A08E
:1018C000CC0A04F061FF16A0214604F05DFF19A0C8
:1018D000294604F059FF03B030BD0000441500084C
:1018E0002D2D2D2D2D2D2D2D2D2D2D2D2D2D2D2D28
:1018F0002D2D2D6765742064657669636520766F8C
:101900006C756D6520696E666F2D2D2D2D2D2D2D1D
:101910002D2D2D2D2D2D2D2D2D2D0D0A00000000EE
:1019200053442063617061636974793A2025644D82
:10193000420D0A0053442072656D61696E696E67DD
:101940002063617061636974793A2025644D420DAA
:101950000A00000070B5044600F030F9B4F1FF3F12
:10196000054602D004480078044400F027F9401BE3
:10197000A042FAD370BD0000C08D00240B68002285
:10198000DFF814C2002B08BF70472DE9F84FDFF8CD
:101990000CE2012703244FF00F0800BF0B6807FA81
:1019A00002F52B4000F0F0800E7906F00306012EC0
:1019B00018BF022E1AD1D0F808904FEA4206D1F88B
:1019C0000CB004FA06FA29EA0A090BFA06F646EA06
:1019D00009068660466891F8049026EA0505C9F371
:1019E000001909FA02F646EA050545604D6834EA31
:1019F00005050BD0C5685600D1F8089004FA06FA20
:101A000025EA0A0509FA06F63543C5600D7905F0A1
:101A10000305022D12D1D508D1F810A04FEA427962
:101A200000EB85052E6A4FEAD96908FA09FB0AFA24
:101A300009F926EA0B0649EA06062E6291F8049097
:101A40000568560009F0030904FA06FA09FA06F6D1
:101A500025EA0A05354305604D6815F4403F7CD002
:101A6000DEF8005045F00205CEF80050DEF80050D8
:101A700022F0030606F1B04605F002050095950731
:101A8000D6F808942D0FA0F1B04A08FA05FBBAF574
:101A9000003A29EA0B0908BF4FF0000A40D0A0F134
:101AA000B04ABAF5013A08BF4FF0010A38D0A0F1A8
:101AB000B04ABAF5023A08BF4FF0020A30D0A0F19E
:101AC000B04ABAF5033A08BF4FF0030A28D0A0F194
:101AD000B04ABAF5043A08BF4FF0040A20D0A0F18A
:101AE000B04ABAF5053A08BF4FF0050A18D0A0F180
:101AF000B04ABAF5063A08BF4FF0060A10D0A0F176
:101B0000B04ABAF5073A08BF4FF0070A08D0A0F16B
:101B1000B04ABAF5093A0CBF4FF0090A4FF00A0A69
:101B20000AFA05FA4FF0B0454AEA0909C6F80894DE
:101B3000D1F804902E6819F4801F26EA030618BF16
:101B40001E432E60D1F804906E6819F4001F26EA37
:101B5000030618BF1E436E6000E015E0DCF8045079
:101B60004E6825EA030516F4003F18BF1D43CCF864
:101B70000450DCF800504E6825EA030516F4803F57
:101B800018BF1D43CCF800500B68521CD3407FF4A3
:101B900005AFBDE8F88F000080000058F4440258FB
:101BA000426921EA0203114043EA01418161704721
:101BB000002A08BF0904816170470000014880685D
:101BC00070470000C08D00240248816802781144EB
:101BD00081607047C08D0024032010B500F098F894
:101BE00001F0B0FC0F4A104913681268C3F30323D5
:101BF00002F00F02CB5C895C03F01F0201F01F01B1
:101C0000D0400A4A20FA01F11160094908600F200A
:101C100000F010F800281CBF012010BD00F02AF8C9
:101C2000002010BD18440258C0AB0008D08D00241D
:101C3000CC8D002470B50D4D04462878A0B14FF42A
:101C40007A71B1FBF0F00A490968B1FBF0F003F0DA
:101C5000C7F848B9102C07D200222146501E00F0C8
:101C600027F800206C6070BD012070BDC08D00247D
:101C7000CC8D0024054881B0016841F0020101606B
:101C8000006800F00200009001B07047F444025870
:101C90000028B8BF7047410900F01F008A000121E9
:101CA00002F1E02201FA00F0C2F8000170470000E2
:101CB000164B30B41B68C3F30223C3F1070CBCF10D
:101CC000040F88BF4FF0040C1C1D072C34BF0023E9
:101CD000DB1E012404FA0CFC04FA03F5ACF1010448
:101CE0002140A5F1010C99400CEA020211430028A1
:101CF0004FEA0111B8BF00F00F0000F1E020ACBFC7
:101D000080F8001480F8141D30BC70470CED00E022
:101D1000074900F007004FF6FF030A681A4042EA3D
:101D2000002040F0FD7040F08060086070470000C7
:101D30000CED00E014490A6812F0040F07D109689D
:101D400001F00701814214BF01200020704770B5E7
:101D50000A6822F0070210430860FFF72FFF0B4DBF
:101D60000446286810F4005F0CD100BFFFF726FF7F
:101D7000001BB0F57A7F01D9012070BD286810F4EE
:101D8000005FF3D0002070BD0C4802580448025890
:101D900010B501F057FB05490968054AC1F3021166
:101DA000515C01F01F01C84010BD000020440258E2
:101DB000C0AB000862494DF8044DDFF888C10B1D27
:101DC0000A6809681C68DCF800C002F0030304F02C
:101DD0000102C1F30511CCF3CC0C00291CFB02F26B
:101DE00000EE102AF8EE400A7ED09FED571A9FEDC4
:101DF000572A574AB7EE000A23B1012B3BD0022BDA
:101E00004FD024E0534BD3F800C01CF0200F1ED05D
:101E1000DFF844C11B6801EE901AC3F3C1011368D7
:101E2000F8EE612A2CFA01F101EE901AC3F30801D1
:101E3000F8EE611A81EEA22A01EE901AF8EE611A0C
:101E400040EE811A71EE800A62EE200A3EE001EE59
:101E5000901A1168F8EE611AC1F30801C2EE212A46
:101E600001EE901AF8EE611A40EE811A71EE800AC6
:101E700062EEA00A2AE001EE901A1168DFED372A1F
:101E8000F8EE611AC1F3080182EEA12A01EE901A60
:101E9000F8EE611A40EE811A71EE800A62EE200AB5
:101EA00014E001EE901A1168DFED2D2AF8EE611AA8
:101EB000C1F3080182EEA12A01EE901AF8EE611A30
:101EC00040EE811A71EE800A62EE200A1168C1F3B9
:101ED000462101EE101AB8EE411A31EE001AC0EE9A
:101EE000811ABCEEE11A00E022E080ED001A1168D0
:101EF000C1F3064101EE101AB8EE411A31EE001A94
:101F0000C0EE811ABCEEE11A80ED011A1168C1F32E
:101F1000066101EE101AB8EE411A31EE000A80EEA9
:101F2000801ABCEEC10A80ED020A5DF8044B7047CE
:101F300000210160416081605DF8044B7047000042
:101F40002844025834440258000000390024744CDC
:101F500030440258004402580090D0030024744AD0
:101F600020BCBE4B61494DF8044DDFF884C10B1D08
:101F70000A6809681C68DCF800C002F00303C1F3BA
:101F80000531C4F30012CCF3CC0C00291CFB02F287
:101F900000EE102AF8EE400A7DD09FED561A564A00
:101FA000B7EE000ACBB1DFED551A012B01D0022BA1
:101FB0004ED002EE101A1168F8EE422AC1F3080161
:101FC00081EEA22A01EE901AF8EE611A40EE811A13
:101FD00071EE800A62EE200A4FE0494BD3F800C050
:101FE0001CF0200F1ED0DFF81CC11B6801EE901AF8
:101FF000C3F3C1011368F8EE612A2CFA01F101EE76
:10200000901AC3F30801F8EE611A81EEA22A01EEDC
:10201000901AF8EE611A40EE811A71EE800A62EEB3
:10202000200A2AE001EE901A1168DFED372AF8EE57
:10203000611AC1F3080182EEA12A01EE901AF8EEAE
:10204000611A40EE811A71EE800A62EE200A14E0F5
:1020500001EE901A1168DFED2D2AF8EE611AC1F336
:10206000080182EEA12A01EE901AF8EE611A40EE04
:10207000811A71EE800A62EE200A1168C1F34621CE
:1020800001EE101AB8EE411A31EE001AC0EE811AB4
:10209000BCEEE11A00E022E080ED001A1168C1F305
:1020A000064101EE101AB8EE411A31EE001AC0EEE8
:1020B000811ABCEEE11A80ED011A1168C1F30661C4
:1020C00001EE101AB8EE411A31EE000A80EE801AC5
:1020D000BCEEC10A80ED020A5DF8044B7047002196
:1020E0000160416081605DF8044B704728440258EC
:1020F0003C44025800000039384402580024744A15
:10210000004402580090D0030024744C20BCBE4B05
:1021100061494DF8044DDFF884C10B1D0A68096858
:102120001C68DCF800C002F00303C1F30551C4F3DE
:102130000022CCF3CC0C00291CFB02F200EE102A8A
:10214000F8EE400A7DD09FED561A564AB7EE000AC7
:10215000CBB1DFED551A012B01D0022B4ED002EE90
:10216000101A1168F8EE422AC1F3080181EEA22A82
:1021700001EE901AF8EE611A40EE811A71EE800AB3
:1021800062EE200A4FE0494BD3F800C01CF0200F4C
:102190001ED0DFF81CC11B6801EE901AC3F3C10109
:1021A0001368F8EE612A2CFA01F101EE901AC3F3DC
:1021B0000801F8EE611A81EEA22A01EE901AF8EEFB
:1021C000611A40EE811A71EE800A62EE200A2AE05E
:1021D00001EE901A1168DFED372AF8EE611AC1F3AB
:1021E000080182EEA12A01EE901AF8EE611A40EE83
:1021F000811A71EE800A62EE200A14E001EE901A54
:102200001168DFED2D2AF8EE611AC1F3080182EEA4
:10221000A12A01EE901AF8EE611A40EE811A71EED1
:10222000800A62EE200A1168C1F3462101EE101AFD
:10223000B8EE411A31EE001AC0EE811ABCEEE11A76
:1022400000E022E080ED001A1168C1F3064101EEC2
:10225000101AB8EE411A31EE001AC0EE811ABCEE27
:10226000E11A80ED011A1168C1F3066101EE101A3E
:10227000B8EE411A31EE000A80EE801ABCEEC10AB7
:1022800080ED020A5DF8044B704700210160416057
:1022900081605DF8044B704728440258444402585A
:1022A00000000039404402580024744A0044025897
:1022B0000090D0030024744C20BCBE4B2DE9F043A9
:1022C000F94F80F48072F94C03463D1FF848F94EEF
:1022D0000A43F94A89B04FEA241C29D0DFF8DC838D
:1022E00083F4806959EA010973D083F4006959EADB
:1022F00001096FD083F4805959EA01096BD083F446
:1023000000560E4368D083F400260E4300F0668129
:1023100083F480360E4300F0998183F480450D43A9
:1023200000F0AC8183F40043194300F0F4814CE0E9
:10233000396801F00701052947D2DFE801F00311F0
:102340001F562D00106810F0007004BF09B0BDE8E2
:10235000F08306A8FFF72EFD079809B0BDE8F083CB
:10236000106810F0006004BF09B0BDE8F083684653
:10237000FFF7F8FD009809B0BDE8F083106810F091
:10238000005004BF09B0BDE8F08303A8FFF7C0FE0A
:10239000039809B0BDE8F0832968136801F0405143
:1023A00013F0040F00D0C1B1136813F4807F02D082
:1023B000B1F1805F17D0126812F4003F05D0B1F17F
:1023C000005F04BF09B0BDE8F083002009B0BDE89C
:1023D000F0830CE045E080E0C1E01068C0F3C1008C
:1023E00024FA00F0F2E76046F0E73046EEE7D8F86E
:1023F000001001F46001B1F5800F2DD008DC29B385
:10240000B1F5001FE1D1106810F00060AFD1DDE739
:10241000B1F5C00FE9D0B1F5000FD6D12968136826
:1024200001F0405113F0040F01D00029D5D01368FA
:1024300013F4807F02D0B1F1805FD4D0126812F41F
:10244000003FC2D0B1F1005FC0D0BEE7106810F00D
:1024500000707FF47EAFB9E7106810F0005094D19F
:10246000B4E7D8F8001001F0E061B1F1007F2ED0A0
:1024700009DC31B3B1F1807FA7D1106810F00060A2
:102480007FF475AFA2E7B1F1407FAED0B1F1806FBC
:102490009BD12968136801F0405113F0040F01D05B
:1024A00000299AD0136813F4807F02D0B1F1805FC5
:1024B00099D0126812F4003F87D0B1F1005F85D047
:1024C00083E7106810F000707FF443AF7EE7106878
:1024D00010F000507FF459AF78E7396801F4E0411B
:1024E000B1F5005F35D00ADC69B3B1F5805F7FF4E8
:1024F0006CAF106810F000607FF439AF66E7B1F59B
:10250000405F3FF472AFB1F5804F7FF45EAF296852
:10251000136801F0405113F0040F02D000293FF47A
:102520005CAF136813F4807F03D0B1F1805F3FF498
:102530005AAF126812F4003F3FF447AFB1F1005FA9
:102540003FF444AF41E7106810F000707FF401AF32
:102550003CE7106810F000507FF417AF36E7396899
:1025600001F4E021B1F5403F2CD011DCE9B1B1F527
:10257000803F1DD0B1F5003F7FF427AF106810F009
:1025800000503FF423AF03A8FFF7C2FD04981DE7F6
:10259000B1F5802F1CD0B1F5A02F7FF416AF1168D4
:1025A00011F4003F7FF412AF0FE700F06FFF0DE76B
:1025B000106810F000603FF409AF6846FFF7D2FCE6
:1025C000019803E7106810F004007FF406AFFDE601
:1025D000106810F480707FF406AFF7E6D8F80010AA
:1025E00011F4403122D0B1F5803F25D0B1F5003F44
:1025F0007FF4EBAE2968136801F0405113F0040F2B
:1026000002D000293FF4E9AE136813F4807F03D0B1
:10261000B1F1805F3FF4E7AE126812F4003F3FF47F
:10262000D4AEB1F1005F3FF4D1AECEE6106810F049
:1026300000607FF49CAEC9E6106810F000503FF4D3
:10264000C5AE03A8FFF764FD0598BFE6286810F43F
:1026500080300DD0B0F5803F7FF4B7AE106810F039
:1026600000603FF4B3AE6846FFF77CFC0298ADE62D
:10267000106810F000707FF46CAEA7E6D8F8001078
:1026800001F0E041B1F1405F39D019DC29B3B1F17B
:10269000805F2ED0B1F1005F7FF497AE106810F02C
:1026A00000507FF470AF91E6504402580090D00380
:1026B00040787D010080BB00004402585844025815
:1026C000B1F1804F21D0B1F1A04F7FF47EAE1168FF
:1026D00011F4003F7FF47AAE77E600F0B3FE1C49B8
:1026E00009681C4AC1F30211515C01F01F01C84086
:1026F0006CE6106810F000607FF45FAF66E610686B
:1027000010F004007FF469AE60E6106810F4807089
:102710007FF469AE5AE6396811F040510CD0B1F13E
:10272000805F0FD0B1F1005F7FF44FAE106810F002
:1027300000607FF442AF49E6116811F4003F7FF476
:1027400045AE42E6106810F000707FF402AE3DE640
:1027500020440258C0AB00082DE9F05F0446006831
:102760000025FF4FDFF8FC93C04310F0006F2E46AA
:1027700020D1606E58B1B0F5801F0DD0B0F5001FAC
:1027800010D0B0F5401F18BF012519D011E03868EE
:1027900040F40030386013E0022104F1080002F038
:1027A0000BFD04E0022104F1280002F0A7FD050062
:1027B00006D02E462088C04310F4807F09D025E043
:1027C000606ED9F8001021F440110843C9F80000E8
:1027D000F0E7A06D052817D2DFE800F003080E141B
:1027E0001400386840F4003038600BE0002104F138
:1027F000080002F0E1FC04E0002104F1280002F0EE
:102800007DFD054655B100E001252E462088DFF804
:102810005883C04310F4806F09D032E0A06DD9F81E
:10282000001021F007010843C9F80000EEE7D4F8D2
:10283000A400B0F5C00F22D008DC70B1B0F5001FC5
:1028400010D0B0F5800F14D0012519E0B0F5000FBD
:1028500018BFB0F5200FF7D111E0386840F4003010
:1028600038600CE004F108004FF0000102F0A4FC15
:1028700004E0002104F1280002F040FD054635B1D6
:102880002E462088C04310F4006F0BD034E0D4F8FB
:10289000A400D8F8001021F4600141EA0000C8F853
:1028A0000000EEE7D4F8A800B0F1407F22D008DCA9
:1028B00070B1B0F1807F10D0B0F1007F14D001254D
:1028C00019E0B0F1806F18BFB0F1A06FF7D111E03F
:1028D000386840F4003038600CE004F108004FF034
:1028E000000102F069FC04E0002104F1280002F07C
:1028F00005FD054635B12E462068C04310F0007F27
:102900000BD022E0D4F8A800D8F8001021F0E06144
:1029100041EA0000C8F80000EEE7E06C98B110282A
:1029200006D0202809D0302818BF01250BD00BE095
:10293000386840F40030386005E0022104F10800F6
:1029400002F03AFC054635B12E462088C04310F40B
:10295000805F08D02DE08548E16C026822F03002EB
:1029600011430160F1E7E06DB0F5005F19D005DCBF
:1029700058B1B0F5805F0DD0012519E0B0F5405F8A
:1029800018BFB0F5804FF7D111E0386840F400303F
:1029900038600CE004F108004FF0000102F00CFC7C
:1029A00004E0002104F1280002F0A8FC054635B13E
:1029B0002E462088C04310F4005F0AD02DE0E06D61
:1029C000D9F8001021F4E04141EA0000C9F8000004
:1029D000EFE7206EB0F5403F1DD008DCD8B1B0F570
:1029E000803F0BD0B0F5003F0FD0012514E0B0F5CB
:1029F000802F18BFB0F5A02FF7D10CE004F108002C
:102A00004FF0010102F0D8FB04E0012104F128009D
:102A100002F074FC054635B12E462088C04310F400
:102A2000804F0AD02EE0206ED9F8001021F4E0216A
:102A300041EA0000C9F80000EFE7D4F8AC00B0F1BB
:102A4000405F1DD008DCD8B1B0F1805F0BD0B0F191
:102A5000005F0FD0012514E0B0F1804F18BFB0F136
:102A6000A04FF7D10CE004F108004FF0010102F093
:102A7000A3FB04E0012104F1280002F03FFC05461D
:102A800035B12E462088C04310F4004F0BD022E011
:102A9000D4F8AC00D8F8001021F0E04141EA000081
:102AA000C8F80000EEE7E06E98B1B0F1805F05D0A5
:102AB000B0F1005F18BF012505D00BE0386840F485
:102AC0000030386005E0012104F1080002F074FBD9
:102AD000054635B12E462068C04310F0807F09D0EE
:102AE00020E0E06ED9F8001021F040510843C9F809
:102AF0000000F0E7A06C98B1012806D0022809D0A8
:102B0000032818BF01250BD00BE0386840F40030D3
:102B1000386005E0022104F1080002F04DFB054693
:102B200035B12E462068C04310F4800F08D032E043
:102B30000E48A16C026822F0030211430160F1E724
:102B4000DFF82CA0DAF8000040F48070CAF800002A
:102B5000FFF734F88346DAF8000010F4807F09E0CC
:102B60002C44025850440258584402584C440258CD
:102B7000004802580DD100BFFFF720F8A0EB0B0072
:102B8000642801D9032505E0DAF8000010F4807FFD
:102B9000F2D045B12E462078DFF8F8A3C04310F0FC
:102BA000010F52D070E0FC48B4F8B010006801F496
:102BB000407100F4407088420CD0F7480168026808
:102BC00021F4407142F480320260026822F48032C3
:102BD00002600160D4F8B000B0F5807F18D1FEF734
:102BE000EDFF8246EC48016811F0020F08BF41F288
:102BF000883B0DD1FEF7E2FFA0EB0A00584502D951
:102C000003252E46C7E7E448006810F0020FF1D014
:102C1000D4F8B0104FF440708843E0481CBF0168FE
:102C200021F47C5109D00160DB48B4F8B01002688F
:102C3000C1F30B0111430160ADE7D94A036802EA11
:102C4000111123F47C521143EDE7A06F182819D01D
:102C500006DCB8B1082808D010280DD0012512E0F4
:102C6000202818BF2828F9D10CE004F108004FF003
:102C7000010102F0A1FA04E0012104F1280002F0B0
:102C80003DFB054635B12E462078C04310F0020FBB
:102C90000AD021E0A06FDAF8001021F0380141EAF3
:102CA0000000CAF80000EFE7606F062812D2DFE8E4
:102CB00000F00F03090F0F0F012104F1080002F0CB
:102CC0007BFA04E0012104F1280002F017FB05461D
:102CD00045B100E001252E462078C04310F0040FD6
:102CE0000AD022E0606FDAF8001021F0070141EA13
:102CF0000000CAF80000EFE7D4F89000062812D2CE
:102D0000DFE800F00F03090F0F0F012104F10800A5
:102D100002F052FA04E0012104F1280002F0EEFA78
:102D2000054645B100E001252E462078C04310F04D
:102D3000200F0BD02FE0D4F89000D8F8001021F02D
:102D4000070141EA0000C8F80000EEE7D4F88C0063
:102D5000B0F1405F1DD008DCD8B1B0F1805F0BD07E
:102D6000B0F1005F0FD0012514E0B0F1804F18BF23
:102D7000B0F1A04FF7D10CE004F108004FF00001D2
:102D800002F01AFA04E0022104F1280002F0B6FA77
:102D9000054635B12E462078C04310F0400F0BD0C9
:102DA0002FE0D4F88C00DAF8001021F0E04141EA7D
:102DB0000000CAF80000EEE7D4F89800B0F5406FC4
:102DC0001DD008DCD8B1B0F5806F0BD0B0F5006F26
:102DD0000FD0012514E0B0F5805F18BFB0F5A05FFB
:102DE000F7D10CE004F108004FF0000102F0E4F923
:102DF00004E0022104F1280002F080FA054635B112
:102E00002E462078C04310F0800F0BD02FE0D4F86E
:102E10009800D8F8001021F4E05141EA0000C8F809
:102E20000000EEE7D4F89C00B0F5C04F1DD008DCE0
:102E3000D8B1B0F5005F0BD0B0F5804F0FD00125B1
:102E400014E0B0F5004F18BFB0F5204FF7D10CE0FB
:102E500004F108004FF0000102F0AEF904E0022195
:102E600004F1280002F04AFA054635B12E462078D2
:102E7000C04310F0080F0BD020E0D4F89C00D8F825
:102E8000001021F4604141EA0000C8F80000EEE7BC
:102E9000D4F88000B0F5805F07D1022104F128004A
:102EA00002F02CFA002818BF0126D4F88000DAF8C6
:102EB000001021F440510843CAF800002078C043B4
:102EC00010F0100F15D1D4F89400B0F5807F07D121
:102ED000022104F1280002F011FA002818BF01268F
:102EE000D4F89400D8F8001021F440710843C8F8D1
:102EF00000002068C04310F4002F19D1D4F8A000BE
:102F000040B1B0F5803F0BD0B0F5003F18BF0125B0
:102F10000CD00CE0002104F1080002F04DF904E0AF
:102F2000022104F1280002F0E9F9054635B12E46E8
:102F30002068C04310F4802F0AD024E0D4F8A00009
:102F4000D8F8001021F440310843C8F80000EFE73A
:102F5000D4F88400B0F5801F08D0B0F5001F0AD067
:102F6000B0F5401F18BF01250BD00BE0386840F4C6
:102F70000030386005E0012104F1280002F0BEF9BC
:102F800005467DB12E462068C04310F4803F13D023
:102F900027E000005444025870440258104402587C
:102FA000CFFFFF00D4F88400DAF8001021F44011BC
:102FB0000843CAF80000E6E7206D28B1B0F5803F6D
:102FC00018BF012505D00BE0386840F400303860A8
:102FD00005E0022104F1080002F0EEF8054635B1E3
:102FE0002E462068C04310F0005F10D107E06E4805
:102FF000216D026822F4803211430160F1E7022161
:1030000004F1280002F07AF9002818BF0126206890
:10301000C04310F4003F12D1E06F70B1B0F5807F73
:1030200007D0B0F5007F1CBFB0F5407F012504D06C
:1030300004E0386840F4003038603DB12E46206826
:103040006FEA000010F4801F13D109E0E06FDAF896
:10305000001021F4407141EA0000CAF80000EEE7D8
:10306000206FD9F8001021F0004141EA0000C9F8B2
:10307000000020686FEA000010F4001F08D1A06E65
:10308000D9F8001021F0807141EA0000C9F8000071
:1030900020686FEA000010F0804F0AD143480168B1
:1030A00021F4004101600168D4F8B42041EA020132
:1030B000016020686FEA000010F0004F07D13A4825
:1030C000616D026822F0405242EA0101016020680D
:1030D0006FEA000010F4000F09D1D4F88800DAF884
:1030E000001021F4400141EA0000CAF800002079F4
:1030F0004FF000056FEA000000F00100284307D1FF
:10310000002104F1080002F057F8002818BF064615
:103110002079C04300F00200284307D1012104F1C7
:10312000080002F049F8002818BF06462079C0437D
:1031300000F00400284307D1022104F1080002F046
:103140003BF8002818BF06462079C04300F008006D
:10315000284307D1002104F1280002F0CFF800280D
:1031600018BF06462079C04300F01000284307D15D
:10317000012104F1280002F0C1F8002818BF06461A
:103180002079C04300F02000284305D1022104F13A
:10319000280002F0B3F820B9002E04BF0020BDE8DB
:1031A000F09F0120BDE8F09F4C44025810440258A3
:1031B000002804BF012070472DE9F05FDFF85C9222
:1031C00004468A46D9F8000000F00F0050450DD2A1
:1031D000D9F8000020F00F0040EA0A00C9F800000A
:1031E000D9F8000000F00F0050457DD120788C4DBB
:1031F00010F0040F0AD02069296801F0700188429C
:1032000004D9296821F07001084328602078854E90
:1032100010F0080F0AD06069316801F0700188422F
:1032200004D9316821F0700108433060207810F033
:10323000100F0AD0A069316801F4E061884204D916
:10324000316821F4E06108433060207810F0200FED
:103250000BD07548E169026802F07002914204D90E
:10326000026822F0700211430160207810F0020F12
:103270000AD0E068296801F00F01884204D9296862
:1032800021F00F0108432860207810F0010F45D08D
:103290006648A1682A6822F4706211432960616857
:1032A000022926D0032929D0006801292BD010F04B
:1032B000040F56D05E4F386820F00700084338608E
:1032C000FEF77CFC39688046606801F03801B1EB9C
:1032D000C00F18BF41F2883B20D000BFFEF76EFC44
:1032E000A0EB0800584500E03BE010D90320BDE802
:1032F000F09F006810F4003FDCD132E0006810F06D
:10330000007FD7D12DE010F4807FD3D129E0606811
:10331000396801F03801B1EBC00FDFD1207810F02F
:10332000020F0AD0E068296801F00F01814204D938
:10333000296821F00F0108432860D9F8000000F047
:103340000F00504510D9D9F8000020F00F0040EAD6
:103350000A00C9F80000D9F8000000F00F0050453D
:1033600002D00120BDE8F09F207810F0040F0AD0B1
:103370002069296801F07001814204D9296821F08F
:10338000700108432860207810F0080F0AD06069A7
:10339000316801F07001814204D9316821F0700177
:1033A00008433060207810F0100F0AD0A06931680F
:1033B00001F4E061814204D9316821F4E0610843FD
:1033C0003060207810F0200F0BD01748E1690268B8
:1033D00002F070028A4204D9026822F0700211439E
:1033E000016000F0AFF813492B682A68C3F3032388
:1033F00002F00F02CB5C895C03F01F0201F01F0199
:10340000D0400D4A20FA01F111600C4908600C48C7
:103410000068BDE8F05FFEF70DBC00000020005220
:10342000184402581C4402582044025800440258D0
:1034300010440258C0AB0008D08D0024CC8D00246D
:10344000C48D002410B500F07DF80C4A0C490D4BDA
:103450001468D2F800C0C4F303220CF00F0C8A5C8D
:1034600011F80CC002F01F01074A20FA01F10CF01C
:103470001F0021FA00F01860116010BD18440258B6
:10348000C0AB0008D08D0024CC8D002410B500F016
:1034900059F8104A1049114B1468D2F800C0C4F30F
:1034A00003220CF00F0C8A5C11F80CC002F01F0212
:1034B000D0400CF01F0220FA02F21A60084B18608C
:1034C00008480068C0F30210085C00F01F0022FAF0
:1034D00000F010BD18440258C0AB0008D08D002485
:1034E000CC8D00241C44025810B500F02BF8104A73
:1034F0001049114B1468D2F800C0C4F303220CF039
:103500000F0C8A5C11F80CC002F01F02D0400CF0C6
:103510001F0220FA02F21A60084B1860084800687F
:10352000C0F30220085C00F01F0022FA00F010BD7A
:1035300018440258C0AB0008D08D0024CC8D002464
:103540001C4402585E4930B45E4809685E4B11F075
:1035500038020CD00111082A06D0102A02BF5B489D
:1035600030BC7047182A0ED030BC08467047196826
:1035700011F0200F04BF30BC7047196830BCC1F394
:10358000C101C84070475249524C01F1040C0A680D
:103590000968DCF80050246802F0030C05F0010211
:1035A000C1F30511C4F3CC04002914FB02F200EEB0
:1035B000102AF8EE400A02BF002030BC7047BCF170
:1035C000000F9FED451A454AB7EE000A1BD0DFED0C
:1035D000441ABCF1010F02D0BCF1020F4AD002EE36
:1035E000101A1068F8EE422AC0F3080081EEA22AF1
:1035F00001EE900AF8EE611A40EE811A31EE800A6F
:1036000022EE000A4BE0D3F800C01CF0200F1BD0C4
:103610001B6801EE901A1168C3F3C103F8EE612A2A
:10362000D84001EE900AC1F30800F8EE611A81EE6D
:10363000A22A01EE900AF8EE611A40EE811A31EEEC
:10364000800A22EE000A2AE001EE901A1068DFEDEF
:10365000252AF8EE611AC0F3080082EEA12A01EED5
:10366000900AF8EE611A40EE811A31EE800A22EEDD
:10367000000A14E001EE901A1068DFED1B2AF8EE44
:10368000611AC0F3080082EEA12A01EE900AF8EE5A
:10369000611A40EE811A31EE800A22EE000A1068AB
:1036A00030BCC0F34620401C00EE900AF8EE600AE1
:1036B00080EE201ABCEEC10A10EE100A704700001E
:1036C000104402580090D0030044025840787D0115
:1036D000284402583444025800000039304402584B
:1036E0000024744A0024744C20BCBE4B002804BF44
:1036F000012070472DE9F04704460078FD4FDFF8C0
:10370000F89310F0010FFD4D58D03868D9F800102B
:1037100000F03800102819D0182804BF01F0030069
:10372000022813D06068B0F5803F04BF286840F4D9
:10373000803014D010B1B0F5A02F1BD0286820F431
:1037400080302860286820F4802008E0286810F481
:10375000003F33D06068002800F0A4822EE028608B
:103760006068D0B1FEF72AFA0646286810F4003FD8
:1037700008D023E0286840F480202860286840F4BE
:103780008030ECE7FEF71AFA801B642800F2D7813C
:10379000286810F4003FF5D010E0FEF70FFA064657
:1037A000286810F4003F09D0FEF708FA801B64284F
:1037B00000F2C581286810F4003FF5D1207810F0A0
:1037C000020F67D03868DFF83883D9F8001010F09E
:1037D000380014D0182808BF11F0030F0FD0E0688C
:1037E000B0B3296821F0190141EA00002860FEF712
:1037F000E5F90646286810F0040F2AD01EE0286874
:1038000010F0040F03D0E068002800F04B82E1685C
:10381000286820F0190008432860FEF7CFF9064613
:10382000286810F0040F09D1FEF7C8F9801B0228A0
:1038300000F28581286810F0040FF5D0207CD8F8BC
:10384000001021F0FE4141EA0060C8F8000021E0CC
:103850000AE0FEF7B3F9801B022800F270812868A5
:1038600010F0040FF5D0E9E7286820F00100286087
:10387000FEF7A4F90646286810F0040F0AD000BF2E
:10388000FEF79CF9801B022800F25981286810F08D
:10389000040FF5D1207810F0100F4ED03868DFF803
:1038A0006482D9F8001000F03800082814D01828D5
:1038B00004BF01F0030001280ED0E0690028286849
:1038C00027D040F080002860FEF778F90646286887
:1038D00010F4807F13D007E0286810F4807F1CBFAD
:1038E000E069802840F0DE8194F82000D8F80010CC
:1038F00021F07C5141EA0060C8F800001DE0FEF7AD
:103900005DF9801B02287CD8286810F4807FF6D0EF
:10391000EAE720F080002860FEF750F906462868A4
:1039200010F4807F09D000BFFEF748F9801B022801
:1039300067D8286810F4807FF6D1207810F0080F3F
:103940002ED0714E60690028306814D040F001001C
:103950003060FEF733F98046306810F0020F1FD157
:10396000FEF72CF9A0EB080002284AD8306810F0C6
:10397000020FF5D014E020F001003060FEF71EF9D0
:103980008046306810F0020F0AD000BFFEF716F92B
:10399000A0EB0800022834D8306810F0020FF5D1EF
:1039A000207810F0200F2AD0A0690028286813D0B2
:1039B00040F480502860FEF701F90646286810F4AC
:1039C000005F1CD1FEF7FAF8801B022819D828687E
:1039D00010F4005FF6D012E020F480502860FEF76B
:1039E000EDF80646286810F4005F08D0FEF7E6F808
:1039F000801B022805D8286810F4005FF6D12078D3
:103A000000E089E010F0040F64D0404E306840F4CC
:103A100080703060FEF7D2F88046306810F4807F06
:103A20000AD100BFFEF7CAF8A0EB0800642873D8DB
:103A3000306810F4807FF5D0A068DFF8D4800128CA
:103A400004BFD8F8000040F001000CD008B10528F0
:103A500018D0D8F8000020F00100C8F80000D8F80D
:103A6000000020F00400C8F80000A06841F2883A85
:103A7000F0B1FEF7A3F80646D8F8000010F0020FE8
:103A80000BD027E0D8F8000040F00400C8F8000090
:103A9000D8F8000040F00100E5E7FEF78FF8801B42
:103AA00050454CD8D8F8000010F0020FF5D011E0C6
:103AB000FEF784F80646D8F8000010F0020F09D08F
:103AC000FEF77CF8801B504539D8D8F8000010F07C
:103AD000020FF5D1606A00287ED0DFF838A039687F
:103AE0000AF1040801F038011829AAF1040774D07A
:103AF000022812E010440258284402580044025898
:103B0000044402580C4402587444025800480258B5
:103B1000704402583044025811E0286820F0807048
:103B200028600FD0FEF74AF80446286810F0007F9E
:103B300052D000BFFEF742F8001B02287ED90320B6
:103B4000BDE8F087FEF73AF80646286810F0007FD7
:103B500009D000BFFEF732F8801B0228EFD8286892
:103B600010F0007FF6D1E16AD9F80000A26A20F0D7
:103B7000F30020F4407040EA01101043C9F800003F
:103B800094F834004FF4FE02238E1102B4F838C0CA
:103B90004FEA402994F83C60581EACF10103A6F1AD
:103BA000010CA9F5007606F47E46C0F30800304308
:103BB00002EA0342104301EA0C610843CAF800001C
:103BC000386820F001003860D8F80000A16C6FF36D
:103BD000CF0040EAC10001E087E03BE0C8F8000008
:103BE0003968206C21F00C01084338603868616C3A
:103BF00020F0020008433860386840F480303860B4
:103C0000386840F400303860386840F4802038600C
:103C1000386840F001003860286840F08070286003
:103C2000FDF7CCFF0446286810F0007F5DD100BF8F
:103C3000FDF7C4FF001B022881D800E004E02868DB
:103C400010F0007FF4D050E0286810F0007F7FF47F
:103C500071AF4AE0D9F800100128DAF8000021D04D
:103C6000A26A01F0030393421CD1E26AC1F3051179
:103C70008A4217D1216BC0F30802491E8A4211D132
:103C8000616BC0F34622491E91420BD1A16BC0F378
:103C90000642491E914205D1E16BC0F30660491E00
:103CA000814202D00120BDE8F087A16CD8F8000065
:103CB000C0F3CC00814218D0386820F00100386091
:103CC000FDF77CFF4FEA0005FDF778FFA842FBD027
:103CD000A06CD8F800106FF3CF0141EAC000C8F81B
:103CE0000000386840F0010038600020BDE8F0872F
:103CF00070477047704770472DE9F047044603202E
:103D000084F830004FF00006414A41B1012924D027
:103D1000022913D0606B012640F0006026E0A06D00
:103D2000B0F5007F1EBFB0F5807FA06B01281ED1CB
:103D30001146204601F086FFA0B918E0A06DB0F54D
:103D4000007F1EBFB0F5807FA06B01280AD111460D
:103D5000204601F077FF28B909E02E49204601F0FE
:103D600071FF20B1606B012640F080506063FDF769
:103D700025FFB4F844100025804620682F4609042A
:103D800001F0E0FC18B1616B0843606304E0206857
:103D9000002101F09FFE07464FF00109C7F34320C1
:103DA000042823D0FDF70AFFA0EB0800B0F1FF3F85
:103DB0000BD0B4F844102F462068090401F0C2FC6F
:103DC00058B1616B084360630CE04FF000406063E2
:103DD00084F830900320BDE8F0872068002101F0CE
:103DE00079FE0746C7F343200428DBD120684FF44F
:103DF000007101F06BFB30B1226801260649916326
:103E0000616B0843606384F830903046BDE8F0870A
:103E100001FFFF8000FFFF80FF0FE01F2DE9F0474B
:103E20000446806B0D46032182B084F830100026D2
:103E300003285ED0B5F5004F04BF606B40F08050A2
:103E400033D0B5F5804F4FF000074FF400684FF0C6
:103E5000806906D0002D1CBF606B40F0006026D04A
:103E600023E0009700210197206801F033FE10F055
:103E7000007F01D0404639E06946204601F052FEFD
:103E8000A0BB019810F4802F0DD0B4F84410206826
:103E9000090401F0D9FA48BB2068022101F026FB91
:103EA00020BB384622E0484620E0606325E00097CA
:103EB00000210197206801F00DFE10F0007FD9D19C
:103EC0006946204601F02EFE80B9019810F4803F2B
:103ED000E9D0B4F844102068090401F0B5FA28B913
:103EE0002068002101F002FB0028DAD0616B084352
:103EF000DBE7606B40F080506063606B2C4F18B163
:103F000020680126876340E000214FF48030FEF7EF
:103F1000D5F95FEA000C33D026492B46D4E904904A
:103F2000BCFBF1FAD4E90182824511D9A56DB5F542
:103F3000007F0DD0B5F5807F11D04FEA6105E0B16B
:103F40004FEA400ABCFBFAFAAA4501D9BCFBF1F0E2
:103F50004146CDE90090206801F0C0FD15E0164D06
:103F600030B14FEA400ABCFBFAFA8A45F0D901E0C9
:103F70008C45EDD9BCFBF5F0EAE7AC45E8D9E5E7BF
:103F8000606B012640F00060606320684FF40071B0
:103F900001F09CFA28B1216801268F63616B084308
:103FA0006063012084F8300002B03046BDE8F0873D
:103FB000FF0FE01F80F0FA0200E1F50570470000F6
:103FC00070B4C26D920F0A70C26DC2F383624A7000
:103FD000C26DC2F301628A70C26D120CCA70B0F871
:103FE0005C20120A0A7190F85C204A71026E120D70
:103FF000CA80026EC2F303420A72B0F86020C2F3B4
:10400000C0324A72B0F86020C2F380328A72B0F8CF
:104010006020C2F34032CA72B0F860204FF0000C4A
:10402000C2F300320A7381F80DC00123846B4FF490
:1040300000726CB1012C3CD0026852499163416B13
:1040400041F08051416380F83030012070BC7047EE
:10405000B0F86040456EA405240D44EA95740C61E7
:10406000446EC4F3C2640C75446EC4F302644C75B0
:10407000446EC4F342548C75446EC4F38244CC75D0
:10408000446EC4F3C2340C760C69641C84640D7EE7
:1040900005F00705AD1CAC4084640D7A05F00F05F2
:1040A00003FA05F5C5646E0A04FB06F4C0E9144280
:1040B0000EE090F86050446EAD06AD0A45EA144437
:1040C0000C610C69641CA4028464C0E91324426579
:1040D000B0F86420C2F380324A76B0F86420C2F3AC
:1040E000C6128A7690F8642002F07F02CA76826E49
:1040F000D20F0A77826EC2F341724A77826EC2F3A0
:1041000082628A77826EC2F38352CA77826EC2F36A
:10411000405281F8202081F821C0826EC2F3004213
:1041200081F82220B0F86820C2F3C03281F8232041
:10413000B0F86820C2F3803281F82420B0F86820FB
:10414000C2F3403281F82520B0F86820C2F3003273
:1041500081F82620B0F86820C2F3812281F8272058
:10416000B0F86820C2F3012281F8282090F8680096
:10417000C0F3460081F8290081F82A30002070BC85
:1041800070470000FF0FE01F826B0A60C26B4A603D
:10419000026C8A60426CCA60826C0A61C26C4A61BD
:1041A000026D8A61406DC8610020704770B5B0F83B
:1041B0004410002504460068090401F0C3FA18B150
:1041C000616B0843606304E02068002101F082FC19
:1041D0000546C5F3432070BD2DE9F04F044690F825
:1041E000300097B00F4603284FF0000A02BF0120AD
:1041F00017B0BDE8F08F6D46FDF7E0FC002180466A
:10420000206801F067FC10F0007F4FF0010B18BF31
:104210004FF400607ED12068402101F057F910B1C1
:10422000616B6163A3E0B4F844102068090401F0F5
:104230000BF90028F4D16022CDF854B0431E4FF0A2
:10424000020910934021CDE91390CDE911122068A5
:1042500010A901F04BFB206801F0E2FA0028DFD141
:104260002068406B10F4957F1AD12068406B10F4E1
:10427000004F18BF002607D0206801F04BFC761CC9
:10428000082E45F8040BF7D3FDF798FCA0EB0800C7
:10429000B0F1FF3F69D02068406B10F4957FE4D007
:1042A0002068416B11F0080F18BF08205FD1416BE7
:1042B00011F0020F18BF484659D1416B11F0200F81
:1042C00018BF202053D1406B10F4805F10D02068BD
:1042D00001F020FC45F8040BFDF770FCA0EB080092
:1042E000B0F1FF3F41D02068406B10F4805FEED109
:1042F00021682D4888634FF47F400099C1F38111F4
:1043000039700099C1F340117970009A114600EAA2
:10431000122200E02BE042EA11617980019909BA8A
:104320007960029939720299090A79720299C1F386
:104330000351B972DDE9022100EA1240C9B2084313
:10434000B8810398C0F38520B8730398C0F30120A7
:10435000F8730398C0F303103874039800F00F004B
:1043600078740498000EB8740BE04FF00040226897
:104370000E494FF0010A9163616B0843606384F852
:1043800030B04FF40071206801F0A0F838B1226815
:104390004FF0010A05499163606384F830B017B0AB
:1043A0005046BDE8F08F00003A0F0018FF0FE01FE5
:1043B0002DE9F84304460068E56A416B11F4004FAB
:1043C00018BF15F0080F1DD0D4E9095020282CBFC4
:1043D0000026BDE8F883206801F09CFB030A2870E2
:1043E000010C020E681C761C082E00F8013B00F13F
:1043F000020501704270EED3A06A2038C4E909506A
:10440000BDE8F883416B0127DFF83482002611F400
:10441000807F5CD03A02826315F0080F2068C16B80
:1044200021F49D7121F44041C1632068C16B21F0EA
:104430008051C1632068C16821F04001C1601FD074
:1044400015F0220F09D0206801F0FAF928B1616B4C
:10445000084360632046FFF7B1FD206815F0030FA5
:10446000C0F8388084F83070E66204D0204600F04E
:1044700093FBBDE8F883204600F09AFBBDE8F88383
:1044800015F0800F08BFBDE8F88315F0220F2068F3
:1044900086622068C6622068066509D0206801F03F
:1044A000CFF928B1616B084360632046FFF786FDB2
:1044B00015F0300F84F83070E6621CBF204600F023
:1044C00077FB15F0030F08BFBDE8F883CEE7416B1B
:1044D00011F4804F18BF15F0080F22D0D4E907500F
:1044E00020282CBF0026BDE8F883297800916A783F
:1044F00041EA02210091AA7841EA02410091EA785A
:104500002D1D41EA026000902068694601F005FB1C
:10451000761C082EE9D3206A2038C4E90750BDE88C
:10452000F883416B11F03A0F416B64D011F0020F28
:1045300003D0616B41F002016163416B11F0080F20
:1045400003D0616B41F008016163416B11F0200FF2
:1045500003D0616B41F020016163416B11F0100FDA
:1045600003D0616B41F010016163C0F838802068AE
:10457000C16B21F49D71C1632068C16821F04001C5
:10458000C1602068C16A41F40051C1622068C168FD
:1045900041F08001C160206801F052F9626B15F0B2
:1045A000080F4FF4006140EA020060632068C268AF
:1045B00022F08002C2602068816307D084F83070E6
:1045C000E6622046FFF7FAFCBDE8F88315F0800F9D
:1045D0001ABF606B0028BDE8F8832068C16B21F02A
:1045E0008051C1632068066584F830702046FFF76B
:1045F000E5FCBDE8F88311F0805F08BFBDE8F883F3
:104600004FF0805181632068006D10F0040F05F0B9
:10461000200006D0002820460ED0FFF76BFBBDE837
:10462000F8830028204603D0FFF765FBBDE8F88338
:10463000FFF75FFBBDE8F883FFF75AFBBDE8F8839F
:104640003A0F0018002804BF012070472DE9F041FF
:10465000044690F8300086B0002618B92046267629
:1046600000F092F9042084F83000204600F066F84B
:1046700090B969462046FFF7AFFD68B99DF8100074
:10468000A26B9DF81110012A18BFA66508D0E16839
:104690002046FFF7C3FB58B106B00120BDE8F0810A
:1046A000084314BF4FF400704FF48070A065EEE72C
:1046B000FDF784FAB4F8441005462068374609042B
:1046C00001F040F818B1616B0843606304E02068B2
:1046D000002101F0FFF907464FF00108C7F343201E
:1046E000042823D0FDF76AFA401BB0F1FF3F0BD03E
:1046F000B4F8441037462068090401F023F860B18B
:10470000616B084360630DE04FF00040606384F824
:10471000308006B00320BDE8F0812068002101F060
:10472000D9F90746C7F343200428DBD16663E66264
:1047300084F8308006B00020BDE8F0812DE9F04F0C
:104740004FF0000804468DB041464FF48030FDF72D
:10475000B5FD07004FF0010522D087484346424689
:104760004146B7FBF0F6CDE90086206801F0B6F9C6
:10477000206801F0C9F91EB17000B7FBF0F72FB146
:104780007E48B0FBF7F0401CFDF7E4F84FF000095D
:10479000CDF800802068CA4600F0B8FE78BB08E07B
:1047A0004FF0006084F8305060630DB00120BDE828
:1047B000F08F206800F0D2FEB0F1004F4FF6FF7787
:1047C0004FF0805618BFE56308D1C4F83C802068DC
:1047D00000F09CFE98B9E06B012824D120680021EC
:1047E00000F032FEF8B109E02068002100F02CFE54
:1047F00028B92068594600F037FE48B1304684F8A1
:104800003050616B084360630DB00120BDE8F08F4C
:104810002068002101F05EF94FEAD07A81460098C5
:10482000401C009002E0DFF858B10098B84202D274
:10483000BAF1000FD8D0B84228BF4FF08070DED256
:1048400019F0804FC4F8388018BFA563ADF82C80EC
:10485000FDF7B4F90746206801F038F9002808BFD1
:104860004FF080606CD0A06B032852D0206800F01D
:10487000E3FE002864D12068002101F02BF9E066F6
:104880000421206801F026F920670821206801F042
:1048900021F960670C21206801F01CF9A26BA06768
:1048A000032A36D0BDF82C00002808BF41F2883812
:1048B00013D120680BA900F055FFE8BBFDF77EF986
:1048C000C01B404502D34FF0004039E0BDF82C003A
:1048D0000028EED0A06B03281BD0BDF82C1061641B
:1048E0002068090400F0E4FE30BB2068002101F0DC
:1048F000F1F8E0650421206801F0ECF82066082159
:10490000206801F0E7F860660C21206801F0E2F809
:10491000A0660421206801F0DDF8010D2046216425
:104920006946FFF74DFB002818BF304608D1B4F8A0
:1049300044102068090400E002E000F06DFE28B198
:1049400084F83050616B0843606311E020684FF4D5
:10495000007100F0BBFD002804BF0DB0BDE8F08F72
:10496000084922689163616B0843606384F83050A2
:104970000DB00120BDE8F08F00350C0010210100C2
:10498000000010C1FF0FE01F704700002DE9F04F3D
:1049900087B0984616460D460446DDF840B0FDF750
:1049A0000DF982464DB194F8300001280DD0606BAE
:1049B00040F00050606300F0C1B8606B40F00060F0
:1049C000606307B00120BDE8F08F216D002006EB89
:1049D000080260638A4207D9606B40F00070606330
:1049E00007B00120BDE8F08F032184F83010216862
:1049F000C862A16B012918BF76024FF0020900209E
:104A0000902302934FEA4822CDE90390411E05907E
:104A1000CDE900122068694600F068FF2068B8F10F
:104A2000010F4FF00107C16841F04001C16006D994
:104A3000C4F82C903146206800F0CEFD04E0E76217
:104A40003146206800F0D8FD50B123680021504A5B
:104A50009A63626B1043606384F83070E1626DE0CA
:104A60002068DDF80490406B10F4957F2AD120680F
:104A7000406B10F4004F17D0B9F1200F28BF00266B
:104A800012D3206801F046F8010A2870020C030EC8
:104A9000681C761C082E00F8011B00F1020502704C
:104AA0004370EED3A9F12009FDF788F8A0EB0A00C6
:104AB000584525D2BBF1000F22D02068406B10F47E
:104AC000957FD4D02068C16821F04001C160206882
:104AD000416B11F4807F18BFB8F1010F1FD9A16B92
:104AE00003291CD000F0ACFEC8B12368002228497D
:104AF0009963616B0843606384F83070E2621DE083
:104B00002268002122489063606B40F0004060639F
:104B100084F83070E16207B00320BDE8F08F2068B0
:104B2000416B11F0080F0DD019498163616B0020B2
:104B300041F00801616384F83070E06207B0012041
:104B4000BDE8F08F416B11F0020F0AD0104981636C
:104B5000616B002041F00201616384F83070E06213
:104B6000ECE7416B11F0200F0AD009498163616BBA
:104B7000002041F02001616384F83070E062DDE7DD
:104B80000449816384F8307007B00020BDE8F08FDD
:104B9000FF0FE01F3A0F0018044910B5884214BFF8
:104BA00001200020FCF754FC10BD0000447B0124D0
:104BB000044910B5884214BF01200020FCF762FCB4
:104BC00010BD0000447B01242DE9F04F8DB09846C4
:104BD00016460D460446DDF858B0FCF7EFFF824656
:104BE00055B194F8300001281CBF606B40F00050B4
:104BF00008D0606300F0C4B8606B40F00060606390
:104C000000F0BEB8206D002706EB08016763814203
:104C100084BF606B40F00070EBD8032084F8300054
:104C20002068C762A06B012818BF76024FF0FF30E2
:104C30004FEA4821079790220697CDE90427CDE94E
:104C40000201206802A900F051FE2068C168B8F195
:104C5000010F41F04001C16006D92020E0622068C8
:104C6000314600F023FE05E01020E0622068314666
:104C700000F02CFE009068B1226801205649916333
:104C8000626B00991143616384F83000E7620DB0F4
:104C9000BDE8F08F2068DDF80C90406B10F48D7F3C
:104CA0002FD12068406B10F4804F1CD0B9F1200F39
:104CB00028BF002617D3297809916A7841EA022192
:104CC0000991AA7841EA02410991EA782D1D41EA49
:104CD00002600990206809A900F01FFF761C082EC9
:104CE000E9D3A9F12009FCF769FFA0EB0A005845B8
:104CF00028D2BBF1000F25D02068406B10F48D7FC7
:104D0000CFD02068C16821F04001C1602068416BAC
:104D100011F4807F18BFB8F1010F22D9A16B0329CC
:104D20001FD000F08DFDE0B1236801212A4A9A636B
:104D3000626B1043606384F83010E7620DB0084680
:104D4000BDE8F08F2268012023499163626B0099CE
:104D50001143616384F83000E7620DB00320BDE8C1
:104D6000F08F2068416B11F0080F0DD01A4A012115
:104D70008263606B40F00800606384F83010E76283
:104D80000DB00120BDE8F08F416B11F0020F0AD089
:104D9000114A01218263606B40F00200606384F875
:104DA0003010E762ECE7416B11F0100F0AD00A4AAD
:104DB00001218263606B40F01000606384F8301062
:104DC000E762DDE7054A0121826384F830100DB007
:104DD0000020BDE8F08F0000FF0FE01F3A0F001821
:104DE000401EB0F1807F24BF012070474FF0E021CA
:104DF0004861F020034A82F8140D002007228861E0
:104E00000A6170470FE000E090F88410012904BFA8
:104E1000022070474DF8044D012280F8842024219F
:104E20004FF0200C0022C0F8881001680B680C6855
:104E300023F0005324F001040C60426601680B600B
:104E4000C0F888C080F8842010465DF8044B704795
:104E500090F88420012A04BF0220704730B4012258
:104E600080F884202423C0F888300368D3F800C079
:104E70001C6824F001041C6003689C6824F06064D2
:104E800021439960416E002908BFA0F86A2014D020
:104E90000168114B03F108048A688968C2F3426211
:104EA000490F5D5C615C2D01B5FBF1F5A0F86A501E
:104EB000995CA25C0901B1FBF2F2A0F86820202203
:104EC00003680021C3F800C0C0F8882080F884106F
:104ED000084630BC70470000B0AB000890F8842052
:104EE000012A04BF0220704730B4012280F88420D8
:104EF0002423C0F888300368D3F800C01C6824F06D
:104F000001041C6003689C6824F06044214399609C
:104F1000416E002908BFA0F86A2014D00168114B27
:104F200003F108048A688968C2F34262490F5D5C34
:104F3000615C2D01B5FBF1F5A0F86A50995CA25CAB
:104F40000901B1FBF2F2A0F86820202203680021D9
:104F5000C3F800C0C0F8882080F88410084630BC30
:104F600070470000B0AB0008002804BF0120704764
:104F700010B50446D0F8880028B9002084F88400D1
:104F8000204600F029F82420C4F888002068016831
:104F900021F001010160204601F01AF9012808BF43
:104FA00010BDA06A00281CBF204601F047F8206809
:104FB000416821F4904141602068816821F02A0114
:104FC00081602068016841F0010101602046BDE870
:104FD000104001F0A0B8000010B586B00022009289
:104FE00001920292039204920068A0F18041B1F50F
:104FF00088311CBF06B010BD1848016841F010018F
:105000000160006800F0100005901548016841F04B
:1050100001010160016801F001010591016841F0A1
:10502000010101600068022101224FF0070C00F02D
:105030000100059003230B4C4FF400708DE80F1016
:1050400069462046FCF79AFC4FF480606946009060
:105050002046FCF793FC06B010BD0000F044025857
:10506000E0440258000002582DE9F8430446D0F805
:1050700088001F4615460E4620281CBF0220BDE8AA
:10508000F883002E12BF002D0120BDE8F8834FF0F9
:1050900000014FF02100C4F89010C4F88800FCF71C
:1050A0008DFD8046A068A4F85450A4F85650B0F581
:1050B000805F07BF206900283546002608BF00250D
:1050C000B4F856004FF02009E8B143464FF0000213
:1050D0004FF080012046009701F08EFA08BB002DAA
:1050E00014BF15F8010B36F8020B216808BFC0F396
:1050F00008008862B4F85600401EA4F85600B4F8C0
:1051000056000028E1D10022434640212046009766
:1051100001F072FA002802BFC4F888900020BDE8B0
:10512000F883C4F888900320BDE8F883FEE7000008
:1051300030B587B010480024009401940294039481
:105140000494016841F040010160006880210B4D2A
:10515000224600F0400005902846FCF729FD8020FB
:10516000009001212846CDE9011469460394FCF71B
:1051700005FC07B030BD0000E0440258001802589A
:105180000021DFF828C04FF4804310B502220C46FE
:10519000C0E900C1C0E90213C0E90412FFF752FAE6
:1051A000002818BF0124204610BD000000700052E6
:1051B000FEE7FEE7704700002DE9F047DFF82C918D
:1051C0008846044603200027D9F80010884304BF0E
:1051D0000120BDE8F087464E306820F080603060E6
:1051E000FCF7ECFC0546306810F0006F09D000BFFA
:1051F000FCF7E4FC401B02286DD8306810F0006F0B
:10520000F6D12068D9F8001021F47C3141EA003051
:10521000C9F800004FF4FE010A0294F808C0A588FE
:10522000B4F80C9094F810A06D1E4FEA4C2C314B42
:10523000ACF5007C3048A9F101090CF47E4CAAF1D0
:10524000010AC5F3080501EA09414CEA050C02EA26
:105250000A624CEA0101114319600268616922F097
:10526000C002114301600168A26921F020010A43D4
:105270000260191D026822F0100202600A68E369E8
:105280006FF3CF0242EAC3020A600168B8F1000F6F
:1052900041F01001016014D00168B8F1010F0CBF9A
:1052A00041F4801141F400110160306840F08060E9
:1052B0003060FCF783FC0446306810F0006F05D0C6
:1052C00010E0016841F400210160EEE7FCF776FC94
:1052D000001B022802D90320BDE8F087306810F0D7
:1052E000006FF3D03846BDE8F0870000284402582C
:1052F00000440258384402582C4402582DE9F04723
:10530000DFF82C918846044603200027D9F80010C6
:10531000884304BF0120BDE8F087464E306820F086
:1053200080503060FCF74AFC0546306810F0005FA2
:1053300009D000BFFCF742FC401B02286DD8306842
:1053400010F0005FF6D12088D9F8001021F07C71B0
:1053500041EA0050C9F800004FF4FE010A0294F837
:1053600008C0A588B4F80C9094F810A06D1E4FEA00
:105370004C2C314BACF5007C3048A9F101090CF400
:105380007E4CAAF1010AC5F3080501EA09414CEA7D
:10539000050C02EA0A624CEA010111431960026835
:1053A000616922F44062114301600168A26921F43D
:1053B00000710A430260191D026822F480720260C3
:1053C0000A68E3696FF3CF0242EAC3020A60016828
:1053D000B8F1000F41F48071016014D00168B8F198
:1053E000010F0CBF41F4000141F080710160306891
:1053F00040F080503060FCF7E1FB0446306810F06C
:10540000005F05D010E0016841F480010160EEE723
:10541000FCF7D4FB001B022802D90320BDE8F0876B
:10542000306810F0005FF3D03846BDE8F087000028
:105430002844025800440258404402582C44025860
:105440000020FEF7B5BF00008160C26841F237114D
:10545000044B1A401143C160372141F2883200F0F9
:105460005DBA0000C0E0FEFF00228160D0F80CC0F1
:1054700041F22911124B0CEA03031943C16011498F
:105480004FF4FA5C41F288330968B1FBFCF101FB8F
:1054900003F1491E03D24FF0004210467047436BA0
:1054A00013F0450FF5D013F4005FF2D1416B11F00A
:1054B000040F19BF0422826303498163EDE70000F2
:1054C000C0E0FEFFCC8D0024C50020008160C268D2
:1054D00041F21011044B1A401143C160102141F2F6
:1054E000883200F01BBA0000C0E0FEFF8160C26895
:1054F00041F20611044B1A401143C160062141F2EA
:10550000883200F00BBA0000C0E0FEFF1049002313
:105510008360C268114041F48051C160DFF834C03B
:105520004FF4FA5241F28831DCF800C0BCFBF2F2D1
:1055300002FB01F1491E02D24FF0004305E0426B2D
:1055400012F0800FF6D004498163184670470000BE
:10555000C0E0FEFFCC8D0024C5002000DFF870C045
:1055600000214FF4D57341F208128360C36803EA47
:105570000C031A43C260174A4FF4FA53D2F800C022
:1055800041F28832BCFBF3F303FB02F2521E02D25B
:105590004FF000411AE0436B13F0450FF6D013F4BF
:1055A000005FF3D1426B12F0040F18BF042101D049
:1055B00081630BE0426B12F0010F18BF0121F7D19C
:1055C000426B12F0400F1CBF4022826308467047B6
:1055D000C0E0FEFFCC8D00248160C26841F2121150
:1055E000044B1A401143C160122141F2883200F08D
:1055F00095B90000C0E0FEFF8160C26841F2111160
:10560000044B1A401143C160112141F2883200F06D
:1056100085B90000C0E0FEFF8160C26841F2071159
:10562000044B1A401143C160072141F2883200F057
:1056300075B90000C0E0FEFF002341F20231836033
:10564000C268DFF860C002EA0C021143C160DFF8F3
:1056500058C04FF4FA5241F28831DCF800C0BCFB6C
:10566000F2F202FB01F1491E02D24FF000430DE0BD
:10567000426B12F0450FF6D012F4005FF3D1416B8C
:1056800011F0040F18BF042302D08363184670473B
:10569000416B11F0010F12BF012304498163F4D162
:1056A000F4E70000C0E0FEFFCC8D0024C500200020
:1056B00000228160C36841F20931DFF85CC003EA6F
:1056C0000C031943C16015494FF4FA5C0B6841F2B1
:1056D0008831B3FBFCF303FB01F1491E02D24FF00A
:1056E00000420DE0436B13F0450FF6D013F4005F5A
:1056F000F3D1416B11F0040F18BF042202D0826372
:1057000010467047416B11F0010F12BF012204498E
:105710008163F4D1F4E70000C0E0FEFFCC8D0024EB
:10572000C5002000064B002141F233128160C168A0
:1057300019401143C160332141F2883200F0EEB8C4
:10574000C0E0FEFF8160C26841F20D11044B1A40B7
:105750001143C1600D2141F2883200F0DFB8000032
:10576000C0E0FEFF70B4002241F2031C4FF48054ED
:105770008260C568274B2B4043EA0C03C360DFF807
:1057800098C04FF4FA530325DCF8006041F2883CDE
:10579000B6FBF3F303FB0CFCBCF1010C04D24FF09D
:1057A000004270BC10467047436B13F0450FF3D0B6
:1057B00013F4005FF0D1436B13F0040F1CBF0422FD
:1057C0008263EED1D0F834C001231CF0010F1CBF5E
:1057D0001A468363E5D1D0F810C00CF0FF0CAC453D
:1057E00018BF1A46DDD10D4B8363406910F4604F3A
:1057F00004BF000C0880D4D010F4804F18BF4FF4C1
:105800000052CED110F4004F14BF22464FF4803224
:10581000C7E70000C0E0FEFFCC8D0024C5002000DB
:10582000064B002141F20D128160C16819401143FD
:10583000C1600D2141F2883200F070B8C0E0FEFF77
:1058400010B50446C068002140F08000E060E068C8
:1058500020F04000E06041F20C10A160E168094ACC
:1058600011400843E060084A0C21204600F056F839
:10587000E168B0F1007F21F08001E16008BF002005
:1058800010BD0000C0E0FEFF00E1F5058160C268C8
:1058900041F20611044B1A401143C160062141F246
:1058A000883200F03BB80000C0E0FEFF8160C268B3
:1058B00041F21911044B1A401143C160192141F200
:1058C000883200F02BB80000C0E0FEFF8160C268A3
:1058D00041F21811044B1A401143C160182141F2E2
:1058E000883200F01BB80000C0E0FEFF4DF8044D08
:1058F0000A6842624A688262C36AD1E9022CD1E92D
:10590000044123F0FF0342EA0C02214311431943EF
:10591000C1625DF8044B0020704700004DF8044D53
:10592000674C4FF4FA53DFF894C12468B4FBF3F3E7
:1059300003FB02F2521E04D25DF8044B4FF000400C
:105940007047436B13EA0C0FF4D013F4005FF1D1EE
:10595000426B12F0040F05D0042181635DF8044B03
:1059600008467047426B12F0010F05D00121816398
:105970005DF8044B08467047524A82630269D2B20E
:105980008A421EBF01205DF8044B704740694E49B2
:10599000084202BF00205DF8044B704710F0004F32
:1059A0001EBF4FF000705DF8044B704710F0804F41
:1059B0001EBF40205DF8044B704710F0005F1EBF13
:1059C00080205DF8044B704710F0805F1EBF4FF4DD
:1059D00080705DF8044B704710F0006F1EBF4FF4ED
:1059E00000705DF8044B704710F0806F1EBF4FF4DD
:1059F00080605DF8044B704710F0807F1EBF4FF44D
:105A000000605DF8044B704710F4000F1EBF4FF4A8
:105A100080505DF8044B704710F4800F1EBF4FF4A8
:105A200000505DF8044B704710F4001F1EBF4FF488
:105A300080405DF8044B704710F4801F1EBF4FF488
:105A400000405DF8044B704710F4802F1EBF4FF4E8
:105A500000305DF8044B704710F4003F1EBF4FF458
:105A600080205DF8044B704710F4803F1EBF4FF458
:105A700000205DF8044B704710F4004F1EBF4FF438
:105A800080105DF8044B704710F4804F1EBF4FF438
:105A900000105DF8044B704710F4005F1EBF4FF418
:105AA00080005DF8044B704710F0080F14BF4FF4EE
:105AB00000004FF480305DF8044B70474500200033
:105AC000CC8D0024C500200008E0FFFD006800F038
:105AD0000300704708444069704700004DF8044DCA
