:020000040800F2
:1000000098910724A903000841A000081750000890
:10001000B5030008190C0008ADC600080000000078
:1000200000000000000000000000000049B60008C9
:10003000510E00080000000043A0000845B700086A
:10004000C3030008C3030008C3030008C303000878
:10005000C3030008C3030008C3030008C303000868
:10006000C3030008C3030008C3030008C303000858
:10007000C3030008C3030008C3030008C303000848
:10008000C3030008C3030008C3030008C303000838
:10009000C3030008C3030008C3030008C303000828
:1000A000C3030008C3030008C3030008C303000818
:1000B000C3030008E1B700081DB80008C303000827
:1000C000C3030008C3030008C3030008C3030008F8
:1000D000C30300085DC60008C3030008C30300088B
:1000E000C3030008C303000800000000C3030008A6
:1000F000C3030008C3030008C3030008C3030008C8
:10010000C3030008C3030008C3030008C3030008B7
:10011000C3030008C3030008C3030008C3030008A7
:10012000C3030008C3030008C3030008C303000897
:10013000C3030008C3030008C3030008C303000887
:1001400000000000000000000000000000000000AF
:10015000C3030008C3030008C3030008C303000867
:10016000C3030008C3030008C3030008C303000857
:10017000C3030008C3030008C30300080000000015
:10018000C3030008C3030008C3030008C303000837
:10019000C3030008C3030008C3030008C303000827
:1001A000C3030008C3030008C3030008C303000817
:1001B000C3030008C3030008C3030008C303000807
:1001C000C3030008C3030008C3030008C3030008F7
:1001D000C3030008C3030008C3030008C3030008E7
:1001E000C3030008C3030008C3030008C3030008D7
:1001F000C3030008C3030008C3030008C3030008C7
:10020000C3030008C3030008C3030008C3030008B6
:10021000C3030008C3030008C3030008C3030008A6
:10022000C3030008C3030008C30300080000000064
:10023000C3030008C303000800000000C303000854
:10024000C3030008C3030008C3030008C303000876
:10025000C3030008C3030008C3030008C303000866
:10026000C3030008C3030008C3030008C303000856
:10027000C3030008C3030008C30300080000000014
:10028000C303000800000000C303000800000000D2
:1002900000000000C303000800F002F800F06DF851
:1002A0000AA090E8000C82448344AAF10107DA45D1
:1002B00001D100F062F8AFF2090EBAE80F0013F0B6
:1002C000010F18BFFB1A43F001031847A0E7010014
:1002D000C0E701000A444FF0000C10F8013B13F096
:1002E000070408BF10F8014B1D1108BF10F8015B8F
:1002F000641E05D010F8016B641E01F8016BF9D182
:1003000013F0080F1EBF10F8014BAD1C0C1B09D1D8
:100310006D1E58BF01F801CBFAD505E014F8016B4A
:1003200001F8016B6D1EF9D59142D6D370470000DC
:100330000023002400250026103A28BF78C1FBD8EE
:10034000520728BF30C148BF0B607047642900F0D6
:10035000A581752900F0A281782900F0DB8163294D
:1003600000F0EE83732900F0F383002070471FB57F
:1003700010F0B6FF1FBD10B510BD00F01BFC1146FC
:10038000FFF7F5FF0EF078FF00F039FC03B4FFF73C
:10039000F2FF03BC0CF09DFB30BF72B6704762B633
:1003A000704780F30888704709488047094800472C
:1003B000FEE7FEE7FEE7FEE7FEE7FEE7FEE7FEE715
:1003C000FEE7FEE704480549054A064B7047000072
:1003D0004DB7000899020008988B072498910724CC
:1003E000988D0724988D072482700022C370B1F580
:1003F000807F234B0180436023D004DC102934D05C
:10040000402928D005E0B1F5806F10D0B1F5805FAC
:1004100003D04FF0FF32104670471B4B01219FED78
:10042000190A836080ED040A8181C181F3E7174BCB
:10043000042181819FED160A8360C18180ED040A49
:10044000E9E7144B102181819FED130A8360C1817C
:1004500080ED040ADFE7114B402181819FED100AF6
:100460008360C18180ED040AD5E70E4B4FF48071A3
:1004700081819FED0D0A8360C18180ED040ACAE786
:100480006866010800008039685E01086E5E010838
:100490000000803A865E01080000803BE65E0108AD
:1004A0000000803C666001080000803D53EA020CB9
:1004B00000F069802DE9F04B4FF00006002B1FBFC4
:1004C000B3FA83F503FA05F424FA05F65E4012BF89
:1004D0001643B2FA82F502FA05F4C5F120051EBFF3
:1004E00022FA05FC44EA0C04203556EA044C4FEA93
:1004F000144418BF641C4FF000084FF000099042EC
:1005000071EB030C39D3002919BFB1FA81F701FA55
:1005100007F6B0FA80F700FA07F6C7F120071EBF0A
:1005200020FA07FC46EA0C062037B6FBF4FCA7EBE2
:100530000507103F07F01F0BCBF120060CFA0BFB51
:100540002CFA06F644BFB3460026202FA4BF5E4611
:100550004FF0000B5BEA060C08BF4FF0010B19EBE4
:100560000B09ABFB027C48EB0608C01B06FB02CC68
:100570000BFB03CC71EB0C01C1E70B460246414675
:100580004846BDE8F08B13B54FF000004FF0000176
:10059000AFF30080BDE81C40704710B54C1084EAF2
:1005A000530404D54042C1F1000138BF491E1B422B
:1005B00004D55242C3F1000338BF5B1EFFF776FF3C
:1005C00014F0804F04D04042C1F1000138BF491EF1
:1005D00014F0004F04D05242C3F1000338BF5B1E39
:1005E00010BD00000FB4044910B503AA029800F032
:1005F000B3FA10BC5DF814FB1400002470B5044677
:1006000085690068C10601D5302600E02026C007B4
:1006100007D070BDD4E9012130469047206A401CC4
:1006200020626D1EF6D570BD70B5044685690078F0
:10063000C00707D170BDD4E9012120209047206A6E
:10064000401C20626D1EF6D570BD70B50C46054687
:10065000012A05D02878800600D5EA69002302E047
:10066000012305E05B1C934202D2E05C0028F9D133
:10067000A869E618C01AA861286A184428622846A2
:10068000FFF7BCFF04E0D5E9012114F8010B904706
:10069000B442F8D32846FFF7C7FF70BD2DE9F041FB
:1006A0000646002410687529314616A510D0AFF310
:1006B0000080002802DA404213A507E031688A076B
:1006C00001D512A502E0490704D511A5012401E0D6
:1006D000AFF3008000210A2206F1240709E0B0FBF5
:1006E000F2FCB0FBF2F302FB1C00303078541846E9
:1006F000491C0028F3D123462A463046BDE8F04184
:1007000000F0BBB9000000002D0000002B0000002D
:100710002000000070B504460D4621461068AFF376
:1007200000802188090502D50F4A7A4402E00E4A6A
:100730007A440E32002104F1240305E000F00F0694
:100740000009965D5E54491C0028F7D120780023EB
:10075000000704D5702D02D009B1022311322046C2
:10076000BDE8704000F089B93ADF01002DE9F05F83
:10077000894604464FF0000ADFF874B1FB44C0F824
:1007800020A02046E1688847002874D0252806D09C
:10079000D4E901219047206A401C2062F1E700263D
:1007A0005F462046E16888472028054607DB312D53
:1007B00005D2781910F8200C08B10643F1E7B0070C
:1007C00001D526F00406C4F81CA00027C4F818A020
:1007D0002A2D09D028460CF075F938B304EB8708A8
:1007E000303DC8F8185019E059F8041B204604EBB6
:1007F00087029161E1688847012F054618D1E069B9
:10080000002820DA26F020061DE0D8F8180000EBBA
:10081000800005EB40003038C8F818002046E16839
:10082000884705460CF04EF90028EED1012F0AD07A
:100830002E2D08D12046E16888477F1C0546022FEF
:1008400046F02006C4DBA069002803DA404246F0E7
:100850000106A061F00701D026F010066C2D0BD028
:10086000682D09D04C2D39D06A2D35D0742D35D056
:100870007A2D33D016E038E0E1682F4620468847CD
:10088000B842054609D16C2F26D04FF48060E1684C
:10089000064320468847054604E06C2F1AD04FF4E3
:1008A000807006430DB3A5F14100192802D8203508
:1008B00046F400664A462946204626604E46FFF723
:1008C00045FD80B101280BD0F61D26F0070000F190
:1008D000080956E74020E4E78020D8E70020D6E763
:1008E00006F104094DE7284652E7206ABDE8F09F6B
:1008F00010DF0100032A40F2308010F0030C00F0FA
:10090000158011F8013BBCF1020F624498BF11F849
:1009100001CB00F8013B38BF11F8013BA2F1040202
:1009200098BF00F801CB38BF00F8013B11F003037A
:1009300000F02580083AC0F0088051F8043B083ADE
:1009400051F804CBA0E80810F5E7121D5CBF51F880
:10095000043B40F8043BAFF30080D20724BF11F8FA
:10096000013B11F801CB48BF11F8012B24BF00F85F
:10097000013B00F801CB48BF00F8012B704710B5D0
:10098000203AC0F00B80B1E81850203AA0E8185087
:10099000B1E81850A0E81850BFF4F5AF5FEA027C48
:1009A00024BFB1E81850A0E8185044BF18C918C0B7
:1009B000BDE810405FEA827C24BF51F8043B40F858
:1009C000043B08BF7047D20728BF31F8023B48BF3D
:1009D00011F8012B28BF20F8023B48BF00F8012B7B
:1009E00070474FF000020429C0F0128010F0030C91
:1009F00000F01B80CCF1040CBCF1020F18BF00F812
:100A0000012BA8BF20F8022BA1EB0C0100F00DB8C0
:100A10005FEAC17C24BF00F8012B00F8012B48BF1E
:100A200000F8012B70474FF0000200B513469446C2
:100A30009646203922BFA0E80C50A0E80C50B1F136
:100A40002001BFF4F7AF090728BFA0E80C5048BF4A
:100A50000CC05DF804EB890028BF40F8042B08BFE8
:100A6000704748BF20F8022B11F0804F18BF00F8E4
:100A7000012B70477047704770472DE9F0470D46CE
:100A800099469246044600F124080168880604D578
:100A9000E06921F01001216000E00120A84201DDA1
:100AA000471B00E00027A1697A1902EB0900081A28
:100AB000A0612078C00602D42046FFF79FFD0026E3
:100AC00008E0D4E901211AF806009047206A401C8A
:100AD000761C20624E45F4DB2078C0060AD52046FD
:100AE000FFF78CFD06E0D4E9012130209047206A11
:100AF000401C2062381EA7F10107F4DC07E0D4E9AE
:100B0000012118F805009047206A401C2062281E29
:100B1000A5F10105F3DC2046FFF786FD20780006ED
:100B200002D50220BDE8F0870120FBE710B543693C
:100B300013B1AFF3008001E0FFF787FD012010BD86
:100B4000127800F124010A7000224A700122EDE7B8
:100B500011684FF0FF32E9E7074B70B50D467B4453
:100B600000F011F80446284600F020F810B14FF0CC
:100B7000FF3070BD204670BD83E3000001694A1C50
:100B800002610878704700B58FB0CDE901310021CE
:100B9000059105497944CDE9031011466846FFF7F0
:100BA000E5FD0FB000BD0000E5FFFFFF007B00F09A
:100BB00080007047754600F02BF8AE460500694688
:100BC000534620F00700854618B020B5FFF7FAFB22
:100BD000BDE820404FF000064FF000074FF000083E
:100BE0004FF0000B21F00701AC46ACE8C009ACE8BF
:100BF000C009ACE8C009ACE8C0098D46704710B523
:100C00000446AFF300802046BDE81040FFF7BEBBAE
:100C100000487047388B072400BFFEE710B509F085
:100C20004FFD09F0FFFC0348006840F00400014953
:100C3000086010BD9CEF00E000224FF4803105E019
:100C40000948406B00F0800000B103E0081EA1F1EC
:100C50000101F5D100BF09B9032070470348024BD9
:100C600098631046F9E7000000700052FF0FE01F84
:100C7000024605E01348416B01F0450000B100E079
:100C8000F8E700BF01F0040030B104200D4B986379
:100C90000D4898630320704701F0010018B101204E
:100CA000084B9863F7E707480069904201D010208D
:100CB000F1E70548034B986318464069082318403C
:100CC000C0B2E8E700700052FF0FE01F10B500202F
:100CD0004FF4803205E0134B596B01F0450303B12B
:100CE00003E0131EA2F10102F5D100BF12B101F021
:100CF00004033BB103200B4B9B6B43F00403094CF3
:100D0000A36310BD01F0010333B10120054B9B6BC0
:100D100043F00103034CA363034B024CA36300BFE6
:100D2000EFE7000000700052FF0FE01F05E00C48E5
:100D3000416B01F0450000B100E0F8E700BF01F0B1
:100D4000040038B10648806B40F00400044A906308
:100D5000032070470348024A90630020F9E700002F
:100D600000700052FF0FE01F70B503460C460025CF
:100D700005E02048426B02F0450000B100E0F8E7D2
:100D800000BF02F0040038B11A48806B40F0040044
:100D9000184EB063032070BD02F0010038B1154851
:100DA000806B40F00100134EB0630120F3E711485F
:100DB0000069984201D01020EDE70F480D4EB06356
:100DC0003046416901F4604018B9080C208028467B
:100DD000E1E701F4005008B11320DCE701F48040A2
:100DE00008B11020D7E701F4004008B10F20D2E786
:100DF0002846D0E700700052FF0FE01F10B500201A
:100E00004FF4803205E0114B596B01F0450303B1FB
:100E100003E0131EA2F10102F5D100BF12B101F0EF
:100E200004033BB10320094B9B6B43F00403074CC5
:100E3000A36310BD01F0400333B10020034B9B6B53
:100E400043F04003014CA36300BFF2E7007000527F
:100E5000704730B5034614460022DA680022D1E913
:100E6000000540EA05200D8940EA05400D7B40EA77
:100E700005600243DA60002030BD30B503461446F9
:100E800000229A680022D1E9000540EA05200D8978
:100E900040EA05400D7B40EA056002439A6000206D
:100EA00030BD000010B50246002313680948034016
:100EB000D1E901042043CC6820430C6920434C69EC
:100EC00040EA44208C6940EA443003431360002028
:100ED00010BD00008901F0FF70B504461D460023D7
:100EE000B5F5804F13D154F822300C480340D1E9B6
:100EF000000640EA06108E6840EA06208E8940EA25
:100F000006408E693043034344F8223003E06FF01B
:100F1000704044F82200002070BD00000000F0CFB7
:100F200010B502460023086852F820301B480340E1
:100F3000D1E901042043CC6820430C6920434C696B
:100F400020438C692043CC6920430C6A20434C6ABF
:100F500020438C6A2043CC6A20430C6B20438C6B6B
:100F600020434C6B204303438868082801D143F099
:100F70004003086842F82030086BB0F5801F05D1A7
:100F8000086818B110680C6B20431060086818B12D
:100F900010684C6B20431060002010BD8004C0FF1F
:100FA00030B5034614460022601C53F8202002F09E
:100FB0004042D1E9000540EA05108D6840EA05206D
:100FC0008D8940EA0545088A401E45EA0055087D9E
:100FD000801E45EA00608D6928430243601C43F887
:100FE0002020186800F4801038B1586820F470028E
:100FF000088A401E42EA00525A60002030BD30B5D7
:101000000246002300240868012816D013686FF3F5
:101010000E03D1E901052843CD6828430D69284313
:101020004D6928438D692843CD6928430D6A2843BB
:101030004D6A28430343136019E0136823F4F8430F
:10104000D1E9070528434D6A2843034354686FF3E9
:101050000E04D1E901052843CD6828430D692843D2
:101060004D6928438D692843044313605460002070
:1010700030BD0246506940EA41005061002070478F
:1010800018B5034600200090D1E9000420438C6885
:10109000641E40EA4410CC6840EA44200090009866
:1010A0001861002018BD000070B5034615460022E7
:1010B0000024012D1FD09A6802F070420868401E7B
:1010C0004E68761E40EA06168868401E46EA0026EC
:1010D000C868401E46EA0036088A401E46EA0046B6
:1010E000888A401E46EA0056087E401E46EA006096
:1010F00002439A6022E09A6811480240C868401E84
:101100000603888A401E46EA00500243DC6804F069
:1011100070440868401E4E68761E40EA06168868CD
:10112000401E46EA0026088A401E46EA0046087E1F
:10113000401E46EA006004439A60DC60002070BDF7
:10114000FF0F0FFF38B504464FF0AA300090094951
:10115000897901FB04F004236A46002108F050FF5E
:10116000044989796143481C04236A46002108F038
:1011700047FF38BD200800242DE9FC4704460D46F2
:1011800000275DE04FF0000820E001A83049009002
:10119000B1F802904FEAE97109EB91718B102C497B
:1011A000897901FB04F02A46002108F05DFD2849F9
:1011B0004888C11700EB9171BDF80420B2EBA10F74
:1011C00000D007E008F101001FFA80F8204880797C
:1011D0004045DADC00BF1E488079404502D100203E
:1011E000BDE8FC87204608F0B1FA064626B139462C
:1011F00018A0FFF7F7F921E0681CF8B10020019072
:1012000016E01349B1F802904FEAE97109EB9171C8
:101210008B100F498979BDF8042004FB01200022BE
:10122000114608F0BBFEBDF80400401C80B20190DE
:1012300007488079BDF804108842E2DC781C87B248
:10124000032F9FDB214609A0FFF7CCF90120C7E758
:10125000200800246572726F7220657261736520C8
:10126000626C6F636B3A25640D0A00006261642052
:10127000626C6F636B20636865636B65643A2564B9
:101280000D0A000038B50446002000900F49897906
:1012900001FB04F001236A46002108F02DFD9DF8B2
:1012A0000000FF2810D1094989796143481C0123B6
:1012B0006A46002108F020FD9DF80000FF2801D1BA
:1012C000002038BD0120FCE70220FAE720080024B6
:1012D0002DE9FE4F81460F4692461D460024002010
:1012E00002908046019000263B488079B9FBF0F8D7
:1012F00039488079B9FBF0F100FB1190019000BFF3
:10130000404600F0E1F8064633484089B04202D238
:101310000120BDE8FE8F00243AE00198844221D3E9
:1013200005B32D484088C01BA84205D22A484088F2
:10133000C01B1FFA80FB01E01FFA85FB264ACDF88F
:1013400000B0927906FB0241234A927908FB0240E1
:1013500053463A4608F00CF802900027DA44A5EB11
:101360000B050AE01C4A927906FB02411A4A92795F
:1013700008FB024008F000F90290029830B13046B4
:10138000FFF7E0FE012000F029F8B9E7601C84B205
:1013900011488079A042C0DC0F488079A04219D161
:1013A000304600F099FA404608F0D0F900240CE0ED
:1013B0000948406930F81400404504D1064949699C
:1013C00021F8146005E0601C84B203484089A04203
:1013D000EEDC00BF00209CE720080024F8B505469D
:1013E0000026002406E04FF6FF703049496921F8D5
:1013F0001400641C2D484089A042F4D800202B49D9
:101400008881002433E02949897901FB04F0042311
:101410006A46002108F070FC9DF80000FF2809D101
:1014200045B1224989796143481C01236A4600215C
:1014300008F062FC9DF80000FF2813D19DF802001F
:101440009DF8031000EB012618484089B04203D9EB
:101450001649496921F8164014488089401C1349EF
:10146000888103E0214612A0FFF7BCF8641C0F48F6
:101470004089A042C7D800240BE00C48406930F8EE
:1014800014000A494989884202DB0849CC8104E0FA
:10149000641C06484089A042EFD800BF0348C089B9
:1014A000642801DA0220F8BD0020FCE720080024AF
:1014B00062616420626C6F636B20696E6465783A68
:1014C00025640D0A0000000070B505460024184888
:1014D0004089401E17490968884204D2144840894F
:1014E000401E1449086005F001011248006800F030
:1014F00023F80446601C90B90D484089401E0D49F0
:10150000096888420BD90A484089401E0949086089
:1015100005F001010748006800F00EF80446601C61
:1015200010B94FF0FF3070BD024804602046FAE762
:101530002008002440000024F8B505460E4600208F
:10154000009000246C1C14E0601E00F00100B0420A
:101550000ED1611E094A927901FB02F004236A460A
:10156000002108F0C9FB0098401C08B9601EF8BDB6
:10157000641E002CE8D1601EF9E70000200800245A
:10158000F8B5002600202D498881002417E0204668
:10159000FFF778FE05468DB9204608F0D7F80546D6
:1015A0003DB1214626A0FFF71DF82046FFF7CAFDF2
:1015B00004E022488089401C20498881641C1F481F
:1015C0004089A042E3D81D48818921A0FFF70AF88D
:1015D0001A488089642801DA0120F8BD17488089FB
:1015E000C0EB401000EB4000642190FBF1F60020BE
:1015F0000090002415E02046FFF744FE05467DB923
:101600000E49897901FB04F002236A46194608F065
:10161000F7FC0098401C00900098B04200D104E014
:10162000641C06484089A042E5D800BF0120FFF7AE
:10163000D5FE08B10220D0E70020CEE72008002424
:1016400042616420626C6F636B3A25640D0A00008E
:10165000676F6F645F626C6F636B6E756D3A256464
:101660000D0A000010B508F0C9F808B1012010BD3E
:101670001F48406920B11E48416900200EF0FCF966
:101680001B484089410000200EF008FA18494861C3
:101690000A4652895100164A5069FFF7A2F91448C8
:1016A000406908B90120E2E70120FFF797FE0446F0
:1016B00064B110A0FEF796FFFFF762FF0446002C0E
:1016C00013D012A0FEF78EFF0220D0E70848418910
:1016D00013A0FEF787FF0648818917A0FEF782FF57
:1016E0000348C18919A0FEF77DFF0020BFE7000075
:1016F00020080024666F726D6174206E616E642034
:10170000666C6173682E2E2E0D0A0000666F726D76
:101710006174206661696C6564210D0A0000000037
:10172000746F74616C20626C6F636B206E756D3AC0
:1017300025640D0A00000000676F6F6420626C6F03
:10174000636B206E756D3A25640D0A0076616C69D5
:101750006420626C6F636B206E756D3A25640D0AB0
:1017600000000000014600220648C089884202D2DB
:101770004FF6FF7070470348406930F8112010465B
:10178000F8E70000200800242DE9FF4F83B014463D
:101790009A460026002500BF97E04E48408890FBFF
:1017A000F4F04C498979484304992944B1FBF0F09D
:1017B00002900298FFF7D6FF834646484189594573
:1017C00003D8012007B0BDE8F08F4248408890FB65
:1017D000F4F040498979484304992944B1FBF0F277
:1017E00000FB1210604301903A4841880198B0FB19
:1017F000F1F0384989790BFB010836484188019896
:10180000B0FBF1F201FB120932484088A0EB09005D
:10181000B0FBF4F087B2AAEB0500B84202D2AAEB03
:10182000050087B207FB04F083B21FFA89F1404636
:10183000039A08F0CBF80646032E39D107FB04F0D3
:1018400083B21FFA89F14046039A08F0BFF80646B2
:10185000032E2DD107FB04F31FFA89F14046039AAA
:10186000FFF736FD1B488079B8FBF0F0311F009080
:10187000FFF782FC06467EB916488079B8FBF0F087
:1018800000210090FFF778FC064612488079B8FBEB
:10189000F0F0009007F05AFF4EB10E488079B8FB87
:1018A000F0F00090FFF74EFC0120FFF797FD0026B7
:1018B000042E00D100260EB1022083E7039804FB1A
:1018C00007000390781E05446D1C5545FFF465AF75
:1018D000002077E72008002438B50446CC2000908B
:1018E00000250649897901FB04F001236A4619465F
:1018F00008F086FB0546284638BD00002008002475
:101900002DE9FF4F87B014469A464FF0000B002593
:10191000681E029000BFA7E05648408890FBF4F094
:1019200054498979484308992944B1FBF0F005905E
:101930000598FFF717FF06464E484189B14203D884
:1019400001200BB0BDE8F08F4A48408890FBF4F0CE
:1019500048498979484308992944B1FBF0F200FBD2
:10196000121060430390434841880398B0FBF1F0A4
:101970004049897906FB010004903E48418803985C
:10198000B0FBF1F201FB12093A484088A0EB0900D4
:1019900080B20690BDF8180090FBF4F080B206907B
:1019A000AAEB050087B2BDF81800874201DBBDF83D
:1019B000187007FB04F806A81FFA89F1C8F38F0313
:1019C0004FF0FF320090049808F04EF98346BBF1C7
:1019D000000F01D00220B4E7BDF81800B0EB980F5B
:1019E00009D11FFA88F31FFA89F1079A049808F0C1
:1019F00013FA834601E04FF0010BBBF1000F07D152
:101A00000298B04204D03046FFF766FF8346029644
:101A1000BBF1000F22D01748807916494988484306
:101A20000399401AB0FBF4F080B20690AAEB0500CF
:101A300087B2BDF81800874201DBBDF8187007FBBC
:101A400004F81FFA89F14346079A0498FFF740FC0F
:101A50008346BBF1000F01D0032072E7781E0544D6
:101A60000798404407906D1C5545FFF455AF002082
:101A700067E70000200800247CB506460D460024D8
:101A800000200090019008220121102008F0A0FE03
:101A90001020FFF7EDF804460CB120467CBD32045F
:101AA0000121372008F094FE3720FFF7E1F80446C3
:101AB0000CB12046F2E7012303220821101F08F091
:101AC00099FE00220121332008F082FE3320FFF727
:101AD000CFF804460CB12046E0E70DE03048406BFB
:101AE00000F4002040B92E488030006800902C4857
:101AF000D0F88000019006E02948406B40F22A515E
:101B000008400028EAD000BF2548406B00F00800DC
:101B100038B12348806B40F00800214988630420D5
:101B2000BCE71F48406B00F0020038B11C48806BD6
:101B300040F002001A4988630220AFE71848406B62
:101B400000F0200038B11648806B40F020001449A6
:101B500088630620A2E713481149886300980006AD
:101B6000009901F47F4140EA0120009901F47F01CE
:101B700040EA1120009940EA11606860019800066F
:101B8000019901F47F4140EA0120019901F47F01AC
:101B900040EA1120019940EA1160286020467DE763
:101BA00000700052FF0FE01F10B504460CB9012071
:101BB00010BD94F83500022803D080206065012014
:101BC000F6E734492068884205D3334920688842C3
:101BD00001D8012000E00020C0B1042084F83500C5
:101BE0002C49206888420AD32B492068884206D8AD
:101BF0002068006820F001002168086048E0206843
:101C0000006820F001002168086041E02068006859
:101C100020F00E00216808601E49206888420AD31F
:101C20001D492068884206D82068006820F001001D
:101C30002168086005E02068006820F00100216844
:101C40000860206E006820F48070216E086094F8AF
:101C50005C100120884011490860D4E919104860DF
:101C6000E06E40B1E06E006820F48070E16E0860C4
:101C7000D4E91C10486000BF002084F8340000BF85
:101C8000012084F83500206D10B12046216D884771
:101C900000208DE710000240B804024004540258AE
:101CA0000348006840F001000149086070470000E7
:101CB00020040058F8B502460B46002100260024F7
:101CC0000020824D00BFFCE0012707FA01F61F68E3
:101CD00007EA0604B4427CD15F68022F02D05F6835
:101CE000122F1AD14FEAD10C02F1200757F82C001D
:101CF0004F074FEAD76C0F2707FA0CF7B8434FEAA4
:101D0000417C4FEADC6C1F6907FA0CF738434FEA55
:101D1000D10C02F1200747F82C0010684FEA410C63
:101D2000032707FA0CF7B8431F7907F003074FEAB8
:101D3000410C07FA0CF7384310605F68012F08D098
:101D40005F68022F05D05F68112F02D05F68122FE5
:101D500017D190684FEA410C032707FA0CF7B843F4
:101D60004FEA410CDF6807FA0CF73843906050687F
:101D700001278F40B8431F79C7F300178F403843BE
:101D80005060D0684FEA410C032707FA0CF7B843BC
:101D90004FEA410C9F6807FA0CF73843D0605F6840
:101DA00007F08057B7F1805F95D100BF484F3F687B
:101DB00047F00207DFF818C1CCF8007067463F68AB
:101DC00007F00207009700BF00BF424F4FEA910C97
:101DD00000E075E057F82C008F074FEA177C0F27BB
:101DE00007FA0CF7B8433C4FBA4201D100272DE067
:101DF0003A4FBA4201D1012728E0394FBA4201D106
:101E0000022723E0374FBA4201D103271EE0364FA5
:101E1000BA4201D1042719E0344FBA4201D1052753
:101E200014E0334FBA4201D106270FE0314FBA42D6
:101E300001D107270AE0304FBA4201D1082705E057
:101E40002E4FBA4201D1092700E00A274FEA817CD0
:101E50004FEA1C7C07FA0CF738431E4F4FEA910CEF
:101E600047F82C002868A0435F6807F48037B7F56F
:101E7000803F00D1204328606868A0435F6807F472
:101E80000037B7F5003F00D1204368604FF0B047FE
:101E90003868A0435F6807F48017B7F5801F00D14A
:101EA00020434FF0B04738607868A0435F6807F47C
:101EB0000017B7F5001F00D120434FF0B0477860FE
:101EC000491C1029FFF400AFF8BD00008000005845
:101ED000F444025808040058000002580004025854
:101EE00000080258000C0258001002580014025852
:101EF00000180258001C0258002002580024025802
:101F0000024613690B400BB1012000E0002070472E
:101F100042694A40426170470AB1018300E041834F
:101F20007047000001480068704700001C00002452
:101F3000034800680349097808440149086070476C
:101F40001C0000242400002410B5032000F052FBE4
:101F50000F2000F007F808B1012010BD00F058FA7A
:101F60000020FAE770B504460E4800784FF47A7105
:101F7000B1FBF0F00C490968B1FBF0F5284602F01E
:101F8000D3FC08B1012070BD102C07D200222146DD
:101F9000501E00F0F1FA0548046001E00120F2E76C
:101FA0000020F0E724000024080000242000002482
:101FB00070B504460E46154600BF94F8A0000128EF
:101FC00001D1022070BD012084F8A00000BF0220D2
:101FD00084F8A10005EB850101EBC50204F138018D
:101FE00001EB820034223146FEF7C9FC2A46314615
:101FF000204607F06DF801202168486284F8A100AE
:1020000000BF002084F8A00000BF00BFDAE7000096
:1020100070B50446002500260CB9012070BD94F867
:10202000A10028B9002084F8A000204600F07EF826
:10203000022084F8A1002068806920F070402168A7
:102040008861D4E901010843E16808432169084334
:10205000216889690843216888612068806832495D
:10206000084021688860A08A050420688068A1690A
:1020700029430843216888602068C0682A490840CD
:102080002168C860A08B05042068C068216A2943C4
:1020900008432168C8602068006923490840216816
:1020A0000861A08C050420680069A16A29430843DF
:1020B00021680861206840691B490840216848611F
:1020C000A08D050420684069216B294308432168DD
:1020D000486194F83500050294F83600060420683B
:1020E000C06A00F07F402168C86246EA050094F8A3
:1020F000341008432168C96A08432168C86220680F
:10210000406B40F00600216848632068806940F019
:102110000100216888610020C4F8A400012084F82F
:10212000A10000207AE7000000F800F010B586B0AA
:10213000044600BF4848006840F00800464908606F
:102140000846006800F00800009000BF00BF00BF14
:1021500041481038006840F010003F4910390860CD
:102160000846006800F01000009000BF00BF00BFEC
:102170003948001F006840F002003749091F086015
:102180000846006800F00200009000BF00BF00BFDA
:102190000846006840F0200008600846006800F02B
:1021A0002000009000BF00BF00BF0846006840F05C
:1021B000400008600846006800F04000009000BF42
:1021C00000BF00BF0846006840F080000860084675
:1021D000006800F08000009000BF00BF00BF08460C
:1021E000006840F4807008600846006800F4807061
:1021F000009000BF00BF20200190012002900390BA
:102200000320049001A91548FFF754FD4FF48060A6
:1022100001900220029000200390032004900E20E1
:10222000059001A90E48FFF745FD4FF40C600190A1
:1022300001A90C48FFF73EFD4FF47E40019001A933
:102240000948FFF737FD40F2F760019001A9074800
:10225000FFF730FD06B010BDE444025800040258F8
:102260000014025800180258001C0258002002589E
:102270002DE9F04104460E461746984600BF94F8F3
:10228000A000012802D10220BDE8F081012084F8DD
:10229000A00000BF022084F8A10008EB880000EB3A
:1022A000C80104F1380000EB81052E60A86A3044B3
:1022B0006860AF60E86A3844E860424629462046D4
:1022C00006F006FF01202168486284F8A10000BFE3
:1022D000002084F8A00000BF00BFD5E72DE9F04141
:1022E00004460E461746984600BF94F8A000012801
:1022F00002D10220BDE8F081012084F8A00000BFD7
:10230000022084F8A10008EB880000EBC80104F16A
:10231000380000EB8105286830446860A8683844BC
:10232000E860AE62EF6242462946204606F0D0FEE3
:1023300001202168486284F8A10000BF002084F8D1
:10234000A00000BF00BFD5E74178154A11600178B1
:10235000F9B1121D41681160017B0907C27A41EA97
:102360000261827A41EAC241427B41EA8241827B38
:1023700041EA4241C27B41EA0241427A41EA0221FA
:10238000027A41EA420102781143054A083211609B
:1023900005E00021024A121D1160121D11607047F4
:1023A00098ED00E000BF00BF00BFBFF35F8F00BF2C
:1023B00000BF00BF0548006820F480300349086072
:1023C00000200249703108607047000024ED00E0F1
:1023D00040F001010D4A11600C497039096841F45F
:1023E00080310A4A703A116000BF00BF00BFBFF3DE
:1023F0004F8F00BF00BF00BF00BF00BF00BFBFF3D3
:102400006F8F00BF00BF00BF7047000094ED00E079
:102410007047000070B504460E4615460CB9012001
:1024200070BD94F8210028B9002084F820002046CF
:1024300000F022F8211D2068FEF734FD3146D4E972
:102440000002FEF71AFD2946D4E90002FEF701FD5D
:102450002068006840F004002168086005480068B2
:1024600040F0004003490860012084F8210000206A
:10247000D6E700000040005210B586B0044600BF09
:102480003148006840F480502F49086008460068D1
:1024900000F48050009000BF00BF00BF2A480C30FD
:1024A000006840F0080028490C31086008460068C0
:1024B00000F00800009000BF00BF00BF08460068A1
:1024C00040F0100008600846006800F0100000901E
:1024D00000BF00BF00BF0846006840F04000086031
:1024E0000846006800F04000009000BF00BF402098
:1024F000019000200290012003900320049001A984
:102500001248FFF7D7FB4FF40070019002200290B1
:1025100000200390032004900C20059001A90C4892
:10252000FFF7C8FB4DF6330001900020039001A98E
:102530000648FFF7BFFB4FF4F060019001A9054882
:10254000FFF7B8FB06B010BDD4440258000C025887
:10255000001802580010025801460846002809DBFE
:1025600000F01F0301229A4043099B0003F1E0237E
:10257000C3F8002100BF70472DE9F05F80460D468B
:1025800016460AF083FA074639462A46334601F0D2
:102590000700C0F1070ABAF1040F02D94FF0040A8C
:1025A00001E0C0F1070AD14600F1040ABAF1070FB1
:1025B00002D24FF0000A01E0A0F1030AD4464FF026
:1025C000010A0AFA09FAAAF1010A0AEA020A0AFA4F
:1025D0000CFA4FF0010B0BFA0CFBABF1010B0BEA01
:1025E000030B4AEA0B04214640460AF057FABDE8BD
:1025F000F09F000000BF00F00702064B19684FF67D
:10260000FF031940044B0B4343EA0221014B1960BD
:1026100000BF70470CED00E00000FA052DE9F8431B
:1026200004460D4616460127FFF77CFC8046A86944
:1026300000B100BFE86900B100BF286A00B100BF67
:1026400000BF94F84000012802D10220BDE8F883C1
:10265000012084F8400000BF94F84100012828D1EF
:1026600000206064022084F84100434600222021BB
:102670002046009607F080FE0746DFB90022294673
:10268000204607F0DFFC686A78B943460122022140
:102690002046009607F070FE07465FB902202168C9
:1026A000C860012084F8410004E0012084F8410062
:1026B00000E0022700BF002084F8400000BF384639
:1026C000C4E70000F8B504460125FFF72BFC0646D9
:1026D0000CB90120F8BD206A402800D000BF00BF1F
:1026E00094F84000012801D10220F3E7012084F88A
:1026F000400000BF94F8410050B9002084F8400029
:10270000204600F05DF841F28831204600F027F9BC
:102710002068006820F47061A068401E4FF4706269
:1027200092FAA2F2B2FA82F290400143206801606C
:10273000A06C3346002220210090204607F01CFEAA
:10274000054695BB4FF07F4191FAA1F1B1FA81F1B5
:1027500060688840E1680843E1690843216A0843EA
:1027600021680968144A11400843216808604FF441
:10277000F81191FAA1F1B1FA81F1206988406169FB
:102780000843A1690843216849680C4A114008437D
:10279000216848602068006840F0010021680860F6
:1027A00000206064012084F8410000BF002084F80C
:1027B000400000BF28468DE72FFFFF00FEF8E0FF36
:1027C00010B586B0044600BF2948006840F4804038
:1027D000274908600846006800F48040009000BF68
:1027E00000BF00BF22480C30006840F002002049C2
:1027F0000C3108600846006800F00200009000BF3D
:1028000000BF00BF0846006840F02000086008468E
:10281000006800F02000009000BF00BF4020019041
:102820000220029001200390032004900A200590CA
:1028300001A91048FFF73EFA4FF4407001900020C4
:1028400003900320049001A90B48FFF733FA0420FA
:1028500001900920059001A90648FFF72BFAC02036
:10286000019001A90448FFF725FA06B010BD000049
:10287000D444025800040258001402582DE9F84FBD
:1028800004460E4617460025FFF74CFB804620689D
:10289000D0F81890206800F1200A00BF94F840009A
:1028A000012802D10220BDE8F88F012084F8400001
:1028B00000BF94F84100012849D100206064002E37
:1028C0003FD0222084F8410020680069401CA063AA
:1028D00020680069401C606326632068406920F01E
:1028E000406040F08060216848612068C0F818901E
:1028F00012E04346012206212046009707F03CFDE6
:10290000054605B10BE09AF80010226B501C2063BD
:102910001170A06B401EA063A06B0028E9D100BF1E
:102920005DB94346012202212046009707F024FDAD
:10293000054615B902202168C860012084F84100CD
:1029400006E0606C40F008006064012500E00225AC
:1029500000BF002084F8400000BF2846A3E7816440
:1029600070472DE9F84304460E4617460025FFF749
:10297000D9FA8046206800F1200900BF94F8400091
:10298000012802D10220BDE8F883012084F840002C
:1029900000BF94F84100012844D100206064002E5B
:1029A0003AD0122084F8410020680069401CE0629F
:1029B00020680069401CA06266622068406920F0BF
:1029C00040602168486112E043460122042120460C
:1029D000009707F0D1FC054605B10BE0616A481C81
:1029E0006062087889F80000E06A401EE062E06AF0
:1029F0000028E9D100BF5DB94346012202212046EB
:102A0000009707F0B9FC054615B902202168C86097
:102A1000012084F8410006E0606C40F0080060642A
:102A2000012500E0022500BF002084F8400000BF1F
:102A30002846A8E710B501F067F90949096801F4CB
:102A400070614FF4807292FAA2F2B2FA82F2D1402F
:102A5000044A515CC840044908600846006810BD3B
:102A6000184402581A1301080800002410B501F098
:102A700003F90749096801F07001102292FAA2F2E5
:102A8000B2FA82F2D140034A515CC84010BD000046
:102A9000204402581A13010870B501460022012093
:102AA000002300249FED811AB0EE410A9FED7F1AAA
:102AB000F0EE410A7E4D2D6805F003027C4D2D6835
:102AC000C5F305307A4D2D1D2D6805F01003784DA6
:102AD00014352D68C5F3CC0515FB03F501EE105A2E
:102AE000B8EE411AB0EE410A22B1012A4DD0022AB5
:102AF0007DD169E06E4D283D2D68C5F340152DB39D
:102B00006B4D283D2D68C5F3C1066A4D25FA06F4C4
:102B1000B4FBF0F501EE105AF8EE411A9FED661A7B
:102B200080EE012A624D10352D68C5F3080501EECF
:102B3000105AB8EE411A32EE011AB7EE002A31EE01
:102B4000021A21EE811AF0EE410A1DE0594DB5FB43
:102B5000F0F501EE105AF8EE411A9FED571A80EE8B
:102B6000012A534D10352D68C5F3080501EE105AA2
:102B7000B8EE411A32EE011AB7EE002A31EE021A0F
:102B800021EE811AF0EE410A5EE04C4DB5FBF0F506
:102B900001EE105AB8EE412A9FED471AC0EE011A15
:102BA000434D10352D68C5F3080501EE105AB8EEF7
:102BB000411A31EE811AF7EE001A31EE211A22EE97
:102BC000011AF0EE410A3FE03D4DB5FBF0F501EE94
:102BD000105AF8EE411A9FED381A80EE012A344D52
:102BE00010352D68C5F3080501EE105A00E00CE021
:102BF000B8EE411A32EE011AB7EE002A31EE021A8F
:102C000021EE811AF0EE410A1EE02C4DB5FBF0F5E5
:102C100001EE105AB8EE412A9FED271AC0EE011AB4
:102C2000234D10352D68C5F3080501EE105AB8EE96
:102C3000411A31EE811AF7EE001A31EE211A22EE16
:102C4000011AF0EE410A00BF00BF194D10352D6882
:102C5000C5F346256D1C01EE105AB8EE411AC0EEC0
:102C6000811ABCEEE11A81ED001A114D10352D6864
:102C7000C5F306456D1C01EE105AB8EE411AC0EEC0
:102C8000811ABCEEE11A81ED011A094D10352D684B
:102C9000C5F306656D1C01EE105AB8EE411AC0EE80
:102CA000811ABCEEE11A81ED021A70BD000000002D
:102CB000284402580090D0030000004600093D005F
:102CC00040787D0170B501460022012000230024D8
:102CD0009FED811AB0EE410A9FED7F1AF0EE410A96
:102CE0007E4D2D6805F003027C4D2D68C5F305501F
:102CF0007A4D2D1D2D6805F48073784D1C352D6897
:102D0000C5F3CC0515FB03F501EE105AB8EE411AD8
:102D1000B0EE410A22B1012A4DD0022A7DD169E0EC
:102D20006E4D283D2D68C5F340152DB36B4D283DE4
:102D30002D68C5F3C1066A4D25FA06F4B4FBF0F51B
:102D400001EE105AF8EE411A9FED661A80EE012A44
:102D5000624D18352D68C5F3080501EE105AB8EE1E
:102D6000411A32EE011AB7EE002A31EE021A21EEB4
:102D7000811AF0EE410A1DE0594DB5FBF0F501EE68
:102D8000105AF8EE411A9FED571A80EE012A534D62
:102D900018352D68C5F3080501EE105AB8EE411A32
:102DA00032EE011AB7EE002A31EE021A21EE811A34
:102DB000F0EE410A5EE04C4DB5FBF0F501EE105A25
:102DC000B8EE412A9FED471AC0EE011A434D18355F
:102DD0002D68C5F3080501EE105AB8EE411A31EE20
:102DE000811AF7EE001A31EE211A22EE011AF0EEE6
:102DF000410A3FE03D4DB5FBF0F501EE105AF8EE0B
:102E0000411A9FED381A80EE012A344D18352D688D
:102E1000C5F3080501EE105A00E00CE0B8EE411AC7
:102E200032EE011AB7EE002A31EE021A21EE811AB3
:102E3000F0EE410A1EE02C4DB5FBF0F501EE105A04
:102E4000B8EE412A9FED271AC0EE011A234D18351E
:102E50002D68C5F3080501EE105AB8EE411A31EE9F
:102E6000811AF7EE001A31EE211A22EE011AF0EE65
:102E7000410A00BF00BF194D18352D68C5F346251E
:102E80006D1C01EE105AB8EE411AC0EE811ABCEE6C
:102E9000E11A81ED001A114D18352D68C5F306456C
:102EA0006D1C01EE105AB8EE411AC0EE811ABCEE4C
:102EB000E11A81ED011A094D18352D68C5F3066533
:102EC0006D1C01EE105AB8EE411AC0EE811ABCEE2C
:102ED000E11A81ED021A70BD00000000284402587A
:102EE0000090D0030000004600093D0040787D01BD
:102EF0002DE9F041044600250026206800F000601E
:102F0000B0F1006F30D1606E48B1B0F5801F0DD0C8
:102F1000B0F5001F10D0B0F5401F15D113E0F948EF
:102F2000006840F40030F74908600FE00221201DDE
:102F300007F048FA054609E0022104F1240007F0F1
:102F4000D9FA054602E001E0012500BF00BF55B9EE
:102F5000EC482430006820F44010616E0843E949D1
:102F60002431086000E02E43208800F48070B0F522
:102F7000807F2DD1606D05281AD2DFE800F0030AAA
:102F800010171800DF48006840F40030DD49086081
:102F900010E00021201D07F015FA05460AE0002187
:102FA00004F1240007F0A6FA054603E002E001E080
:102FB000012500BF00BF55B9D2482430006820F079
:102FC0000700616D0843CF492431086000E02E43BB
:102FD000208800F40070B0F5007F33D1A06D802808
:102FE00017D003DC40B140281CD10CE0C02817D01A
:102FF000B0F5807F16D114E0C248006840F400307C
:10300000C049086010E00021201D07F0DBF90546EB
:103010000AE0002104F1240007F06CFA054603E001
:1030200002E001E0012500BF00BF55B9B5482430DA
:10303000006820F4E070A16D0843B24924310860B3
:1030400000E02E43208800F48060B0F5806F38D116
:10305000D4F8A400B0F5800F19D004DC50B1B0F55D
:10306000001F1DD10DE0B0F5C00F17D0B0F5000F57
:1030700016D114E0A348006840F40030A14908606C
:1030800010E00021201D07F09DF905460AE000210F
:1030900004F1240007F02EFA054603E002E001E007
:1030A000012500BF00BF5DB996482C30006820F4B0
:1030B0006000D4F8A410084392492C31086000E065
:1030C0002E43208800F40060B0F5006F38D1D4F8AA
:1030D000A800B0F1007F19D004DC50B1B0F1807FBE
:1030E0001DD10DE0B0F1407F17D0B0F1806F16D147
:1030F00014E08448006840F400308249086010E021
:103100000021201D07F05EF905460AE0002104F1C8
:10311000240007F0EFF9054603E002E001E0012595
:1031200000BF00BF5DB977482C30006820F0E06038
:10313000D4F8A810084373492C31086000E02E43EE
:10314000206800F00070B0F1007F27D1A06CA0B122
:10315000102804D0202809D030280FD10CE069486D
:10316000006840F400306749086009E00221201D32
:1031700007F028F9054603E002E001E0012500BF61
:1031800000BF55B95F482030006820F03000A16CC6
:1031900008435C492031086000E02E43208800F499
:1031A0008050B0F5805F36D1E06DB0F5005F19D08A
:1031B00004DC50B1B0F5805F1DD10DE0B0F5405F8B
:1031C00017D0B0F5804F16D114E04E48006840F497
:1031D00000304C49086010E00021201D07F0F2F893
:1031E00005460AE0002104F1240007F083F90546B2
:1031F00003E002E001E0012500BF00BF55B94148EE
:103200002430006820F4E040E16D08433D4924315A
:10321000086000E02E43208800F40050B0F5005F05
:1032200034D1206EB0F5403F1DD007DC68B1B0F559
:10323000803F0BD0B0F5003F18D10DE0B0F5802FE6
:1032400012D0B0F5A02F11D10FE011E00121201D07
:1032500007F0B8F805460BE0012104F1240007F05F
:1032600049F9054604E003E002E001E0012500BF62
:1032700000BF55B923482430006820F4E020216EB7
:10328000084320492431086000E02E43208800F4E0
:103290008040B0F5804F38D1D4F8AC00B0F1405F39
:1032A0001DD007DC68B1B0F1805F0BD0B0F1005FDA
:1032B00018D10DE0B0F1804F12D0B0F1A04F11D174
:1032C0000FE011E00121201D07F07CF805460BE01E
:1032D000012104F1240007F00DF9054604E003E0A4
:1032E00002E001E0012500BF00BF6DB905482C30A8
:1032F000006820F0E040D4F8AC10084301492C31BC
:10330000086002E02C4402582E43208800F400405C
:10331000B0F5004F26D1E06E98B1B0F1805F03D0D8
:10332000B0F1005F0ED106E0FA48006840F40030CA
:10333000F849086008E00121201D07F043F8054620
:1033400002E001E0012500BF00BF55B9F14824307B
:10335000006820F04050E16E0843EE4924310860D7
:1033600000E02E43206800F08070B0F1807F27D10C
:10337000606CA0B1012804D0022809D003280FD125
:103380000CE0E448006840F40030E249086009E0DD
:103390000221201D07F016F8054603E002E001E0D7
:1033A000012500BF00BF55B9DA482030006820F081
:1033B0000300616C0843D7492031086000E02E43C8
:1033C000206800F48000B0F5800F7DD1D2480068FD
:1033D00040F48070D0490860FEF7A4FD074606E07F
:1033E000FEF7A0FDC01B642801D9032505E0CA48EB
:1033F000006800F480700028F2D000BF8DBBC54883
:103400004430006800F44070B4F8B01001F440712A
:10341000884214D0BF484430006820F44078BD484A
:103420004430006840F48030BA49443108600846AE
:10343000006820F4803008600846C0F80080D4F8A6
:10344000B000B0F5807F15D1FEF76CFD074609E0AE
:10345000FEF768FDC01B41F28831884202D903257E
:1034600007E038E0AB4844300068C0F34000002873
:10347000EED000BF4DBB00BFB4F8B00000F4407008
:10348000B0F5407F0ED1A3481C38006820F47C5171
:10349000A24AD4F8B000104041EA10109D491C39EE
:1034A000086007E09B481C38006820F47C5099496C
:1034B0001C390860974844300068B4F8B010C1F374
:1034C0000B010843934901E006E002E04431086043
:1034D00002E02E4300E02E43207800F0010068B3A4
:1034E000A06F182819D005DC48B1082808D010288A
:1034F00016D10BE0202811D0282811D10FE011E0BF
:103500000121201D06F05EFF05460BE0012104F1BC
:10351000240006F0EFFF054604E003E002E001E0CE
:10352000012500BF00BF55B97A482830006820F057
:103530003800A16F084377492831086000E02E4326
:10354000207800F00200022828D1606F062815D2EA
:10355000DFE800F003040A11121311E00121201D1D
:1035600006F030FF05460BE0012104F1240006F0CF
:10357000C1FF054604E003E002E001E0012500BFD1
:1035800000BF55B963482830006820F00700616F1C
:10359000084360492831086000E02E43207800F09D
:1035A000040004282AD1D4F89000062815D2DFE8B8
:1035B00000F003040A11121311E00121201D06F08E
:1035C00001FF05460BE0012104F1240006F092FF03
:1035D000054604E003E002E001E0012500BF00BF72
:1035E0005DB94C482C30006820F00700D4F89010EA
:1035F000084348492C31086000E02E43207800F051
:103600002000202836D1D4F88C00B0F1405F1DD0C6
:1036100007DC68B1B0F1805F0BD0B0F1005F18D16A
:103620000DE0B0F1804F12D0B0F1A04F11D10FE0FA
:1036300011E00021201D06F0C5FE05460BE0022129
:1036400004F1240006F056FF054604E003E002E022
:1036500001E0012500BF00BF5DB92E482830006899
:1036600020F0E040D4F88C1008432A492831086043
:1036700000E02E43207800F04000402836D1D4F8F6
:103680009800B0F5406F1DD007DC68B1B0F5806FD1
:103690000BD0B0F5006F18D10DE0B0F5805F12D0FF
:1036A000B0F5A05F11D10FE011E00021201D06F060
:1036B00089FE05460BE0022104F1240006F01AFF02
:1036C000054604E003E002E001E0012500BF00BF81
:1036D0005DB910482C30006820F4E050D4F8981000
:1036E00008430C492C31086000E02E43207800F09C
:1036F000800080283BD1D4F89C00B0F5C04F24D086
:103700000EDCA0B1B0F5005F12D0B0F5804F1FD134
:1037100014E000002C44025800480258FFFCFF0F40
:10372000B0F5004F12D0B0F5204F11D10FE011E0ED
:103730000021201D06F046FE05460BE0022104F1A3
:10374000240006F0D7FE054604E003E002E001E0B5
:10375000012500BF00BF4DB9B248006820F46040A9
:10376000D4F89C100843AF49086000E02E4320784D
:1037700000F00800082816D1D4F88000B0F5805F6A
:1037800006D1022104F1240006F0B4FE06430AE04B
:10379000A448001F006820F44050D4F8801008436B
:1037A000A049091F0860207800F01000102814D1EB
:1037B000D4F89400B0F5807F06D1022104F12400F2
:1037C00006F098FE064308E09648006820F4407032
:1037D000D4F89410084393490860206800F400204E
:1037E000B0F5002F26D1D4F8A00030B1B0F5803F5D
:1037F00009D0B0F5003F0ED10CE00021201D06F0ED
:10380000E1FD054609E0022104F1240006F072FE04
:10381000054602E001E0012500BF00BF4DB9814827
:10382000006820F44030D4F8A01008437D490860B7
:1038300000E02E43206800F48020B0F5802F2DD1C9
:10384000D4F88400B0F5801F06D0B0F5001F0CD06E
:10385000B0F5401F11D10FE072482C38006840F4D9
:10386000003070492C39086009E0012104F124007E
:1038700006F040FE054602E001E0012500BF00BF62
:103880005DB96848001F006820F44010D4F8841027
:1038900008436449091F086000E02E43206800F4D3
:1038A0008030B0F5803F24D1E06C18B1B0F5803F96
:1038B0000FD108E05B482C38006840F400305949CB
:1038C0002C39086007E00221201D06F07BFD05462B
:1038D00001E0012500BF00BF55B952480C3800680F
:1038E00020F48030E16C08434E490C39086000E058
:1038F0002E43206800F00050B0F1005F05D1022196
:1039000004F1240006F0F6FD0643206800F40030C0
:10391000B0F5003F27D1E06FA0B1B0F5807F06D0B1
:10392000B0F5007F0CD0B0F5407F0CD109E03D48E8
:103930002C38006840F400303A492C39086004E023
:1039400003E002E001E0012500BF00BF55B93548A2
:10395000001F006820F44070E16F08433149091FDF
:10396000086000E02E43206800F48010B0F5801F4E
:1039700009D12C480838006820F00040216F084326
:10398000284908390860206800F08050B0F1805F55
:103990000AD124484838006820F48040D4F8B41094
:1039A0000843204948390860206800F40010B0F549
:1039B000001F09D11B480838006820F08070A16EF4
:1039C0000843184908390860206800F08040B0F1C9
:1039D000804F11D100BF13484838006820F40040E0
:1039E00010494839086008460068D4F8B810084300
:1039F0000C494839086000BF206800F00040B0F171
:103A0000004F09D107480C38006820F04050216D64
:103A1000084304490C39086016B90020BDE8F0815C
:103A20000120FBE75844025870B504460D460026B5
:103A30008D48006800F00700A8420ED28A4800684E
:103A400020F007002843884908600846006800F015
:103A50000700A84201D0012070BD207800F00200CC
:103A6000022807D18148006820F00F00E168084370
:103A70007E490860207800F00100002851D07B4882
:103A8000006820F47060A1680843784908606068A5
:103A9000022807D1754818380068C0F34040F8B9CB
:103AA0000120D9E76068032807D1704818380068FA
:103AB000C0F34060A0B90120CEE76068012807D1BB
:103AC0006A4818380068C0F3002048B90120C3E7ED
:103AD000664818380068C0F3800008B90120BBE7C9
:103AE00062480838006820F00700616808435F49B1
:103AF00008390860FEF716FA06466068022811D1F8
:103B000008E0FEF70FFA801B41F28831884201D9A4
:103B10000320A1E755480838006800F03800102855
:103B2000EFD13AE06068032811D108E0FEF7FAF916
:103B3000801B41F28831884201D903208CE74B4831
:103B40000838006800F038001828EFD125E06068D8
:103B5000012811D108E0FEF7E5F9801B41F2883118
:103B6000884201D9032077E740480838006800F010
:103B700038000828EFD110E008E0FEF7D3F9801BE9
:103B800041F28831884201D9032065E73748083877
:103B9000006800F038000028EFD13348006800F0DA
:103BA0000700A8420ED93048006820F007002843DB
:103BB0002D4908600846006800F00700A84201D0BF
:103BC000012049E7207800F00400042807D12748A5
:103BD000006820F0700021690843244908602078BB
:103BE00000F00800082809D12048001D006820F0D6
:103BF0007000616908431D49091D0860207800F0C4
:103C00001000102809D11948001D006820F4E06058
:103C1000A16908431549091D0860207800F02000BB
:103C2000202809D111480830006820F07000E169AF
:103C300008430E490831086000F066F80B4909682E
:103C400001F470614FF4807292FAA2F2B2FA82F239
:103C5000D140074A515CC840064908600F20FEF772
:103C600081F90020F8E600000020005218440258B4
:103C70001A1301080800002410B5FEF7DBFE0949FD
:103C8000096801F00F01012292FAA2F2B2FA82F25F
:103C9000D140054A515CC8400449086008460068A4
:103CA00010BD0000184402581A1301080C0000242B
:103CB00010B5FFF7E1FF0749096801F07001102214
:103CC00092FAA2F2B2FA82F2D140034A515CC840A1
:103CD00010BD00001C4402581A13010810B5FFF76C
:103CE000CBFF0749096801F4E0614FF4807292FA52
:103CF000A2F2B2FA82F2D140024A515CC84010BD31
:103D00001C4402581A13010870B5012500EE905AA0
:103D10000022012100230024DFED861AB0EE610AA3
:103D2000DFED841AB0EE611A0020834D2D6805F096
:103D3000380535B1082D15D0102D15D0182D7CD192
:103D400014E07D4D103D2D68C5F3401545B17A4D09
:103D5000103D2D68C5F3C106784D25FA06F000E048
:103D60007648E5E07648E3E07648E1E0724D1835C4
:103D70002D6805F00302704D18352D68C5F3051147
:103D80006D4D1C352D6805F001036B4D24352D68F4
:103D9000C5F3CC0515FB03F501EE905AF8EE611A58
:103DA000B0EE610A22B1012A4FD0022A7DD16BE028
:103DB000614D103D2D68C5F340152DB35E4D103D8E
:103DC0002D68C5F3C1065D4D25FA06F4B4FBF1F587
:103DD00001EE905AB8EE612ADFED5B1AC0EE212A9F
:103DE000554D20352D68C5F3080501EE905AF8EEC3
:103DF000611A72EEA11AF7EE002A71EEA21A62EEB3
:103E0000211AB0EE611A1FE04C4DB5FBF1F501EE41
:103E1000905AB8EE612ADFED4C1AC0EE212A464DC9
:103E200020352D68C5F3080501EE905AF8EE611AA9
:103E300072EEA11AF7EE002A00E077E071EEA21A06
:103E400062EE211AB0EE611A5EE03D4DB5FBF1F570
:103E500001EE905AB8EE612ADFED3B1AC0EE212A3E
:103E6000354D20352D68C5F3080501EE905AF8EE62
:103E7000611A72EEA11AF7EE002A71EEA21A62EE32
:103E8000211AB0EE611A3FE02E4DB5FBF1F501EEBF
:103E9000905AB8EE612ADFED2C1AC0EE212A264D89
:103EA00020352D68C5F3080500E00EE001EE905ABC
:103EB000F8EE611A72EEA11AF7EE002A71EEA21A5C
:103EC00062EE211AB0EE611A1EE01D4DB5FBF1F550
:103ED00001EE905AF8EE612ADFED1B1A80EE212ADE
:103EE000154D20352D68C5F3080501EE905AF8EE02
:103EF000611A72EE211AB7EE002A71EE821A62EE92
:103F0000A11AB0EE611A00BF00BF0B4D20352D681D
:103F1000C5F346256D1C00EE905AF8EE601A81EE4E
:103F2000212AFCEEC21A11EE900A01E0044800BFFB
:103F300000BF70BD00000000104402580090D00384
:103F400000093D0040787D010000004670B5044640
:103F50000025207800F00100002872D0F9480068A0
:103F600000F0380010280CD0F648006800F0380047
:103F7000182812D1F3481830006800F00300022816
:103F80000BD1F04810380068C0F3404000286DD0D5
:103F9000606800286AD1012070BD00BF6068B0F57C
:103FA000803F08D1E7481038006840F48030E54988
:103FB000103908602EE0606868B9E248103800687F
:103FC00020F48030DF49103908600846006820F48A
:103FD000802008601EE06068B0F5A02F0DD1D948A0
:103FE0001038006840F48020D6491039086008462F
:103FF000006840F4803008600CE0D2481038006857
:1040000020F48030CF49103908600846006820F459
:104010008020086000BF6068A0B1FDF783FF0546FF
:1040200008E0FDF77FFF401B41F28831884201D94B
:104030000320B1E7C34810380068C0F340400028AF
:10404000EFD013E0FDF76EFF054608E0FDF76AFFCD
:10405000401B41F28831884201D903209CE7B948CE
:1040600010380068C0F340400028EFD1207800F0FD
:104070000200022847D1B348006800F0380058B168
:10408000B048006800F0380018283ED1AD4818301C
:10409000006800F00300B8BBAA4810380068C0F3FD
:1040A000800018B1E06808B9012075E7A54810380C
:1040B000006820F01900E1680843A249103908603F
:1040C000FDF730FF054606E0FDF72CFF401B0228F8
:1040D00001D9032060E79B4810380068C0F38000D6
:1040E0000028F1D097480C38006820F47C304FF459
:1040F0007C3292FAA2F2B2FA82F22169914008432C
:1041000090490C3908604AE0FFE7E06868B38D48E1
:104110001038006820F01900E16808438949103917
:104120000860FDF7FFFE054606E0FDF7FBFE401BBD
:10413000022801D903202FE7824810380068C0F315
:1041400080000028F1D07F480C38006820F47C30D3
:104150004FF47C3292FAA2F2B2FA82F221699140D3
:10416000084378490C39086019E07648103800682F
:1041700020F00100734910390860FDF7D3FE0546B1
:1041800006E0FDF7CFFE401B022801D9032003E71C
:104190006C4810380068C0F380000028F1D1207806
:1041A00000F01000102877D16648006800F0380051
:1041B00008280CD06348006800F03800182823D184
:1041C00060481830006800F0030001281CD15D48E9
:1041D00010380068C0F3002020B1E069802801D0C9
:1041E0000120D9E657480C38006820F0F8404FF01D
:1041F000F84292FAA2F2B2FA82F2216A914008439E
:1042000050490C39086047E0E06958B34D48103810
:10421000006840F080004B4910390860FDF782FECD
:10422000054606E0FDF77EFE401B022801D903206B
:10423000B2E6444810380068C0F300200028F1D0EE
:1042400040480C38006820F0F8404FF0F84292FAED
:10425000A2F2B2FA82F2216A9140084339490C393C
:10426000086019E037481038006820F080003549B0
:1042700010390860FDF756FE054606E0FDF752FED0
:10428000401B022801D9032086E62E48103800681A
:10429000C0F300200028F1D1207800F008000828A1
:1042A00036D16069D0B127486430006840F0010021
:1042B000244964310860FDF735FE054606E0FDF748
:1042C00031FE401B022801D9032065E61D486430F9
:1042D0000068C0F340000028F1D019E019486430AC
:1042E000006820F00100174964310860FDF71AFEEC
:1042F000054606E0FDF716FE401B022801D9032003
:104300004AE6104864300068C0F340000028F1D14C
:10431000207800F02000202834D1A069D8B10948C5
:104320001038006840F48050064910390860FDF7E5
:10433000F9FD054608E0FDF7F5FD401B022803D90D
:10434000032029E610440258AF480068C0F340300B
:104350000028F0D016E0AC48006820F48050AA494C
:104360000860FDF7DFFD054606E0FDF7DBFD401BBD
:10437000022801D903200FE6A3480068C0F34030AB
:104380000028F2D1207800F0040004287DD19F4855
:10439000006840F480709D490860FDF7C3FD054644
:1043A00006E0FDF7BFFD401B642801D90320F3E5BB
:1043B0009648006800F480700028F2D000BFA06822
:1043C000012808D190487030006840F001008E4903
:1043D000703108602DE0A06868B98B4870300068C3
:1043E00020F001008849703108600846006820F01C
:1043F000040008601DE0A06805280DD182487030D7
:10440000006840F004008049703108600846006888
:1044100040F0010008600CE07B487030006820F03C
:1044200001007949703108600846006820F00400F6
:10443000086000BFA068A0B1FDF774FD054608E064
:10444000FDF770FD401B41F28831884201D90320FD
:10445000A2E56D4870300068C0F340000028EFD03E
:1044600013E0FDF75FFD054608E0FDF75BFD401B2F
:1044700041F28831884201D903208DE562487030CD
:104480000068C0F340000028EFD1606A00287CD0AB
:104490005D481030006800F03800182876D0606A57
:1044A000022874D15848006820F08070564908608E
:1044B000FDF738FD054606E0FDF734FD401B0228F8
:1044C00001D9032068E550480068C0F34060002827
:1044D000F2D100BFD4E90A1041EA00104A4928315C
:1044E000096840F2F3329143084347492831086094
:1044F000208E401EC0F30800616B491E4FF47E42BF
:1045000002EA41210843218F491ED20102EA0141FA
:1045100008433C21095D491E120202EA0161084379
:1045200039493031086000BF081D00684FF6F87146
:1045300088434FF6F87292FAA2F2B2FA82F2A16CB4
:10454000914008433049343108602F482C300068CE
:1045500020F00C00216C08432B492C3108600846E0
:10456000006820F00200616C084327492C31086084
:104570000846006840F4803008600846006840F44F
:10458000003008600846006802E03BE038E01FE0C9
:1045900040F4802008600846006840F00100086090
:1045A0001948006840F0807017490860FDF7BAFCB0
:1045B000054606E0FDF7B6FC401B022801D90320A2
:1045C000EAE411480068C0F340600028F2D019E026
:1045D0000D48006820F080700B490860FDF7A2FCD0
:1045E000054606E0FDF79EFC401B022801D903208A
:1045F000D2E405480068C0F340600028F2D101E031
:104600000120C9E40020C7E40044025800480258D1
:1046100070B504460D460CB9012070BD94F82C000D
:1046200028B9002084F82D00204600F019F8022057
:1046300084F82C00211D2068FCF7E1FC2946D4E910
:104640000002FCF731FD0548006840F000400349D6
:104650000860012084F82C000020DEE700400052B2
:1046600010B586B0044600BF4648006840F002001E
:10467000444908600846006800F00200009000BF4E
:1046800000BF00BF3F482038006840F480503D49DB
:10469000203908600846006800F48050009000BF90
:1046A00000BF00BF37481438006840F004003549A7
:1046B000143908600846006800F00400009000BF4C
:1046C00000BF00BF0846006840F0080008600846C8
:1046D000006800F00800009000BF00BF00BF08465F
:1046E000006840F0100008600846006800F0100004
:1046F000009000BF00BF00BF0846006840F02000E7
:1047000008600846006800F02000009000BF00BF6D
:1047100000BF0846006840F0400008600846006896
:1047200000F04000009000BF00BF0D20019002206B
:10473000029001200390032004900C20059001A911
:104740001148FDF7B7FA4CF20370019001A90F4828
:10475000FDF7B0FA4FF68370019001A90C48FDF700
:10476000A9FA4FF63F00019001A90A48FDF7A2FA05
:1047700048F23710019001A90748FDF79BFA06B0EF
:1047800010BD0000F444025800080258000C025802
:1047900000100258001402580018025870B5044660
:1047A0000D4694F82C00022800D170BD022084F838
:1047B0002C0029462068FCF75CFC012084F82C00C2
:1047C0000020F2E770B504460D46164694F82C001A
:1047D000022800D170BD022084F82C003246294600
:1047E0002068FCF74DFC2868022803D1052084F8D6
:1047F0002C0002E0012084F82C000020EAE70000F1
:1048000070B504460E4615460CB9012070BD94F8EB
:10481000450028B9002084F84400204600F024F820
:1048200004F108012068FCF77BFB3146A268206890
:10483000FCF7B6FB2946E36AD4E90102FCF74CFB1E
:10484000A168206850F8210040F00100A2682168AA
:1048500041F822000348006840F000400149086028
:104860000020D3E70040005210B586B0044600BFD8
:104870002048006840F480501E49086008460068DF
:1048800000F48050009000BF00BF00BF19480C30FA
:10489000006840F0080017490C31086008460068BD
:1048A00000F00800009000BF00BF00BF084600688D
:1048B00040F0100008600846006800F0100000900A
:1048C00000BF00BF4EF2B3700190022002900120A1
:1048D0000390032004900C20059001A90648FDF7E1
:1048E000E9F94FF68070019001A90448FDF7E2F95B
:1048F00006B010BDD4440258000C025800100258F3
:10490000042808D14FF0E021096941F004014FF07B
:10491000E022116107E04FF0E021096921F0040174
:104920004FF0E0221161704770B504462546681EBD
:10493000B0F1807F01D301200FE0681E4FF0E0212D
:1049400048610F214FF0FF3008F0A8F800204FF029
:10495000E021886107200861002070BD7047704722
:1049600010B504460CB9012010BD94F83D0028B9DB
:10497000002084F83C00204600F00CF8022084F867
:104980003D00211D206806F06BFF012084F83D00EA
:104990000020E9E738B5044600BF0B48006840F046
:1049A0000200094908600846006800F00200009013
:1049B00000BF00BF032201211D20FDF7DDFD1D20EA
:1049C000FDF7CAFD38BD0000E844025801460868FA
:1049D000C06840F001000A68D0600868008840F0B4
:1049E00001000A68108000207047704710B5044627
:1049F00020680069C0F34000D8B12068C068C0F3E7
:104A00004000B0B16FF002002168086101202077FA
:104A10002068806900F0030018B12046FFF7E5FF29
:104A200005E0204600F0BEF8204600F0BCF800206B
:104A3000207720680069C0F38000D8B12068C06882
:104A4000C0F38000B0B16FF004002168086102205B
:104A500020772068806900F4407018B12046FFF785
:104A6000C4FF05E0204600F09DF8204600F09BF8CA
:104A70000020207720680069C0F3C000D8B120680A
:104A8000C068C0F3C000B0B16FF0080021680861D1
:104A9000042020772068C06900F0030018B1204688
:104AA000FFF7A3FF05E0204600F07CF8204600F069
:104AB0007AF80020207720680069C0F30010D8B190
:104AC0002068C068C0F30010B0B16FF0100021681A
:104AD0000861082020772068C06900F4407018B190
:104AE0002046FFF782FF05E0204600F05BF82046F5
:104AF00000F059F8002020772068006900F00100DC
:104B000058B12068C06800F0010030B16FF00100BA
:104B100021680861204600F047F820680069C0F36A
:104B2000C01058B12068C068C0F3C01030B16FF039
:104B30008000216808612046FFF710FF20680069A7
:104B4000C0F3002058B12068C068C0F3C01030B175
:104B50006FF08000216808612046FFF7FFFE2068A3
:104B60000069C0F3801058B12068C068C0F380109D
:104B700030B16FF0400021680861204600F022F853
:104B800020680069C0F3401058B12068C068C0F3C5
:104B9000401030B16FF02000216808612046FFF717
:104BA000DEFE10BD704770470449884204D10449B5
:104BB0000978491C024A117070470000C818002487
:104BC0000000002470477047704701460022002310
:104BD00091F8792091F87A3042EA0300704700009A
:104BE0002DE9F04104462068C569206807682068FF
:104BF000866805F00F08B8F1000F0DD105F0200010
:104C000050B107F0200010B906F0805020B12046C6
:104C100006F095FFBDE8F081B8F1000F72D05D4855
:104C2000304018B907F4907000287AD005F00100E0
:104C300048B107F4807030B1012021680862E06F4C
:104C400040F00100E06705F0020048B106F0010005
:104C500030B1022021680862E06F40F00400E06794
:104C600005F0040048B106F0010030B104202168CD
:104C70000862E06F40F00200E06705F0080078B1DC
:104C800007F0200028B906F0805010B906F00100A6
:104C900030B1082021680862E06F40F00800E0674A
:104CA000E06F70B305F0200040B107F0200010B9AC
:104CB00006F0805010B1204606F041FFE06F00F092
:104CC000080020B92068806800F0400018B3204632
:104CD00006F015FF2068806800F04000B8B1206839
:104CE000806820F0400021688860606F58B12A48D1
:104CF000616F0865606FFCF757FF10B1606F016D61
:104D000088470DE00DE02046FFF75EFF08E02046F3
:104D1000FFF75AFF04E02046FFF756FF0020E06748
:104D200078E705F4801078B106F4800060B14FF4A4
:104D3000801021680862202084F8790084F87A00C5
:104D40002046FFF740FF65E705F0800048B107F017
:104D5000800010B906F4000018B1204607F006FCE8
:104D600058E705F0400030B107F0400018B1204688
:104D700006F0D5FE4EE705F4000040B107F0804094
:104D800028B12068006820F080402168086000BFDA
:104D900040E7000001000010E7BA000810B5044623
:104DA0000CB9012010BDA06900B100E000BF94F86B
:104DB000790028B9002084F87800204600F02AF80D
:104DC000242084F879002068006820F00100216820
:104DD0000860204606F0F8FE012800D1E2E7606B8B
:104DE00010B1204606F0D0FD2068406820F49040C5
:104DF000216848602068806820F02A002168886067
:104E00002068006840F0010021680860204606F034
:104E100030FEC7E710B586B00446214920688842B5
:104E20003BD100BF1F48006840F001001D490860E9
:104E30000846006800F00100009000BF00BF00BFFE
:104E400018481030006840F0100016491031086012
:104E50000846006800F01000009000BF00BF4FF44B
:104E60000070019002200290012003900220049023
:104E70000720059001A90C48FCF71CFF4FF4806047
:104E8000019001A90848FCF715FF2520FDF764FBF8
:104E9000032211462520FDF76FFB06B010BD000070
:104EA00000100140E04402580000025810B50346CB
:104EB00093F87A00202867D101B10AB9012010BD0A
:104EC00000BF93F87800012801D10220F7E7012004
:104ED00083F8780000BF5966A3F86820A3F86A2019
:104EE00000BF9868B0F5805F0AD1186920B940F218
:104EF000FF10A3F86C001CE0FF20A3F86C0018E082
:104F0000986848B9186918B9FF20A3F86C0010E038
:104F10007F20A3F86C000CE09868B0F1805F08D1A6
:104F2000186918B97F20A3F86C0002E03F20A3F8AD
:104F30006C0000BF0020D867222083F87A0000BFF1
:104F4000002083F8780000BF1868806840F00100F6
:104F50001C68A0601868006800F0005060B1186814
:104F6000006840F480701C6820601868806840F019
:104F700080501C68A06005E01868006840F49070DC
:104F80001C68206000209AE7022098E71D4A01680B
:104F9000914236D11C49098801F4004189BB1A4964
:104FA000098801F4804171B1184909780A2903D0B0
:104FB0000021154A118024E01349098841F4004179
:104FC000114A11801DE0114909780D2906D10E49B9
:104FD000098841F480410C4A118012E00B4909789C
:104FE000094A1288C2F30D02094B995406490988EF
:104FF000491C054A118011460988C72901DD002195
:105000001180704700100140180000241A0000248D
:1050100068020024704700BFFEE700001CB504468C
:105020000020019000901E480088020401210D20FC
:1050300005F0CEFB1B48406B009002E01948406B26
:105040000090009800F045000028F7D0009800F08C
:10505000010038B11348806B40F0010011498863AA
:1050600001201CBD009800F0040038B10D48806B91
:1050700040F004000B4988630320F2E70948006907
:105080000D2801D01020ECE7074806498863084640
:10509000406901900198C0F3432020700020E0E7B0
:1050A0003C00002400700052FF0FE01F00B587B0E5
:1050B00000BF2448006840F001002249086008460B
:1050C000006800F00100019000BF00BF00BF08466B
:1050D000006840F0040008600846006800F0040022
:1050E000019000BF00BF00BF0846006840F080008C
:1050F00008600846006800F08000019000BF00BF13
:1051000001200290002003900220049003200590CB
:1051100002A90D48FCF7CEFD4FF40050029000208C
:105120000390012004900320059002A90748FCF792
:10513000C1FD0C20029002A90548FCF7BBFD07B099
:1051400000BD0000E0440258000002580008025868
:10515000001C025810B50446012C01D12D490870DD
:105160002C480078002839D008212B48FCF7C8FECD
:1051700080B104212848FCF7C3FE58B14FF4005118
:105180002648FCF7BDFE28B101212548FCF7B8FEF2
:10519000012823D10A2007F077FE00201D4908705E
:1051A00008211D48FCF7ACFE08B9012010BD042100
:1051B0001948FCF7A5FE08B90220F7E74FF40051A3
:1051C0001648FCF79DFE08B90320EFE701211448BB
:1051D000FCF796FE01281BD10420E7E708210E48C2
:1051E000FCF78EFE012813D104210B48FCF788FE42
:1051F00001280DD141030948FCF782FE012807D19F
:1052000001210748FCF77CFE10B901200149087014
:105210000020CBE725000024001C0258000802589B
:105220000000025870B5044600260D4805880D4858
:10523000006818B1204603F071FB0FE00848408871
:1052400045430021084603F067F903F029FB0026D7
:1052500002E005490C80761CAE42FAD370BD000016
:1052600030040024480500240000086010B50446FE
:10527000604884716048006850B1204603F078FBB4
:105280005D48C08A5B4908805B48008B488010BD40
:10529000002C58D1F020574908804FF4A070488066
:1052A0000846808845F21051884210D14FF43050A2
:1052B000504908814FF4285048814FF42C50888180
:1052C0004FF4F07008804FF4487048801AE0494865
:1052D000808841F6631188420DD12C204549088110
:1052E0002B2048812A2088814FF4F07008804FF4E9
:1052F0004870488006E02C203E4908812A204881D9
:105300002B2088813B48808845F21031884205D0A7
:105310003848808847F29671884206D14FF4A070D1
:10532000344908804FF4F07048803248808849F64C
:105330000601884258D14FF4F0702E4908804FF48E
:105340004870488050E04FF4A0702A490880F0204F
:1053500048800846808845F21051884210D14FF4A9
:105360003050244908814FF4285048814FF42C5084
:1053700088814FF4487008804FF4F070488020E036
:105380001C48808841F66311884205D019488088FE
:1053900049F6060188420DD12C20164908812A20A1
:1053A00048812B2088814FF4487008804FF4F070BA
:1053B000488006E02C200F4908812A2048812B20B4
:1053C00088810C48808845F21031884205D0094810
:1053D000808847F29671884206D14FF4F0700549F3
:1053E00008804FF4A0704880002002F077FF00BFD3
:1053F0004DE70000300400244805002470B5044641
:105400000D4616463D48006828B1324629462046DA
:1054100003F0C4FA70BD3A48808845F210518842C2
:1054200020D13749488903F02FFA201203F020FADF
:1054300033494989491C88B203F026FAE0B203F0E7
:1054400017FA2F49888903F01FFA281203F010FA7F
:105450002B498989491C88B203F016FAE8B203F097
:1054600007FA42E02648808841F66311884228D135
:105470002348807920B922480088401E001B84B24E
:105480001F49488903F000FA201203F0F1F9E0B255
:1054900003F0EEF9201203F0EBF9E0B203F0E8F9C3
:1054A0001749888903F0F0F9281203F0E1F9E8B20E
:1054B00003F0DEF9281203F0DBF9E8B203F0D8F9C3
:1054C00013E00F49488903F0DFF9201203F0D0F907
:1054D000E0B203F0CDF90A49888903F0D5F9281222
:1054E00003F0C6F9E8B203F0C3F90548008905499D
:1054F0000880891C0E8000BF8CE70000480500244E
:1055000030040024FEFF07602DE9F84F05460E46E3
:1055100017469846DDF828904FF0000B14480068B5
:1055200040B143463A4631462846CDF8009003F054
:105530005DFA1BE0781B401C1FFA80FB344613E029
:105540002146284602F0E8FF03F0AAF94FF0000ACE
:1055500006E00849A1F800900AF101001FFA80FA5C
:10556000DA45F6DB601C84B24445E9DDBDE8F88F1E
:10557000480500240000086000B595B003F038FD30
:10558000FD4988800846808818B103F0D3FA02F0FC
:10559000E3BD00BFF948006840F00200F749086029
:1055A0000846006800F00200019000BF00BF202004
:1055B00010900120119012900320139010A9F04830
:1055C000FCF778FB02F024FEEE48EF490860EF4854
:1055D0004860002088600021EB48C1600161102113
:1055E000416100218161C16101624FF480514162DA
:1055F000002181624FF48041C16200210163416357
:105600004FF4801181631120099000200A905520E9
:105610000B9000200F901520029000200390152081
:1056200004900020089002AA09A9D748FFF7E8F8DB
:10563000322007F029FCD32003F026F902F01CFEEB
:10564000CD49888002F018FECB49888002F014FE14
:10565000C9498880084680884FF6FF7101EA00201A
:10566000C549888002F008FEC34989880843C249B9
:1056700088800846808849F2413188427ED00420E3
:1056800003F002F902F0F8FDBB49888002F0F4FD56
:10569000B949888002F0F0FDB749888008468088C3
:1056A0004FF6FF7101EA0020B349888002F0E4FD63
:1056B000B14989880843B04988800846808848F203
:1056C0005251884203D147F28970AB498880AA4879
:1056D000808847F289718842D0D0D42003F0D4F872
:1056E00002F0CAFDA449888002F0C6FDA249888064
:1056F00002F0C2FDA0498880084680884FF6FF71FD
:1057000001EA00209C49888002F0B6FD9A49898808
:105710000843994988800846808845F210318842BC
:10572000ACD0D32003F0B0F802F0A6FD92498880F7
:1057300002F0A2FD9049888002F09EFD8E4988808B
:10574000084680884FF6FF7101EA00208A49888068
:1057500002F092FD88498988084387498880084675
:10576000808847F29671884288D055214FF4704066
:1057700003F0A0F8AA214FF2010000E07CE003F062
:1057800099F852214FF2020003F094F808214FF2E9
:10579000030003F08FF801214FF2040003F08AF8B0
:1057A0004FF4454003F070F802F066FD72498880BE
:1057B000084680884FF6FF7101EA00206E49888014
:1057C0004CF2015003F060F802F056FD6A498988F6
:1057D000084369498880052007F056FB66488088A1
:1057E00045F21051884247D0D32003F04DF802F023
:1057F00043FD6149888002F03FFD5F49888002F0E7
:105800003BFD5D498880084680884FF6FF7101EABC
:1058100000205949888002F02FFD574989880843A4
:10582000554988800846808849F60601884223D079
:10583000A12003F029F802F01FFD4F49888002F0F3
:105840001BFD4D498880084680884FF6FF7101EAAC
:1058500000204949888002F00FFD474989880843A4
:10586000454988800846808845F26171884203D1A5
:1058700041F66310404988803F48818844A0FAF788
:10588000B1FE3D48808849F24131884273D1CF2032
:1058900002F0FAFF002002F0EBFFC12002F0E8FF67
:1058A000302002F0E5FFED2002F0EEFF642002F070
:1058B000DFFF032002F0DCFF122002F0D9FF81207D
:1058C00002F0D6FFE82002F0DFFF852002F0D0FFD3
:1058D000102002F0CDFF7A2002F0CAFFCB2002F0A8
:1058E000D3FF392002F0C4FF2C2002F0C1FF0020BA
:1058F00002F0BEFF342002F0BBFF022002F0B8FF2E
:10590000F72002F0C1FF202002F0B2FFEA2002F0EF
:10591000BBFF002002F0ACFF002002F0A9FFC02076
:1059200002F0B2FF1B2002F0A3FFC12002F0ACFF87
:10593000012002F09DFFC52002F0A6FF302002F0FA
:1059400097FF302002F094FFC72002F09DFFB720A0
:1059500002F08EFF362002F097FF482002F088FF09
:105960003A2002F091FF552002F082FFB12002F0B0
:105970008BFF002014E0B5E030040024E04402581E
:105980000004025800400052E40300240441005285
:10599000204C43442049443A25780D0A0000000079
:1059A00002F066FF1A2002F063FFB62002F06CFFDF
:1059B0000A2002F05DFFA22002F05AFFF22002F05E
:1059C00063FF002002F054FF262002F05DFF01205B
:1059D00002F04EFFE02002F057FF0F2002F048FFD8
:1059E0002A2002F045FF282002F042FF082002F0A2
:1059F0003FFF0E2002F03CFF082002F039FF542048
:105A000002F036FFA92002F033FF432002F030FFFE
:105A10000A2002F02DFF0F2002F02AFF002002F0E2
:105A200027FF002002F024FF002002F021FF0020C9
:105A300002F01EFFE12002F027FF002002F018FF15
:105A4000152002F015FF172002F012FF072002F0C8
:105A50000FFF112002F00CFF062002F009FF2B209F
:105A600002F006FF562002F003FF3C2002F000FF88
:105A7000052002F0FDFE102002F0FAFE0F2002F0D9
:105A8000F7FE3F2002F0F4FE3F2002F0F1FE0F206F
:105A900002F0EEFE2B2002F0F7FE002002F0E8FEFE
:105AA000002002F0E5FE012002F0E2FE3F2002F0BD
:105AB000DFFE2A2002F0E8FE002002F0D9FE0020DE
:105AC00002F0D6FE002002F0D3FEEF2002F0D0FE5E
:105AD000112002F0D9FE782007F0D6F9292002F033
