:020000040800F2
:10000000B0040024E1020008F12100089321000857
:10001000ED21000867080008612D000800000000BD
:10002000000000000000000000000000F7210008B0
:100030006B08000800000000F5210008F921000805
:10004000FB020008FB020008FB020008FB0200089C
:10005000FB020008FB020008FB020008FB0200088C
:10006000FB020008FB020008FB020008FB0200087C
:10007000FB020008FB020008FB020008FB0200086C
:10008000FB020008FB020008FB020008FB0200085C
:10009000FB020008FB020008FB020008FB0200084C
:1000A000FB020008FB020008FB020008FB0200083C
:1000B000FB020008FB020008FB020008FB0200082C
:1000C000FB020008FB020008FB020008FB0200081C
:1000D000FB020008FB020008FB020008FB0200080C
:1000E000FB020008FB02000800000000FB02000801
:1000F000FB020008FB020008FB020008FB020008EC
:10010000FB020008FB020008FB020008FB020008DB
:10011000FB020008FB020008FB020008FB020008CB
:10012000FB020008FB020008FB020008FB020008BB
:10013000FB020008FB020008FB020008FB020008AB
:1001400000000000000000000000000000000000AF
:10015000FB020008FB020008FB020008FB0200088B
:10016000FB020008FB020008FB020008FB0200087B
:10017000FB020008FB020008FB0200080000000070
:10018000FB020008FB020008FB020008FB0200085B
:10019000FB020008FB020008FB020008FB0200084B
:1001A000FB020008FB020008FB0200080000000040
:1001B000FB020008FB020008FB020008FB0200082B
:1001C000FB020008FB020008000000000000000025
:1001D0000000000000000000FB020008000000001A
:1001E000000000000000000000000000000000000F
:1001F0000000000000000000FB020008FB020008F5
:10020000FB020008FB02000800000000FB020008DF
:10021000FB020008FB020008FB020008FB020008CA
:10022000FB02000800000000FB02000800000000C4
:10023000FB020008FB02000800000000FB020008AF
:10024000FB020008FB020008FB020008FB0200089A
:10025000FB020008FB020008FB020008FB0200088A
:10026000FB020008FB020008FB020008FB0200087A
:10027000FB020008FB020008FB020008000000006F
:10028000FB020008FB020008FB020008FB0200085A
:1002900000000000FB020008FB0200080000000054
:1002A00000000000FB020008FB020008FB0200083F
:1002B000FB020008FB020008FB020008FB0200082A
:1002C000FB020008FB020008FB020008DFF80CD06C
:1002D00000F048FA00480047A9360008B00400249E
:1002E0000648804706480047FEE7FEE7FEE7FEE7D0
:1002F000FEE7FEE7FEE7FEE7FEE7FEE7B9220008BD
:10030000CD0200082DE9F05F0546002092469B468D
:1003100088460646814640241BE02846414647461B
:10032000224600F057F853465A46C01A914110D35E
:1003300011461846224600F03EF82D1A67EB0108D8
:100340004F4622460120002100F035F817EB000946
:100350004E41201EA4F10104DFDC484631462A4606
:100360004346BDE8F09FD2B201E000F8012B491EE0
:10037000FBD270470022F6E710B513460A46044642
:100380001946FFF7F0FF204610BD30B50B46014679
:1003900000202022012409E021FA02F59D4205D324
:1003A00003FA02F5491B04FA02F52844151EA2F1CE
:1003B0000102F1DC30BD202A04DB203A00FA02F110
:1003C000002070479140C2F1200320FA03F3194343
:1003D00090407047202A04DB203A21FA02F00021E5
:1003E000704721FA02F3D040C2F120029140084345
:1003F000194670472DE9FE4F804681EA0300C00F81
:100400000C46009021F0004123F00045B8EB0200BB
:10041000A94105D24046214690461C460B4602465D
:1004200023F00040104347D0270DC7F30A00C3F361
:100430000A510290401A019040286BDAC3F313006E
:1004400040F4801B0098924620B10023D2EB030AAF
:1004500063EB0B0B01985946C0F140025046FFF781
:10046000AAFF06460D4650465946019A00F08CF9FF
:1004700010EB08006141002487EA115284EAE77317
:100480001A4340D0009A62B3019A012A4FEA0752F8
:1004900015DC001B61EB02014FF0004202EA07523B
:1004A000CDE90042001C41F5801132462B4600F098
:1004B0008CF903B0BDE8F08F40462146F9E7001BF8
:1004C00061EB0201001C41F5801300185B4120180C
:1004D000A2F5001747EB030140EAD570B6196D414C
:1004E00011E06D084FEA360645EAC0754FEA07523B
:1004F000001B61EB0201001C41F5801149084FEA25
:1005000030000019514132462B4603B0BDE8F04F90
:1005100000F04CB90098012240000023D0EB020209
:1005200063EBE073009821464FEAE074B8EB0000FB
:1005300061EB0401E9E783F000435BE781F00041F0
:1005400058E72DE9FE4F81EA030404F0004421F04E
:10055000004100944FF0000B23F0004350EA0104E7
:100560005ED052EA03045BD0C3F30A54C1F30A55C8
:100570002C44A4F2F3340194A0FB0254C1F3130100
:1005800041F48011C3F3130343F4801301FB0244CD
:1005900000FB034E840A970A44EA815447EA8357D2
:1005A000A4FB076802958D0A05FB07854FEA932C8B
:1005B00004FB0C542705029D4FEA065847EA1637FC
:1005C000B5EB08056EEB070C870E920E47EA811714
:1005D00042EA8312A7FB0201B6EB0B0164EB0004B5
:1005E0002B0D43EA0C335E1844EB1C50DA4651469F
:1005F000E7FB0201C5F313044FEA0B3343EA14533C
:100600004FEA0432019C43EA0603A4F10C0402946D
:10061000009CCDE900B400F0D8F803B0BDE8F08F3D
:1006200000200146F9E72DE9F04D81EA030404F0CA
:10063000004B21F0004514464FF0000A23F0004122
:1006400050EA050220D054EA01021DD0C5F30A5732
:100650000246C5F31303C1F31300C1F30A5640F475
:10066000801543F48013A7EB0608101BD64608F24A
:10067000FD3873EB050002D308F1010801E0921880
:100680005B41B8F1000F03DA00200146BDE8F08DB0
:1006900000204FF48011064684460EE0171B73EBD2
:1006A000050705D3121B63EB050306434CEA010C57
:1006B00049084FEA300092185B4150EA0107EDD13A
:1006C00052EA030012D082EA040083EA05010843DB
:1006D00005D0101BAB4106D20122002306E0002208
:1006E0004FF0004302E06FF0010253101AEB0600D6
:1006F0004CEB085110EB0A0041EB0B01BDE8F04D4B
:1007000000F054B8C1F30A52C1F3130140F2FF33B1
:1007100041F480119A4202DA00200146704740F20B
:1007200033439A42A2F2334202DC5242FFF752BEF6
:10073000FFF741BE30B5041E71F1000404DB4FF039
:100740000044404264EB0101141E73F1000405DB18
:100750001C464FF00043524263EB0403994208BF2A
:10076000904230BD064C074D06E0E06840F00103C2
:1007700094E8070098471034AC42F6D3FFF7AAFD7F
:10078000D8380008F8380008202A06DBCB17203AB2
:1007900041FA02F043EAE07306E041FA02F3D04086
:1007A000C2F12002914008431946704710B5141E4B
:1007B00073F1000408DA401C41F1000192185B411A
:1007C0001A4301D120F0010010BD2DE9F04D9246F1
:1007D0009B4611B1B1FA81F202E0B0FA80F2203208
:1007E0009046FFF7E8FD04460F4640EA0A0041EA5A
:1007F0000B0153465A46084313D0114653EA0100F1
:1008000019D0C8F140025046FFF7E4FD05460E46F8
:10081000504659464246FFF7CEFD084305D0012019
:1008200004E020463946BDE8F08D0020054346EA45
:10083000E0762C4337430A986305E40AA0EB0800EE
:100840000022FD0A44EA47540A3002D5002001463E
:10085000E9E7010510196941DDE908450019694119
:10086000BDE8F04DA2E700BFFEE7704772B600BFDB
:10087000FEE7000070B5044600F018F9064625466C
:10088000681C10B104480078054400BF00F00EF960
:10089000801BA842FAD370BD08000024F8B50246B8
:1008A0000B4600216D4DD2E001278F401E6806EAFD
:1008B0000704002C72D01E7906F00306012E04D026
:1008C0001E7906F00306022E13D190684F0003260E
:1008D000BE40B0434F00DE68BE4030439060506879
:1008E00001268E40B0431E79C6F300168E40304379
:1008F00050601E7906F00306032E09D0D0684F0021
:100900000326BE40B0434F009E68BE403043D060D7
:100910001E7906F00306022E13D1CF0802F120063D
:1009200056F827004E07F70E0F26BE40B0434F077C
:10093000FF0E1E69BE403043CF0802F1200646F884
:10094000270010684F000326BE40B0431E7906F012
:1009500003064F00BE40304310605E6806F4403628
:10096000002E73D000BF3E4E366846F002063C4F64
:100970003E603E46366806F00206009600BF00BFA5
:10098000384E8F0856F827008E07370F0F26BE40C7
:10099000B043354EB24202D1002629E056E0334E34
:1009A000B24201D1012623E0314EB24201D10226EA
:1009B0001EE0304EB24201D1032619E02E4EB24263
:1009C00001D1042614E02D4EB24201D105260FE0DC
:1009D0002B4EB24201D106260AE02A4EB24201D184
:1009E000072605E0284EB24201D1092600E00A267A
:1009F0008F073F0FBE4030431A4E8F0846F827003E
:100A00004FF0B0463068A0435E6806F4801606B129
:100A100020434FF0B04630607068A0435E6806F433
:100A2000001606B120434FF0B04670606868A043DE
:100A30005E6806F4003606B1204368602868A0436B
:100A40005E6806F4803606B120432860491C1E68A3
:100A5000CE40002E7FF428AFF8BD00008000005883
:100A6000F4440258080400580000025800040258D8
:100A700000080258000C02580010025800140258D6
:100A800000180258001C02580024025810B5426990
:100A900021EA020302EA010443EA0443836110BD30
:100AA0000AB1816101E00B0483617047014800686D
:100AB00070470000000000240348006803490978DB
:100AC0000844014908607047000000240800002421
:100AD00010B5032000F0A8F800F006FD10490968E1
:100AE000C1F303210F4A515C01F01F0120FA01F408
:100AF0000B48006800F00F001146085C00F01F0072
:100B000024FA00F008490860084804600F2000F04B
:100B10000FF808B1012010BD00F036F80020FAE708
:100B200018440258C8380008100000240C000024A3
:100B300070B504461148007808B9012070BD0F480F
:100B400000784FF47A71B1FBF0F00D490968B1FB00
:100B5000F0F5284601F08CF908B10120EEE7102CE1
:100B600007D200222146501E00F020F805480460FC
:100B700001E00120E2E70020E0E700000800002497
:100B80000C0000240400002408B500BF06480068DB
:100B900040F00200044908600846006800F00200C6
:100BA000009000BF00BF08BDF44402582DE9F05F7B
:100BB00080460D46164602F0E5F8074639462A46B5
:100BC000334601F00700C0F1070ABAF1040F02D959
:100BD0004FF0040A01E0C0F1070AD14600F1040A0F
:100BE000BAF1070F02D24FF0000A01E0A0F1030AA8
:100BF000D4464FF0010A0AFA09FAAAF1010A0AEAF0
:100C0000020A0AFA0CFA4FF0010B0BFA0CFBABF1DB
:100C1000010B0BEA030B4AEA0B042146404602F0A3
:100C2000B9F8BDE8F09F000000BF00F00702064BD6
:100C300019684FF6FF031940044B0B4343EA0221A6
:100C4000014B196000BF70470CED00E00000FA0591
:100C500070B5044615480068C0F3800048B91348D1
:100C6000006800F00700A04201D0012070BD002004
:100C7000FCE70E48006820F0070020430B4908609D
:100C8000FFF714FF054607E0FFF710FF401BB0F524
:100C90007A7F01D90120E9E7044808380068C0F3E9
:100CA00040300028F0D00020E0E700000C48025857
:100CB00010B500F0CFFB05490968C1F30211044AE1
:100CC000515C01F01F01C84010BD000020440258D3
:100CD000C838000870B50146844D2D6805F003033F
:100CE000824D2D68C5F30530804D2D1D2D68C5F34F
:100CF00000147E4D14352D68C5F3CC0515FB04F5A5
:100D000001EE105AB8EE411AF0EE410A00286FD0F9
:100D100023B1012B4ED0022B6BD16BE0734D283DDC
:100D20002D68C5F340153DB3704D283D2D68C5F3C2
:100D3000C1066F4D25FA06F201EE102AF8EE411AAF
:100D400001EE100AB8EE411A81EE812A9FED691A70
:100D5000C0EE811A654D10352D68C5F3080501EE0A
:100D6000105AB8EE411A31EE811AF7EE001A31EE40
:100D7000211A22EE010A1CE001EE100AB8EE411A17
:100D8000DFED5D1A81EE812A9FED5A1AC0EE811ABD
:100D9000564D10352D68C5F3080501EE105AB8EE12
:100DA000411A31EE811AF7EE001A31EE211A22EEC5
:100DB000010A5BE001EE100AB8EE411ADFED4F1AAE
:100DC00081EE812A9FED4B1AC0EE811A474D1035F6
:100DD0002D68C5F3080501EE105AB8EE411A31EE40
:100DE000811AF7EE001A31EE211A22EE010A3DE0D7
:100DF00077E01DE001EE100AB8EE411A9FED402A9F
:100E0000C2EE011A9FED3B1A80EE812A374D103554
:100E10002D68C5F3080501EE105AB8EE411A32EEFE
:100E2000011AB7EE002A31EE021A21EE810A1DE006
:100E300001EE100AB8EE411ADFED301A81EE812A78
:100E40009FED2C1AC0EE811A284D10352D68C5F380
:100E5000080501EE105AB8EE411A31EE811AF7EE8C
:100E6000001A31EE211A22EE010A00BF00BF1F4D09
:100E700010352D68C5F3462501EE105AB8EE411A1B
:100E8000F7EE001A31EE211AC0EE011ABCEEE11A9B
:100E900081ED001A154D10352D68C5F3064501EE9C
:100EA000105AB8EE411AF7EE001A31EE211AC0EED0
:100EB000011ABCEEE11A81ED011A0C4D10352D68B6
:100EC000C5F3066501EE105AB8EE411AF7EE001AA6
:100ED00031EE211AC0EE011ABCEEE11A81ED021AC0
:100EE00003E000250D604D608D6070BD2844025800
:100EF0000090D003000000460024744C0024744A83
:100F000020BCBE4B70B50146844D2D6805F003032F
:100F1000824D2D68C5F30550804D2D1D2D68C5F3FC
:100F200000247E4D1C352D68C5F3CC0515FB04F55A
:100F300001EE105AB8EE411AF0EE410A00286FD0C7
:100F400023B1012B4ED0022B6BD16BE0734D283DAA
:100F50002D68C5F340153DB3704D283D2D68C5F390
:100F6000C1066F4D25FA06F201EE102AF8EE411A7D
:100F700001EE100AB8EE411A81EE812A9FED691A3E
:100F8000C0EE811A654D18352D68C5F3080501EED0
:100F9000105AB8EE411A31EE811AF7EE001A31EE0E
:100FA000211A22EE010A1CE001EE100AB8EE411AE5
:100FB000DFED5D1A81EE812A9FED5A1AC0EE811A8B
:100FC000564D18352D68C5F3080501EE105AB8EED8
:100FD000411A31EE811AF7EE001A31EE211A22EE93
:100FE000010A5BE001EE100AB8EE411ADFED4F1A7C
:100FF00081EE812A9FED4B1AC0EE811A474D1835BC
:101000002D68C5F3080501EE105AB8EE411A31EE0D
:10101000811AF7EE001A31EE211A22EE010A3DE0A4
:1010200077E01DE001EE100AB8EE411A9FED402A6C
:10103000C2EE011A9FED3B1A80EE812A374D18351A
:101040002D68C5F3080501EE105AB8EE411A32EECC
:10105000011AB7EE002A31EE021A21EE810A1DE0D4
:1010600001EE100AB8EE411ADFED301A81EE812A46
:101070009FED2C1AC0EE811A284D18352D68C5F346
:10108000080501EE105AB8EE411A31EE811AF7EE5A
:10109000001A31EE211A22EE010A00BF00BF1F4DD7
:1010A00018352D68C5F3462501EE105AB8EE411AE1
:1010B000F7EE001A31EE211AC0EE011ABCEEE11A69
:1010C00081ED001A154D18352D68C5F3064501EE62
:1010D000105AB8EE411AF7EE001A31EE211AC0EE9E
:1010E000011ABCEEE11A81ED011A0C4D18352D687C
:1010F000C5F3066501EE105AB8EE411AF7EE001A74
:1011000031EE211AC0EE011ABCEEE11A81ED021A8D
:1011100003E000250D604D608D6070BD28440258CD
:101120000090D003000000460024744C0024744A50
:1011300020BCBE4B2DE9F04104460D4614B90120F8
:10114000BDE8F081BD48006800F00F00A8420ED253
:10115000BA48006820F00F002843B84908600846E4
:10116000006800F00F00A84201D00120E8E72078D5
:1011700000F0040004280ED1B1492069096801F08B
:101180007001884207D9AE48006820F070002169DC
:101190000843AB490860207800F00800082811D106
:1011A000A749091D6069096801F07001884209D9E1
:1011B000A348001D006820F0700061690843A04941
:1011C000091D0860207800F01000102811D19C49FA
:1011D000091DA069096801F4E061884209D99848AD
:1011E000001D006820F4E060A16908439449091DCE
:1011F0000860207800F02000202811D190490831A3
:10120000E069096801F07001884209D98C4808300A
:10121000006820F07000E1690843894908310860DE
:10122000207800F0020002280ED18549E0680968A4
:1012300001F00F01884207D98148006820F00F00B3
:10124000E16808437E490860207800F0010000282A
:1012500050D07B48006820F47060A168084378494A
:1012600008606068022807D1754818380068C0F324
:101270004040F8B9012063E76068032807D170484F
:1012800018380068C0F34060A0B9012058E76068D2
:10129000012807D16A4818380068C0F3002048B90F
:1012A00001204DE7664818380068C0F3800008B98F
:1012B000012045E762480838006820F007006168AF
:1012C00008435F4908390860FFF7F0FB064608E06D
:1012D000FFF7ECFB801B41F28831884201D90320E3
:1012E0002EE757480838006800F038006168B0EB16
:1012F000C10FEDD1207800F0020002280ED1504934
:10130000E068096801F00F01884207D24C48006884
:1013100020F00F00E1680843494908604748006829
:1013200000F00F00A8420ED94448006820F00F00DA
:101330002843424908600846006800F00F00A842B0
:1013400001D00120FCE6207800F0040004280ED132
:101350003B492069096801F07001884207D238488A
:10136000006820F070002169084335490860207842
:1013700000F00800082811D13149091D6069096889
:1013800001F07001884209D22D48001D006820F04C
:101390007000616908432A49091D0860207800F03F
:1013A0001000102811D12649091DA069096801F40F
:1013B000E061884209D22248001D006820F4E06004
:1013C000A16908431E49091D0860207800F020002B
:1013D000202811D11A490831E069096801F070012B
:1013E000884209D216480830006820F07000E16990
:1013F000084313490831086000F076F8104909687D
:10140000C1F303210F4A515C01F01F0120FA01F7DB
:101410000B48006800F00F001146085C00F01F0048
:1014200027FA00F008490860084807600848006883
:10143000FFF77EFB8046404682E600000020005217
:1014400018440258C8380008100000240C0000247A
:101450000400002410B500F047F80D490968C1F3F5
:1014600003210C4A515C01F01F0120FA01F40848E5
:10147000006800F00F001146085C00F01F0024FA1D
:1014800000F005490860054804600846006810BD82
:1014900018440258C8380008100000240C0000242A
:1014A00000B5FFF7D7FF05490968C1F30211044AE7
:1014B000515C01F01F01C84000BD00001C440258EF
:1014C000C838000800B5FFF7C5FF05490968C1F332
:1014D0000221044A515C01F01F01C84000BD000018
:1014E0001C440258C8380008F0B5824E366806F031
:1014F000380636B1082E15D0102E15D0182E7DD1F5
:1015000014E07C4E103E3668C6F3401646B1794E64
:10151000103E3668C6F3C107774E26FA07F000E0A2
:101520007548E5E07548E3E07548E1E0714E18362E
:10153000366806F003046F4E18363668C6F3051198
:101540006C4E1C36366806F001056A4E2436366845
:10155000C6F3CC0616FB05F601EE106AB8EE410A9A
:10156000002971D024B1012C50D0022C6DD16DE036
:10157000604E103E3668C6F340163EB35D4E103ED8
:101580003668C6F3C1075C4E26FA07F301EE103A3F
:10159000F8EE411A01EE101AB8EE411A81EE812AD6
:1015A0009FED581AC0EE011A524E20363668C6F327
:1015B000080601EE106AB8EE411A31EE811AF7EE14
:1015C000001A31EE211A62EE010A1EE001EE101A35
:1015D000B8EE411ADFED4C1A81EE812A9FED491ACF
:1015E000C0EE011A434E20363668C6F3080601EEF7
:1015F000106AB8EE411A31EE811A00E076E0F7EE9B
:10160000001A31EE211A62EE010A5BE001EE101AB7
:10161000B8EE411A9FED3D2AC2EE011A9FED391A2C
:1016200080EE012A334E20363668C6F3080601EEF6
:10163000106AB8EE411A32EE011AB7EE002A31EE06
:10164000021A61EE810A3DE04EE01DE001EE101A43
:10165000B8EE411ADFED2E1A81EE812A9FED291A8C
:10166000C0EE011A234E20363668C6F3080601EE96
:10167000106AB8EE411A31EE811AF7EE001A31EE17
:10168000211A62EE010A1DE001EE101AB8EE411AAD
:101690009FED1E2AC2EE011A9FED1A1A80EE012A52
:1016A000144E20363668C6F3080601EE106AB8EE0E
:1016B000411A32EE011AB7EE002A31EE021A61EE3B
:1016C000810A00BF00BF0B4E20363668C6F346269F
:1016D000721C01EE102AB8EE411AC0EE811ABCEE5F
:1016E000E11A11EE100A00E0002001E0034800BFFB
:1016F00000BFF0BD104402580090D00300093D0027
:1017000040787D01000000460024744C0024744A97
:1017100020BCBE4B2DE9F047044614B90120BDE8BA
:10172000F087207800F00100002870D0F9480068A8
:1017300000F03808F7481830D0F80090B8F1100FD2
:1017400006D0B8F1180F0FD109F0030002280BD111
:10175000F04810380068C0F3404000286AD0606844
:10176000002867D10120DAE700BF6068B0F5803F4C
:1017700008D1E8481038006840F48030E549103955
:1017800008602EE0606868B9E2481038006820F40C
:101790008030E049103908600846006820F4802055
:1017A00008601EE06068B0F5A02F0DD1D948103850
:1017B000006840F48020D749103908600846006866
:1017C00040F4803008600CE0D2481038006820F403
:1017D0008030D049103908600846006820F4802025
:1017E000086000BF606898B1FFF760F9054606E041
:1017F000FFF75CF9401B642801D903208FE7C54837
:1018000010380068C0F340400028F1D012E012E028
:10181000FFF74CF9054606E0FFF748F9401B64283E
:1018200001D903207BE7BB4810380068C0F3404073
:101830000028F1D100BF207800F00200022879D101
:10184000B448006800F03808B2481830D0F800906A
:10185000B8F1000F05D0B8F1180F35D109F0030029
:1018600088BBAC4810380068C0F3800018B1E0684D
:1018700008B9012053E7A7481038006820F0190084
:10188000E1680843A34910390860FFF70FF90546DE
:1018900006E0FFF70BF9401B022801D903203EE7C1
:1018A0009C4810380068C0F380000028F1D09948A7
:1018B0000C38006820F0FE40217C40EA0160954928
:1018C0000C39086045E0FFE7E06838B3914810380C
:1018D000006820F01900E16808438E49103908605B
:1018E000FFF7E4F8054606E0FFF7E0F8401B0228A2
:1018F00001D9032013E7874810380068C0F380003F
:101900000028F1D083480C38006820F0FE40217C8C
:1019100040EA01607F490C3908601AE07D481038C0
:10192000006820F001007B4910390860FFF7BEF81D
:10193000054607E00EE0FFF7B9F8401B022801D981
:101940000320ECE6734810380068C0F380000028DC
:10195000F1D100BF207800F0100010286FD16D4841
:10196000006800F038086B481830D0F80090B8F1E3
:10197000080F06D0B8F1180F1CD109F00300012898
:1019800018D1644810380068C0F3002020B1E06925
:10199000802801D00120C2E600BF5E48001F006819
:1019A00020F07C5094F8201040EA01605949091F4A
:1019B000086043E0E06938B356481038006840F0EA
:1019C0008000544910390860FFF770F8054606E0BA
:1019D000FFF76CF8401B022801D903209FE64D4811
:1019E00010380068C0F300200028F1D000BF49483B
:1019F000001F006820F07C5094F8201040EA01603D
:101A00004449091F086019E042481038006820F076
:101A10008000404910390860FFF748F8054606E0A5
:101A2000FFF744F8401B022801D9032077E6394824
:101A300010380068C0F300200028F1D100BF2078E2
:101A400000F00800082836D16069D0B13148643010
:101A5000006840F001002F4964310860FFF726F864
:101A6000054606E0FFF722F8401B022801D90320B3
:101A700055E6284864300068C0F340000028F1D0E3
:101A800019E024486430006820F0010021496431E5
:101A90000860FFF70BF8054606E0FFF707F8401B64
:101AA000022801D903203AE61A4864300068C0F3DE
:101AB00040000028F1D1207800F02000202838D103
:101AC000A069D0B113481038006840F48050114923
:101AD00010390860FEF7EAFF054606E0FEF7E6FF6C
:101AE000401B022801D9032019E60A481038006873
:101AF000C0F340300028F1D01BE0064810380068E1
:101B000020F48050034910390860FEF7CFFF0546E6
:101B100009E0000010440258FEF7C8FF401B0228ED
:101B200001D90320FBE5D0480068C0F3403000280D
:101B3000F2D1207800F0040004287DD1CB48006861
:101B400040F48070C9490860FEF7B0FF054606E022
:101B5000FEF7ACFF401B642801D90320DFE5C34832
:101B6000006800F480700028F2D000BFA06801284F
:101B700008D1BD487030006840F00100BA497031AA
:101B800008602DE0A06868B9B7487030006820F0A0
:101B90000100B549703108600846006820F0040073
:101BA00008601DE0A06805280DD1AF4870300068BE
:101BB00040F00400AC49703108600846006840F00D
:101BC000010008600CE0A8487030006820F00100B7
:101BD000A549703108600846006820F004000860DC
:101BE00000BFA068A0B1FEF761FF054608E0FEF760
:101BF0005DFF401B41F28831884201D903208EE508
:101C0000994870300068C0F340000028EFD013E01E
:101C1000FEF74CFF054608E0FEF748FF401B41F287
:101C20008831884201D9032079E58F4870300068F7
:101C3000C0F340000028EFD1606A00287DD08A48B8
:101C40001030006800F03800182877D0606A022849
:101C500075D18548006820F0807083490860FEF7E0
:101C600025FF054606E0FEF721FF401B022801D9AB
:101C7000032054E57C480068C0F340600028F2D19E
:101C800000BFD4E90A1041EA0010774928310968F9
:101C900040F2F33291430843734928310860208EA3
:101CA000401EC0F30800616B491E4FF47E4202EAF9
:101CB00041210843218F491ED20102EA0141084314
:101CC0003C21095D491E120202EA0161084366498E
:101CD0003031086000BF081F006820F00100091FB4
:101CE00008606148343000684FF6F8718843A16C91
:101CF00040EAC1005C49343108605B482C30006820
:101D000020F00C00216C084357492C31086008462C
:101D1000006820F00200616C084353492C310860D0
:101D20000846006840F4803008600846006840F4C7
:101D3000003008600846006802E092E038E01FE0EA
:101D400040F4802008600846006840F00100086008
:101D50004548006840F0807043490860FEF7A6FEE1
:101D6000054606E0FEF7A2FE401B022801D903202B
:101D7000D5E43D480068C0F340600028F2D070E030
:101D80003948006820F0807037490860FEF78EFE01
:101D9000054606E0FEF78AFE401B022801D9032013
:101DA000BDE431480068C0F340600028F2D158E03B
:101DB0002D48283007682C4830300668606A0128B2
:101DC00021D007F00301A06A81421CD1C7F305119D
:101DD000E06A884217D1C6F30801206B401E814299
:101DE00011D1606B401EC6F3462188420BD1A06B17
:101DF000401EC6F30641884205D1E06B401EC6F383
:101E00000661884201D0012089E417483430006817
:101E1000C0F3CC07A06CB84223D013482C30006824
:101E200020F0010010492C310860FEF73FFE054606
:101E300000BFFEF73BFE401BFBD00B483430006870
:101E40004FF6F8718843A16C40EAC100064934316D
:101E5000086005482C30006840F0010002492C3130
:101E6000086000205BE4000000440258004802586B
:101E700070B504462546681EB0F1807F01D301206D
:101E80000FE0681E4FF0E02148610F214FF0FF3056
:101E900000F080FF00204FF0E021886107200861FA
:101EA000002070BD014600BF91F88400012801D1D7
:101EB00002207047012081F8840000BF2420C1F86F
:101EC0008800086802680868006820F001000B6854
:101ED000186022F000520020486608680260202046
:101EE000C1F8880000BF002081F8840000BF00BF57
:101EF000DFE770B504460D4600BF94F88400012862
:101F000001D1022070BD012084F8840000BF24208C
:101F1000C4F88800206806682068006820F0010086
:101F2000216808602068806820F06060284321688C
:101F30008860204600F030FA206806602020C4F84F
:101F4000880000BF002084F8840000BF00BFD9E7EC
:101F500070B504460D4600BF94F88400012801D1F5
:101F6000022070BD012084F8840000BF2420C4F842
:101F70008800206806682068006820F00100216859
:101F800008602068806820F06040284321688860ED
:101F9000204600F001FA206806602020C4F888007E
:101FA00000BF002084F8840000BF00BFD9E710B54F
:101FB00004460CB9012010BDA06900B100E000BFCB
:101FC000D4F8880028B9002084F88400204600F066
:101FD0002BF82420C4F888002068006820F0010055
:101FE00021680860204600F02BFB012800D1E2E7C1
:101FF000A06A10B1204600F0FBF92068406820F488
:102000009040216848602068806820F02A0021689C
:1020100088602068006840F0010021680860204660
:1020200000F062FAC7E7000010B586B0044614213C
:1020300001A8FEF79FF923492068884240D100BFDC
:102040002148006840F010001F49086008460068F9
:1020500000F01000009000BF00BF00BF1A48103809
:10206000006840F00100184910390860084600680F
:1020700000F00100009000BF00BF00BF08460068EC
:1020800040F0010008600846006800F00100009080
:1020900000BF00BF4FF400700190022002900120A9
:1020A0000390032004900720059001A90748FEF73C
:1020B000F5FB4FF48060019001A90448FEF7EEFBA8
:1020C00006B010BD00100140F04402580000025854
:1020D0002DE9F84F04460E4617469946D4F8880075
:1020E000202854D106B117B90120BDE8F88F00208F
:1020F0005434E06321206063FEF7D8FC82462780D9
:102100006780543CA068B0F5805F04D1206910B9A5
:102110000025B04602E035464FF0000820E0534667
:10212000002280212046CDF8009000F09DFD20B1D6
:102130002020C4F888000320D7E745B9B8F800008C
:10214000C0F308002168886208F1020803E02878DB
:10215000216888626D1CB4F85600401EA4F8560031
:10216000B4F856000028DAD1534600224021204618
:10217000CDF8009000F078FD20B12020C4F8880050
:102180000320B2E72020C4F888000020ADE7022039
:10219000ABE700BFFEE7000000B587B0142102A83E
:1021A000FEF7E8F800BF0F48006840F040000D4916
:1021B00008600846006800F04000019000BF00BFC2
:1021C000002280210848FEF76BFC8020029001204D
:1021D000039000200490059002A90348FEF75EFBDF
:1021E00007B000BDE04402580018025800BFFEE7E7
:1021F00000BFFEE77047704710B5FEF75DFC10BDED
:1022000000B59DB04C210AA8FEF7B4F8202102A821
:10221000FEF7B0F80220FEF71BFD00BF0020019082
:102220002448006820F440402249086008460068BD
:1022300000F44040019000BF00BF00BF1D4800688F
:1022400000F40050B0F5005FF8D101200A900004BE
:102250000B9002201390022114910A211591DC2188
:1022600016910121179102211891199104211A91B7
:1022700000211B911C910AA8FFF74CFA08B1FEF748
:10228000F5FA3F20029003200390002004900820DC
:10229000059040200690079000010890402009908A
:1022A000032102A8FEF746FF08B1FEF7DFFA1DB0D2
:1022B00000BD0000184802582F48006840F4700024
:1022C0002D4908602D48006800F00F00072806D24D
:1022D0002A48006820F00F00C01D284908602848DF
:1022E000006840F0010026490860002024491031B0
:1022F00008602348006823490840214908601F48B6
:10230000006800F00F00072806D91C48006820F07C
:102310000F00C01D194908600020194918310860D4
:10232000091D0860091D0860174815492831086013
:102330001648091D08601648091D08600020091D7F
:1023400008601348091D08600020091D0860104836
:10235000091D08600020091D08600948006820F474
:10236000802007490860002005496031086043F279
:10237000D20008490860704788ED00E00020005254
:10238000004402587FEDF6EA000202020000FF015D
:10239000800201010040005270B5456E2DB9012543
:1023A000A0F86A50A0F868501CE0102310240568BB
:1023B000AD68C5F342610568AD686A0F0A4DAD5C52
:1023C00015FB04F5094EB65C95FBF6F5A0F86A50CE
:1023D000054D6D5C15FB03F5044E765C95FBF6F53B
:1023E000A0F8685070BD0000B8380008C038000878
:1023F00090F8281001F0010139B10168496821F411
:102400000031C26A11430268516090F8281001F04F
:102410000201022907D10168496821F48031026B69
:1024200011430268516090F8281001F0040104295A
:1024300007D10168496821F48021426B1143026889
:10244000516090F8281001F00801082907D10168AF
:10245000496821F40041826B11430268516090F891
:10246000281001F01001102907D10168896821F4B2
:102470008051C26B11430268916090F8281001F0FE
:102480002001202907D10168896821F40051026CDC
:1024900011430268916090F8281001F04001402932
:1024A00013D10168496821F48011426C114302681C
:1024B0005160416CB1F5801F07D10168496821F472
:1024C000C001826C11430268516090F8281001F03D
:1024D0008001802907D10168496821F40021C26C7C
:1024E000114302685160704738B504460020C4F8B3
:1024F0009000FEF7DBFA05462068006800F008004F
:10250000082821D16FF07E402B4600224FF40011A5
:102510000090204600F0A8FBB0B100BF00BF2168CA
:1025200051E8001F21F08000226842E800010029E4
:10253000F5D100BF2020C4F8880000BF002084F837
:10254000840000BF032038BD2068006800F004004C
:10255000042830D16FF07E402B4600224FF48001DA
:102560000090204600F080FB28B300BF00BF216828
:1025700051E8001F21F49070226842E80001002910
:10258000F5D100BF00BF00BF2168083151E8001F2E
:1025900021F001002168083141E80002002AF3D14E
:1025A00000BF2020C4F88C0000BF002084F8840005
:1025B00000BF0320C7E72020C4F88800C4F88C00BF
:1025C0000020E066206700BF84F8840000BF00BFE1
:1025D000B9E7000000BF00BF026852E8002F22F4F4
:1025E0009071036843E80012002AF5D100BF00BFD4
:1025F00000BF0268083252E8002F104B02EA0301C4
:102600000268083242E80013002BF2D100BFC16E0D
:1026100001290CD100BF00BF026852E8002F22F050
:102620001001036843E80012002AF5D100BF202101
:10263000C0F88C100021C16641677047FEFFFFEFB4
:102640002DE9F04F89B0054600200890F849286828
:10265000884200D100E000BF2969A8680843696981
:102660000843E96940EA010828680068F149084020
:1026700040EA0800296808602868406820F4405053
:10268000E968084329684860D5F81880E84928684F
:10269000884202D0286A40EA080828688068E6492B
:1026A000084040EA0800296888602868C06A20F06D
:1026B0000F00696A08432968C86200BFDF492868BB
:1026C000884220D1DE48006800F03800182811D078
:1026D00005DC48B1082809D0102811D108E02028CD
:1026E0000AD028280CD109E001240BE0042409E0D9
:1026F000082407E0102405E0202403E0402401E042
:10270000802400BF42E1CF492868884219D1CC48D3
:10271000006800F00700062810D2DFE800F003058B
:1027200007090B0D00240BE0042409E0082407E04E
:10273000102405E0202403E0402401E0802400BFB1
:1027400024E1C1492868884219D1BD48006800F0D9
:102750000700062810D2DFE800F0030507090B0D7B
:1027600000240BE0042409E0082407E0102405E01D
:10277000202403E0402401E0802400BF06E1B349A7
:102780002868884219D1AE48006800F00700062882
:1027900010D2DFE800F0030507090B0D00240BE061
:1027A000042409E0082407E0102405E0202403E0C5
:1027B000402401E0802400BFE8E0A5492868884261
:1027C00019D19F48006800F00700062810D2DFE802
:1027D00000F0030507090B0D00240BE0042409E0B9
:1027E000082407E0102405E0202403E0402401E051
:1027F000802400BFCAE097492868884220D19048C9
:10280000006800F03800182811D005DC48B108280D
:1028100009D0102811D108E020280AD028280CD18E
:1028200009E001240BE0042409E0082407E0102457
:1028300005E0202403E0402401E0802400BFA5E05F
:1028400085492868884219D17D48006800F0070052
:10285000062810D2DFE800F0030507090B0D00245D
:102860000BE0042409E0082407E0102405E02024FC
:1028700003E0402401E0802400BF87E07749286816
:10288000884219D16E48006800F00700062810D26F
:10289000DFE800F0030507090B0D00240BE004241A
:1028A00009E0082407E0102405E0202403E0402488
:1028B00001E0802400BF69E069492868884220D18E
:1028C0005F48006800F03800182811D005DC48B1D6
:1028D000082809D0102811D108E020280AD028287B
:1028E0000CD109E001240BE0042409E0082407E0EE
:1028F000102405E0202403E0402401E0802400BFF0
:1029000044E058492868884220D14D48006800F0CA
:102910003800182811D005DC48B1082809D0102843
:1029200011D108E020280AD028280CD109E0012480
:102930000BE0042409E0082407E0102405E020242B
:1029400003E0402401E0802400BF1FE038492868EC
:1029500088421AD13A48001D006800F00700062896
:1029600010D2DFE800F0030507090B0D02240BE08D
:10297000042409E0082407E0102405E0202403E0F3
:10298000402401E0802400BF00E0802400BF2849EB
:10299000286888424BD1102C1AD006DC022C09D0B2
:1029A000042C0BD0082C29D10DE0202C21D0402C58
:1029B00024D120E0FEF77CF9064623E005A8FEF7C7
:1029C00089F9069E1EE002A8FEF79CFA039E19E014
:1029D0001B4854380068C0F3401040B118485438C0
:1029E0000068C0F3C101204820FA01F600E01E4E45
:1029F00008E01E4E06E04FF4004603E000260120EA
:102A0000089000BF00BF002E10D01949686A31F845
:102A10001000B6FBF0F9686800EB4000484503D8A9
:102A200068680003484525D20120089007E153E07B
:102A3000000C0058F369FFCFFFF4FF1100100140B4
:102A4000544402580044004000480040004C0040FC
:102A5000005000400014014000780040007C00401D
:102A600000180140001C01400090D00300093D0007
:102A7000A03800087849686A31F810C0624600231F
:102A800030461946FDF73EFC4FF4807C0022034699
:102A9000A3FB0C0B01FB0CB103FB02136968490893
:102AA00084461CEB010143EB0200CDE90010D5F890
:102AB00004C06246002308460199FDF723FC07463F
:102AC000B7F5407F05D3B7F5801F02D22868C760ED
:102AD000B5E001200890B2E0E869B0F5004F5BD1A5
:102AE000082C1AD005DC5CB1012C0DD0042C2DD1A2
:102AF0000EE0102C16D0202C23D0402C26D122E022
:102B0000FEF7CEFC064625E0FEF7DCFC064621E09B
:102B100005A8FEF7DFF8069E1CE002A8FEF7F2F912
:102B2000039E17E04D480068C0F3401038B14B4891
:102B30000068C0F3C1014A4820FA01F600E0484E9F
:102B400008E0484E06E04FF4004603E0002601206E
:102B5000089000BF00BF7EB33F49686A31F810009B
:102B6000B6FBF0F04000696800EB5100B0FBF1F7F4
:102B7000102F0ED3B7F5803F0BD24FF6F07007EA57
:102B8000000AC7F342004AEA000A2868C0F80CA00D
:102B900055E00120089052E0082C1BD005DC64B100
:102BA000012C0ED0042C2ED10FE0102C17D0202C8D
:102BB00024D0402C27D123E041E0FEF771FC0646EB
:102BC00025E0FEF77FFC064621E005A8FEF782F827
:102BD000069E1CE002A8FEF795F9039E17E01F4829
:102BE0000068C0F3401038B11C480068C0F3C10150
:102BF0001B4820FA01F600E0194E08E0194E06E0E5
:102C00004FF4004603E000260120089000BF00BFFB
:102C1000AEB11149686A31F81000B6FBF0F069688E
:102C200000EB5100B0FBF1F7102F06D3B7F5803F52
:102C300003D2B8B22968C86001E0012008900120E1
:102C4000A5F86A00A5F8680000206867A8670898DA
:102C500009B0BDE8F08F0000A03800080044025819
:102C60000090D00300093D002DE9F04104460D46D7
:102C700017469846069E3CE0701CC8B3FDF716FF49
:102C8000A0EB0800B04200D816B90320BDE8F081DF
:102C90002068006800F0040050B32068C069C0F3E9
:102CA000C00078B10820216808622046FFF792FC36
:102CB0000820C4F8900000BF002084F8840000BF02
:102CC0000120E3E72068C069C0F3C02080B14FF461
:102CD0000060216808622046FFF77CFC2020C4F8D1
:102CE000900000BF002084F8840000BF0320CDE7DF
:102CF000FFE72068C0692840A84201D1012000E018
:102D00000020B842B8D00020C0E7000010B512483B
:102D1000124908604FF4E130486000210F4881609B
:102D2000C16001610C21416100218161C1610162C9
:102D300041620020094988620846FFF738F90021FE
:102D40000648FFF705F900210448FFF7D2F80348C9
:102D5000FFF7A8F810BD0000001001401800002483
:102D600000BFFEE70FB4054B10B503A9044A029853
:102D700000F0F6F810BC5DF814FB00009136000876
:102D80001400002402480068C0F3022070470000CD
:102D90000CED00E010B5002804DB0A07130E054A0D
:102DA000135406E00A07140E034A00F00F031B1F1A
:102DB000D45410BD00E400E018ED00E002E008C8C3
:102DC000121F08C1002AFAD170477047002001E0A5
:102DD00001C1121F002AFBD1704700002DE9FF5FDF
:102DE00082B00021DDE90430020DDDF840B003437C
:102DF00018D044F61050A2F2FF3242431514119835
:102E000001281FD0A5EB0B00401C5FEA000A4FF021
:102E100000064E4FDFF83891B046504615D5CAF13E
:102E2000000413E0119801244AA3012801D16FEA9C
:102E30000B010298119AC0E90031C0E9024206B0C4
:102E4000BDE8F09FCBF10000DFE704460021404AD7
:102E5000491842EB0450CDE9001012E0E00707D01A
:102E600032463B4640464946FDF76BFB8046894665
:102E700032463B4610461946FDF763FB06460F46B1
:102E80006410002CEAD1DDE90401DDE90023BAF188
:102E9000000F06DAFDF755FB42464B46FDF751FBA6
:102EA00005E0FDF7C0FB42464B46FDF7BCFB044680
:102EB0000E460022284BFDF73DFC03D84FF0FF30B3
:102EC000014607E00022254B20463146FDF792FAE5
:102ED000FDF718FC102409E0002C0ADB0A2200236D
:102EE000FDF710FA039B30321A55641E50EA0102B6
:102EF000F2D1641C039AC4F111031444119A012AFB
:102F000003D0012208430DD10AE0084304D0002079
:102F10004FF0110B119072E7A3EB0B056D1E0DE046
:102F20005B4504DD4FF0000205F1010504E003DA22
:102F30004FF00002A5F10105002AECD0029811998A
:102F4000C0E90231C0E9004579E700000000144003
:102F50000000F03F300000000000F0430000E03FC0
:102F60002DE9FF4F95B09B468946064600250FE2A6
:102F7000252877D100242746F84A0121059400E04E
:102F8000044316F8013F203B01FA03F01042F7D149
:102F900030782A2811D06FF02F033078A0F130025A
:102FA000092A16D8059A44F0020402EB820203EBC8
:102FB00042021044761C0590EFE759F8042B059265
:102FC000002A03DA504244F40054059044F002040D
:102FD000761C30782E2816D116F8010F44F0040420
:102FE0002A280DD06FF02F023078A0F13003092B82
:102FF00009D807EB870302EB4303C718761CF3E7F6
:1030000059F8047B761C30786C280FD006DC4C28ED
:1030100017D068280DD06A2814D104E0742810D085
:103020007A280FD10DE044F400140AE044F480142F
:1030300001E044F440147278824202D104F5801415
:10304000761C761C307866280BD013DC582877D095
:1030500009DC002875D04528F6D04628F4D047284A
:103060001AD19DE118E0632835D0642879D065280D
:1030700012D195E1702873D008DC6728F1D0692857
:103080006FD06E280DD06F2806D1B5E073282CD0F4
:10309000752875D0782874D05A46179990476D1CBA
:1030A00075E1C4F30250022809D003280DD0D9F8E5
:1030B000001004280DD00D6009F1040967E1D9F86A
:1030C0000010EA17C1E90052F6E7D9F800100D80A8
:1030D000F2E70D70F0E719F8041B8DF800100020DE
:1030E0008DF80100EA46012003E059F804AB4FF0E7
:1030F000FF3061074FF0000102D40DE008F101013B
:103100008846B9420FDA8045F8DB1AF80810002922
:10311000F4D108E008F1010188468142FADB1AF88F
:1031200008100029F6D105985B46A0EB0807214658
:103130003846179A00F094FA284400EB080507E097
:103140004DE029E10DE01AF8010B5A461799904716
:10315000B8F10108F7D25B4621463846179A13E1C9
:1031600042E00A220092C4F302524FF0000A022AFF
:1031700008D059F804CB032A4FEAEC710AD00DE0CD
:1031800029E02AE009F1070121F00702F2E802C173
:10319000914609E00FFA8CFC4FEAEC71042A03D146
:1031A0004FFA8CFC4FEAEC71002907DA0A4600213D
:1031B000DCF1000C61EB02012D2202E0220504D5B6
:1031C0002B228DF80420012203E0E20701D0202207
:1031D000F7E7904659E00A2102E010220DE01021A5
:1031E0004FF0000A00910BE010224FF0000A44F06B
:1031F00004040827009203E008224FF0000A00921E
:10320000C4F30252022A05D059F804CB0021032A44
:1032100008D009E009F1070121F00702F2E802C134
:10322000914605E01FFA8CFC042A01D10CF0FF0C3A
:103230004FF00008220728D5702806D0009B83F0A5
:10324000100353EA0A0305D00EE040228DF8042053
:10325000012208E05CEA010206D030228DF8042049
:103260008DF8050002229046009B83F0080353EA84
:103270000A030AD15CEA010201D1620705D53022B6
:103280008DF804204FF001087F1E582804D034A088
:1032900003900EA802900DE036A0F9E75346604671
:1032A000009AFDF72FF884460398825C0298401E2E
:1032B000029002705CEA0100F0D1029806A9081A97
:1032C00000F1200A600702D524F4803400E00127D1
:1032D000574502DDA7EB0A0000E0002000EB0A01E1
:1032E000009005984144401A0590E00306D45B46DF
:1032F0002146179A059800F0B3F90544002706E027
:1033000001A85A46C05D179990476D1C7F1C474520
:10331000F6DBE0030CD55B462146179A059800F0D2
:103320009FF9054404E030205A46179990476D1CD8
:103330000099481E00900029F5DC08E002980299E7
:103340005A460078491C0291179990476D1CBAF1B2
:103350000001AAF1010AF1DC65E100000928010081
:1033600030313233343536373839616263646566FB
:1033700000000000303132333435363738394142BD
:10338000434445460000000000F058F90544761C0F
:10339000307800287FF4ECAD19B02846BDE8F08FF6
:1033A000620700D4062709F1070222F0070CFCE8A7
:1033B0000223E14603F000485FEA080C02D00FF256
:1033C000702C0DE05FEA045C02D50FF2682C07E078
:1033D0005FEAC47C02D00FF2602C01E0AFF2700C07
:1033E0004FF0FF3823F00043CDF850C065280CD0D3
:1033F00006DC452809D046281DD047283DD13DE0B0
:10340000662818D067287ED138E00021112F01DB13
:10341000112000E0781CCDE9000106A90EA8FFF7F5
:10342000DDFCDDE90F010E9A03910021009207F106
:10343000010A04914DE04FF000400097CDE90110E2
:1034400006A90EA8FFF7CAFCDDE90F0203920E9B46
:1034500011990022DDF80CA00093049211B9791C97
:1034600000EB010AB7EB0A0004D4C0F1FF3007F10A
:10347000010A0490AAEB0700019044E0012F00DA52
:1034800001270021112F01DD112000E03846CDE990
:10349000000106A90EA8FFF7A1FCDDE90F010E9AB5
:1034A0000391002104910092BA4621070CD403999C
:1034B000514500DA8A46BAF1010F05DD009AAAF1FA
:1034C0000101515C302908D0B84202DA10F1040F32
:1034D00006DA0121CDE9011015E0AAF10101E9E7C1
:1034E000002805DC049901440491AAEB000102E0E4
:1034F000411C514500DD8A460499401A401C019048
:103500004FF000400290200704D40198504501DBA1
:10351000CDF8048000208DF84F0002980DF14F0780
:10352000B0F1004F25D02B200E9002984FF00208EA
:1035300000280CDA404202902D200E9007E00A216C
:103540000298FCF722FF3031029007F8011DB8F114
:103550000001A8F10108F2DC02980028EFD1791EE1
:103560000E980870307800F0200040F0450007F811
:10357000020D12A8C01B00F107081498007800B1D2
:10358000012000EB0A01019801EBE071059841442C
:10359000401A401E0590E00306D45B462146179A68
:1035A000059800F05DF805441498007818B15A4663
:1035B000179990476D1CE00324D55B462146179A66
:1035C000059800F04DF805441CE00498002807DB3E
:1035D000DDE90301884203DD0098405C179901E0B2
:1035E000179930205A469047049805F10105401C70
:1035F00004900198401E019004D12E205A4617993C
:1036000090476D1CBAF10001AAF1010ADDDC05E06A
:1036100017F8010B5A46179990476D1CB8F1000135
:10362000A8F10108F4DC5B462146179A0598ABE641
:103630002D0000002B000000200000002DE9F041CB
:10364000044600251E461746880404D405E0394682
:103650002020B0476D1C641EF9D52846BDE8F081D6
:103660002DE9F041044600251E469046C80301D5C9
:10367000302700E02027880404D505E0414638467D
:10368000B0476D1C641EF9D52846BDE8F0810000E6
:1036900013B50C466423012269460248FEF718FD63
:1036A00000981CBD180000242DED028B80249FED96
:1036B000620AB0EE408A00BF6048006800F4003043
:1036C00000B139E000BF00BF00BFBFF34F8F00BFA4
:1036D00000BF00BF00BF00BF00BFBFF36F8F00BFC0
:1036E00000BF00BF00205649086000BF00BF00BFF8
:1036F000BFF34F8F00BF00BF00BF00BF00BF00BFC0
:10370000BFF36F8F00BF00BF00BF4C48006840F49C
:1037100000304A49086000BF00BF00BFBFF34F8FB1
:1037200000BF00BF00BF00BF00BF00BFBFF36F8F6F
:1037300000BF00BF00BF00BF00BF404B1B6803F4C9
:10374000803303B148E000233C4D70352B6000BF4F
:1037500000BF00BFBFF34F8F00BF00BF00BF2B1FD4
:103760001868C0F34E3100BFC0F3C90200BF43F672
:10377000E07303EA41134FF0404505EA82752B439D
:103780002F4D10352B6000BF00BF131EA2F10102A8
:10379000EDD10B1EA1F10101E6D100BF00BF00BFBA
:1037A000BFF34F8F00BF00BF00BF244B1B6843F423
:1037B0008033224D2B6000BF00BF00BFBFF34F8F8F
:1037C00000BF00BF00BF00BF00BF00BFBFF36F8FCF
:1037D00000BF00BF00BF00BFFDF77AF9FEF710FD84
:1037E000FEF7DAFCFFF792FA16A0FFF7BBFA1CA06F
:1037F000FFF7B8FA1EE080211F48FDF747F94FF4A4
:103800007A70FDF737F821461CA0FFF7ABFA214686
:103810001DA0FFF7A7FAB7EEC80A53EC102B1DA0A6
:10382000FFF7A0FA601C84B2B0EE000A38EE000A7E
:10383000B0EE408ADFE70000ADF9114114ED00E081
:1038400050EF00E053544D33322073657269616C60
:1038500020706F72742074657374200D0A0000006C
:103860007072696E74662066756E6374696F6E201F
:1038700074657374200D0A00001802586465632093
:10388000202025640D0A0000686578202020257816
:103890000D0A0000666C6F61742025660D0A000039
:1038A000010002000400060008000A000C001000DD
:1038B0002000400080000001010101030701000019
:1038C00008040204080101010000000001020304D1
:1038D0000102030406070809F83800080000002464
:1038E00018000000BC2D0008103900081800002442
:1038F00098040000CC2D000800000000100000001B
:10390000010000000090D0030090D00300000000F0
:04000005080002CD20
:00000001FF
