:020000040800F2
:10000000E07C0724B1030008559C000897560008BF
:10001000BD030008F919000839B10008000000000C
:10002000000000000000000000000000D5A0000853
:10003000191A000800000000579C0008D1A1000810
:10004000CB030008CB030008CB030008CB03000858
:10005000CB030008CB030008CB030008CB03000848
:10006000CB030008CB030008CB030008CB03000838
:10007000CB030008CB030008CB030008CB03000828
:10008000CB030008CB030008CB030008CB03000818
:10009000CB030008CB030008CB030008CB03000808
:1000A000CB030008CB030008CB030008CB030008F8
:1000B000CB0300086DA20008A9A20008CB0300082A
:1000C000CB030008CB030008CB030008CB030008D8
:1000D000CB030008E9B00008CB030008CB030008FD
:1000E000CB030008CB03000800000000CB0300088E
:1000F000CB030008CB030008CB030008CB030008A8
:10010000CB030008CB030008CB030008CB03000897
:10011000CB030008CB030008CB030008CB03000887
:10012000CB030008CB030008CB030008CB03000877
:10013000CB030008CB030008CB030008CB03000867
:1001400000000000000000000000000000000000AF
:10015000CB030008CB030008CB030008CB03000847
:10016000CB030008CB030008CB030008CB03000837
:10017000CB030008CB030008CB03000800000000FD
:10018000CB030008CB030008CB030008CB03000817
:10019000CB030008CB030008CB030008CB03000807
:1001A000CB030008CB030008CB030008CB030008F7
:1001B000CB030008CB030008CB030008CB030008E7
:1001C000CB030008CB030008CB030008CB030008D7
:1001D000CB030008CB030008CB030008CB030008C7
:1001E000CB030008CB030008CB030008CB030008B7
:1001F000CB030008CB030008CB030008CB030008A7
:10020000CB030008CB030008CB030008CB03000896
:10021000CB030008CB030008CB030008CB03000886
:10022000CB030008CB030008CB030008000000004C
:10023000CB030008CB03000800000000CB0300083C
:10024000CB030008CB030008CB030008CB03000856
:10025000CB030008CB030008CB030008CB03000846
:10026000CB030008CB030008CB030008CB03000836
:10027000CB030008CB030008CB03000800000000FC
:10028000CB03000800000000CB03000800000000C2
:1002900000000000CB03000800F002F800F078F83E
:1002A0000AA090E8000C82448344AAF10107DA45D1
:1002B00001D100F06DF8AFF2090EBAE80F0013F0AB
:1002C000010F18BFFB1A43F0010318472823010050
:1002D000482301000A444FF0000C10F8013B13F0D2
:1002E000070408BF10F8014B1D1108BF10F8015B8F
:1002F000641E05D010F8016B641E01F8016BF9D182
:1003000013F0080F1EBF10F8014BAD1C0C1B09D1D8
:100310006D1E58BF01F801CBFAD505E014F8016B4A
:1003200001F8016B6D1EF9D59142D6D370470000DC
:100330000023002400250026103A28BF78C1FBD8EE
:10034000520728BF30C148BF0B60704766290CF0C8
:10035000C586642900F0BA81752900F0B781782933
:1003600000F0F081632900F07086732900F0758633
:10037000002070471FB50CF09BFE00F085FE0400C6
:10038000002000210CF07EFEE0601FBD10B510BD06
:1003900000F03CFF1146FFF7EDFF0BF099F900F07C
:1003A0005AFF03B4FFF7F2FF03BC0BF046F900005D
:1003B0000948804709480047FEE7FEE7FEE7FEE7F9
:1003C000FEE7FEE7FEE7FEE7FEE7FEE70448054935
:1003D000054A064B70470000D9A1000899020008A1
:1003E000E0760724E07C0724E0780724E0780724FF
:1003F0009FED1A1AF5EE000A40EE010ABDEEE00A82
:10040000F5EEC00AF1EE10FA10EE100A38BF401EE9
:1004100000EE100A9FED121A1249B8EEC00AF7EE6C
:10042000001A30EEC00A60EE010ABCEEE00A10EEDF
:10043000100AC0F3080000EE100A01EB8000B8EECD
:10044000400A90ED011A70EEC00A90ED000A71EEBC
:10045000E01A21EE800A00EE810A704783F9223EFD
:100460000000004438190108B5EEC00AF1EE10FA98
:1004700007D2DFED1E0AB4EEE00AF1EE10FAA8BFD3
:100480007047DFED1B0AB5EEC00AF1EE10FA20EE60
:10049000200AFDEEC00A10EE900A38BF401E00EEA2
:1004A000900A9FED141A1449F8EEE00AF7EE001ACC
:1004B00030EE600A60EE010ABCEEE00A10EE100AAF
:1004C000C0F3080000EE100A01EB8000B8EE400A0D
:1004D00090ED011A70EEC00A90ED000A71EEE01A7C
:1004E00021EE800A00EE810A70470000CD024CB474
:1004F00083F9223E000000443819010853EA020C37
:1005000000F069802DE9F04B4FF00006002B1FBF73
:10051000B3FA83F503FA05F424FA05F65E4012BF38
:100520001643B2FA82F502FA05F4C5F120051EBFA2
:1005300022FA05FC44EA0C04203556EA044C4FEA42
:10054000144418BF641C4FF000084FF0000990429B
:1005500071EB030C39D3002919BFB1FA81F701FA05
:1005600007F6B0FA80F700FA07F6C7F120071EBFBA
:1005700020FA07FC46EA0C062037B6FBF4FCA7EB92
:100580000507103F07F01F0BCBF120060CFA0BFB01
:100590002CFA06F644BFB3460026202FA4BF5E46C1
:1005A0004FF0000B5BEA060C08BF4FF0010B19EB94
:1005B0000B09ABFB027C48EB0608C01B06FB02CC18
:1005C0000BFB03CC71EB0C01C1E70B460246414625
:1005D0004846BDE8F08B13B54FF000004FF0000126
:1005E000AFF30080BDE81C40704700000FB4044921
:1005F00010B503AA029800F035FD10BC5DF814FB9D
:10060000100000240FB41CB5074B06AA7B446946B2
:100610000090059800F0F7FC0020694600F006FD08
:100620001CBC5DF814FB00001D0A000070B50446F8
:1006300085690068C10601D5302600E02026C00784
:1006400007D070BDD4E9012130469047206A401C94
:1006500020626D1EF6D570BD70B5044685690078C0
:10066000C00707D170BDD4E9012120209047206A3E
:10067000401C20626D1EF6D570BD70B50C46054657
:10068000012A05D02878800600D5EA69002302E017
:10069000012305E05B1C934202D2E05C0028F9D103
:1006A000A869E618C01AA861286A18442862284672
:1006B000FFF7BCFF04E0D5E9012114F8010B9047D6
:1006C000B442F8D32846FFF7C7FF70BD2DE9F041CB
:1006D0000646002410687529314616A510D0AFF3E0
:1006E0000080002802DA404213A507E031688A073B
:1006F00001D512A502E0490704D511A5012401E0A6
:10070000AFF3008000210A2206F1240709E0B0FBC4
:10071000F2FCB0FBF2F302FB1C00303078541846B8
:10072000491C0028F3D123462A463046BDE8F04153
:1007300000F0FBB9000000002D0000002B000000BD
:100740002000000070B504460D4621461068AFF346
:1007500000802188090502D50F4A7A4402E00E4A3A
:100760007A440E32002104F1240305E000F00F0664
:100770000009965D5E54491C0028F7D120780023BB
:10078000000704D5702D02D009B102231132204692
:10079000BDE8704000F0C9B9DE1901002DE9F05F35
:1007A000894604464FF0000ADFF874B1FB44C0F8F4
:1007B00020A02046E1688847002874D0252806D06C
:1007C000D4E901219047206A401C2062F1E700260D
:1007D0005F462046E16888472028054607DB312D23
:1007E00005D2781910F8200C08B10643F1E7B007DC
:1007F00001D526F00406C4F81CA00027C4F818A0F0
:100800002A2D09D028460AF011FF38B304EB8708D7
:10081000303DC8F8185019E059F8041B204604EB85
:1008200087029161E1688847012F054618D1E06988
:10083000002820DA26F020061DE0D8F8180000EB8A
:10084000800005EB40003038C8F818002046E16809
:10085000884705460AF0EAFE0028EED1012F0AD0AB
:100860002E2D08D12046E16888477F1C0546022FBF
:1008700046F02006C4DBA069002803DA404246F0B7
:100880000106A061F00701D026F010066C2D0BD0F8
:10089000682D09D04C2D39D06A2D35D0742D35D026
:1008A0007A2D33D016E038E0E1682F46204688479D
:1008B000B842054609D16C2F26D04FF48060E1681C
:1008C000064320468847054604E06C2F1AD04FF4B3
:1008D000807006430DB3A5F14100192802D82035D8
:1008E00046F400664A462946204626604E46FFF7F3
:1008F0002DFD80B101280BD0F61D26F0070000F178
:10090000080956E74020E4E78020D8E70020D6E732
:1009100006F104094DE7284652E7206ABDE8F09F3A
:10092000B419010010B5203AC0F00B80B1E818509E
:10093000203AA0E81850B1E81850A0E81850BFF4C9
:10094000F5AF5FEA027C24BFB1E81850A0E8185068
:1009500044BF18C918C0BDE810405FEA827C24BFBC
:1009600051F8043B40F8043B08BF7047D20728BF4A
:1009700031F8023B48BF11F8012B28BF20F8023B99
:1009800048BF00F8012B70474FF000020429C0F067
:10099000128010F0030C00F01B80CCF1040CBCF1B1
:1009A000020F18BF00F8012BA8BF20F8022BA1EB03
:1009B0000C0100F00DB85FEAC17C24BF00F8012BE8
:1009C00000F8012B48BF00F8012B70474FF00002E0
:1009D00000B5134694469646203922BFA0E80C5035
:1009E000A0E80C50B1F12001BFF4F7AF090728BF10
:1009F000A0E80C5048BF0CC05DF804EB890028BF8C
:100A000040F8042B08BF704748BF20F8022B11F0B4
:100A1000804F18BF00F8012B704700004FF0013CD9
:100A200050F8042B51F8043B9A4215D1A2EB0C0369
:100A3000934313EACC130BD150F8042B51F8043B29
:100A40009A4209D1A2EB0C03934313EACC13E7D0EB
:100A50004FF00000704700BFD01A01BAB1FA81F11F
:100A600001F0180122FA01F0CB40C1F12001DBB204
:100A7000C0B2C01A2CFA01F3D11A914311EAC31182
:100A8000E6D1704770477047704730B5B0F10A0241
:100A90004FEA900E71F100034EEA817EB0EB0E003A
:100AA00061EB91014FEA101E4EEA017E10EB0E0041
:100AB00041EB11114FEA102E4EEA016E10EB0E00C1
:100AC00041EB11214FEA104E4EEA014E10EB0E00A1
:100AD00041EB1141401841F100014FEAD00040EADA
:100AE00041704FEAD10110EB80054FEA810444EADE
:100AF000907444EB01046D1944EB0404521BA341B0
:100B00004FF0000348BF0A3200D530BD401C41F110
:100B1000000130BD10B500F0BBFA006810BD10B583
:100B2000044600F0B5FA046010BD2DE9F0470D460B
:100B300099469246044600F124080168880604D5C7
:100B4000E06921F01001216000E00120A84201DDF0
:100B5000471B00E00027A1697A1902EB0900081A77
:100B6000A0612078C00602D42046FFF75FFD002672
:100B700008E0D4E901211AF806009047206A401CD9
:100B8000761C20624E45F4DB2078C0060AD520464C
:100B9000FFF74CFD06E0D4E9012130209047206AA0
:100BA000401C2062381EA7F10107F4DC07E0D4E9FD
:100BB000012118F805009047206A401C2062281E79
:100BC000A5F10105F3DC2046FFF746FD207800067D
:100BD00002D50220BDE8F0870120FBE770472DE930
:100BE000FF4F0C461E464FF0FF378BB0D2E9000195
:100BF000DDF860800A908A46C1F30A5505B93D4682
:100C0000002108460CF05AFABAF1000F00F4400037
:100C100005DA00EB80004FF4400101EA50004FEA92
:100C20009059B9F1010F00DDB9460A9850EA4A001F
:100C30000ED044F61050A5F2FF3545432F14B8F1FD
:100C4000000F1ED07542291E1EDDC9F100021CE0F6
:100C5000B8F1010F4FF0000001D0302103E0F24362
:100C600005E02154401CB042FBDB3046002200214D
:100C700021540B99C1F80880C1E900200FB0BDE8EC
:100C8000F08FBD1B6D1CDEE74A4600DA694206A8FC
:100C900000F042FA06AB93E8070003AB83E80700D5
:100CA00050460A9900F0E0FA8DE80700A0F50050E0
:100CB0001F3800900398002D0ADD42F21F014A46BA
:100CC0000844002303A90390684600F049FD09E0A9
:100CD000A0F500504A461F38002303A90390684638
:100CE00000F053FD8DE807000004000C03D04FF026
:100CF000FF30410800E01046B8F1000F03D0002299
:100D0000009215461EE0751E05D4FFF7BEFE303278
:100D100062556D1EF9D5B3460122084302D0002268
:100D20007F1C04E02078302801D100227F1E002A99
:100D3000099784D01DE0112D07DAFFF7A6FE3032A7
:100D400062556D1C50EA0102F5D1084302D00098AB
:100D5000C8B10EE00021681E05E0235C625C6354AC
:100D60002254401E491C8142F7DBAB46A81B401EA3
:100D70000990002004F80B000B98099AC0F808802D
:100D8000C0E9002B7AE711264FF0000857E72DE95C
:100D9000F04F88460446D21D22F0070191B0D1E9F8
:100DA0000001CDE90A010AF0C9F902460B98C00F0B
:100DB00001D02D2007E02068810701D52B2002E01B
:100DC000202101EAC000032A099001D0072A05DB8F
:100DD00003464146204600F05FF90BE1207880068B
:100DE00001D5E06900E00620B8F1650F814606D024
:100DF000B8F1660F18D0B8F1670F70D131E000205C
:100E0000B9F1110F009001DB112301E009F1010399
:100E10000AAA01A90CA8FFF7E2FEDDE90C70002682
:100E200009F10105834647E001204B4600904FF051
:100E300000470AAA01A90CA8FFF7D1FEDDE90DB011
:100E40000C995D46002610B909F101000D18B9EBA7
:100E5000050003D4C0F1FF3609F10105A5EB090037
:100E60002BE0B9F1010F01DA4FF001090020B9F1CF
:100E7000110F0090484601DD112300E003460AAA45
:100E800001A90CA8FFF7ABFEDDE90C704D4600266A
:100E90008346207800070AD4AB4500DA5D4601A8F6
:100EA000012D04DD411911F8011C302907D04F45EF
:100EB00002DA17F1040F04DA012082460FE06D1EFA
:100EC000EEE7002F02DCED1B3E4403E0781CA84255
:100ED00000DD7D1CB81B00F1010A4FF000472078AF
:100EE000000703D4AA4501DB4FF0FF3A0021B7F118
:100EF000004F0DF143088DF8431024D002202B231E
:100F0000002F01DA7F422D230A21021EA0F10100E9
:100F100000DC5FB197FBF1FC97FBF1F201FB1C7C5D
:100F200017460CF1300C08F801CDEEE7A8F10100EE
:100F300003702188090501D5452100E06521A0F154
:100F4000010800F8011C09980FA9A1EB0807FF1D73
:100F500000B10120411901EBEA70A1693844081A77
:100F6000401EA0612078C00602D42046FFF75EFB39
:100F7000099828B1D4E901219047206A401C2062D9
:100F80002078C00622D52046FFF750FB1EE0002E39
:100F900004DBB34502DD01A8805D00E03020D4E928
:100FA00001219047206A401C2062761CAAF10100B2
:100FB0005FEA000A0AD100F067F8C0680168405C87
:100FC000D4E901219047206A401C2062281EA5F127
:100FD0000105DCDC07E0D4E9012118F8010B90479A
:100FE000206A401C2062381EA7F10107F3DC20466E
:100FF000FFF732FB032011B041E6000001694A1CF3
:1010000002610878704700B58FB0CDE90131002149
:10101000059105497944CDE9031011466846FFF76B
:10102000BDFB0FB000BD0000E5FFFFFF0A6802F83E
:10103000010B0A60704710B5436913B1AFF300802C
:1010400001E0FFF71AFB012010BD127800F1240126
:101050000A7000224A700122EDE711684FF0FF325A
:10106000E9E70000074B70B50D467B44FFF7CBFF67
:101070000446284600F0C2F810B14FF0FF3070BDB2
:10108000204670BD47A6000000487047A0760724A0
:1010900000487047807607242DE9F0411F4604463A
:1010A00003260168072A01F4006004DB08B116A5D5
:1010B00005E016A503E008B115A500E015A521F08F
:1010C00010002060A069C01EA0610FB1401EA06189
:1010D0002046FFF7ABFA4FB1D4E9012138469047DB
:1010E000206A401C2062C01C206206E0206AFAE7E9
:1010F000D4E9012115F8010B9047761EF8D220465D
:10110000FFF7AAFABDE8F0814E414E006E616E0015
:10111000494E4600696E66002DE9F0478146164645
:101120008AB0354878440DC88DE80D0032487844BF
:10113000801C03AC0DC884E80D0041F69B300844C8
:10114000372190FBF1F290FBF1F5A5F1800501FB51
:1011500012041B3C02D56442012000E00020DFF8AD
:1011600098A080460027FA44AAF1BE0A0EE0E007E4
:101170000AD03246684607EB470101230AEB81019A
:1011800000F003FB8DE8070064107F1C002CEED1FB
:10119000194F7F44AE3F19E0E80715D007EB041064
:1011A0000DF1180A90E80E008AE80E00C068F042BF
:1011B00001D1981908903246012306A903A800F02E
:1011C000E4FA03AB83E807006D10641C002DE3D143
:1011D0004FF0010332466946B8F1000F03A802D070
:1011E00000F0BEFA01E000F0D0FAC9E90001C9F848
:1011F00008200AB0BDE8F087EC100100007B00F089
:101200008000704700487047807607247546FFF7D6
:10121000F9FFAE4605006946534620F007008546B3
:1012200018B020B5FFF7D2F8BDE820404FF0000617
:101230004FF000074FF000084FF0000B21F00701BE
:10124000AC46ACE8C009ACE8C009ACE8C009ACE801
:10125000C0098D46704710B50446AFF300802046A4
:10126000BDE81040FFF79DB85FEA400C08BF91F061
:10127000000F4FEA8C234FEAC12243EA51514FEA53
:101280001C5018BF00F5F0404FEA300018BF41F085
:1012900000415FEA6C5C00F02980BCF1FF3F08BFB1
:1012A00040F080407047130C06BF12044FF0100C42
:1012B0004FF0000C130E04BF12020CF1080C130FB8
:1012C00004BF12010CF1040C930F04BF92000CF147
:1012D000020CD30F04BF52000CF1010C11464FF069
:1012E0000002A0F11F00A0EB0C00704711F0004FAE
:1012F00008BF704731F000413FF4D5AF0B0C06BF7B
:1013000009044FF0100C4FF0000C0B0E04BF090243
:101310000CF1080C0B0F04BF09010CF1040C8B0F2E
:1013200004BF89000CF1020CCB0F04BF49000CF183
:10133000010CCCF12003A0EB0C0022FA03F302FA1B
:101340000CF241EA030100F10100704720F07F4CEC
:1013500080EA030023F07F47ACEB070303F57C53DF
:1013600000F0004003F1FF032DE980494FEA154BDF
:1013700009B44FEA144325EA0B4E24EA03480FF25E
:10138000042606EB132749083E785FEA320203FB86
:101390000667C7F5000707FB06F64FEA54374FEA22
:1013A000D64606F1020607FB066CCCF1005C4FEA5C
:1013B0001C472CEA074C07FB06F40CFB06F504EB74
:1013C00015464FEA961634BF00204FF000404FEA12
:1013D000D13706FB07FC4FEA1C4C0CFB0BF7D21B6A
:1013E00003FB0CF761EB07010CFB0EF7B0EB0740BA
:1013F00072EB17420CFB08F734BFA2EB0742B2EBCB
:10140000074261EB17414FEA0C444FEA910706FB94
:1014100007FC4FEA1C4C0CFB0BF7B0EBC74072EB20
:10142000573203FB0CF734BFA2EBC742B2EBC74203
:1014300061EB57310CFB0EF7B0EBC70072EB577244
:101440000CFB08F734BFA2EBC702B2EBC70261EB9B
:101450005771039F4FEA816141EA921104EBCC047A
:101460004FEAD1374FEA826206FB07FC42EA90124C
:101470004FEA80604FEA1C4C0CFB0BF7D21B03FBBE
:101480000CF761EB07010CFB0EF7B0EB074072EBBA
:1014900017420CFB08F734BFA2EB0742B2EB07423E
:1014A00061EB17414FEA8C554FEA910704EB9C24FE
:1014B00006FB07FC4FEA1C4C0CFB0BF7B0EBC740DC
:1014C00072EB573203FB0CF734BFA2EBC742B2EB0F
:1014D000C74261EB57310CFB0EF7B0EBC70072EB64
:1014E00057720CFB08F734BFA2EBC702B2EBC7027E
:1014F00061EB577115EB4C254FEA816141EA92117E
:101500004FEA82624FEAD13742EA901206FB07FCAB
:1015100044F100044FEA80604FEA1C4C0CFB0BF7CF
:10152000D21B03FB0CF761EB07010CFB0EF7B0EBD2
:10153000074072EB17420CFB08F734BFA2EB0742DF
:10154000B2EB074261EB174115EB1C154FEA8131F5
:1015500041EA92414FEA823242EA90424FEA8030B9
:101560004FEA0C7644F1000448EA03434EEA0B4884
:101570004FF0000EB2EB080C71EB030724BF62467C
:1015800039464EEB0E0E4FF0000B00185241494108
:101590004BEB0B0BB2EB080C71EB03077BF1000B71
:1015A00024BF624639464EEB0E0E4FF0000B00187A
:1015B000524149414BEB0B0BB2EB080C71EB0307AB
:1015C0007BF1000B24BF624639464EEB0E0E51EA0A
:1015D000020718BF46F0010616EB0E7655F1000221
:1015E00054F1000103D5BDE88901BDE80088BDE8DC
:1015F0008901BDE80048B619524141EB0101A3F150
:101600000103704780807F7E7D7C7B7A7978777656
:1016100076757473727171706F6E6E6D6C6C6B6ACF
:101620006A6968686766666564646363626161606D
:10163000605F5F5E5E5D5D5C5C5B5B5A5A595958EA
:101640005857575656555555545453535252525154
:10165000515050504F4F4F4E4E4D4D4D4C4C4C4BAA
:101660004B4B4A4A4A4949494848484747474746F1
:10167000464645454544444444434343434242422D
:1016800042414141002B9C4630D477002BD01CB501
:101690004FEA370703B44FF010004FF01001BAF1D2
:1016A000000F06D0BCF1000FDCBF40F0080040F096
:1016B00008010BF003FD0FBCBDE810400BF1010B5E
:1016C000BBF1010F08BF5FEA170722BF12F1010249
:1016D00011F101014FF0004143F1000300F000401F
:1016E00043EA00007047F9D35708D0E746EA0646B8
:1016F00013F1400F4FEA16461FDD13F1200FDFBF35
:1017000016430A46002120335B42BED0C3F12007B6
:1017100046EA064602FA07F74FEA164646EA070681
:10172000C3F1200722FA03F201FA07F721FA03F1C5
:101730004FF0000342EA0702A7E746EA020646EA3C
:1017400006464FEA164646EA0106BCBF46EA06468A
:10175000360C4FF000034FF000024FF0000194E709
:101760002DE9804C9A46934670B491E8380007C83A
:1017700031EA400C48BF34EA430C03D5FFF7E6FDDD
:10178000FFF780FFF0BCBDE8008C2DE9804C9A4645
:10179000934670B491E8380007C810F0804F08BF36
:1017A00013F0804F03D100F005F8FFF76BFFF0BC9A
:1017B000BDE8008C20F07F4780EA030023F07F4CD7
:1017C00007EB0C03A3F57C5300F00040A3F1FE03EC
:1017D00092F0000F00F0B38095F0000F00F07780DA
:1017E0002DE901494FEA11404FEA144621EA004829
:1017F00000FB06FC24EA064708FB06F607FB08F890
:1018000000FB07F718EB06484CEB164C4FEA124B5F
:1018100018EB07484FEA15464CEB174022EA0B4EEF
:101820000BFB06FC25EA06470EFB06F607FB0EFE41
:101830000BFB07F71EEB064E4CEB164C4FF0000669
:101840001EEB074E4CEB174B18EB0B0840F100005A
:1018500018EB0E0B58EB000840F100008F1A4FF008
:1018600000013CBFC943661B14BFB5EB040C00214B
:101870003CBFC943F61B4FEA17444EEA8E0E27EAD7
:1018800004454FEA1C4704FB07622CEA074C05FBA2
:1018900007F70CFB05F604FB0CFC16EB074642EBC6
:1018A000174216EB0C4642EB1C421BEB060658EBAC
:1018B0000202414146EA9E0601D5BDE80189B619FA
:1018C000524141EB0101A3F10103BDE801894FEA57
:1018D00014454FEA114724EA054621EA074C05FB67
:1018E00007F406FB07F70CFB06F105FB0CFC11EBFC
:1018F000074144EB17444FEA124711EB0C4144EB0C
:101900001C4422EA074C05FB07F206FB07F70CFB19
:1019100006F605FB0CFC16EB074642EB174216EBEE
:101920000C4642EB1C456A1854F1000148BF704751
:10193000B619524141EB0101A3F10103704795F043
:10194000000F37D04FEA11424FEA144721EA02460E
:1019500024EA074C02FB07F106FB07F70CFB06F431
:1019600002FB0CFC14EB074441EB17414FEA15470F
:1019700014EB0C4441EB1C4125EA074C02FB07F534
:1019800006FB07F70CFB06F602FB0CFC16EB074602
:1019900045EB174516EB0C4645EB1C42121951F16D
:1019A000000148BF7047B619524141EB0101A3F154
:1019B000010370474FEA14454FEA114724EA0546F0
:1019C00021EA074C05FB07F106FB07F70CFB06F2C3
:1019D0004FF0000605FB0CFC12EB074241EB1741F0
:1019E00012EB0C4251EB1C4148BF7047921841EB7F
:1019F0000101A3F10103704700BFFEE710B508F035
:101A0000A9FA08F059FA0348006840F004000149B7
:101A1000086010BD9CEF00E0704730B503461446E7
:101A20000022DA680022D1E9000540EA05200D898C
:101A300040EA05400D7B40EA05600243DA60002081
:101A400030BD30B50346144600229A680022D1E921
:101A5000000540EA05200D8940EA05400D7B40EA7B
:101A6000056002439A60002030BD000010B50246B8
:101A70000023136809480340D1E901042043CC68DE
:101A800020430C6920434C6940EA44208C6940EAB9
:101A9000443003431360002010BD00008901F0FFB3
:101AA00070B504461D460023B5F5804F13D154F898
:101AB00022300C480340D1E9000640EA06108E6847
:101AC00040EA06208E8940EA06408E69304303438F
:101AD00044F8223003E06FF0704044F82200002008
:101AE00070BD00000000F0CF10B50246002308686A
:101AF00052F820301B480340D1E901042043CC6850
:101B000020430C6920434C6920438C692043CC69F5
:101B100020430C6A20434C6A20438C6A2043CC6AE1
:101B200020430C6B20438C6B20434C6B20430343BE
:101B30008868082801D143F04003086842F8203043
:101B4000086BB0F5801F05D1086818B110680C6BE0
:101B500020431060086818B110684C6B2043106077
:101B6000002010BD8004C0FF30B50346144600229B
:101B7000601C53F8202002F04042D1E9000540EA01
:101B800005108D6840EA05208D8940EA0545088AE0
:101B9000401E45EA0055087D801E45EA00608D69BB
:101BA00028430243601C43F82020186800F480108A
:101BB00038B1586820F47002088A401E42EA005288
:101BC0005A60002030BD30B502460023002408686A
:101BD000012816D013686FF30E03D1E901052843DD
:101BE000CD6828430D6928434D6928438D692843F2
:101BF000CD6928430D6A28434D6A28430343136087
:101C000019E0136823F4F843D1E9070528434D6A26
:101C10002843034354686FF30E04D1E901052843B8
:101C2000CD6828430D6928434D6928438D692843B1
:101C3000044313605460002030BD0246506940EAFE
:101C4000410050610020704718B503460020009005
:101C5000D1E9000420438C68641E40EA4410CC683B
:101C600040EA4420009000981861002018BD000050
:101C700070B50346154600220024012D1FD09A6836
:101C800002F070420868401E4E68761E40EA061652
:101C90008868401E46EA0026C868401E46EA0036AC
:101CA000088A401E46EA0046888A401E46EA0056D8
:101CB000087E401E46EA006002439A6022E09A686D
:101CC00011480240C868401E0603888A401E46EA42
:101CD00000500243DC6804F070440868401E4E68FF
:101CE000761E40EA06168868401E46EA0026088AE4
:101CF000401E46EA0046087E401E46EA0060044355
:101D00009A60DC60002070BDFF0F0FFF38B50446FD
:101D10004FF0AA3000900949897901FB04F00423AF
:101D20006A46002107F076FF044989796143481C1F
:101D300004236A46002107F06DFF38BD80050024AA
:101D40002DE9FC4704460D4600275DE04FF00008F2
:101D500020E001A830490090B1F802904FEAE97103
:101D600009EB91718B102C49897901FB04F02A460B
:101D7000002107F083FD28494888C11700EB9171C5
:101D8000BDF80420B2EBA10F00D007E008F101007C
:101D90001FFA80F8204880794045DADC00BF1E48F1
:101DA0008079404502D10020BDE8FC87204607F03D
:101DB000D7FA064626B1394618A0FEF717FC21E0EF
:101DC000681CF8B10020019016E01349B1F80290A8
:101DD0004FEAE97109EB91718B100F498979BDF8D0
:101DE000042004FB01200022114607F0E1FEBDF8AB
:101DF0000400401C80B2019007488079BDF80410AF
:101E00008842E2DC781C87B2032F9FDB214609A0C1
:101E1000FEF7ECFB0120C7E7800500246572726FB6
:101E20007220657261736520626C6F636B3A256422
:101E30000D0A000062616420626C6F636B2063684E
:101E400065636B65643A25640D0A000038B5044685
:101E5000002000900F49897901FB04F001236A46B4
:101E6000002107F053FD9DF80000FF2810D109491B
:101E700089796143481C01236A46002107F046FD29
:101E80009DF80000FF2801D1002038BD0120FCE7AB
:101E90000220FAE7800500242DE9FE4F81460F4617
:101EA00092461D46002400200290804601900026A4
:101EB0003B488079B9FBF0F839488079B9FBF0F1FB
:101EC00000FB1190019000BF404600F0E1F806468B
:101ED00033484089B04202D20120BDE8FE8F002481
:101EE0003AE00198844221D305B32D484088C01BB5
:101EF000A84205D22A484088C01B1FFA80FB01E097
:101F00001FFA85FB264ACDF800B0927906FB024104
:101F1000234A927908FB024053463A4607F032F8CA
:101F200002900027DA44A5EB0B050AE01C4A9279DF
:101F300006FB02411A4A927908FB024007F026F993
:101F40000290029830B13046FFF7E0FE012000F029
:101F500029F8B9E7601C84B211488079A042C0DC3E
:101F60000F488079A04219D1304600F099FA4046D6
:101F700007F0F6F900240CE00948406930F8140035
:101F8000404504D10649496921F8146005E0601C08
:101F900084B203484089A042EEDC00BF00209CE7E9
:101FA00080050024F8B505460026002406E04FF61B
:101FB000FF703049496921F81400641C2D4840899C
:101FC000A042F4D800202B498881002433E029491D
:101FD000897901FB04F004236A46002107F096FC8E
:101FE0009DF80000FF2809D145B122498979614354
:101FF000481C01236A46002107F088FC9DF8000078
:10200000FF2813D19DF802009DF8031000EB012674
:1020100018484089B04203D91649496921F8164049
:1020200014488089401C1349888103E0214612A08E
:10203000FEF7DCFA641C0F484089A042C7D8002490
:102040000BE00C48406930F814000A49498988427D
:1020500002DB0849CC8104E0641C06484089A042A8
:10206000EFD800BF0348C089642801DA0220F8BD18
:102070000020FCE78005002462616420626C6F63CD
:102080006B20696E6465783A25640D0A00000000D3
:1020900070B50546002418484089401E1749096854
:1020A000884204D214484089401E1449086005F053
:1020B00001011248006800F023F80446601C90B942
:1020C0000D484089401E0D49096888420BD90A48CD
:1020D0004089401E0949086005F001010748006871
:1020E00000F00EF80446601C10B94FF0FF3070BDD0
:1020F000024804602046FAE78005002434000024EA
:10210000F8B505460E460020009000246C1C14E033
:10211000601E00F00100B0420ED1611E094A9279A2
:1021200001FB02F004236A46002107F0EFFB009850
:10213000401C08B9601EF8BD641E002CE8D1601E6A
:10214000F9E7000080050024F8B5002600202D499D
:102150008881002417E02046FFF778FE05468DB9F8
:10216000204607F0FDF805463DB1214626A0FEF7C2
:102170003DFA2046FFF7CAFD04E022488089401C52
:1021800020498881641C1F484089A042E3D81D482B
:10219000818921A0FEF72AFA1A488089642801DA89
:1021A0000120F8BD17488089C0EB401000EB4000CB
:1021B000642190FBF1F600200090002415E02046F9
:1021C000FFF744FE05467DB90E49897901FB04F00D
:1021D00002236A46194607F01DFD0098401C009036
:1021E0000098B04200D104E0641C06484089A04237
:1021F000E5D800BF0120FFF7D5FE08B10220D0E7E7
:102200000020CEE78005002442616420626C6F6389
:102210006B3A25640D0A0000676F6F645F626C6F34
:10222000636B6E756D3A25640D0A000010B507F0FA
:10223000EFF808B1012010BD1F48406920B11E48C9
:102240004169002009F03EFC1B4840894100002004
:1022500009F04AFC184948610A4652895100164A59
:102260005069FEF791FB1448406908B90120E2E784
:102270000120FFF797FE044664B110A0FEF7B6F9FF
:10228000FFF762FF0446002C13D012A0FEF7AEF950
:102290000220D0E70848418913A0FEF7A7F90648B5
:1022A000818917A0FEF7A2F90348C18919A0FEF79A
:1022B0009DF90020BFE7000080050024666F726D65
:1022C0006174206E616E6420666C6173682E2E2EC0
:1022D0000D0A0000666F726D6174206661696C653D
:1022E00064210D0A00000000746F74616C20626C40
:1022F0006F636B206E756D3A25640D0A0000000057
:10230000676F6F6420626C6F636B206E756D3A252A
:10231000640D0A0076616C696420626C6F636B20E7
:102320006E756D3A25640D0A00000000014600221A
:102330000648C089884202D24FF6FF7070470348B2
:10234000406930F811201046F8E7000080050024AD
:102350002DE9FF4F83B014469A460026002500BFA2
:1023600097E04E48408890FBF4F04C498979484307
:1023700004992944B1FBF0F002900298FFF7D6FFD0
:10238000834646484189594503D8012007B0BDE836
:10239000F08F4248408890FBF4F0404989794843E7
:1023A00004992944B1FBF0F200FB12106043019044
:1023B0003A4841880198B0FBF1F0384989790BFB24
:1023C0000108364841880198B0FBF1F201FB12097F
:1023D00032484088A0EB0900B0FBF4F087B2AAEBCA
:1023E0000500B84202D2AAEB050087B207FB04F051
:1023F00083B21FFA89F14046039A07F0F1F80646C6
:10240000032E39D107FB04F083B21FFA89F140464D
:10241000039A07F0E5F80646032E2DD107FB04F3D7
:102420001FFA89F14046039AFFF736FD1B48807971
:10243000B8FBF0F0311F0090FFF782FC06467EB932
:1024400016488079B8FBF0F000210090FFF778FC87
:10245000064612488079B8FBF0F0009006F080FF45
:102460004EB10E488079B8FBF0F00090FFF74EFCBB
:102470000120FFF797FD0026042E00D100260EB1A3
:10248000022083E7039804FB07000390781E0544AD
:102490006D1C5545FFF465AF002077E780050024EB
:1024A00038B50446CC20009000250649897901FB07
:1024B00004F001236A46194607F0ACFB054628469E
:1024C00038BD0000800500242DE9FF4F87B0144679
:1024D0009A464FF0000B0025681E029000BFA7E04F
:1024E0005648408890FBF4F054498979484308994C
:1024F0002944B1FBF0F005900598FFF717FF064659
:102500004E484189B14203D801200BB0BDE8F08F9D
:102510004A48408890FBF4F0484989794843089933
:102520002944B1FBF0F200FB1210604303904348D2
:1025300041880398B0FBF1F04049897906FB01001E
:1025400004903E4841880398B0FBF1F201FB120968
:102550003A484088A0EB090080B20690BDF8180008
:1025600090FBF4F080B20690AAEB050087B2BDF8AC
:102570001800874201DBBDF8187007FB04F806A8B5
:102580001FFA89F1C8F38F034FF0FF3200900498CF
:1025900007F074F98346BBF1000F01D00220B4E7C5
:1025A000BDF81800B0EB980F09D11FFA88F31FFA95
:1025B00089F1079A049807F039FA834601E04FF051
:1025C000010BBBF1000F07D10298B04204D0304696
:1025D000FFF766FF83460296BBF1000F22D0174833
:1025E00080791649498848430399401AB0FBF4F0B2
:1025F00080B20690AAEB050087B2BDF818008742AA
:1026000001DBBDF8187007FB04F81FFA89F1434697
:10261000079A0498FFF740FC8346BBF1000F01D0F6
:10262000032072E7781E05440798404407906D1C0C
:102630005545FFF455AF002067E7000080050024F2
:1026400010B504460CB9012010BD94F835000228DD
:1026500003D0802060650120F6E734492068884275
:1026600005D333492068884201D8012000E00020CA
:10267000C0B1042084F835002C49206888420AD370
:102680002B492068884206D82068006820F00100A5
:102690002168086048E02068006820F00100216897
:1026A000086041E02068006820F00E0021680860A2
:1026B0001E49206888420AD31D492068884206D8EE
:1026C0002068006820F001002168086005E02068AB
:1026D000006820F0010021680860206E006820F486
:1026E0008070216E086094F85C10012088401149C8
:1026F0000860D4E919104860E06E40B1E06E0068EF
:1027000020F48070E16E0860D4E91C10486000BFBE
:10271000002084F8340000BF012084F83500206DCB
:1027200010B12046216D884700208DE7100002403F
:10273000B8040240045402580348006840F0010005
:10274000014908607047000020040058F8B50246AF
:102750000B460021002600240020824D00BFFCE033
:10276000012707FA01F61F6807EA0604B4427CD184
:102770005F68022F02D05F68122F1AD14FEAD10C86
:1027800002F1200757F82C004F074FEAD76C0F27AC
:1027900007FA0CF7B8434FEA417C4FEADC6C1F693B
:1027A00007FA0CF738434FEAD10C02F1200747F83B
:1027B0002C0010684FEA410C032707FA0CF7B843C6
:1027C0001F7907F003074FEA410C07FA0CF738436B
:1027D00010605F68012F08D05F68022F05D05F6826
:1027E000112F02D05F68122F17D190684FEA410C69
:1027F000032707FA0CF7B8434FEA410CDF6807FAE2
:102800000CF738439060506801278F40B8431F7918
:10281000C7F300178F4038435060D0684FEA410C2F
:10282000032707FA0CF7B8434FEA410C9F6807FAF1
:102830000CF73843D0605F6807F08057B7F1805FCE
:1028400095D100BF484F3F6847F00207DFF818C135
:10285000CCF8007067463F6807F00207009700BF9A
:1028600000BF424F4FEA910C00E075E057F82C0092
:102870008F074FEA177C0F2707FA0CF7B8433C4F36
:10288000BA4201D100272DE03A4FBA4201D10127C7
:1028900028E0394FBA4201D1022723E0374FBA422C
:1028A00001D103271EE0364FBA4201D1042719E0B7
:1028B000344FBA4201D1052714E0334FBA4201D157
:1028C00006270FE0314FBA4201D107270AE0304F07
:1028D000BA4201D1082705E02E4FBA4201D109279B
:1028E00000E00A274FEA817C4FEA1C7C07FA0CF7CC
:1028F00038431E4F4FEA910C47F82C002868A0433C
:102900005F6807F48037B7F5803F00D12043286027
:102910006868A0435F6807F40037B7F5003F00D14F
:10292000204368604FF0B0473868A0435F6807F401
:102930008017B7F5801F00D120434FF0B0473860B3
:102940007868A0435F6807F40017B7F5001F00D14F
:1029500020434FF0B0477860491C1029FFF400AFC6
:10296000F8BD000080000058F444025808040058E4
:10297000000002580004025800080258000C0258D7
:10298000001002580014025800180258001C025887
:102990000020025800240258024613690B400BB174
:1029A000012000E00020704742694A4042617047C0
:1029B0000AB1018300E041837047000001480068CC
:1029C0007047000018000024034800680349097894
:1029D00008440149086070471800002420000024C2
:1029E00010B5032000F052FB0F2000F007F808B1EB
:1029F000012010BD00F058FA0020FAE770B5044637
:102A00000E4800784FF47A71B1FBF0F00C49096878
:102A1000B1FBF0F5284602F0C7FA08B1012070BDFD
:102A2000102C07D200222146501E00F0F1FA054872
:102A3000046001E00120F2E70020F0E7200000241C
:102A4000040000241C00002470B504460E46154600
:102A500000BF94F8A000012801D1022070BD012020
:102A600084F8A00000BF022084F8A10005EB8501D6
:102A700001EBC50204F1380101EB8200342231463A
:102A8000FDF750FF2A463146204606F02BF901207B
:102A90002168486284F8A10000BF002084F8A000EB
:102AA00000BF00BFDAE7000070B50446002500262D
:102AB0000CB9012070BD94F8A10028B9002084F859
:102AC000A000204600F07EF8022084F8A1002068D3
:102AD000806920F0704021688861D4E901010843D1
:102AE000E16808432169084321688969084321682E
:102AF0008861206880683249084021688860A08A1F
:102B0000050420688068A16929430843216888601A
:102B10002068C0682A4908402168C860A08B050465
:102B20002068C068216A294308432168C86020687A
:102B300000692349084021680861A08C05042068C9
:102B40000069A16A29430843216808612068406937
:102B50001B49084021684861A08D05042068406930
:102B6000216B294308432168486194F83500050228
:102B700094F8360006042068C06A00F07F4021689F
:102B8000C86246EA050094F8341008432168C96A0F
:102B900008432168C8622068406B40F00600216845
:102BA00048632068806940F0010021688861002046
:102BB000C4F8A400012084F8A10000207AE70000F6
:102BC00000F800F010B586B0044600BF4848006821
:102BD00040F00800464908600846006800F0080018
:102BE000009000BF00BF00BF41481038006840F0AF
:102BF00010003F49103908600846006800F01000D6
:102C0000009000BF00BF00BF3948001F006840F0BF
:102C100002003749091F08600846006800F00200FA
:102C2000009000BF00BF00BF0846006840F02000D1
:102C300008600846006800F02000009000BF00BF58
:102C400000BF0846006840F0400008600846006881
:102C500000F04000009000BF00BF00BF08460068C1
:102C600040F0800008600846006800F08000009096
:102C700000BF00BF00BF0846006840F480700860D5
:102C80000846006800F48070009000BF00BF20205C
:102C900001900120029003900320049001A915489F
:102CA000FFF754FD4FF48060019002200290002055
:102CB0000390032004900E20059001A90E48FFF711
:102CC00045FD4FF40C60019001A90C48FFF73EFD53
:102CD0004FF47E40019001A90948FFF737FD40F20B
:102CE000F760019001A90748FFF730FD06B010BD5D
:102CF000E444025800040258001402580018025814
:102D0000001C0258002002582DE9F04104460E46EE
:102D10001746984600BF94F8A000012802D102206F
:102D2000BDE8F081012084F8A00000BF022084F8F3
:102D3000A10008EB880000EBC80104F1380000EBAB
:102D400081052E60A86A30446860AF60E86A384444
:102D5000E86042462946204605F0C4FF012021686C
:102D6000486284F8A10000BF002084F8A00000BFE2
:102D700000BFD5E72DE9F04104460E4617469846B8
:102D800000BF94F8A000012802D10220BDE8F08124
:102D9000012084F8A00000BF022084F8A10008EB05
:102DA000880000EBC80104F1380000EB81052868B9
:102DB00030446860A8683844E860AE62EF6242461A
:102DC0002946204605F08EFF01202168486284F8DC
:102DD000A10000BF002084F8A00000BF00BFD5E71D
:102DE0004178154A11600178F9B1121D41681160EE
:102DF000017B0907C27A41EA0261827A41EAC24153
:102E0000427B41EA8241827B41EA4241C27B41EA04
:102E10000241427A41EA0221027A41EA4201027801
:102E20001143054A0832116005E00021024A121DD3
:102E30001160121D1160704798ED00E000BF00BFE7
:102E400000BFBFF35F8F00BF00BF00BF0548006831
:102E500020F4803003490860002002497031086086
:102E60007047000024ED00E040F001010D4A1160C0
:102E70000C497039096841F480310A4A703A11608E
:102E800000BF00BF00BFBFF34F8F00BF00BF00BF38
:102E900000BF00BF00BFBFF36F8F00BF00BF00BF08
:102EA0007047000094ED00E07047000070B50446E4
:102EB0000E4615460CB9012070BD94F8210028B9C2
:102EC000002084F82000204600F022F8211D206810
:102ED000FEF7CCFD3146D4E90002FEF7B2FD2946EB
:102EE000D4E90002FEF799FD2068006840F0040074
:102EF000216808600548006840F000400349086008
:102F0000012084F821000020D6E700000040005294
:102F100010B586B0044600BF3148006840F48050C8
:102F20002F4908600846006800F48050009000BFF8
:102F300000BF00BF2A480C30006840F00800284954
:102F40000C3108600846006800F00800009000BFDF
:102F500000BF00BF0846006840F010000860084647
:102F6000006800F01000009000BF00BF00BF0846DE
:102F7000006840F0400008600846006800F040002B
:102F8000009000BF00BF402001900020029001206F
:102F900003900320049001A91248FFF7D7FB4FF4D8
:102FA0000070019002200290002003900320049002
:102FB0000C20059001A90C48FFF7C8FB4DF6330023
:102FC00001900020039001A90648FFF7BFFB4FF4D2
:102FD000F060019001A90548FFF7B8FB06B010BDED
:102FE000D4440258000C025800180258001002582D
:102FF00001460846002809DB00F01F0301229A4021
:1030000043099B0003F1E023C3F8002100BF704790
:103010002DE9F05F80460D46164608F0BBF80746DE
:1030200039462A46334601F00700C0F1070ABAF1D3
:10303000040F02D94FF0040A01E0C0F1070AD1469B
:1030400000F1040ABAF1070F02D24FF0000A01E0C2
:10305000A0F1030AD4464FF0010A0AFA09FAAAF1CC
:10306000010A0AEA020A0AFA0CFA4FF0010B0BFAFB
:103070000CFBABF1010B0BEA030B4AEA0B042146F4
:10308000404608F08FF8BDE8F09F000000BF00F058
:103090000702064B19684FF6FF031940044B0B4318
:1030A00043EA0221014B196000BF70470CED00E0BC
:1030B0000000FA0510B501F067F90949096801F443
:1030C00070614FF4807292FAA2F2B2FA82F2D140A9
:1030D000044A515CC840044908600846006810BDB5
:1030E0001844025810D100080400002410B501F063
:1030F00003F90749096801F07001102292FAA2F25F
:10310000B2FA82F2D140034A515CC84010BD0000BF
:103110002044025810D1000870B501460022012059
:10312000002300249FED811AB0EE410A9FED7F1A23
:10313000F0EE410A7E4D2D6805F003027C4D2D68AE
:10314000C5F305307A4D2D1D2D6805F01003784D1F
:1031500014352D68C5F3CC0515FB03F501EE105AA7
:10316000B8EE411AB0EE410A22B1012A4DD0022A2E
:103170007DD169E06E4D283D2D68C5F340152DB316
:103180006B4D283D2D68C5F3C1066A4D25FA06F43E
:10319000B4FBF0F501EE105AF8EE411A9FED661AF5
:1031A00080EE012A624D10352D68C5F3080501EE49
:1031B000105AB8EE411A32EE011AB7EE002A31EE7B
:1031C000021A21EE811AF0EE410A1DE0594DB5FBBD
:1031D000F0F501EE105AF8EE411A9FED571A80EE05
:1031E000012A534D10352D68C5F3080501EE105A1C
:1031F000B8EE411A32EE011AB7EE002A31EE021A89
:1032000021EE811AF0EE410A5EE04C4DB5FBF0F57F
:1032100001EE105AB8EE412A9FED471AC0EE011A8E
:10322000434D10352D68C5F3080501EE105AB8EE70
:10323000411A31EE811AF7EE001A31EE211A22EE10
:10324000011AF0EE410A3FE03D4DB5FBF0F501EE0D
:10325000105AF8EE411A9FED381A80EE012A344DCB
:1032600010352D68C5F3080501EE105A00E00CE09A
:10327000B8EE411A32EE011AB7EE002A31EE021A08
:1032800021EE811AF0EE410A1EE02C4DB5FBF0F55F
:1032900001EE105AB8EE412A9FED271AC0EE011A2E
:1032A000234D10352D68C5F3080501EE105AB8EE10
:1032B000411A31EE811AF7EE001A31EE211A22EE90
:1032C000011AF0EE410A00BF00BF194D10352D68FC
:1032D000C5F346256D1C01EE105AB8EE411AC0EE3A
:1032E000811ABCEEE11A81ED001A114D10352D68DE
:1032F000C5F306456D1C01EE105AB8EE411AC0EE3A
:10330000811ABCEEE11A81ED011A094D10352D68C4
:10331000C5F306656D1C01EE105AB8EE411AC0EEF9
:10332000811ABCEEE11A81ED021A70BD00000000A6
:10333000284402580090D0030000004600093D00D8
:1033400040787D0170B50146002201200023002451
:103350009FED811AB0EE410A9FED7F1AF0EE410A0F
:103360007E4D2D6805F003027C4D2D68C5F3055098
:103370007A4D2D1D2D6805F48073784D1C352D6810
:10338000C5F3CC0515FB03F501EE105AB8EE411A52
:10339000B0EE410A22B1012A4DD0022A7DD169E066
:1033A0006E4D283D2D68C5F340152DB36B4D283D5E
:1033B0002D68C5F3C1066A4D25FA06F4B4FBF0F595
:1033C00001EE105AF8EE411A9FED661A80EE012ABE
:1033D000624D18352D68C5F3080501EE105AB8EE98
:1033E000411A32EE011AB7EE002A31EE021A21EE2E
:1033F000811AF0EE410A1DE0594DB5FBF0F501EEE2
:10340000105AF8EE411A9FED571A80EE012A534DDB
:1034100018352D68C5F3080501EE105AB8EE411AAB
:1034200032EE011AB7EE002A31EE021A21EE811AAD
:10343000F0EE410A5EE04C4DB5FBF0F501EE105A9E
:10344000B8EE412A9FED471AC0EE011A434D1835D8
:103450002D68C5F3080501EE105AB8EE411A31EE99
:10346000811AF7EE001A31EE211A22EE011AF0EE5F
:10347000410A3FE03D4DB5FBF0F501EE105AF8EE84
:10348000411A9FED381A80EE012A344D18352D6807
:10349000C5F3080501EE105A00E00CE0B8EE411A41
:1034A00032EE011AB7EE002A31EE021A21EE811A2D
:1034B000F0EE410A1EE02C4DB5FBF0F501EE105A7E
:1034C000B8EE412A9FED271AC0EE011A234D183598
:1034D0002D68C5F3080501EE105AB8EE411A31EE19
:1034E000811AF7EE001A31EE211A22EE011AF0EEDF
:1034F000410A00BF00BF194D18352D68C5F3462598
:103500006D1C01EE105AB8EE411AC0EE811ABCEEE5
:10351000E11A81ED001A114D18352D68C5F30645E5
:103520006D1C01EE105AB8EE411AC0EE811ABCEEC5
:10353000E11A81ED011A094D18352D68C5F30665AC
:103540006D1C01EE105AB8EE411AC0EE811ABCEEA5
:10355000E11A81ED021A70BD0000000028440258F3
:103560000090D0030000004600093D0040787D0136
:103570002DE9F041044600250026206800F0006097
:10358000B0F1006F30D1606E48B1B0F5801F0DD042
:10359000B0F5001F10D0B0F5401F15D113E0F94869
:1035A000006840F40030F74908600FE00221201D58
:1035B00006F052FB054609E0022104F1240006F062
:1035C000E3FB054602E001E0012500BF00BF55B95D
:1035D000EC482430006820F44010616E0843E9494B
:1035E0002431086000E02E43208800F48070B0F59C
:1035F000807F2DD1606D05281AD2DFE800F0030A24
:1036000010171800DF48006840F40030DD490860FA
:1036100010E00021201D06F01FFB05460AE00021F6
:1036200004F1240006F0B0FB054603E002E001E0EF
:10363000012500BF00BF55B9D2482430006820F0F2
:103640000700616D0843CF492431086000E02E4334
:10365000208800F40070B0F5007F33D1A06D802881
:1036600017D003DC40B140281CD10CE0C02817D093
:10367000B0F5807F16D114E0C248006840F40030F5
:10368000C049086010E00021201D06F0E5FA05465B
:103690000AE0002104F1240006F076FB054603E071
:1036A00002E001E0012500BF00BF55B9B548243054
:1036B000006820F4E070A16D0843B249243108602D
:1036C00000E02E43208800F48060B0F5806F38D190
:1036D000D4F8A400B0F5800F19D004DC50B1B0F5D7
:1036E000001F1DD10DE0B0F5C00F17D0B0F5000FD1
:1036F00016D114E0A348006840F40030A1490860E6
:1037000010E00021201D06F0A7FA05460AE000217E
:1037100004F1240006F038FB054603E002E001E076
:10372000012500BF00BF5DB996482C30006820F429
:103730006000D4F8A410084392492C31086000E0DE
:103740002E43208800F40060B0F5006F38D1D4F823
:10375000A800B0F1007F19D004DC50B1B0F1807F37
:103760001DD10DE0B0F1407F17D0B0F1806F16D1C0
:1037700014E08448006840F400308249086010E09A
:103780000021201D06F068FA05460AE0002104F138
:10379000240006F0F9FA054603E002E001E0012505
:1037A00000BF00BF5DB977482C30006820F0E060B2
:1037B000D4F8A810084373492C31086000E02E4368
:1037C000206800F00070B0F1007F27D1A06CA0B19C
:1037D000102804D0202809D030280FD10CE06948E7
:1037E000006840F400306749086009E00221201DAC
:1037F00006F032FA054603E002E001E0012500BFD1
:1038000000BF55B95F482030006820F03000A16C3F
:1038100008435C492031086000E02E43208800F412
:103820008050B0F5805F36D1E06DB0F5005F19D003
:1038300004DC50B1B0F5805F1DD10DE0B0F5405F04
:1038400017D0B0F5804F16D114E04E48006840F410
:1038500000304C49086010E00021201D06F0FCF902
:1038600005460AE0002104F1240006F08DFA054621
:1038700003E002E001E0012500BF00BF55B9414867
:103880002430006820F4E040E16D08433D492431D4
:10389000086000E02E43208800F40050B0F5005F7F
:1038A00034D1206EB0F5403F1DD007DC68B1B0F5D3
:1038B000803F0BD0B0F5003F18D10DE0B0F5802F60
:1038C00012D0B0F5A02F11D10FE011E00121201D81
:1038D00006F0C2F905460BE0012104F1240006F0D0
:1038E00053FA054604E003E002E001E0012500BFD1
:1038F00000BF55B923482430006820F4E020216E31
:10390000084320492431086000E02E43208800F459
:103910008040B0F5804F38D1D4F8AC00B0F1405FB2
:103920001DD007DC68B1B0F1805F0BD0B0F1005F53
:1039300018D10DE0B0F1804F12D0B0F1A04F11D1ED
:103940000FE011E00121201D06F086F905460BE08D
:10395000012104F1240006F017FA054604E003E013
:1039600002E001E0012500BF00BF6DB905482C3021
:10397000006820F0E040D4F8AC10084301492C3135
:10398000086002E02C4402582E43208800F40040D6
:10399000B0F5004F26D1E06E98B1B0F1805F03D052
:1039A000B0F1005F0ED106E0FA48006840F4003044
:1039B000F849086008E00121201D06F04DF9054690
:1039C00002E001E0012500BF00BF55B9F1482430F5
:1039D000006820F04050E16E0843EE492431086051
:1039E00000E02E43206800F08070B0F1807F27D186
:1039F000606CA0B1012804D0022809D003280FD19F
:103A00000CE0E448006840F40030E249086009E056
:103A10000221201D06F020F9054603E002E001E046
:103A2000012500BF00BF55B9DA482030006820F0FA
:103A30000300616C0843D7492031086000E02E4341
:103A4000206800F48000B0F5800F7DD1D248006876
:103A500040F48070D0490860FEF7B0FF074606E0EA
:103A6000FEF7ACFFC01B642801D9032505E0CA4856
:103A7000006800F480700028F2D000BF8DBBC548FC
:103A80004430006800F44070B4F8B01001F44071A4
:103A9000884214D0BF484430006820F44078BD48C4
:103AA0004430006840F48030BA4944310860084628
:103AB000006820F4803008600846C0F80080D4F820
:103AC000B000B0F5807F15D1FEF778FF074609E01A
:103AD000FEF774FFC01B41F28831884202D90325EA
:103AE00007E038E0AB4844300068C0F340000028ED
:103AF000EED000BF4DBB00BFB4F8B00000F4407082
:103B0000B0F5407F0ED1A3481C38006820F47C51EA
:103B1000A24AD4F8B000104041EA10109D491C3967
:103B2000086007E09B481C38006820F47C509949E5
:103B30001C390860974844300068B4F8B010C1F3ED
:103B40000B010843934901E006E002E044310860BC
:103B500002E02E4300E02E43207800F0010068B31D
:103B6000A06F182819D005DC48B1082808D0102803
:103B700016D10BE0202811D0282811D10FE011E038
:103B80000121201D06F068F805460BE0012104F133
:103B9000240006F0F9F8054604E003E002E001E045
:103BA000012500BF00BF55B97A482830006820F0D1
:103BB0003800A16F084377492831086000E02E43A0
:103BC000207800F00200022828D1606F062815D264
:103BD000DFE800F003040A11121311E00121201D97
:103BE00006F03AF805460BE0012104F1240006F046
:103BF000CBF8054604E003E002E001E0012500BF48
:103C000000BF55B963482830006820F00700616F95
:103C1000084360492831086000E02E43207800F016
:103C2000040004282AD1D4F89000062815D2DFE831
:103C300000F003040A11121311E00121201D06F007
:103C40000BF805460BE0012104F1240006F09CF876
:103C5000054604E003E002E001E0012500BF00BFEB
:103C60005DB94C482C30006820F00700D4F8901063
:103C7000084348492C31086000E02E43207800F0CA
:103C80002000202836D1D4F88C00B0F1405F1DD040
:103C900007DC68B1B0F1805F0BD0B0F1005F18D1E4
:103CA0000DE0B0F1804F12D0B0F1A04F11D10FE074
:103CB00011E00021201D05F0CFFF05460BE0022199
:103CC00004F1240006F060F8054604E003E002E099
:103CD00001E0012500BF00BF5DB92E482830006813
:103CE00020F0E040D4F88C1008432A4928310860BD
:103CF00000E02E43207800F04000402836D1D4F870
:103D00009800B0F5406F1DD007DC68B1B0F5806F4A
:103D10000BD0B0F5006F18D10DE0B0F5805F12D078
:103D2000B0F5A05F11D10FE011E00021201D05F0DA
:103D300093FF05460BE0022104F1240006F024F86D
:103D4000054604E003E002E001E0012500BF00BFFA
:103D50005DB910482C30006820F4E050D4F8981079
:103D600008430C492C31086000E02E43207800F015
:103D7000800080283BD1D4F89C00B0F5C04F24D0FF
:103D80000EDCA0B1B0F5005F12D0B0F5804F1FD1AE
:103D900014E000002C44025800480258FFFCFF0FBA
:103DA000B0F5004F12D0B0F5204F11D10FE011E067
:103DB0000021201D05F050FF05460BE0022104F113
:103DC000240005F0E1FF054604E003E002E001E025
:103DD000012500BF00BF4DB9B248006820F4604023
:103DE000D4F89C100843AF49086000E02E432078C7
:103DF00000F00800082816D1D4F88000B0F5805FE4
:103E000006D1022104F1240005F0BEFF06430AE0BA
:103E1000A448001F006820F44050D4F880100843E4
:103E2000A049091F0860207800F01000102814D164
:103E3000D4F89400B0F5807F06D1022104F124006B
:103E400005F0A2FF064308E09648006820F44070A1
:103E5000D4F89410084393490860206800F40020C7
:103E6000B0F5002F26D1D4F8A00030B1B0F5803FD6
:103E700009D0B0F5003F0ED10CE00021201D05F067
:103E8000EBFE054609E0022104F1240005F07CFF69
:103E9000054602E001E0012500BF00BF4DB98148A1
:103EA000006820F44030D4F8A01008437D49086031
:103EB00000E02E43206800F48020B0F5802F2DD143
:103EC000D4F88400B0F5801F06D0B0F5001F0CD0E8
:103ED000B0F5401F11D10FE072482C38006840F453
:103EE000003070492C39086009E0012104F12400F8
:103EF00005F04AFF054602E001E0012500BF00BFD2
:103F00005DB96848001F006820F44010D4F88410A0
:103F100008436449091F086000E02E43206800F44C
:103F20008030B0F5803F24D1E06C18B1B0F5803F0F
:103F30000FD108E05B482C38006840F40030594944
:103F40002C39086007E00221201D05F085FE05469A
:103F500001E0012500BF00BF55B952480C38006888
:103F600020F48030E16C08434E490C39086000E0D1
:103F70002E43206800F00050B0F1005F05D102210F
:103F800004F1240005F000FF0643206800F400302F
:103F9000B0F5003F27D1E06FA0B1B0F5807F06D02B
:103FA000B0F5007F0CD0B0F5407F0CD109E03D4862
:103FB0002C38006840F400303A492C39086004E09D
:103FC00003E002E001E0012500BF00BF55B935481C
:103FD000001F006820F44070E16F08433149091F59
:103FE000086000E02E43206800F48010B0F5801FC8
:103FF00009D12C480838006820F00040216F0843A0
:10400000284908390860206800F08050B0F1805FCE
:104010000AD124484838006820F48040D4F8B4100D
:104020000843204948390860206800F40010B0F5C2
:10403000001F09D11B480838006820F08070A16E6D
:104040000843184908390860206800F08040B0F142
:10405000804F11D100BF13484838006820F4004059
:1040600010494839086008460068D4F8B810084379
:104070000C494839086000BF206800F00040B0F1EA
:10408000004F09D107480C38006820F04050216DDE
:10409000084304490C39086016B90020BDE8F081D6
:1040A0000120FBE75844025870B504460D4600262F
:1040B0008D48006800F00700A8420ED28A480068C8
:1040C00020F007002843884908600846006800F08F
:1040D0000700A84201D0012070BD207800F0020046
:1040E000022807D18148006820F00F00E1680843EA
:1040F0007E490860207800F00100002851D07B48FC
:10410000006820F47060A16808437849086060681E
:10411000022807D1754818380068C0F34040F8B944
:104120000120D9E76068032807D170481838006873
:10413000C0F34060A0B90120CEE76068012807D134
:104140006A4818380068C0F3002048B90120C3E766
:10415000664818380068C0F3800008B90120BBE742
:1041600062480838006820F00700616808435F492A
:1041700008390860FEF722FC06466068022811D163
:1041800008E0FEF71BFC801B41F28831884201D910
:104190000320A1E755480838006800F038001028CF
:1041A000EFD13AE06068032811D108E0FEF706FC81
:1041B000801B41F28831884201D903208CE74B48AB
:1041C0000838006800F038001828EFD125E0606852
:1041D000012811D108E0FEF7F1FB801B41F2883184
:1041E000884201D9032077E740480838006800F08A
:1041F00038000828EFD110E008E0FEF7DFFB801B55
:1042000041F28831884201D9032065E737480838F0
:10421000006800F038000028EFD13348006800F053
:104220000700A8420ED93048006820F00700284354
:104230002D4908600846006800F00700A84201D038
:10424000012049E7207800F00400042807D127481E
:10425000006820F070002169084324490860207834
:1042600000F00800082809D12048001D006820F04F
:104270007000616908431D49091D0860207800F03D
:104280001000102809D11948001D006820F4E060D2
:10429000A16908431549091D0860207800F0200035
:1042A000202809D111480830006820F07000E16929
:1042B00008430E490831086000F066F80B490968A8
:1042C00001F470614FF4807292FAA2F2B2FA82F2B3
:1042D000D140074A515CC840064908600F20FEF7EC
:1042E0008DFB0020F8E60000002000521844025820
:1042F00010D100080400002410B5FEF7DBFE0949C8
:10430000096801F00F01012292FAA2F2B2FA82F2D8
:10431000D140054A515CC84004490860084600681D
:1043200010BD00001844025810D1000808000024F5
:1043300010B5FFF7E1FF0749096801F0700110228D
:1043400092FAA2F2B2FA82F2D140034A515CC8401A
:1043500010BD00001C44025810D1000810B5FFF732
:10436000CBFF0749096801F4E0614FF4807292FACB
:10437000A2F2B2FA82F2D140024A515CC84010BDAA
:104380001C44025810D1000870B5012500EE905A67
:104390000022012100230024DFED861AB0EE610A1D
:1043A000DFED841AB0EE611A0020834D2D6805F010
:1043B000380535B1082D15D0102D15D0182D7CD10C
:1043C00014E07D4D103D2D68C5F3401545B17A4D83
:1043D000103D2D68C5F3C106784D25FA06F000E0C2
:1043E0007648E5E07648E3E07648E1E0724D18353E
:1043F0002D6805F00302704D18352D68C5F30511C1
:104400006D4D1C352D6805F001036B4D24352D686D
:10441000C5F3CC0515FB03F501EE905AF8EE611AD1
:10442000B0EE610A22B1012A4FD0022A7DD16BE0A1
:10443000614D103D2D68C5F340152DB35E4D103D07
:104440002D68C5F3C1065D4D25FA06F4B4FBF1F500
:1044500001EE905AB8EE612ADFED5B1AC0EE212A18
:10446000554D20352D68C5F3080501EE905AF8EE3C
:10447000611A72EEA11AF7EE002A71EEA21A62EE2C
:10448000211AB0EE611A1FE04C4DB5FBF1F501EEBB
:10449000905AB8EE612ADFED4C1AC0EE212A464D43
:1044A00020352D68C5F3080501EE905AF8EE611A23
:1044B00072EEA11AF7EE002A00E077E071EEA21A80
:1044C00062EE211AB0EE611A5EE03D4DB5FBF1F5EA
:1044D00001EE905AB8EE612ADFED3B1AC0EE212AB8
:1044E000354D20352D68C5F3080501EE905AF8EEDC
:1044F000611A72EEA11AF7EE002A71EEA21A62EEAC
:10450000211AB0EE611A3FE02E4DB5FBF1F501EE38
:10451000905AB8EE612ADFED2C1AC0EE212A264D02
:1045200020352D68C5F3080500E00EE001EE905A35
:10453000F8EE611A72EEA11AF7EE002A71EEA21AD5
:1045400062EE211AB0EE611A1EE01D4DB5FBF1F5C9
:1045500001EE905AF8EE612ADFED1B1A80EE212A57
:10456000154D20352D68C5F3080501EE905AF8EE7B
:10457000611A72EE211AB7EE002A71EE821A62EE0B
:10458000A11AB0EE611A00BF00BF0B4D20352D6897
:10459000C5F346256D1C00EE905AF8EE601A81EEC8
:1045A000212AFCEEC21A11EE900A01E0044800BF75
:1045B00000BF70BD00000000104402580090D003FE
:1045C00000093D0040787D010000004670B50446BA
:1045D0000025207800F00100002872D0F94800681A
:1045E00000F0380010280CD0F648006800F03800C1
:1045F000182812D1F3481830006800F00300022890
:104600000BD1F04810380068C0F3404000286DD04E
:10461000606800286AD1012070BD00BF6068B0F5F5
:10462000803F08D1E7481038006840F48030E54901
:10463000103908602EE0606868B9E24810380068F8
:1046400020F48030DF49103908600846006820F403
:10465000802008601EE06068B0F5A02F0DD1D94819
:104660001038006840F48020D649103908600846A8
:10467000006840F4803008600CE0D24810380068D0
:1046800020F48030CF49103908600846006820F4D3
:104690008020086000BF6068A0B1FEF78FF9054672
:1046A00008E0FEF78BF9401B41F28831884201D9BE
:1046B0000320B1E7C34810380068C0F34040002829
:1046C000EFD013E0FEF77AF9054608E0FEF776F939
:1046D000401B41F28831884201D903209CE7B94848
:1046E00010380068C0F340400028EFD1207800F077
:1046F0000200022847D1B348006800F0380058B1E2
:10470000B048006800F0380018283ED1AD48183095
:10471000006800F00300B8BBAA4810380068C0F376
:10472000800018B1E06808B9012075E7A548103885
:10473000006820F01900E1680843A24910390860B8
:10474000FEF73CF9054606E0FEF738F9401B022863
:1047500001D9032060E79B4810380068C0F380004F
:104760000028F1D097480C38006820F47C304FF4D2
:104770007C3292FAA2F2B2FA82F2216991400843A5
:1047800090490C3908604AE0FFE7E06868B38D485B
:104790001038006820F01900E16808438949103991
:1047A0000860FEF70BF9054606E0FEF707F9401B27
:1047B000022801D903202FE7824810380068C0F38F
:1047C00080000028F1D07F480C38006820F47C304D
:1047D0004FF47C3292FAA2F2B2FA82F2216991404D
:1047E000084378490C39086019E0764810380068A9
:1047F00020F00100734910390860FEF7DFF8054624
:1048000006E0FEF7DBF8401B022801D9032003E78E
:104810006C4810380068C0F380000028F1D120787F
:1048200000F01000102877D16648006800F03800CA
:1048300008280CD06348006800F03800182823D1FD
:1048400060481830006800F0030001281CD15D4862
:1048500010380068C0F3002020B1E069802801D042
:104860000120D9E657480C38006820F0F8404FF096
:10487000F84292FAA2F2B2FA82F2216A9140084317
:1048800050490C39086047E0E06958B34D4810388A
:10489000006840F080004B4910390860FEF78EF840
:1048A000054606E0FEF78AF8401B022801D90320DE
:1048B000B2E6444810380068C0F300200028F1D068
:1048C00040480C38006820F0F8404FF0F84292FA67
:1048D000A2F2B2FA82F2216A9140084339490C39B6
:1048E000086019E037481038006820F0800035492A
:1048F00010390860FEF762F8054606E0FEF75EF83C
:10490000401B022801D9032086E62E481038006893
:10491000C0F300200028F1D1207800F0080008281A
:1049200036D16069D0B127486430006840F001009A
:10493000244964310860FEF741F8054606E0FEF7B9
:104940003DF8401B022801D9032065E61D4864306C
:104950000068C0F340000028F1D019E01948643025
:10496000006820F00100174964310860FEF726F85E
:10497000054606E0FEF722F8401B022801D9032075
:104980004AE6104864300068C0F340000028F1D1C6
:10499000207800F02000202834D1A069D8B109483F
:1049A0001038006840F48050064910390860FEF75E
:1049B00005F8054608E0FEF701F8401B022803D978
:1049C000032029E610440258AF480068C0F3403085
:1049D0000028F0D016E0AC48006820F48050AA49C6
:1049E0000860FDF7EBFF054606E0FDF7E7FF401B1B
:1049F000022801D903200FE6A3480068C0F3403025
:104A00000028F2D1207800F0040004287DD19F48CE
:104A1000006840F480709D490860FDF7CFFF0546AF
:104A200006E0FDF7CBFF401B642801D90320F3E526
:104A30009648006800F480700028F2D000BFA0689B
:104A4000012808D190487030006840F001008E497C
:104A5000703108602DE0A06868B98B48703000683C
:104A600020F001008849703108600846006820F095
:104A7000040008601DE0A06805280DD18248703050
:104A8000006840F004008049703108600846006802
:104A900040F0010008600CE07B487030006820F0B6
:104AA00001007949703108600846006820F0040070
:104AB000086000BFA068A0B1FDF780FF054608E0D0
:104AC000FDF77CFF401B41F28831884201D9032069
:104AD000A2E56D4870300068C0F340000028EFD0B8
:104AE00013E0FDF76BFF054608E0FDF767FF401B8D
:104AF00041F28831884201D903208DE56248703047
:104B00000068C0F340000028EFD1606A00287CD024
:104B10005D481030006800F03800182876D0606AD0
:104B2000022874D15848006820F080705649086007
:104B3000FDF744FF054606E0FDF740FF401B022855
:104B400001D9032068E550480068C0F340600028A0
:104B5000F2D100BFD4E90A1041EA00104A492831D5
:104B6000096840F2F332914308434749283108600D
:104B7000208E401EC0F30800616B491E4FF47E4238
:104B800002EA41210843218F491ED20102EA014174
:104B900008433C21095D491E120202EA01610843F3
:104BA00039493031086000BF081D00684FF6F871C0
:104BB00088434FF6F87292FAA2F2B2FA82F2A16C2E
:104BC000914008433049343108602F482C30006848
:104BD00020F00C00216C08432B492C31086008465A
:104BE000006820F00200616C084327492C310860FE
:104BF0000846006840F4803008600846006840F4C9
:104C0000003008600846006802E03BE038E01FE042
:104C100040F4802008600846006840F00100086009
:104C20001948006840F0807017490860FDF7C6FE1B
:104C3000054606E0FDF7C2FE401B022801D903200D
:104C4000EAE411480068C0F340600028F2D019E09F
:104C50000D48006820F080700B490860FDF7AEFE3B
:104C6000054606E0FDF7AAFE401B022801D90320F5
:104C7000D2E405480068C0F340600028F2D101E0AA
:104C80000120C9E40020C7E400440258004802584B
:104C900070B504460D460CB9012070BD94F82C0087
:104CA00028B9002084F82D00204600F019F80220D1
:104CB00084F82C00211D2068FCF785FF2946D4E9E3
:104CC0000002FCF7D5FF0548006840F000400349AA
:104CD0000860012084F82C000020DEE7004000522C
:104CE00010B586B0044600BF4648006840F0020098
:104CF000444908600846006800F00200009000BFC8
:104D000000BF00BF3F482038006840F480503D4954
:104D1000203908600846006800F48050009000BF09
:104D200000BF00BF37481438006840F00400354920
:104D3000143908600846006800F00400009000BFC5
:104D400000BF00BF0846006840F008000860084641
:104D5000006800F00800009000BF00BF00BF0846D8
:104D6000006840F0100008600846006800F010007D
:104D7000009000BF00BF00BF0846006840F0200060
:104D800008600846006800F02000009000BF00BFE7
:104D900000BF0846006840F0400008600846006810
:104DA00000F04000009000BF00BF0D2001900220E5
:104DB000029001200390032004900C20059001A98B
:104DC0001148FDF7C3FC4CF20370019001A90F4894
:104DD000FDF7BCFC4FF68370019001A90C48FDF76C
:104DE000B5FC4FF63F00019001A90A48FDF7AEFC63
:104DF00048F23710019001A90748FDF7A7FC06B05B
:104E000010BD0000F444025800080258000C02587B
:104E100000100258001402580018025870B50446D9
:104E20000D4694F82C00022800D170BD022084F8B1
:104E30002C0029462068FCF700FF012084F82C0094
:104E40000020F2E770B504460D46164694F82C0093
:104E5000022800D170BD022084F82C003246294679
:104E60002068FCF7F1FE2868022803D1052084F8A9
:104E70002C0002E0012084F82C000020EAE700006A
:104E800070B504460E4615460CB9012070BD94F865
:104E9000450028B9002084F84400204600F024F89A
:104EA00004F108012068FCF71FFE3146A268206863
:104EB000FCF75AFE2946E36AD4E90102FCF7F0FD4B
:104EC000A168206850F8210040F00100A268216824
:104ED00041F822000348006840F0004001490860A2
:104EE0000020D3E70040005210B586B0044600BF52
:104EF0002048006840F480501E4908600846006859
:104F000000F48050009000BF00BF00BF19480C3073
:104F1000006840F0080017490C3108600846006836
:104F200000F00800009000BF00BF00BF0846006806
:104F300040F0100008600846006800F01000009083
:104F400000BF00BF4EF2B37001900220029001201A
:104F50000390032004900C20059001A90648FDF75A
:104F6000F5FB4FF68070019001A90448FDF7EEFBB8
:104F700006B010BDD4440258000C0258001002586C
:104F8000042808D14FF0E021096941F004014FF0F5
:104F9000E022116107E04FF0E021096921F00401EE
:104FA0004FF0E0221161704770B504462546681E37
:104FB000B0F1807F01D301200FE0681E4FF0E021A7
:104FC00048610F214FF0FF3006F0ECF800204FF061
:104FD000E021886107200861002070BD704770479C
:104FE00010B504460CB9012010BD94F83D0028B955
:104FF000002084F83C00204600F00CF8022084F8E1
:105000003D00211D206805F071F9012084F83D0064
:105010000020E9E738B5044600BF0B48006840F0BF
:105020000200094908600846006800F0020000908C
:1050300000BF00BF032201211D20FDF7E9FF1D2055
:10504000FDF7D6FF38BD0000E84402580146086865
:10505000C06840F001000A68D0600868008840F02D
:1050600001000A68108000207047704710B50446A0
:1050700020680069C0F34000D8B12068C068C0F360
:105080004000B0B16FF00200216808610120207774
:105090002068806900F0030018B12046FFF7E5FFA3
:1050A00005E0204600F0BEF8204600F0BCF80020E5
:1050B000207720680069C0F38000D8B12068C068FC
:1050C000C0F38000B0B16FF00400216808610220D5
:1050D00020772068806900F4407018B12046FFF7FF
:1050E000C4FF05E0204600F09DF8204600F09BF844
:1050F0000020207720680069C0F3C000D8B1206884
:10510000C068C0F3C000B0B16FF00800216808614A
:10511000042020772068C06900F0030018B1204601
:10512000FFF7A3FF05E0204600F07CF8204600F0E2
:105130007AF80020207720680069C0F30010D8B109
:105140002068C068C0F30010B0B16FF01000216893
:105150000861082020772068C06900F4407018B109
:105160002046FFF782FF05E0204600F05BF820466E
:1051700000F059F8002020772068006900F0010055
:1051800058B12068C06800F0010030B16FF0010034
:1051900021680861204600F047F820680069C0F3E4
:1051A000C01058B12068C068C0F3C01030B16FF0B3
:1051B0008000216808612046FFF710FF2068006921
:1051C000C0F3002058B12068C068C0F3C01030B1EF
:1051D0006FF08000216808612046FFF7FFFE20681D
:1051E0000069C0F3801058B12068C068C0F3801017
:1051F00030B16FF0400021680861204600F022F8CD
:1052000020680069C0F3401058B12068C068C0F33E
:10521000401030B16FF02000216808612046FFF790
:10522000DEFE10BD704770470449884204D104492E
:105230000978491C024A117070470000DC050024FF
:105240000000002470477047704701460022002389
:1052500091F8792091F87A3042EA03007047000013
:105260002DE9F04104462068C56920680768206878
:10527000866805F00F08B8F1000F0DD105F0200089
:1052800050B107F0200010B906F0805020B1204640
:1052900005F09BF9BDE8F081B8F1000F72D05D48D0
:1052A000304018B907F4907000287AD005F001005A
:1052B00048B107F4807030B1012021680862E06FC6
:1052C00040F00100E06705F0020048B106F001007F
:1052D00030B1022021680862E06F40F00400E0670E
:1052E00005F0040048B106F0010030B10420216847
:1052F0000862E06F40F00200E06705F0080078B156
:1053000007F0200028B906F0805010B906F001001F
:1053100030B1082021680862E06F40F00800E067C3
:10532000E06F70B305F0200040B107F0200010B925
:1053300006F0805010B1204605F047F9E06F00F00C
:10534000080020B92068806800F0400018B32046AB
:1053500005F01BF92068806800F04000B8B12068B3
:10536000806820F0400021688860606F58B12A484A
:10537000616F0865606FFDF763F910B1606F016DD3
:1053800088470DE00DE02046FFF75EFF08E020466D
:10539000FFF75AFF04E02046FFF756FF0020E067C2
:1053A00078E705F4801078B106F4800060B14FF41E
:1053B000801021680862202084F8790084F87A003F
:1053C0002046FFF740FF65E705F0800048B107F091
:1053D000800010B906F4000018B1204605F00CFE5C
:1053E00058E705F0400030B107F0400018B1204602
:1053F00005F0DBF84EE705F4000040B107F080400F
:1054000028B12068006820F080402168086000BF53
:1054100040E700000100001073A5000810B5044625
:105420000CB9012010BDA06900B100E000BF94F8E4
:10543000790028B9002084F87800204600F02AF886
:10544000242084F879002068006820F00100216899
:105450000860204605F0FEF8012800D1E2E7606B05
:1054600010B1204604F0D6FF2068406820F4904038
:10547000216848602068806820F02A0021688860E0
:105480002068006840F0010021680860204605F0AF
:1054900036F8C7E710B586B004462149206888422F
:1054A0003BD100BF1F48006840F001001D49086063
:1054B0000846006800F00100009000BF00BF00BF78
:1054C00018481030006840F010001649103108608C
:1054D0000846006800F01000009000BF00BF4FF4C5
:1054E000007001900220029001200390022004909D
:1054F0000720059001A90C48FDF728F94FF48060BA
:10550000019001A90848FDF721F92520FDF770FD5C
:10551000032211462520FDF77BFD06B010BD0000DB
:1055200000100140E04402580000025810B5034644
:1055300093F87A00202867D101B10AB9012010BD83
:1055400000BF93F87800012801D10220F7E701207D
:1055500083F8780000BF5966A3F86820A3F86A2092
:1055600000BF9868B0F5805F0AD1186920B940F291
:10557000FF10A3F86C001CE0FF20A3F86C0018E0FB
:10558000986848B9186918B9FF20A3F86C0010E0B2
:105590007F20A3F86C000CE09868B0F1805F08D120
:1055A000186918B97F20A3F86C0002E03F20A3F827
:1055B0006C0000BF0020D867222083F87A0000BF6B
:1055C000002083F8780000BF1868806840F0010070
:1055D0001C68A0601868006800F0005060B118688E
:1055E000006840F480701C6820601868806840F093
:1055F00080501C68A06005E01868006840F4907056
:105600001C68206000209AE7022098E71D4A016884
:10561000914236D11C49098801F4004189BB1A49DD
:10562000098801F4804171B1184909780A2903D029
:105630000021154A118024E01349098841F40041F2
:10564000114A11801DE0114909780D2906D10E4932
:10565000098841F480410C4A118012E00B49097815
:10566000094A1288C2F30D02094B99540649098868
:10567000491C054A118011460988C72901DD00210E
:10568000118070470010014014000024160000240F
:1056900040020024704700BFFEE7000000B587B05D
:1056A00000BF2448006840F0010022490860084615
:1056B000006800F00100019000BF00BF00BF084675
:1056C000006840F0040008600846006800F004002C
:1056D000019000BF00BF00BF0846006840F0800096
:1056E00008600846006800F08000019000BF00BF1D
:1056F00001200290002003900220049003200590D6
:1057000002A90D48FDF722F84FF400500290002046
:105710000390012004900320059002A90748FDF79B
:1057200015F80C20029002A90548FDF70FF807B004
:1057300000BD0000E0440258000002580008025872
:10574000001C025870B5044600260D4805880D4817
:10575000006818B1204602F0F5FE0FE008484088C6
:1057600045430021084602F029FD02F0ADFE002667
:1057700002E005490C80761CAE42FAD370BD0000F1
:1057800008040024200500240000086010B5044629
:105790005C4884715C48006850B1204602F0FCFE11
:1057A0005948C08A574908805748008B488010BD27
:1057B000002C51D1F020534908804FF4A07048804C
:1057C0000846808849F24131884205D04D4880889A
:1057D00045F21031884214D12C204A4908812A20F0
:1057E00048812B2088810846808845F21031884204
:1057F00006D14FF4A070434908804FF4F070488000
:105800007BE04048808845F21051884210D14FF427
:1058100030503C4908814FF4285048814FF42C50B7
:1058200088814FF4F07008804FF44870488064E03D
:105830003448808841F6631188425ED12C2031497A
:1058400008812B2048812A2088814FF4F07008803D
:105850004FF44870488050E04FF4A0702949088008
:10586000F02048800846808849F24131884205D0BE
:105870002448808845F21031884207D12C202149E4
:1058800008812A2048812B20888129E01D488088B2
:1058900045F21051884210D14FF430501949088117
:1058A0004FF4285048814FF42C5088814FF44870B1
:1058B00008804FF4F070488012E01248808841F66A
:1058C000631188420CD12C200E4908812A2048817E
:1058D0002B2088814FF4487008804FF4F070488086
:1058E0000848808845F21031884206D14FF4F070A4
:1058F000044908804FF4A0704880002002F024FB87
:1059000000BF54E7080400242005002470B50446B5
:105910000D4616464348006828B1324629462046BF
:1059200002F050FE70BD4048808849F24131884203
:1059300005D03D48808845F21031884214D13A495B
:10594000488902F0B5FD201202F0A6FDE0B202F097
:10595000A3FD3549888902F0ABFD281202F09CFDB9
:10596000E8B202F099FD54E02F48808845F21051CA
:10597000884220D12C49488902F09AFD201202F079
:105980008BFD29494989491C88B202F091FDE0B29A
:1059900002F082FD2449888902F08AFD281202F073
:1059A0007BFD21498989491C88B202F081FDE8B25A
:1059B00002F072FD2DE01C48808841F66311884298
:1059C00027D11948807920B917480088401E001B4C
:1059D00084B21549488902F06BFD201202F05CFD8B
:1059E000E0B202F059FD201202F056FDE0B202F0E2
:1059F00053FD0D49888902F05BFD281202F04CFD31
:105A0000E8B202F049FD281202F046FDE8B202F0C9
:105A100043FD0548008905490880891C0E8000BFA8
:105A200080E700002005002408040024FEFF076032
:105A300000B595B003F0E6F8FE49888008468088F6
:105A400018B102F08BFE02F0E4B900BFFA4800681A
:105A500040F00200F84908600846006800F00200C3
:105A6000019000BF00BF20201090012011901290E3
:105A70000320139010A9F148FCF768FE02F00AFA1F
:105A8000EF48F0490860F048486000208860002135
:105A9000EC48C16001611021416100218161C16157
:105AA00001624FF480514162002181624FF48041D4
:105AB000C1620021016341634FF4801181631120B1
:105AC000099000200A9055200B9000200F9015207F
:105AD000029000200390152004900020089002AA54
