:020000040800F2
:10000000E0AC0724B103000841A70008B360000872
:10001000BD0300081524000825BC000800000000EE
:10002000000000000000000000000000C1AB00085C
:10003000352400080000000043A70008BDAC0008FC
:10004000CB030008CB030008CB030008CB03000858
:10005000CB030008CB030008CB030008CB03000848
:10006000CB030008CB030008CB030008CB03000838
:10007000CB030008CB030008CB030008CB03000828
:10008000CB030008CB030008CB030008CB03000818
:10009000CB030008CB030008CB030008CB03000808
:1000A000CB030008CB030008CB030008CB030008F8
:1000B000CB03000859AD000895AD0008CB0300083C
:1000C000CB030008CB030008CB030008CB030008D8
:1000D000CB030008D5BB0008CB030008CB03000806
:1000E000CB030008CB03000800000000CB0300088E
:1000F000CB030008CB030008CB030008CB030008A8
:10010000CB030008CB030008CB030008CB03000897
:10011000CB030008CB030008CB030008CB03000887
:10012000CB030008CB030008CB030008CB03000877
:10013000CB030008CB030008CB030008CB03000867
:1001400000000000000000000000000000000000AF
:10015000CB030008CB030008CB030008CB03000847
:10016000CB030008CB030008CB030008CB03000837
:10017000CB030008CB030008CB03000800000000FD
:10018000CB030008CB030008CB030008CB03000817
:10019000CB030008CB030008CB030008CB03000807
:1001A000CB030008CB030008CB030008CB030008F7
:1001B000CB030008CB030008CB030008CB030008E7
:1001C000CB030008CB030008CB030008CB030008D7
:1001D000CB030008CB030008CB030008CB030008C7
:1001E000CB030008CB030008CB030008CB030008B7
:1001F000CB030008CB030008CB030008CB030008A7
:10020000CB030008CB030008CB030008CB03000896
:10021000CB030008CB030008CB030008CB03000886
:10022000CB030008CB030008CB030008000000004C
:10023000CB030008CB03000800000000CB0300083C
:10024000CB030008CB030008CB030008CB03000856
:10025000CB030008CB030008CB030008CB03000846
:10026000CB030008CB030008CB030008CB03000836
:10027000CB030008CB030008CB03000800000000FC
:10028000CB03000800000000CB03000800000000C2
:1002900000000000CB03000800F002F800F078F83E
:1002A0000AA090E8000C82448344AAF10107DA45D1
:1002B00001D100F06DF8AFF2090EBAE80F0013F0AB
:1002C000010F18BFFB1A43F0010318478CB101005E
:1002D000ACB101000A444FF0000C10F8013B13F0E0
:1002E000070408BF10F8014B1D1108BF10F8015B8F
:1002F000641E05D010F8016B641E01F8016BF9D182
:1003000013F0080F1EBF10F8014BAD1C0C1B09D1D8
:100310006D1E58BF01F801CBFAD505E014F8016B4A
:1003200001F8016B6D1EF9D59142D6D370470000DC
:100330000023002400250026103A28BF78C1FBD8EE
:10034000520728BF30C148BF0B60704766290DF0C7
:100350000782642900F0D886752900F0D5867829AF
:1003600000F00E87632901F08283732901F08783EF
:10037000002070471FB50DF0DDF901F097FB040078
:10038000002000210DF0C0F9E0601FBD10B510BDC8
:1003900001F04AFC1146FFF7EDFF0BF0CBFC01F03A
:1003A00068FC03B4FFF7F2FF03BC0BF078FC00001D
:1003B0000948804709480047FEE7FEE7FEE7FEE7F9
:1003C000FEE7FEE7FEE7FEE7FEE7FEE70448054935
:1003D000054A064B70470000C5AC000899020008AA
:1003E000E0A60724E0AC0724E0A80724E0A807243F
:1003F0009FED1A1AF5EE000A40EE010ABDEEE00A82
:10040000F5EEC00AF1EE10FA10EE100A38BF401EE9
:1004100000EE100A9FED121A1249B8EEC00AF7EE6C
:10042000001A30EEC00A60EE010ABCEEE00A10EEDF
:10043000100AC0F3080000EE100A01EB8000B8EECD
:10044000400A90ED011A70EEC00A90ED000A71EEBC
:10045000E01A21EE800A00EE810A704783F9223EFD
:1004600000000044BCA70108B5EEC00AF1EE10FA86
:1004700007D2DFED1E0AB4EEE00AF1EE10FAA8BFD3
:100480007047DFED1B0AB5EEC00AF1EE10FA20EE60
:10049000200AFDEEC00A10EE900A38BF401E00EEA2
:1004A000900A9FED141A1449F8EEE00AF7EE001ACC
:1004B00030EE600A60EE010ABCEEE00A10EE100AAF
:1004C000C0F3080000EE100A01EB8000B8EE400A0D
:1004D00090ED011A70EEC00A90ED000A71EEE01A7C
:1004E00021EE800A00EE810A70470000CD024CB474
:1004F00083F9223E00000044BCA701089FED3E0A9C
:100500005FEA920C59D000BFD0ED000A90ED011ABD
:100510000B1D60EEA00A083041EE010AF5EEC00A9C
:10052000F1EE10FAA6BFB1EEE01A81ED001A81EDEE
:10053000000AD0ED000A90ED011A00F1080160EE0A
:10054000A00A181D41EE010AF5EEC00AF1EE10FAFC
:10055000A6BFB1EEE01A83ED001A83ED000AD1EDDB
:10056000000A91ED011A031D60EEA00A083141EE68
:10057000010AF5EEC00AF1EE10FAA6BFB1EEE01ADC
:1005800080ED001A80ED000AD1ED000A91ED011A0C
:10059000081D60EEA00A191D001D41EE010AF5EECE
:1005A000C00AF1EE10FAA6BFB1EEE01A83ED001A10
:1005B00083ED000ABCF1010CA6D112F0030208BFC2
:1005C000704700BFD0ED000A90ED011A08300B46CD
:1005D00060EEA00A091D41EE010AF5EEC00AF1EE37
:1005E00010FAA6BFB1EEE01A83ED001A83ED000AFF
:1005F000521EE7D170470000000000002DE9F04FC7
:1006000000264FEA910C35462DED048B82B06446EE
:10061000CDF804C006EB0C0909EB0C0808EB0C073D
:1006200000EBC60A00EBC808DAED000A98ED001AE4
:1006300000EBC90900EBC70730EE810A70EEC12A52
:100640009AED013AD8ED014AD9ED011AD7ED013AF8
:1006500099ED005A97ED002A73EE240A31EEA34A71
:1006600035EE021A33EE643A71EEE34A4FEA450B77
:1006700035EE422A0BEB050E30EE015A02EBCB0BA6
:1006800070EE845ADBED001ADBED013A30EE410AE0
:1006900070EEC40A8AED005ACAED015A32EEA41A6D
:1006A00032EEE44A02EBC50A73EE422A20EE216ADA
:1006B00060EEA11A32EE033ADAED004A60EEA30AC8
:1006C0009AED012A60EE233A21EE240A62EEA44A52
:1006D00002EBCE0B62EE822A61EE026A9BED005ABB
:1006E000DBED015A30EE220A23EE052A74EEE62AEB
:1006F00024EE051A23EE253A76EE204A24EE254A0A
:1007000071EEE31AC9ED004A71EE030AC9ED011A50
:1007100032EE441A88ED000AC8ED012AC7ED000A3E
:10072000641E87ED011A06F101061D447FF472AFC5
:10073000019C4FF6FF7505EA830B0094042C7CD9CD
:100740000027E0464FEA9C0CBA46ACF1010E7D0052
:10075000EC1902EBC70302EBC50502EBC40493EDF1
:10076000005A93ED014AD5ED002AD5ED015AD4ED9A
:10077000004AD4ED013A5F444FEA0A0303EB0C054B
:1007800005EB0C0404EB0C0900EBC30600EBC404FE
:1007900096ED001A94ED002A00EBC50500EBC9099F
:1007A00096ED013A94ED016AD5ED007A99ED007A63
:1007B00071EE421A31EE022A33EE461A33EE066A21
:1007C00037EE873A95ED010AD9ED010A77EEC76A4F
:1007D00072EE437A30EE607A30EE200A72EE038ACF
:1007E000434471EE870A31EEC77A71EE661A36EE2F
:1007F000811A76EE406A76EE009A21EE852A20EE86
:10080000850A61EE841A20EE846A67EEA20A26EE5B
:10081000A23A27EE249A21EE248AC6ED008A8B4262
:1008200066EEA56A67EEA57A21EE231A27EE237AF3
:10083000C6ED019A30EE210A00E026E072EE461A7B
:1008400070EEA60A33EE672A39EE011AC5ED000AEA
:1008500085ED012A38EE473A84ED000AC4ED011A0D
:1008600089ED001A89ED013A88D30AF1010AF245AF
:100870007FF66DAF009B9B080093009C4FF6FF73C3
:1008800003EA8B0B042C3FF65BAF0199D0ED002AF5
:1008900090ED041AD0ED010A90ED054A72EE811A2E
:1008A000D0ED023A90ED063A72EEC12A30EE841A8B
:1008B00090ED030A90ED072A70EEC40A33EE834AE6
:1008C00073EEC33A30EE023A30EE420A31EE842A39
:1008D00071EEC44A71EE031A31EE433A80ED002AFC
:1008E00032EE801AC0ED011A30EEE34AC0ED024A42
:1008F00072EEC02A80ED033A33EEA00A80ED041AAE
:1009000080ED054AC0ED062A80ED070A491E00F178
:100910002000BBD102B0BDEC048BBDE8F08F2DE907
:10092000F04F00264FEA910C35462DED068B82B034
:100930006446CDF804C000BF06EB0C0808EB0C09B8
:1009400009EB0C0700EBC80800EBC70700EBC60A71
:1009500000EBC909DAED000A99ED001ADAED015A47
:1009600099ED013A30EE815A98ED002AD8ED013A1E
:1009700030EEC11AD7ED002AD7ED014A75EE830A91
:1009800072EE221A33EEA44A4FEA450B35EEC33A13
:100990000BEB050E72EE622A73EEE44A02EBCB0B10
:1009A00030EE846A75EE215A9BED002ADBED013AA8
:1009B00030EEC44A75EE611ACAED005A8AED016A3A
:1009C00071EE640A61EE826A24EE022A31EE241A84
:1009D00024EE234A73EE224A02EBC50A61EEA33AE3
:1009E00033EE623ADAED002ADAED015A02EBCE0B71
:1009F00060EEA21A64EEA22A64EEA54A9BED005AAC
:100A00009BED016A60EEA55A61EE050A23EE055AD8
:100A100023EE063A36EEC44A21EE061A32EE232AB7
:100A200071EEE41A72EEA52A88ED004A70EEC30A50
:100A300088ED012A35EE011AC9ED001AC9ED012A27
:100A4000C7ED000A641E87ED011A06F101061D4478
:100A50007FF472AF019C4FF6FF7505EA830B00949B
:100A6000042C7CD90027E0464FEA9C0CBA46ACF136
:100A7000010E7D00EC1902EBC70302EBC50502EB8A
:100A8000C404D3ED005A93ED015A95ED002AD5ED3B
:100A9000014AD4ED002A94ED016A5F444FEA0A034B
:100AA00003EB0C0505EB0C0404EB0C0900EBC3068F
:100AB00000EBC40496ED007A94ED001A96ED014A1D
:100AC00094ED013A00EBC50500EBC90977EE413A18
:100AD000D5ED001AD9ED007A37EE011A34EE437ADB
:100AE00034EE033A31EEE74AD5ED010AD9ED016A59
:100AF00071EEA71A37EE448A70EEE67A70EEA66AB7
:100B000071EE218A28EE229A73EEE70A73EEA77A35
:100B100077EE043A33EE26AA31EE617A33EE664A76
:100B200020EEA51A23EE853A63EEA51A60EE856ADB
:100B300067EE020A64EE023A67EEA29AC6ED008AF8
:100B400043448B4224EE244A27EE247A28EE068A78
:100B500067EE867A86ED01AA31EE431A00E026E0C0
:100B600070EEC40A33EE873A71EEA61AC5ED000A9C
:100B700079EEC83A85ED013A39EE274A84ED001A3C
:100B8000C4ED011AC9ED003A89ED014A88D30AF192
:100B9000010AF2457FF66DAF009B9B080093009C15
:100BA0004FF6FF7303EA8B0B042C3FF65BAF019902
:100BB000D0ED000AD0ED042A90ED012A90ED054A0F
:100BC00070EEA23A90ED021AD0ED064A70EEE20AFB
:100BD00072EE042AD0ED031A90ED073A32EE442A61
:100BE00031EE244A31EE641A71EE834A71EEC31A73
:100BF00033EE843A73EEC43A32EEA44A72EEE42A3B
:100C000070EEE14A70EEA11A72EE010A32EE415A1C
:100C100023EE001A24EE002A23EE803A62EE802AA8
:100C200080ED001A64EE803A80ED012A60EE800AC1
:100C300080ED023A21EE804AC0ED032A65EE001AEB
:100C4000C0ED043AC0ED050A80ED064AC0ED071A72
:100C5000491E00F12000ABD102B0BDEC068BBDE80F
:100C6000F08F70B5044680780D4601282188A3894D
:100C700062680ED02846FFF7C1FCE078012818BF53
:100C800070BDE28928462188A368BDE8704000F065
:100C900069B894ED040A2846FFF741FEEDE700002D
:100CA00082700022C370B1F5807F234B01804360C6
:100CB00023D004DC102934D0402928D005E0B1F538
:100CC000806F10D0B1F5805F03D04FF0FF32104637
:100CD00070471B4B01219FED190A836080ED040AC8
:100CE0008181C181F3E7174B042181819FED160AB1
:100CF0008360C18180ED040AE9E7144B10218181F2
:100D00009FED130A8360C18180ED040ADFE7114B78
:100D1000402181819FED100A8360C18180ED040A2A
:100D2000D5E70E4B4FF4807181819FED0D0A8360F2
:100D3000C18180ED040ACAE7BC27010800008039A0
:100D4000BC1F0108C21F01080000803ADA1F010819
:100D50000000803B3A2001080000803CBA210108D5
:100D60000000803D2DE9F0074FF0010C0CEB51091C
:100D70004FF0000C4FEA51086146A8F1020A2DE03D
:100D800061452BD200EBCC0400EBC105D4ED000A89
:100D900095ED000AC5ED000A84ED000AD4ED010AC4
:100DA0000CEB090695ED010A01EB0907C5ED010AF7
:100DB00000EBC60684ED010A00EBC707D6ED000A7A
:100DC00097ED000AC7ED000A86ED000AD6ED010A8C
:100DD00097ED010AC7ED010A86ED010AC44400EB54
:100DE000C10400EBCC0C94ED020ADCED000A891C76
:100DF000C4ED020A8CED000ADCED010A94ED030A51
:100E0000C4ED030A8CED010A89B2B3F800C0514564
:100E100003EB4203B4D9BDE8F00770472DE9F04F6A
:100E20004FF0010C0CEB51094FF0000C4FEA510848
:100E30006146A8F1020A25E0614523D200EBC10614
:100E400000EBCC0501EB0907D6F800E00CEB090438
:100E5000D5F800B000EBC707C6F800B000EBC4043B
:100E6000C5F800E0D6F804E0D5F804B0C6F804B040
:100E7000C5F804E03D6826683E6025607D686668C8
:100E80007E606560C44400EBC10400EBCC0C891C9F
:100E9000A5685145DCF80060A660CCF80050E66813
:100EA000DCF80450E560CCF80460B3F800C003EB54
:100EB0004203C1D9BDE8F08F2DE9F00F4F084FF084
:100EC000010C0CEB51084FF0000C7C0804BFBDE88E
:100ED000F00F704700EB88050146002615E000BFC3
:100EE000BCEB460F11D950F82CB00CEB0809D1F827
:100EF00000A0C1F800B040F82CA050F829B0D5F8F7
:100F000000A0C5F800B040F829A0BC44D1F8049076
:100F100005F1080506F1010650F82CA0C1F804A05F
:100F2000083140F82C90B3F800C0641E03EB420374
:100F3000D6D1BDE8F00F704753EA020C00F069808B
:100F40002DE9F04B4FF00006002B1FBFB3FA83F5DD
:100F500003FA05F424FA05F65E4012BF1643B2FA0E
:100F600082F502FA05F4C5F120051EBF22FA05FC40
:100F700044EA0C04203556EA044C4FEA144418BFE6
:100F8000641C4FF000084FF00009904271EB030C15
:100F900039D3002919BFB1FA81F701FA07F6B0FA7F
:100FA00080F700FA07F6C7F120071EBF20FA07FCFA
:100FB00046EA0C062037B6FBF4FCA7EB0507103F0A
:100FC00007F01F0BCBF120060CFA0BFB2CFA06F6F0
:100FD00044BFB3460026202FA4BF5E464FF0000B4F
:100FE0005BEA060C08BF4FF0010B19EB0B09ABFBDA
:100FF000027C48EB0608C01B06FB02CC0BFB03CCB3
:1010000071EB0C01C1E70B46024641464846BDE87C
:10101000F08B13B54FF000004FF00001AFF30080EC
:10102000BDE81C40704700000FB4044910B503AA86
:10103000029800F029FD10BC5DF814FB100000249C
:101040000FB41CB5074B06AA7B446946009005986F
:1010500000F0EBFC0020694600F0FAFC1CBC5DF8D7
:1010600014FB0000050A000070B50446856900689D
:10107000C10601D5302600E02026C00707D070BD8C
:10108000D4E9012130469047206A401C20626D1E41
:10109000F6D570BD70B5044685690078C00707D1E4
:1010A00070BDD4E9012120209047206A401C2062B5
:1010B0006D1EF6D570BD70B50C460546012A05D0EB
:1010C0002878800600D5EA69002302E0012305E0C4
:1010D0005B1C934202D2E05C0028F9D1A869E618B3
:1010E000C01AA861286A184428622846FFF7BCFF86
:1010F00004E0D5E9012114F8010B9047B442F8D37C
:101100002846FFF7C7FF70BD2DE9F04106460024D1
:1011100010687529314616A510D0AFF3008000285D
:1011200002DA404213A507E031688A0701D512A50B
:1011300002E0490704D511A5012401E0AFF30080C6
:1011400000210A2206F1240709E0B0FBF2FCB0FB03
:10115000F2F302FB1C00303078541846491C00287A
:10116000F3D123462A463046BDE8F04100F0F0B9FD
:10117000000000002D0000002B00000020000000F7
:1011800070B504460D4621461068AFF300802188F3
:10119000090502D50F4A7A4402E00E4A7A440E321B
:1011A000002104F1240305E000F00F060009965D1C
:1011B0005E54491C0028F7D120780023000704D58D
:1011C000702D02D009B1022311322046BDE87040D3
:1011D00000F0BEB9269E01002DE9F05F8946044665
:1011E0004FF0000ADFF874B1FB44C0F820A020469D
:1011F000E1688847002874D0252806D0D4E9012169
:101200009047206A401C2062F1E700265F46204696
:10121000E16888472028054607DB312D05D278197B
:1012200010F8200C08B10643F1E7B00701D526F00D
:101230000406C4F81CA00027C4F818A02A2D09D061
:1012400028460AF025FD38B304EB8708303DC8F87E
:10125000185019E059F8041B204604EB87029161ED
:10126000E1688847012F054618D1E069002820DA97
:1012700026F020061DE0D8F8180000EB800005EBF2
:1012800040003038C8F818002046E1688847054615
:101290000AF0FEFC0028EED1012F0AD02E2D08D135
:1012A0002046E16888477F1C0546022F46F020064D
:1012B000C4DBA069002803DA404246F00106A061C1
:1012C000F00701D026F010066C2D0BD0682D09D048
:1012D0004C2D39D06A2D35D0742D35D07A2D33D0A0
:1012E00016E038E0E1682F4620468847B8420546B8
:1012F00009D16C2F26D04FF48060E1680643204668
:101300008847054604E06C2F1AD04FF480700643DE
:101310000DB3A5F14100192802D8203546F4006626
:101320004A462946204626604E46FFF70FF880B110
:1013300001280BD0F61D26F0070000F1080956E73A
:101340004020E4E78020D8E70020D6E706F1040932
:101350004DE7284652E7206ABDE8F09FFC9D01005A
:1013600010B5203AC0F00B80B1E81850203AA0E840
:101370001850B1E81850A0E81850BFF4F5AF5FEA74
:10138000027C24BFB1E81850A0E8185044BF18C927
:1013900018C0BDE810405FEA827C24BF51F8043BCE
:1013A00040F8043B08BF7047D20728BF31F8023B22
:1013B00048BF11F8012B28BF20F8023B48BF00F8B6
:1013C000012B70474FF000020429C0F0128010F08A
:1013D000030C00F01B80CCF1040CBCF1020F18BF11
:1013E00000F8012BA8BF20F8022BA1EB0C0100F0A4
:1013F0000DB85FEAC17C24BF00F8012B00F8012B77
:1014000048BF00F8012B70474FF0000200B51346AB
:1014100094469646203922BFA0E80C50A0E80C5014
:10142000B1F12001BFF4F7AF090728BFA0E80C50C5
:1014300048BF0CC05DF804EB890028BF40F8042BBE
:1014400008BF704748BF20F8022B11F0804F18BF2B
:1014500000F8012B704700004FF0013C50F8042BBE
:1014600051F8043B9A4215D1A2EB0C03934313EAC3
:10147000CC130BD150F8042B51F8043B9A4209D1FC
:10148000A2EB0C03934313EACC13E7D04FF0000018
:10149000704700BFD01A01BAB1FA81F101F018010A
:1014A00022FA01F0CB40C1F12001DBB2C0B2C01A78
:1014B0002CFA01F3D11A914311EAC311E6D1704716
:1014C00070477047704730B5B0F10A024FEA900E8E
:1014D00071F100034EEA817EB0EB0E0061EB9101E9
:1014E0004FEA101E4EEA017E10EB0E0041EB111187
:1014F0004FEA102E4EEA016E10EB0E0041EB112167
:101500004FEA104E4EEA014E10EB0E0041EB114136
:10151000401841F100014FEAD00040EA41704FEA23
:10152000D10110EB80054FEA810444EA907444EB4A
:1015300001046D1944EB0404521BA3414FF0000356
:1015400048BF0A3200D530BD401C41F1000130BD1A
:101550002DE9F0470D4699469246044600F12408CD
:101560000168880604D5E06921F01001216000E0DF
:101570000120A84201DD471B00E00027A1697A197C
:1015800002EB0900081AA0612078C00602D42046A8
:10159000FFF76AFD002608E0D4E901211AF80600E9
:1015A0009047206A401C761C20624E45F4DB207870
:1015B000C0060AD52046FFF757FD06E0D4E9012111
:1015C00030209047206A401C2062381EA7F1010796
:1015D000F4DC07E0D4E9012118F805009047206AFF
:1015E000401C2062281EA5F10105F3DC2046FFF710
:1015F00051FD2078000602D50220BDE8F0870120C9
:10160000FBE770472DE9FF4F0C461E464FF0FF37B2
:101610008BB0D2E90001DDF860800A908A46C1F300
:101620000A5505B93D46002108460CF089F8BAF183
:10163000000F00F4400005DA00EB80004FF4400199
:1016400001EA50004FEA9059B9F1010F00DDB946A7
:101650000A9850EA4A000ED044F61050A5F2FF3521
:1016600045432F14B8F1000F1ED07542291E1EDD10
:10167000C9F100021CE0B8F1010F4FF0000001D0E9
:10168000302103E0F24305E02154401CB042FBDB73
:1016900030460022002121540B99C1F80880C1E98D
:1016A00000200FB0BDE8F08FBD1B6D1CDEE74A4681
:1016B00000DA694206A800F03DFA06AB93E807009D
:1016C00003AB83E8070050460A9900F0DBFA8DE887
:1016D0000700A0F500501F3800900398002D0ADD88
:1016E00042F21F014A460844002303A903906846BA
:1016F00000F044FD09E0A0F500504A461F380023E1
:1017000003A90390684600F04EFD8DE80700000431
:10171000000C03D04FF0FF30410800E01046B8F154
:10172000000F03D00022009215461EE0751E05D45E
:10173000FFF7C9FE303262556D1EF9D5B34601225E
:10174000084302D000227F1C04E02078302801D119
:1017500000227F1E002A099784D01DE0112D07DA90
:10176000FFF7B1FE303262556D1C50EA0102F5D12F
:10177000084302D00098C8B10EE00021681E05E0C1
:10178000235C625C63542254401E491C8142F7DB97
:10179000AB46A81B401E0990002004F80B000B98D4
:1017A000099AC0F80880C0E9002B7AE711264FF0AB
:1017B000000857E72DE9F04F88460446D21D22F075
:1017C000070191B0D1E90001CDE90A010AF02CFA34
:1017D00002460B98C00F01D02D2007E0206881073A
:1017E00001D52B2002E0202101EAC000032A099044
:1017F00001D0072A05DB03464146204600F05AF98E
:101800000BE12078800601D5E06900E00620B8F100
:10181000650F814606D0B8F1660F18D0B8F1670F92
:1018200070D131E00020B9F1110F009001DB1123DC
:1018300001E009F101030AAA01A90CA8FFF7E2FEE1
:10184000DDE90C70002609F10105834647E001201F
:101850004B4600904FF000470AAA01A90CA8FFF7D9
:10186000D1FEDDE90DB00C995D46002610B909F1F5
:1018700001000D18B9EB050003D4C0F1FF3609F1E2
:101880000105A5EB09002BE0B9F1010F01DA4FF0DA
:1018900001090020B9F1110F0090484601DD112324
:1018A00000E003460AAA01A90CA8FFF7ABFEDDE998
:1018B0000C704D4600268346207800070AD4AB45BD
:1018C00000DA5D4601A8012D04DD411911F8011C63
:1018D000302907D04F4502DA17F1040F04DA01204E
:1018E00082460FE06D1EEEE7002F02DCED1B3E444A
:1018F00003E0781CA84200DD7D1CB81B00F1010A42
:101900004FF000472078000703D4AA4501DB4FF0D1
:10191000FF3A0021B7F1004F0DF143088DF8431055
:1019200024D002202B23002F01DA7F422D230A210D
:10193000021EA0F1010000DC5FB197FBF1FC97FBF8
:10194000F1F201FB1C7C17460CF1300C08F801CDBC
:10195000EEE7A8F1010003702188090501D54521B2
:1019600000E06521A0F1010800F8011C09980FA909
:10197000A1EB0807FF1D00B10120411901EBEA703E
:10198000A1693844081A401EA0612078C00602D41C
:101990002046FFF769FB099828B1D4E90121904757
:1019A000206A401C20622078C00622D52046FFF71E
:1019B0005BFB1EE0002E04DBB34502DD01A8805D69
:1019C00000E03020D4E901219047206A401C2062C9
:1019D000761CAAF101005FEA000A0AD100F066F85D
:1019E000C0680168405CD4E901219047206A401C2E
:1019F0002062281EA5F10105DCDC07E0D4E9012105
:101A000018F8010B9047206A401C2062381EA7F18D
:101A10000107F3DC2046FFF73DFB032011B041E650
:101A200001694A1C02610878704700B58FB0CDE9A2
:101A300001310021059105497944CDE90310114692
:101A40006846FFF7C9FB0FB000BD0000E5FFFFFFD0
:101A50000A6802F8010B0A60704710B5436913B1B8
:101A6000AFF3008001E0FFF726FB012010BD1278E4
:101A700000F124010A7000224A700122EDE711688A
:101A80004FF0FF32E9E70000074B70B50D467B448D
:101A9000FFF7CBFF0446284600F0BEF810B14FF028
:101AA000FF3070BD204670BD87A20000004870471F
:101AB000A0A607242DE9F0411F460446032601682D
:101AC000072A01F4006004DB08B116A505E016A59D
:101AD00003E008B115A500E015A521F01000206075
:101AE000A069C01EA0610FB1401EA0612046FFF793
:101AF000BBFA4FB1D4E9012138469047206A401C17
:101B00002062C01C206206E0206AFAE7D4E90121C5
:101B100015F8010B9047761EF8D22046FFF7BAFA67
:101B2000BDE8F0814E414E006E616E00494E4600A8
:101B3000696E66002DE9F047814616468AB0354841
:101B400078440DC88DE80D0032487844801C03AC01
:101B50000DC884E80D0041F69B300844372190FB06
:101B6000F1F290FBF1F5A5F1800501FB12041B3C9D
:101B700002D56442012000E00020DFF898A08046F2
:101B80000027FA44AAF1BE0A0EE0E0070AD0324666
:101B9000684607EB470101230AEB810100F003FBD4
:101BA0008DE8070064107F1C002CEED1194F7F4494
:101BB000AE3F19E0E80715D007EB04100DF1180A45
:101BC00090E80E008AE80E00C068F04201D1981932
:101BD00008903246012306A903A800F0E4FA03ABFB
:101BE00083E807006D10641C002DE3D14FF0010362
:101BF00032466946B8F1000F03A802D000F0BEFAE1
:101C000001E000F0D0FAC9E90001C9F808200AB0E3
:101C1000BDE8F08734950100007B00F0800070473C
:101C20000048704780A607247546FFF7F9FFAE46C7
:101C300005006946534620F00700854618B020B5D8
:101C4000FEF7C4FBBDE820404FF000064FF0000750
:101C50004FF000084FF0000B21F00701AC46ACE854
:101C6000C009ACE8C009ACE8C009ACE8C0098D46C1
:101C7000704710B50446AFF300802046BDE8104021
:101C8000FEF78FBB5FEA400C08BF91F0000F4FEAF0
:101C90008C234FEAC12243EA51514FEA1C5018BF2E
:101CA00000F5F0404FEA300018BF41F000415FEA14
:101CB0006C5C00F02980BCF1FF3F08BF40F0804021
:101CC0007047130C06BF12044FF0100C4FF0000CBD
:101CD000130E04BF12020CF1080C130F04BF120103
:101CE0000CF1040C930F04BF92000CF1020CD30F03
:101CF00004BF52000CF1010C11464FF00002A0F19C
:101D00001F00A0EB0C00704711F0004F08BF704798
:101D100031F000413FF4D5AF0B0C06BF09044FF082
:101D2000100C4FF0000C0B0E04BF09020CF1080C54
:101D30000B0F04BF09010CF1040C8B0F04BF8900C9
:101D40000CF1020CCB0F04BF49000CF1010CCCF1DB
:101D50002003A0EB0C0022FA03F302FA0CF241EA92
:101D6000030100F10100704720F07F4C80EA03007E
:101D700023F07F47ACEB070303F57C5300F00040F2
:101D800003F1FF032DE980494FEA154B09B44FEAEF
:101D9000144325EA0B4E24EA03480FF2042606EB0F
:101DA000132749083E785FEA320203FB0667C7F54E
:101DB000000707FB06F64FEA54374FEAD64606F10E
:101DC000020607FB066CCCF1005C4FEA1C472CEACC
:101DD000074C07FB06F40CFB06F504EB15464FEA2F
:101DE000961634BF00204FF000404FEAD13706FB73
:101DF00007FC4FEA1C4C0CFB0BF7D21B03FB0CF748
:101E000061EB07010CFB0EF7B0EB074072EB1742DA
:101E10000CFB08F734BFA2EB0742B2EB074261EBC1
:101E200017414FEA0C444FEA910706FB07FC4FEAC3
:101E30001C4C0CFB0BF7B0EBC74072EB573203FBAB
:101E40000CF734BFA2EBC742B2EBC74261EB57318C
:101E50000CFB0EF7B0EBC70072EB57720CFB08F7E8
:101E600034BFA2EBC702B2EBC70261EB5771039F0D
:101E70004FEA816141EA921104EBCC044FEAD13779
:101E80004FEA826206FB07FC42EA90124FEA80604A
:101E90004FEA1C4C0CFB0BF7D21B03FB0CF761EB5E
:101EA00007010CFB0EF7B0EB074072EB17420CFB7F
:101EB00008F734BFA2EB0742B2EB074261EB1741D0
:101EC0004FEA8C554FEA910704EB9C2406FB07FC74
:101ED0004FEA1C4C0CFB0BF7B0EBC74072EB5732D0
:101EE00003FB0CF734BFA2EBC742B2EBC74261EB76
:101EF00057310CFB0EF7B0EBC70072EB57720CFBBF
:101F000008F734BFA2EBC702B2EBC70261EB57710F
:101F100015EB4C254FEA816141EA92114FEA82624A
:101F20004FEAD13742EA901206FB07FC44F1000465
:101F30004FEA80604FEA1C4C0CFB0BF7D21B03FBF3
:101F40000CF761EB07010CFB0EF7B0EB074072EBEF
:101F500017420CFB08F734BFA2EB0742B2EB074273
:101F600061EB174115EB1C154FEA813141EA9241B3
:101F70004FEA823242EA90424FEA80304FEA0C76D2
:101F800044F1000448EA03434EEA0B484FF0000EC8
:101F9000B2EB080C71EB030724BF624639464EEBE7
:101FA0000E0E4FF0000B0018524149414BEB0B0B4A
:101FB000B2EB080C71EB03077BF1000B24BF624608
:101FC00039464EEB0E0E4FF0000B001852414941BE
:101FD0004BEB0B0BB2EB080C71EB03077BF1000B27
:101FE00024BF624639464EEB0E0E51EA020718BF77
:101FF00046F0010616EB0E7655F1000254F1000191
:1020000003D5BDE88901BDE80088BDE88901BDE8C8
:102010000048B619524141EB0101A3F10103704799
:1020200080807F7E7D7C7B7A797877767675747315
:10203000727171706F6E6E6D6C6C6B6A6A696868D4
:10204000676666656464636362616160605F5F5E6A
:102050005E5D5D5C5C5B5B5A5A59595858575756E0
:102060005655555554545353525252515150505045
:102070004F4F4F4E4E4D4D4D4C4C4C4B4B4B4A4A97
:102080004A494949484848474747474646464545DB
:102090004544444444434343434242424241414114
:1020A000002B9C4630D477002BD01CB54FEA370765
:1020B00003B44FF010004FF01001BAF1000F06D03A
:1020C000BCF1000FDCBF40F0080040F008010BF04D
:1020D00037FB0FBCBDE810400BF1010BBBF1010F4A
:1020E00008BF5FEA170722BF12F1010211F10101D7
:1020F0004FF0004143F1000300F0004043EA0000CC
:102100007047F9D35708D0E746EA064613F1400F67
:102110004FEA16461FDD13F1200FDFBF16430A46B4
:10212000002120335B42BED0C3F1200746EA0646B9
:1021300002FA07F74FEA164646EA0706C3F12007F8
:1021400022FA03F201FA07F721FA03F14FF0000334
:1021500042EA0702A7E746EA020646EA06464FEACF
:10216000164646EA0106BCBF46EA0646360C4FF064
:1021700000034FF000024FF0000194E72DE9804C7E
:102180009A46934670B491E8380007C831EA400C8B
:1021900048BF34EA430C03D5FFF7E6FDFFF780FFA5
:1021A000F0BCBDE8008C2DE9804C9A46934670B493
:1021B00091E8380007C810F0804F08BF13F0804F37
:1021C00003D100F005F8FFF76BFFF0BCBDE8008C11
:1021D00020F07F4780EA030023F07F4C07EB0C03DD
:1021E000A3F57C5300F00040A3F1FE0392F0000F32
:1021F00000F0B38095F0000F00F077802DE90149E1
:102200004FEA11404FEA144621EA004800FB06FC61
:1022100024EA064708FB06F607FB08F800FB07F769
:1022200018EB06484CEB164C4FEA124B18EB0748DC
:102230004FEA15464CEB174022EA0B4E0BFB06FC0F
:1022400025EA06470EFB06F607FB0EFE0BFB07F71B
:102250001EEB064E4CEB164C4FF000061EEB074EE5
:102260004CEB174B18EB0B0840F1000018EB0E0B72
:1022700058EB000840F100008F1A4FF000013CBFFE
:10228000C943661B14BFB5EB040C00213CBFC94316
:10229000F61B4FEA17444EEA8E0E27EA04454FEA32
:1022A0001C4704FB07622CEA074C05FB07F70CFBF5
:1022B00005F604FB0CFC16EB074642EB174216EB47
:1022C0000C4642EB1C421BEB060658EB0202414156
:1022D00046EA9E0601D5BDE80189B619524141EB97
:1022E0000101A3F10103BDE801894FEA14454FEA5A
:1022F000114724EA054621EA074C05FB07F406FBD3
:1023000007F70CFB06F105FB0CFC11EB074144EB56
:1023100017444FEA124711EB0C4144EB1C4422EAEC
:10232000074C05FB07F206FB07F70CFB06F605FB5F
:102330000CFC16EB074642EB174216EB0C4642EB41
:102340001C456A1854F1000148BF7047B619524144
:1023500041EB0101A3F10103704795F0000F37D065
:102360004FEA11424FEA144721EA024624EA074C99
:1023700002FB07F106FB07F70CFB06F402FB0CFC63
:1023800014EB074441EB17414FEA154714EB0C449B
:1023900041EB1C4125EA074C02FB07F506FB07F75A
:1023A0000CFB06F602FB0CFC16EB074645EB17454B
:1023B00016EB0C4645EB1C42121951F1000148BFC7
:1023C0007047B619524141EB0101A3F10103704777
:1023D0004FEA14454FEA114724EA054621EA074C23
:1023E00005FB07F106FB07F70CFB06F24FF00006B2
:1023F00005FB0CFC12EB074241EB174112EB0C42C0
:1024000051EB1C4148BF7047921841EB0101A3F109
:102410000103704700BFFEE710B508F011FB08F09C
:10242000C1FA0348006840F004000149086010BD8B
:102430009CEF00E0704730B5034614460022DA688E
:102440000022D1E9000540EA05200D8940EA054057
:102450000D7B40EA05600243DA60002030BD30B5F4
:102460000346144600229A680022D1E9000540EA9A
:1024700005200D8940EA05400D7B40EA05600243D6
:102480009A60002030BD000010B50246002313689A
:1024900009480340D1E901042043CC6820430C697A
:1024A00020434C6940EA44208C6940EA44300343AD
:1024B0001360002010BD00008901F0FF70B50446D4
:1024C0001D460023B5F5804F13D154F822300C4837
:1024D0000340D1E9000640EA06108E6840EA062073
:1024E0008E8940EA06408E693043034344F8223027
:1024F00003E06FF0704044F82200002070BD00003F
:102500000000F0CF10B502460023086852F82030D2
:102510001B480340D1E901042043CC6820430C69E7
:1025200020434C6920438C692043CC6920430C6ACA
:1025300020434C6A20438C6A2043CC6A20430C6BB6
:1025400020438C6B20434C6B20430343886808284E
:1025500001D143F04003086842F82030086BB0F521
:10256000801F05D1086818B110680C6B20431060FB
:10257000086818B110684C6B20431060002010BD33
:102580008004C0FF30B5034614460022601C53F897
:10259000202002F04042D1E9000540EA05108D6894
:1025A00040EA05208D8940EA0545088A401E45EA33
:1025B0000055087D801E45EA00608D69284302436E
:1025C000601C43F82020186800F4801038B1586867
:1025D00020F47002088A401E42EA00525A6000202D
:1025E00030BD30B50246002300240868012816D00B
:1025F00013686FF30E03D1E901052843CD68284322
:102600000D6928434D6928438D692843CD692843C6
:102610000D6A28434D6A28430343136019E0136889
:1026200023F4F843D1E9070528434D6A28430343BF
:1026300054686FF30E04D1E901052843CD6828439F
:102640000D6928434D6928438D692843044313606D
:102650005460002030BD0246506940EA410050619C
:102660000020704718B5034600200090D1E900040F
:1026700020438C68641E40EA4410CC6840EA442041
:10268000009000981861002018BD000070B5034646
:10269000154600220024012D1FD09A6802F07042D6
:1026A0000868401E4E68761E40EA06168868401E7E
:1026B00046EA0026C868401E46EA0036088A401EE0
:1026C00046EA0046888A401E46EA0056087E401EBA
:1026D00046EA006002439A6022E09A68114802408C
:1026E000C868401E0603888A401E46EA005002431E
:1026F000DC6804F070440868401E4E68761E40EAAC
:1027000006168868401E46EA0026088A401E46EAE9
:102710000046087E401E46EA006004439A60DC6082
:10272000002070BDFF0F0FFF38B504464FF0AA30F0
:1027300000900949897901FB04F004236A460021CD
:1027400007F0DEFF044989796143481C04236A4687
:10275000002107F0D5FF38BD803500242DE9FC4766
:1027600004460D4600275DE04FF0000820E001A878
:1027700030490090B1F802904FEAE97109EB91718C
:102780008B102C49897901FB04F02A46002107F0BF
:10279000EBFD28494888C11700EB9171BDF8042072
:1027A000B2EBA10F00D007E008F101001FFA80F89A
:1027B000204880794045DADC00BF1E4880794045DA
:1027C00002D10020BDE8FC87204607F03FFB06460B
:1027D00026B1394618A0FEF727FC21E0681CF8B1A5
:1027E0000020019016E01349B1F802904FEAE97118
:1027F00009EB91718B100F498979BDF8042004FB16
:1028000001200022114607F049FFBDF80400401CDA
:1028100080B2019007488079BDF804108842E2DC5C
:10282000781C87B2032F9FDB214609A0FEF7FCFB33
:102830000120C7E7803500246572726F72206572CF
:1028400061736520626C6F636B3A25640D0A00004A
:1028500062616420626C6F636B20636865636B65A3
:10286000643A25640D0A000038B504460020009043
:102870000F49897901FB04F001236A46002107F022
:10288000BBFD9DF80000FF2810D1094989796143FB
:10289000481C01236A46002107F0AEFD9DF80000A8
:1028A000FF2801D1002038BD0120FCE70220FAE713
:1028B000803500242DE9FE4F81460F4692461D4685
:1028C0000024002002908046019000263B48807939
:1028D000B9FBF0F839488079B9FBF0F100FB1190B1
:1028E000019000BF404600F0E1F8064633484089B9
:1028F000B04202D20120BDE8FE8F00243AE00198E8
:10290000844221D305B32D484088C01BA84205D27C
:102910002A484088C01B1FFA80FB01E01FFA85FB94
:10292000264ACDF800B0927906FB0241234A9279FB
:1029300008FB024053463A4607F09AF802900027F7
:10294000DA44A5EB0B050AE01C4A927906FB02412A
:102950001A4A927908FB024007F08EF90290029819
:1029600030B13046FFF7E0FE012000F029F8B9E76A
:10297000601C84B211488079A042C0DC0F48807985
:10298000A04219D1304600F099FA404607F05EFAAD
:1029900000240CE00948406930F81400404504D197
:1029A0000649496921F8146005E0601C84B20348B7
:1029B0004089A042EEDC00BF00209CE78035002467
:1029C000F8B505460026002406E04FF6FF703049B2
:1029D000496921F81400641C2D484089A042F4D8AC
:1029E00000202B498881002433E02949897901FBA3
:1029F00004F004236A46002107F0FEFC9DF8000065
:102A0000FF2809D145B1224989796143481C012336
:102A10006A46002107F0F0FC9DF80000FF2813D162
:102A20009DF802009DF8031000EB0126184840892C
:102A3000B04203D91649496921F8164014488089E3
:102A4000401C1349888103E0214612A0FEF7ECFAEE
:102A5000641C0F484089A042C7D800240BE00C48F2
:102A6000406930F814000A494989884202DB084964
:102A7000CC8104E0641C06484089A042EFD800BF26
:102A80000348C089642801DA0220F8BD0020FCE771
:102A90008035002462616420626C6F636B20696E14
:102AA0006465783A25640D0A0000000070B505469B
:102AB000002418484089401E17490968884204D2FA
:102AC00014484089401E1449086005F0010112486D
:102AD000006800F023F80446601C90B90D48408956
:102AE000401E0D49096888420BD90A484089401E9A
:102AF0000949086005F001010748006800F00EF878
:102B00000446601C10B94FF0FF3070BD02480460ED
:102B10002046FAE78035002434000024F8B5054645
:102B20000E460020009000246C1C14E0601E00F093
:102B30000100B0420ED1611E094A927901FB02F0F8
:102B400004236A46002107F057FC0098401C08B98E
:102B5000601EF8BD641E002CE8D1601EF9E700007D
:102B600080350024F8B5002600202D4988810024F6
:102B700017E02046FFF778FE05468DB9204607F09E
:102B800065F905463DB1214626A0FEF74DFA2046DF
:102B9000FFF7CAFD04E022488089401C2049888153
:102BA000641C1F484089A042E3D81D48818921A0A8
:102BB000FEF73AFA1A488089642801DA0120F8BD44
:102BC00017488089C0EB401000EB4000642190FB67
:102BD000F1F600200090002415E02046FFF744FEA7
:102BE00005467DB90E49897901FB04F002236A4646
:102BF000194607F085FD0098401C00900098B042EF
:102C000000D104E0641C06484089A042E5D800BF1A
:102C10000120FFF7D5FE08B10220D0E70020CEE763
:102C20008035002442616420626C6F636B3A2564D6
:102C30000D0A0000676F6F645F626C6F636B6E7587
:102C40006D3A25640D0A000010B507F057F908B178
:102C5000012010BD1F48406920B11E484169002075
:102C600009F0E4FA1B4840894100002009F0F0FA1D
:102C7000184948610A4652895100164A5069FEF7C0
:102C8000A1FB1448406908B90120E2E70120FFF7E1
:102C900097FE044664B110A0FEF7C6F9FFF762FF85
:102CA0000446002C13D012A0FEF7BEF90220D0E794
:102CB0000848418913A0FEF7B7F90648818917A093
:102CC000FEF7B2F90348C18919A0FEF7ADF900205B
:102CD000BFE7000080350024666F726D6174206E5E
:102CE000616E6420666C6173682E2E2E0D0A0000E2
:102CF000666F726D6174206661696C6564210D0A8E
:102D000000000000746F74616C20626C6F636B2054
:102D10006E756D3A25640D0A00000000676F6F64E0
:102D200020626C6F636B206E756D3A25640D0A002E
:102D300076616C696420626C6F636B206E756D3AAE
:102D400025640D0A00000000014600220648C089E3
:102D5000884202D24FF6FF7070470348406930F84E
:102D600011201046F8E70000803500242DE9FF4FC0
:102D700083B014469A460026002500BF97E04E48CF
:102D8000408890FBF4F04C498979484304992944E0
:102D9000B1FBF0F002900298FFF7D6FF8346464859
:102DA0004189594503D8012007B0BDE8F08F42485A
:102DB000408890FBF4F040498979484304992944BC
:102DC000B1FBF0F200FB1210604301903A484188D9
:102DD0000198B0FBF1F0384989790BFB01083648BE
:102DE00041880198B0FBF1F201FB1209324840889A
:102DF000A0EB0900B0FBF4F087B2AAEB0500B842E3
:102E000002D2AAEB050087B207FB04F083B21FFAD7
:102E100089F14046039A07F059F90646032E39D145
:102E200007FB04F083B21FFA89F14046039A07F0CA
:102E30004DF90646032E2DD107FB04F31FFA89F145
:102E40004046039AFFF736FD1B488079B8FBF0F047
:102E5000311F0090FFF782FC06467EB91648807944
:102E6000B8FBF0F000210090FFF778FC064612480E
:102E70008079B8FBF0F0009006F0E8FF4EB10E4804
:102E80008079B8FBF0F00090FFF74EFC0120FFF7CF
:102E900097FD0026042E00D100260EB1022083E704
:102EA000039804FB07000390781E05446D1C5545EC
:102EB000FFF465AF002077E78035002438B504467D
:102EC000CC20009000250649897901FB04F00123FC
:102ED0006A46194607F014FC0546284638BD00002E
:102EE000803500242DE9FF4F87B014469A464FF0F5
:102EF000000B0025681E029000BFA7E056484088DE
:102F000090FBF4F054498979484308992944B1FB6E
:102F1000F0F005900598FFF717FF06464E484189E7
:102F2000B14203D801200BB0BDE8F08F4A48408879
:102F300090FBF4F048498979484308992944B1FB4A
:102F4000F0F200FB1210604303904348418803985D
:102F5000B0FBF1F04049897906FB010004903E483E
:102F600041880398B0FBF1F201FB12093A4840880E
:102F7000A0EB090080B20690BDF8180090FBF4F0B9
:102F800080B20690AAEB050087B2BDF81800874210
:102F900001DBBDF8187007FB04F806A81FFA89F1D9
:102FA000C8F38F034FF0FF320090049807F0DCF96C
:102FB0008346BBF1000F01D00220B4E7BDF8180032
:102FC000B0EB980F09D11FFA88F31FFA89F1079A1D
:102FD000049807F0A1FA834601E04FF0010BBBF122
:102FE000000F07D10298B04204D03046FFF766FFC9
:102FF00083460296BBF1000F22D01748807916490C
:10300000498848430399401AB0FBF4F080B2069017
:10301000AAEB050087B2BDF81800874201DBBDF8B6
:10302000187007FB04F81FFA89F14346079A0498C1
:10303000FFF740FC8346BBF1000F01D0032072E78D
:10304000781E05440798404407906D1C5545FFF4D1
:1030500055AF002067E700008035002410B5044616
:103060000CB9012010BD94F83500022803D080204F
:1030700060650120F6E734492068884205D333496A
:103080002068884201D8012000E00020C0B104205F
:1030900084F835002C49206888420AD32B492068DF
:1030A000884206D82068006820F001002168086086
:1030B00048E02068006820F001002168086041E0D5
:1030C0002068006820F00E00216808601E49206812
:1030D00088420AD31D492068884206D820680068C3
:1030E00020F001002168086005E02068006820F0F9
:1030F000010021680860206E006820F48070216E55
:10310000086094F85C100120884011490860D4E9F7
:1031100019104860E06E40B1E06E006820F48070E5
:10312000E16E0860D4E91C10486000BF002084F8FC
:10313000340000BF012084F83500206D10B1204616
:10314000216D884700208DE710000240B80402403E
:10315000045402580348006840F001000149086027
:103160007047000020040058F8B502460B460021C5
:10317000002600240020824D00BFFCE0012707FA52
:1031800001F61F6807EA0604B4427CD15F68022F8B
:1031900002D05F68122F1AD14FEAD10C02F120073A
:1031A00057F82C004F074FEAD76C0F2707FA0CF798
:1031B000B8434FEA417C4FEADC6C1F6907FA0CF711
:1031C00038434FEAD10C02F1200747F82C00106871
:1031D0004FEA410C032707FA0CF7B8431F7907F0B1
:1031E00003074FEA410C07FA0CF7384310605F6899
:1031F000012F08D05F68022F05D05F68112F02D021
:103200005F68122F17D190684FEA410C032707FA25
:103210000CF7B8434FEA410CDF6807FA0CF7384364
:103220009060506801278F40B8431F79C7F300179B
:103230008F4038435060D0684FEA410C032707FAAB
:103240000CF7B8434FEA410C9F6807FA0CF7384374
:10325000D0605F6807F08057B7F1805F95D100BFFD
:10326000484F3F6847F00207DFF818C1CCF80070FC
:1032700067463F6807F00207009700BF00BF424F54
:103280004FEA910C00E075E057F82C008F074FEAE9
:10329000177C0F2707FA0CF7B8433C4FBA4201D10D
:1032A00000272DE03A4FBA4201D1012728E0394FDB
:1032B000BA4201D1022723E0374FBA4201D1032796
:1032C0001EE0364FBA4201D1042719E0344FBA420A
:1032D00001D1052714E0334FBA4201D106270FE090
:1032E000314FBA4201D107270AE0304FBA4201D12B
:1032F000082705E02E4FBA4201D1092700E00A272E
:103300004FEA817C4FEA1C7C07FA0CF738431E4FCA
:103310004FEA910C47F82C002868A0435F6807F437
:103320008037B7F5803F00D1204328606868A0430C
:103330005F6807F40037B7F5003F00D120436860AD
:103340004FF0B0473868A0435F6807F48017B7F5BF
:10335000801F00D120434FF0B04738607868A04309
:103360005F6807F40017B7F5001F00D120434FF046
:10337000B0477860491C1029FFF400AFF8BD000089
:1033800080000058F4440258080400580000025815
:103390000004025800080258000C0258001002589D
:1033A0000014025800180258001C0258002002584D
:1033B00000240258024613690B400BB1012000E0C3
:1033C0000020704742694A40426170470AB1018358
:1033D00000E041837047000001480068704700002A
:1033E000180000240348006803490978084401498B
:1033F00008607047180000242000002410B5032046
:1034000000F052FB0F2000F007F808B1012010BDBA
:1034100000F058FA0020FAE770B504460E4800782C
:103420004FF47A71B1FBF0F00C490968B1FBF0F58B
:10343000284602F0C7FA08B1012070BD102C07D24F
:1034400000222146501E00F0F1FA0548046001E018
:103450000120F2E70020F0E720000024040000240F
:103460001C00002470B504460E46154600BF94F8B3
:10347000A000012801D1022070BD012084F8A00025
:1034800000BF022084F8A10005EB850101EBC50215
:1034900004F1380101EB820034223146FDF760FF70
:1034A0002A463146204606F093F9012021684862F9
:1034B00084F8A10000BF002084F8A00000BF00BF76
:1034C000DAE7000070B50446002500260CB901209B
:1034D00070BD94F8A10028B9002084F8A00020460F
:1034E00000F07EF8022084F8A1002068806920F0B6
:1034F000704021688861D4E901010843E16808430C
:103500002169084321688969084321688861206826
:1035100080683249084021688860A08A05042068D4
:103520008068A16929430843216888602068C068D1
:103530002A4908402168C860A08B05042068C0683B
:10354000216A294308432168C8602068006923492B
:10355000084021680861A08C050420680069A16A00
:103560002943084321680861206840691B490840D5
:1035700021684861A08D050420684069216B2943BA
:1035800008432168486194F83500050294F8360034
:1035900006042068C06A00F07F402168C86246EADD
:1035A000050094F8341008432168C96A084321686B
:1035B000C8622068406B40F00600216848632068BC
:1035C000806940F00100216888610020C4F8A400EF
:1035D000012084F8A10000207AE7000000F800F044
:1035E00010B586B0044600BF4848006840F00800A7
:1035F000464908600846006800F00800009000BFD7
:1036000000BF00BF41481038006840F010003F493B
:10361000103908600846006800F01000009000BFF4
:1036200000BF00BF3948001F006840F00200374962
:10363000091F08600846006800F00200009000BF03
:1036400000BF00BF0846006840F020000860084640
:10365000006800F02000009000BF00BF00BF0846D7
:10366000006840F0400008600846006800F0400034
:10367000009000BF00BF00BF0846006840F0800017
:1036800008600846006800F08000009000BF00BF9E
:1036900000BF0846006840F4807008600846006873
:1036A00000F48070009000BF00BF20200190012036
:1036B000029003900320049001A91548FFF754FDE0
:1036C0004FF48060019002200290002003900320BC
:1036D00004900E20059001A90E48FFF745FD4FF418
:1036E0000C60019001A90C48FFF73EFD4FF47E40AD
:1036F000019001A90948FFF737FD40F2F7600190FA
:1037000001A90748FFF730FD06B010BDE444025898
:10371000000402580014025800180258001C0258F5
:10372000002002582DE9F04104460E4617469846FF
:1037300000BF94F8A000012802D10220BDE8F0816A
:10374000012084F8A00000BF022084F8A10008EB4B
:10375000880000EBC80104F1380000EB81052E6001
:10376000A86A30446860AF60E86A3844E86042465E
:103770002946204606F02CF801202168486284F88A
:10378000A10000BF002084F8A00000BF00BFD5E763
:103790002DE9F04104460E461746984600BF94F8BE
:1037A000A000012802D10220BDE8F081012084F8A8
:1037B000A00000BF022084F8A10008EB880000EB05
:1037C000C80104F1380000EB8105286830446860C6
:1037D000A8683844E860AE62EF6242462946204657
:1037E00005F0F6FF01202168486284F8A10000BFBF
:1037F000002084F8A00000BF00BFD5E74178154A3B
:1038000011600178F9B1121D41681160017B09074F
:10381000C27A41EA0261827A41EAC241427B41EACC
:103820008241827B41EA4241C27B41EA0241427AC3
:1038300041EA0221027A41EA420102781143054A33
:103840000832116005E00021024A121D1160121DAC
:103850001160704798ED00E000BF00BF00BFBFF3EC
:103860005F8F00BF00BF00BF0548006820F48030B4
:103870000349086000200249703108607047000069
:1038800024ED00E040F001010D4A11600C4970394F
:10389000096841F480310A4A703A116000BF00BFE4
:1038A00000BFBFF34F8F00BF00BF00BF00BF00BF0E
:1038B00000BFBFF36F8F00BF00BF00BF70470000A5
:1038C00094ED00E07047000070B504460E461546C2
:1038D0000CB9012070BD94F8210028B9002084F8AB
:1038E0002000204600F022F8211D2068FEF7CCFDC4
:1038F0003146D4E90002FEF7B2FD2946D4E90002C0
:10390000FEF799FD2068006840F004002168086017
:103910000548006840F0004003490860012084F831
:1039200021000020D6E700000040005210B586B00C
:10393000044600BF3148006840F480502F490860B9
:103940000846006800F48050009000BF00BF00BF30
:103950002A480C30006840F0080028490C31086003
:103960000846006800F00800009000BF00BF00BFDC
:103970000846006840F0100008600846006800F043
:103980001000009000BF00BF00BF0846006840F074
:10399000400008600846006800F04000009000BF4A
:1039A00000BF4020019000200290012003900320DE
:1039B000049001A91248FFF7D7FB4FF40070019063
:1039C0000220029000200390032004900C20059018
:1039D00001A90C48FFF7C8FB4DF633000190002009
:1039E000039001A90648FFF7BFFB4FF4F060019078
:1039F00001A90548FFF7B8FB06B010BDD444025832
:103A0000000C0258001802580010025801460846DF
:103A1000002809DB00F01F0301229A4043099B00A4
:103A200003F1E023C3F8002100BF70472DE9F05FE8
:103A300080460D46164608F00FF9074639462A46D5
:103A4000334601F00700C0F1070ABAF1040F02D9AA
:103A50004FF0040A01E0C0F1070AD14600F1040A60
:103A6000BAF1070F02D24FF0000A01E0A0F1030AF9
:103A7000D4464FF0010A0AFA09FAAAF1010A0AEA41
:103A8000020A0AFA0CFA4FF0010B0BFA0CFBABF12D
:103A9000010B0BEA030B4AEA0B042146404608F0EF
:103AA000E3F8BDE8F09F000000BF00F00702064BFE
:103AB00019684FF6FF031940044B0B4343EA0221F8
:103AC000014B196000BF70470CED00E00000FA05E3
:103AD00010B501F067F90949096801F470614FF404
:103AE000807292FAA2F2B2FA82F2D140044A515C98
:103AF000C840044908600846006810BD18440258D0
:103B000094D700080400002410B501F003F9074918
:103B1000096801F07001102292FAA2F2B2FA82F260
:103B2000D140034A515CC84010BD000020440258F7
:103B300094D7000870B5014600220120002300241C
:103B40009FED811AB0EE410A9FED7F1AF0EE410A17
:103B50007E4D2D6805F003027C4D2D68C5F30530C0
:103B60007A4D2D1D2D6805F01003784D14352D6804
:103B7000C5F3CC0515FB03F501EE105AB8EE411A5A
:103B8000B0EE410A22B1012A4DD0022A7DD169E06E
:103B90006E4D283D2D68C5F340152DB36B4D283D66
:103BA0002D68C5F3C1066A4D25FA06F4B4FBF0F59D
:103BB00001EE105AF8EE411A9FED661A80EE012AC6
:103BC000624D10352D68C5F3080501EE105AB8EEA8
:103BD000411A32EE011AB7EE002A31EE021A21EE36
:103BE000811AF0EE410A1DE0594DB5FBF0F501EEEA
:103BF000105AF8EE411A9FED571A80EE012A534DE4
:103C000010352D68C5F3080501EE105AB8EE411ABB
:103C100032EE011AB7EE002A31EE021A21EE811AB5
:103C2000F0EE410A5EE04C4DB5FBF0F501EE105AA6
:103C3000B8EE412A9FED471AC0EE011A434D1035E8
:103C40002D68C5F3080501EE105AB8EE411A31EEA1
:103C5000811AF7EE001A31EE211A22EE011AF0EE67
:103C6000410A3FE03D4DB5FBF0F501EE105AF8EE8C
:103C7000411A9FED381A80EE012A344D10352D6817
:103C8000C5F3080501EE105A00E00CE0B8EE411A49
:103C900032EE011AB7EE002A31EE021A21EE811A35
:103CA000F0EE410A1EE02C4DB5FBF0F501EE105A86
:103CB000B8EE412A9FED271AC0EE011A234D1035A8
:103CC0002D68C5F3080501EE105AB8EE411A31EE21
:103CD000811AF7EE001A31EE211A22EE011AF0EEE7
:103CE000410A00BF00BF194D10352D68C5F34625A8
:103CF0006D1C01EE105AB8EE411AC0EE811ABCEEEE
:103D0000E11A81ED001A114D10352D68C5F30645F5
:103D10006D1C01EE105AB8EE411AC0EE811ABCEECD
:103D2000E11A81ED011A094D10352D68C5F30665BC
:103D30006D1C01EE105AB8EE411AC0EE811ABCEEAD
:103D4000E11A81ED021A70BD0000000028440258FB
:103D50000090D0030000004600093D0040787D013E
:103D600070B5014600220120002300249FED811A36
:103D7000B0EE410A9FED7F1AF0EE410A7E4D2D68AC
:103D800005F003027C4D2D68C5F305507A4D2D1DBD
:103D90002D6805F48073784D1C352D68C5F3CC056E
:103DA00015FB03F501EE105AB8EE411AB0EE410AC8
:103DB00022B1012A4DD0022A7DD169E06E4D283D05
:103DC0002D68C5F340152DB36B4D283D2D68C5F307
:103DD000C1066A4D25FA06F4B4FBF0F501EE105A5F
:103DE000F8EE411A9FED661A80EE012A624D1835F1
:103DF0002D68C5F3080501EE105AB8EE411A32EEEF
:103E0000011AB7EE002A31EE021A21EE811AF0EE05
:103E1000410A1DE0594DB5FBF0F501EE105AF8EEE0
:103E2000411A9FED571A80EE012A534D18352D681F
:103E3000C5F3080501EE105AB8EE411A32EE011A28
:103E4000B7EE002A31EE021A21EE811AF0EE410A95
:103E50005EE04C4DB5FBF0F501EE105AB8EE412A8C
:103E60009FED471AC0EE011A434D18352D68C5F372
:103E7000080501EE105AB8EE411A31EE811AF7EE3C
:103E8000001A31EE211A22EE011AF0EE410A3FE04B
:103E90003D4DB5FBF0F501EE105AF8EE411A9FEDDD
:103EA000381A80EE012A344D18352D68C5F30805FF
:103EB00001EE105A00E00CE0B8EE411A32EE011AA1
:103EC000B7EE002A31EE021A21EE811AF0EE410A15
:103ED0001EE02C4DB5FBF0F501EE105AB8EE412A6C
:103EE0009FED271AC0EE011A234D18352D68C5F332
:103EF000080501EE105AB8EE411A31EE811AF7EEBC
:103F0000001A31EE211A22EE011AF0EE410A00BF2A
:103F100000BF194D18352D68C5F346256D1C01EEFF
:103F2000105AB8EE411AC0EE811ABCEEE11A81EDCA
:103F3000001A114D18352D68C5F306456D1C01EEAC
:103F4000105AB8EE411AC0EE811ABCEEE11A81EDAA
:103F5000011A094D18352D68C5F306656D1C01EE73
:103F6000105AB8EE411AC0EE811ABCEEE11A81ED8A
:103F7000021A70BD00000000284402580090D003CF
:103F80000000004600093D0040787D012DE9F04128
:103F9000044600250026206800F00060B0F1006FA4
:103FA00030D1606E48B1B0F5801F0DD0B0F5001F64
:103FB00010D0B0F5401F15D113E0F948006840F467
:103FC0000030F74908600FE00221201D06F0BAFB1F
:103FD000054609E0022104F1240006F04BFC0546E9
:103FE00002E001E0012500BF00BF55B9EC482430D4
:103FF000006820F44010616E0843E94924310860EC
:1040000000E02E43208800F48070B0F5807F2DD131
:10401000606D05281AD2DFE800F0030A10171800B7
:10402000DF48006840F40030DD49086010E00021FE
:10403000201D06F087FB05460AE0002104F124005C
:1040400006F018FC054603E002E001E0012500BF90
:1040500000BF55B9D2482430006820F00700616DD8
:104060000843CF492431086000E02E43208800F443
:104070000070B0F5007F33D1A06D802817D003DC2D
:1040800040B140281CD10CE0C02817D0B0F5807F8B
:1040900016D114E0C248006840F40030C0490860FE
:1040A00010E00021201D06F04DFB05460AE000212E
:1040B00004F1240006F0DEFB054603E002E001E027
:1040C000012500BF00BF55B9B5482430006820F471
:1040D000E070A16D0843B2492431086000E02E432E
:1040E000208800F48060B0F5806F38D1D4F8A40047
:1040F000B0F5800F19D004DC50B1B0F5001F1DD110
:104100000DE0B0F5C00F17D0B0F5000F16D114E0D8
:10411000A348006840F40030A149086010E0002185
:10412000201D06F00FFB05460AE0002104F12400E3
:1041300006F0A0FB054603E002E001E0012500BF18
:1041400000BF5DB996482C30006820F46000D4F8B8
:10415000A410084392492C31086000E02E432088C7
:1041600000F40060B0F5006F38D1D4F8A800B0F1C9
:10417000007F19D004DC50B1B0F1807F1DD10DE07B
:10418000B0F1407F17D0B0F1806F16D114E08448B1
:10419000006840F400308249086010E00021201DD2
:1041A00006F0D0FA05460AE0002104F1240006F0EA
:1041B00061FB054603E002E001E0012500BF00BF0E
:1041C0005DB977482C30006820F0E060D4F8A81082
:1041D000084373492C31086000E02E43206800F04A
:1041E0000070B0F1007F27D1A06CA0B1102804D0DE
:1041F000202809D030280FD10CE06948006840F42D
:1042000000306749086009E00221201D06F09AFA93
:10421000054603E002E001E0012500BF00BF55B9FB
:104220005F482030006820F03000A16C08435C49F2
:104230002031086000E02E43208800F48050B0F563
:10424000805F36D1E06DB0F5005F19D004DC50B16D
:10425000B0F5805F1DD10DE0B0F5405F17D0B0F52F
:10426000804F16D114E04E48006840F400304C49AD
:10427000086010E00021201D06F064FA05460AE0FF
:10428000002104F1240006F0F5FA054603E002E0FF
:1042900001E0012500BF00BF55B941482430006846
:1042A00020F4E040E16D08433D492431086000E01E
:1042B0002E43208800F40050B0F5005F34D1206E0A
:1042C000B0F5403F1DD007DC68B1B0F5803F0BD0A2
:1042D000B0F5003F18D10DE0B0F5802F12D0B0F549
:1042E000A02F11D10FE011E00121201D06F02AFAC4
:1042F00005460BE0012104F1240006F0BBFA054657
:1043000004E003E002E001E0012500BF00BF55B971
:1043100023482430006820F4E020216E084320491F
:104320002431086000E02E43208800F48040B0F57E
:10433000804F38D1D4F8AC00B0F1405F1DD007DC1D
:1043400068B1B0F1805F0BD0B0F1005F18D10DE023
:10435000B0F1804F12D0B0F1A04F11D10FE011E0B9
:104360000121201D06F0EEF905460BE0012104F1C4
:10437000240006F07FFA054604E003E002E001E0D5
:10438000012500BF00BF6DB905482C30006820F042
:10439000E040D4F8AC10084301492C31086002E039
:1043A0002C4402582E43208800F40040B0F5004F02
:1043B00026D1E06E98B1B0F1805F03D0B0F1005F1C
:1043C0000ED106E0FA48006840F40030F849086071
:1043D00008E00121201D06F0B5F9054602E001E0E4
:1043E000012500BF00BF55B9F1482430006820F016
:1043F0004050E16E0843EE492431086000E02E434E
:10440000206800F08070B0F1807F27D1606CA0B18F
:10441000012804D0022809D003280FD10CE0E44879
:10442000006840F40030E249086009E00221201DE4
:1044300006F088F9054603E002E001E0012500BF2F
:1044400000BF55B9DA482030006820F00300616CE5
:104450000843D7492031086000E02E43206800F46B
:104460008000B0F5800F7DD1D248006840F48070A4
:10447000D0490860FEF7B0FF074606E0FEF7ACFF44
:10448000C01B642801D9032505E0CA48006800F470
:1044900080700028F2D000BF8DBBC5484430006852
:1044A00000F44070B4F8B01001F44071884214D0A8
:1044B000BF484430006820F44078BD48443000686C
:1044C00040F48030BA49443108600846006820F45E
:1044D000803008600846C0F80080D4F8B000B0F51D
:1044E000807F15D1FEF778FF074609E0FEF774FFDD
:1044F000C01B41F28831884202D9032507E038E029
:10450000AB4844300068C0F340000028EED000BF44
:104510004DBB00BFB4F8B00000F44070B0F5407F70
:104520000ED1A3481C38006820F47C51A24AD4F86C
:10453000B000104041EA10109D491C39086007E0A6
:104540009B481C38006820F47C5099491C3908604D
:10455000974844300068B4F8B010C1F30B01084329
:10456000934901E006E002E04431086002E02E4396
:1045700000E02E43207800F0010068B3A06F1828F7
:1045800019D005DC48B1082808D0102816D10BE056
:10459000202811D0282811D10FE011E00121201D81
:1045A00006F0D0F805460BE0012104F1240006F0E6
:1045B00061F9054604E003E002E001E0012500BFE7
:1045C00000BF55B97A482830006820F03800A16F44
:1045D000084377492831086000E02E43207800F036
:1045E0000200022828D1606F062815D2DFE800F00B
:1045F00003040A11121311E00121201D06F0A2F894
:1046000005460BE0012104F1240006F033F90546CC
:1046100004E003E002E001E0012500BF00BF55B95E
:1046200063482830006820F00700616F0843604944
:104630002831086000E02E43207800F004000428B0
:104640002AD1D4F89000062815D2DFE800F0030440
:104650000A11121311E00121201D06F073F805461E
:104660000BE0012104F1240006F004F9054604E002
:1046700003E002E001E0012500BF00BF5DB94C4846
:104680002C30006820F00700D4F890100843484907
:104690002C31086000E02E43207800F02000202814
:1046A00036D1D4F88C00B0F1405F1DD007DC68B182
:1046B000B0F1805F0BD0B0F1005F18D10DE0B0F128
:1046C000804F12D0B0F1A04F11D10FE011E00021C6
:1046D000201D06F037F805460BE0022104F1240006
:1046E00006F0C8F8054604E003E002E001E0012519
:1046F00000BF00BF5DB92E482830006820F0E040C0
:10470000D4F88C1008432A492831086000E02E4371
:10471000207800F04000402836D1D4F89800B0F559
:10472000406F1DD007DC68B1B0F5806F0BD0B0F5DD
:10473000006F18D10DE0B0F5805F12D0B0F5A05F2A
:1047400011D10FE011E00021201D05F0FBFF05460F
:104750000BE0022104F1240006F08CF8054604E089
:1047600003E002E001E0012500BF00BF5DB9104891
:104770002C30006820F4E050D4F8981008430C491D
:104780002C31086000E02E43207800F08000802863
:104790003BD1D4F89C00B0F5C04F24D00EDCA0B1C2
:1047A000B0F5005F12D0B0F5804F1FD114E00000CB
:1047B0002C44025800480258FFFCFF0FB0F5004F90
:1047C00012D0B0F5204F11D10FE011E00021201DD3
:1047D00005F0B8FF05460BE0022104F1240006F0C5
:1047E00049F8054604E003E002E001E0012500BFCE
:1047F00000BF4DB9B248006820F46040D4F89C1066
:104800000843AF49086000E02E43207800F008001C
:10481000082816D1D4F88000B0F5805F06D10221B7
:1048200004F1240006F026F806430AE0A448001F1D
:10483000006820F44050D4F880100843A049091FB4
:104840000860207800F01000102814D1D4F89400EB
:10485000B0F5807F06D1022104F1240006F00AF8A9
:10486000064308E09648006820F44070D4F894109D
:10487000084393490860206800F40020B0F5002F39
:1048800026D1D4F8A00030B1B0F5803F09D0B0F502
:10489000003F0ED10CE00021201D05F053FF05461E
:1048A00009E0022104F1240005F0E4FF054602E0DE
:1048B00001E0012500BF00BF4DB98148006820F428
:1048C0004030D4F8A01008437D49086000E02E4332
:1048D000206800F48020B0F5802F2DD1D4F884001A
:1048E000B0F5801F06D0B0F5001F0CD0B0F5401F0A
:1048F00011D10FE072482C38006840F40030704944
:104900002C39086009E0012104F1240005F0B2FF10
:10491000054602E001E0012500BF00BF5DB968481F
:10492000001F006820F44010D4F884100843644944
:10493000091F086000E02E43206800F48030B0F5C5
:10494000803F24D1E06C18B1B0F5803F0FD108E072
:104950005B482C38006840F4003059492C39086015
:1049600007E00221201D05F0EDFE054601E00125CE
:1049700000BF00BF55B952480C38006820F48030A1
:10498000E16C08434E490C39086000E02E43206872
:1049900000F00050B0F1005F05D1022104F12400C5
:1049A00005F068FF0643206800F40030B0F5003FD2
:1049B00027D1E06FA0B1B0F5807F06D0B0F5007FC1
:1049C0000CD0B0F5407F0CD109E03D482C38006890
:1049D00040F400303A492C39086004E003E002E07A
:1049E00001E0012500BF00BF55B93548001F006830
:1049F00020F44070E16F08433149091F086000E06E
:104A00002E43206800F48010B0F5801F09D12C4897
:104A10000838006820F00040216F08432849083911
:104A20000860206800F08050B0F1805F0AD124480F
:104A30004838006820F48040D4F8B4100843204976
:104A400048390860206800F40010B0F5001F09D153
:104A50001B480838006820F08070A16E0843184990
:104A600008390860206800F08040B0F1804F11D113
:104A700000BF13484838006820F400401049483906
:104A8000086008460068D4F8B81008430C49483953
:104A9000086000BF206800F00040B0F1004F09D16D
:104AA00007480C38006820F04050216D0843044945
:104AB0000C39086016B90020BDE8F0810120FBE741
:104AC0005844025870B504460D4600268D480068CB
:104AD00000F00700A8420ED28A48006820F00700C4
:104AE0002843884908600846006800F00700A8428B
:104AF00001D0012070BD207800F00200022807D10B
:104B00008148006820F00F00E16808437E49086092
:104B1000207800F00100002851D07B48006820F484
:104B20007060A1680843784908606068022807D16E
:104B3000754818380068C0F34040F8B90120D9E73B
:104B40006068032807D1704818380068C0F34060D7
:104B5000A0B90120CEE76068012807D16A4818385B
:104B60000068C0F3002048B90120C3E76648183840
:104B70000068C0F3800008B90120BBE7624808382C
:104B8000006820F00700616808435F490839086041
:104B9000FEF722FC06466068022811D108E0FEF705
:104BA0001BFC801B41F28831884201D90320A1E718
:104BB00055480838006800F038001028EFD13AE076
:104BC0006068032811D108E0FEF706FC801B41F263
:104BD0008831884201D903208CE74B4808380068A7
:104BE00000F038001828EFD125E06068012811D1C5
:104BF00008E0FEF7F1FB801B41F28831884201D9C1
:104C0000032077E740480838006800F0380008289B
:104C1000EFD110E008E0FEF7DFFB801B41F28831A6
:104C2000884201D9032065E737480838006800F05A
:104C300038000028EFD13348006800F00700A84290
:104C40000ED93048006820F0070028432D4908603D
:104C50000846006800F00700A84201D0012049E79B
:104C6000207800F00400042807D12748006820F0CD
:104C700070002169084324490860207800F008008A
:104C8000082809D12048001D006820F070006169E3
:104C900008431D49091D0860207800F01000102805
:104CA00009D11948001D006820F4E060A16908439B
:104CB0001549091D0860207800F02000202809D13E
:104CC00011480830006820F07000E16908430E497F
:104CD0000831086000F066F80B49096801F470615A
:104CE0004FF4807292FAA2F2B2FA82F2D140074AED
:104CF000515CC840064908600F20FEF78DFB00207C
:104D0000F8E60000002000521844025894D700082A
:104D10000400002410B5FEF7DBFE0949096801F024
:104D20000F01012292FAA2F2B2FA82F2D140054AB0
:104D3000515CC840044908600846006810BD000086
:104D40001844025894D700080800002410B5FFF753
:104D5000E1FF0749096801F07001102292FAA2F2FE
:104D6000B2FA82F2D140034A515CC84010BD000043
:104D70001C44025894D7000810B5FFF7CBFF074931
:104D8000096801F4E0614FF4807292FAA2F2B2FA7B
:104D900082F2D140024A515CC84010BD1C44025806
:104DA00094D7000870B5012500EE905A0022012129
:104DB00000230024DFED861AB0EE610ADFED841ACD
:104DC000B0EE611A0020834D2D6805F0380535B12D
:104DD000082D15D0102D15D0182D7CD114E07D4D47
:104DE000103D2D68C5F3401545B17A4D103D2D6835
:104DF000C5F3C106784D25FA06F000E07648E5E0F7
:104E00007648E3E07648E1E0724D18352D6805F00C
:104E10000302704D18352D68C5F305116D4D1C3515
:104E20002D6805F001036B4D24352D68C5F3CC05C5
:104E300015FB03F501EE905AF8EE611AB0EE610A27
:104E400022B1012A4FD0022A7DD16BE0614D103D85
:104E50002D68C5F340152DB35E4D103D2D68C5F38B
:104E6000C1065D4D25FA06F4B4FBF1F501EE905A4A
:104E7000B8EE612ADFED5B1AC0EE212A554D2035D0
:104E80002D68C5F3080501EE905AF8EE611A72EE2E
:104E9000A11AF7EE002A71EEA21A62EE211AB0EE04
:104EA000611A1FE04C4DB5FBF1F501EE905AB8EEDA
:104EB000612ADFED4C1AC0EE212A464D20352D68BF
:104EC000C5F3080501EE905AF8EE611A72EEA11AC8
:104ED000F7EE002A00E077E071EEA21A62EE211AE6
:104EE000B0EE611A5EE03D4DB5FBF1F501EE905A72
:104EF000B8EE612ADFED3B1AC0EE212A354D203590
:104F00002D68C5F3080501EE905AF8EE611A72EEAD
:104F1000A11AF7EE002A71EEA21A62EE211AB0EE83
:104F2000611A3FE02E4DB5FBF1F501EE905AB8EE57
:104F3000612ADFED2C1AC0EE212A264D20352D687E
:104F4000C5F3080500E00EE001EE905AF8EE611A94
:104F500072EEA11AF7EE002A71EEA21A62EE211A81
:104F6000B0EE611A1EE01D4DB5FBF1F501EE905A51
:104F7000F8EE612ADFED1B1A80EE212A154D20354F
:104F80002D68C5F3080501EE905AF8EE611A72EE2D
:104F9000211AB7EE002A71EE821A62EEA11AB0EE63
:104FA000611A00BF00BF0B4D20352D68C5F34625A3
:104FB0006D1C00EE905AF8EE601A81EE212AFCEE8C
:104FC000C21A11EE900A01E0044800BF00BF70BD94
:104FD00000000000104402580090D00300093D007A
:104FE00040787D010000004670B504460025207819
:104FF00000F00100002872D0F948006800F0380085
:1050000010280CD0F648006800F03800182812D19B
:10501000F3481830006800F0030002280BD1F04874
:1050200010380068C0F3404000286DD06068002848
:105030006AD1012070BD00BF6068B0F5803F08D123
:10504000E7481038006840F48030E54910390860BE
:105050002EE0606868B9E2481038006820F48030BB
:10506000DF49103908600846006820F48020086095
:105070001EE06068B0F5A02F0DD1D9481038006847
:1050800040F48020D649103908600846006840F492
:10509000803008600CE0D2481038006820F480307E
:1050A000CF49103908600846006820F48020086065
:1050B00000BF6068A0B1FEF78FF9054608E0FEF773
:1050C0008BF9401B41F28831884201D90320B1E7B6
:1050D000C34810380068C0F340400028EFD013E008
:1050E000FEF77AF9054608E0FEF776F9401B41F233
:1050F0008831884201D903209CE7B94810380068FC
:10510000C0F340400028EFD1207800F002000228D0
:1051100047D1B348006800F0380058B1B048006883
:1051200000F0380018283ED1AD481830006800F073
:105130000300B8BBAA4810380068C0F3800018B15B
:10514000E06808B9012075E7A5481038006820F02C
:105150001900E1680843A24910390860FEF73CF9DC
:10516000054606E0FEF738F9401B022801D9032066
:1051700060E79B4810380068C0F380000028F1D039
:1051800097480C38006820F47C304FF47C3292FA57
:10519000A2F2B2FA82F221699140084390490C3997
:1051A00008604AE0FFE7E06868B38D48103800689F
:1051B00020F01900E1680843894910390860FEF7BA
:1051C0000BF9054606E0FEF707F9401B022801D956
:1051D00003202FE7824810380068C0F380000028C1
:1051E000F1D07F480C38006820F47C304FF47C32DA
:1051F00092FAA2F2B2FA82F2216991400843784908
:105200000C39086019E076481038006820F0010079
:10521000734910390860FEF7DFF8054606E0FEF72F
:10522000DBF8401B022801D9032003E76C48103843
:105230000068C0F380000028F1D1207800F0100051
:10524000102877D16648006800F0380008280CD094
:105250006348006800F03800182823D160481830EF
:10526000006800F0030001281CD15D481038006878
:10527000C0F3002020B1E069802801D00120D9E6E8
:1052800057480C38006820F0F8404FF0F84292FA86
:10529000A2F2B2FA82F2216A9140084350490C39D5
:1052A000086047E0E06958B34D481038006840F0A6
:1052B00080004B4910390860FEF78EF8054606E07D
:1052C000FEF78AF8401B022801D90320B2E64448C1
:1052D00010380068C0F300200028F1D040480C3896
:1052E000006820F0F8404FF0F84292FAA2F2B2FAC9
:1052F00082F2216A9140084339490C39086019E06B
:1053000037481038006820F08000354910390860AF
:10531000FEF762F8054606E0FEF75EF8401B02283D
:1053200001D9032086E62E4810380068C0F300201B
:105330000028F1D1207800F00800082836D16069F3
:10534000D0B127486430006840F00100244964313E
:105350000860FEF741F8054606E0FEF73DF8401B01
:10536000022801D9032065E61D4864300068C0F3B7
:1053700040000028F1D019E019486430006820F09E
:105380000100174964310860FEF726F8054606E07B
:10539000FEF722F8401B022801D903204AE61048F4
:1053A00064300068C0F340000028F1D1207800F09C
:1053B0002000202834D1A069D8B1094810380068ED
:1053C00040F48050064910390860FEF705F805469C
:1053D00008E0FEF701F8401B022803D9032029E664
:1053E00010440258AF480068C0F340300028F0D0A5
:1053F00016E0AC48006820F48050AA490860FDF728
:10540000EBFF054606E0FDF7E7FF401B022801D948
:1054100003200FE6A3480068C0F340300028F2D113
:10542000207800F0040004287DD19F48006840F4F3
:1054300080709D490860FDF7CFFF054606E0FDF747
:10544000CBFF401B642801D90320F3E59648006890
:1054500000F480700028F2D000BFA068012808D1B5
:1054600090487030006840F001008E49703108604B
:105470002DE0A06868B98B487030006820F001000A
:105480008849703108600846006820F00400086010
:105490001DE0A06805280DD182487030006840F0FA
:1054A00004008049703108600846006840F001003F
:1054B00008600CE07B487030006820F001007949FA
:1054C000703108600846006820F00400086000BFE2
:1054D000A068A0B1FDF780FF054608E0FDF77CFF5E
:1054E000401B41F28831884201D90320A2E56D4872
:1054F00070300068C0F340000028EFD013E0FDF7E3
:105500006BFF054608E0FDF767FF401B41F288315D
:10551000884201D903208DE5624870300068C0F3ED
:1055200040000028EFD1606A00287CD05D48103030
:10553000006800F03800182876D0606A022874D11C
:105540005848006820F0807056490860FDF744FF15
:10555000054606E0FDF740FF401B022801D9032065
:1055600068E550480068C0F340600028F2D100BFF1
:10557000D4E90A1041EA00104A492831096840F28A
:10558000F33291430843474928310860208E401E7A
:10559000C0F30800616B491E4FF47E4202EA4121CC
:1055A0000843218F491ED20102EA014108433C21F0
:1055B000095D491E120202EA01610843394930318E
:1055C000086000BF081D00684FF6F87188434FF669
:1055D000F87292FAA2F2B2FA82F2A16C91400843F8
:1055E0003049343108602F482C30006820F00C001E
:1055F000216C08432B492C3108600846006820F0D4
:105600000200616C084327492C3108600846006895
:1056100040F4803008600846006840F400300860BC
:105620000846006802E03BE038E01FE040F48020DC
:1056300008600846006840F00100086019480068EA
:1056400040F0807017490860FDF7C6FE054606E089
:10565000FDF7C2FE401B022801D90320EAE41148ED
:105660000068C0F340600028F2D019E00D480068DF
:1056700020F080700B490860FDF7AEFE054606E09D
:10568000FDF7AAFE401B022801D90320D2E40548F9
:105690000068C0F340600028F2D101E00120C9E4B5
:1056A0000020C7E4004402580048025870B5044680
:1056B0000D460CB9012070BD94F82C0028B90020CB
:1056C00084F82D00204600F019F8022084F82C0000
:1056D000211D2068FCF785FF2946D4E90002FCF76C
:1056E000D5FF0548006840F00040034908600120EC
:1056F00084F82C000020DEE70040005210B586B090
:10570000044600BF4648006840F002004449086073
:105710000846006800F00200009000BF00BF00BF14
:105720003F482038006840F480503D4920390860E7
:105730000846006800F48050009000BF00BF00BF22
:1057400037481438006840F00400354914390860BF
:105750000846006800F00400009000BF00BF00BFD2
:105760000846006840F0080008600846006800F03D
:105770000800009000BF00BF00BF0846006840F06E
:10578000100008600846006800F01000009000BF9C
:1057900000BF00BF0846006840F0200008600846CF
:1057A000006800F02000009000BF00BF00BF084666
:1057B000006840F0400008600846006800F04000C3
:1057C000009000BF00BF0D20019002200290012038
:1057D0000390032004900C20059001A91148FDF7C7
:1057E000C3FC4CF20370019001A90F48FDF7BCFC0B
:1057F0004FF68370019001A90C48FDF7B5FC4FF6F8
:105800003F00019001A90A48FDF7AEFC48F23710AD
:10581000019001A90748FDF7A7FC06B010BD0000E4
:10582000F444025800080258000C025800100258B4
:10583000001402580018025870B504460D4694F83A
:105840002C00022800D170BD022084F82C002946CB
:105850002068FCF700FF012084F82C000020F2E70C
:1058600070B504460D46164694F82C00022800D167
:1058700070BD022084F82C00324629462068FCF7CF
:10588000F1FE2868022803D1052084F82C0002E0EC
:10589000012084F82C000020EAE7000070B50446DF
:1058A0000E4615460CB9012070BD94F8450028B984
:1058B000002084F84400204600F024F804F1080198
:1058C0002068FCF71FFE3146A2682068FCF75AFEEC
:1058D0002946E36AD4E90102FCF7F0FDA1682068DB
:1058E00050F8210040F00100A268216841F8220030
:1058F0000348006840F00040014908600020D3E7F9
:105900000040005210B586B0044600BF2048006831
:1059100040F480501E4908600846006800F480503A
:10592000009000BF00BF00BF19480C30006840F075
:10593000080017490C3108600846006800F00800AC
:10594000009000BF00BF00BF0846006840F0100094
:1059500008600846006800F01000009000BF00BF1B
:105960004EF2B370019002200290012003900320B8
:1059700004900C20059001A90648FDF7F5FB4FF6B1
:105980008070019001A90448FDF7EEFB06B010BD40
:10599000D4440258000C025800100258042808D1C0
:1059A0004FF0E021096941F004014FF0E02211615C
:1059B00007E04FF0E021096921F004014FF0E022F7
:1059C0001161704770B504462546681EB0F1807FAE
:1059D00001D301200FE0681E4FF0E02148610F2144
:1059E0004FF0FF3006F040F900204FF0E0218861D1
:1059F00007200861002070BD7047704710B504464D
:105A00000CB9012010BD94F83D0028B9002084F89D
:105A10003C00204600F00CF8022084F83D00211DD7
:105A2000206805F0D9F9012084F83D000020E9E75D
:105A300038B5044600BF0B48006840F00200094931
:105A400008600846006800F00200009000BF00BF38
:105A5000032201211D20FDF7E9FF1D20FDF7D6FFE0
:105A600038BD0000E844025801460868C06840F0AC
:105A700001000A68D0600868008840F001000A68E8
:105A8000108000207047704710B5044620680069F8
:105A9000C0F34000D8B12068C068C0F34000B0B186
:105AA0006FF002002168086101202077206880697A
:105AB00000F0030018B12046FFF7E5FF05E020469F
:105AC00000F0BEF8204600F0BCF8002020772068E7
:105AD0000069C0F38000D8B12068C068C0F38000BE
